{
	"Voting.sol": {
		"Voting": {
			"abi": [
				{
					"inputs": [],
					"stateMutability": "nonpayable",
					"type": "constructor"
				},
				{
					"inputs": [
						{
							"internalType": "string",
							"name": "str",
							"type": "string"
						}
					],
					"name": "RevertString",
					"outputs": [
						{
							"internalType": "string",
							"name": "",
							"type": "string"
						}
					],
					"stateMutability": "pure",
					"type": "function"
				},
				{
					"inputs": [
						{
							"internalType": "string",
							"name": "name",
							"type": "string"
						}
					],
					"name": "getVotes",
					"outputs": [
						{
							"internalType": "int256",
							"name": "",
							"type": "int256"
						}
					],
					"stateMutability": "view",
					"type": "function"
				},
				{
					"inputs": [
						{
							"internalType": "uint256",
							"name": "",
							"type": "uint256"
						}
					],
					"name": "keys",
					"outputs": [
						{
							"internalType": "string",
							"name": "",
							"type": "string"
						}
					],
					"stateMutability": "view",
					"type": "function"
				},
				{
					"inputs": [
						{
							"internalType": "bytes1",
							"name": "",
							"type": "bytes1"
						}
					],
					"name": "map",
					"outputs": [
						{
							"internalType": "uint256",
							"name": "",
							"type": "uint256"
						}
					],
					"stateMutability": "view",
					"type": "function"
				},
				{
					"inputs": [],
					"name": "resetVotes",
					"outputs": [],
					"stateMutability": "nonpayable",
					"type": "function"
				},
				{
					"inputs": [
						{
							"internalType": "string",
							"name": "s",
							"type": "string"
						}
					],
					"name": "romanToInt",
					"outputs": [
						{
							"internalType": "uint256",
							"name": "",
							"type": "uint256"
						}
					],
					"stateMutability": "view",
					"type": "function"
				},
				{
					"inputs": [
						{
							"internalType": "string",
							"name": "",
							"type": "string"
						}
					],
					"name": "senderMap",
					"outputs": [
						{
							"internalType": "int256",
							"name": "",
							"type": "int256"
						}
					],
					"stateMutability": "view",
					"type": "function"
				},
				{
					"inputs": [
						{
							"internalType": "string",
							"name": "name",
							"type": "string"
						}
					],
					"name": "vote",
					"outputs": [
						{
							"internalType": "bool",
							"name": "",
							"type": "bool"
						}
					],
					"stateMutability": "nonpayable",
					"type": "function"
				}
			],
			"devdoc": {
				"kind": "dev",
				"methods": {},
				"version": 1
			},
			"evm": {
				"assembly": "    /* \"Voting.sol\":62:1972  contract Voting {... */\n  mstore(0x40, 0x80)\n    /* \"Voting.sol\":1149:1340  constructor(){... */\n  callvalue\n  dup1\n  iszero\n  tag_1\n  jumpi\n  revert(0x00, 0x00)\ntag_1:\n  pop\n    /* \"Voting.sol\":1184:1185  1 */\n  0x01\n    /* \"Voting.sol\":1173:1176  map */\n  0x02\n    /* \"Voting.sol\":1173:1181  map[\"I\"] */\n  0x00\n  and(not(0xffffffffffffffffffffffffffffffffffffffffffffffffffffffffffffff), 0x4900000000000000000000000000000000000000000000000000000000000000)\n  dup2\n  mstore\n  0x20\n  add\n  swap1\n  dup2\n  mstore\n  0x20\n  add\n  0x00\n  keccak256\n    /* \"Voting.sol\":1173:1185  map[\"I\"] = 1 */\n  dup2\n  swap1\n  sstore\n  pop\n    /* \"Voting.sol\":1207:1208  5 */\n  0x05\n    /* \"Voting.sol\":1196:1199  map */\n  0x02\n    /* \"Voting.sol\":1196:1204  map[\"V\"] */\n  0x00\n  and(not(0xffffffffffffffffffffffffffffffffffffffffffffffffffffffffffffff), 0x5600000000000000000000000000000000000000000000000000000000000000)\n  dup2\n  mstore\n  0x20\n  add\n  swap1\n  dup2\n  mstore\n  0x20\n  add\n  0x00\n  keccak256\n    /* \"Voting.sol\":1196:1208  map[\"V\"] = 5 */\n  dup2\n  swap1\n  sstore\n  pop\n    /* \"Voting.sol\":1230:1232  10 */\n  0x0a\n    /* \"Voting.sol\":1219:1222  map */\n  0x02\n    /* \"Voting.sol\":1219:1227  map[\"X\"] */\n  0x00\n  and(not(0xffffffffffffffffffffffffffffffffffffffffffffffffffffffffffffff), 0x5800000000000000000000000000000000000000000000000000000000000000)\n  dup2\n  mstore\n  0x20\n  add\n  swap1\n  dup2\n  mstore\n  0x20\n  add\n  0x00\n  keccak256\n    /* \"Voting.sol\":1219:1232  map[\"X\"] = 10 */\n  dup2\n  swap1\n  sstore\n  pop\n    /* \"Voting.sol\":1254:1256  50 */\n  0x32\n    /* \"Voting.sol\":1243:1246  map */\n  0x02\n    /* \"Voting.sol\":1243:1251  map[\"L\"] */\n  0x00\n  and(not(0xffffffffffffffffffffffffffffffffffffffffffffffffffffffffffffff), 0x4c00000000000000000000000000000000000000000000000000000000000000)\n  dup2\n  mstore\n  0x20\n  add\n  swap1\n  dup2\n  mstore\n  0x20\n  add\n  0x00\n  keccak256\n    /* \"Voting.sol\":1243:1256  map[\"L\"] = 50 */\n  dup2\n  swap1\n  sstore\n  pop\n    /* \"Voting.sol\":1278:1281  100 */\n  0x64\n    /* \"Voting.sol\":1267:1270  map */\n  0x02\n    /* \"Voting.sol\":1267:1275  map[\"C\"] */\n  0x00\n  and(not(0xffffffffffffffffffffffffffffffffffffffffffffffffffffffffffffff), 0x4300000000000000000000000000000000000000000000000000000000000000)\n  dup2\n  mstore\n  0x20\n  add\n  swap1\n  dup2\n  mstore\n  0x20\n  add\n  0x00\n  keccak256\n    /* \"Voting.sol\":1267:1281  map[\"C\"] = 100 */\n  dup2\n  swap1\n  sstore\n  pop\n    /* \"Voting.sol\":1303:1306  500 */\n  0x01f4\n    /* \"Voting.sol\":1292:1295  map */\n  0x02\n    /* \"Voting.sol\":1292:1300  map[\"D\"] */\n  0x00\n  and(not(0xffffffffffffffffffffffffffffffffffffffffffffffffffffffffffffff), 0x4400000000000000000000000000000000000000000000000000000000000000)\n  dup2\n  mstore\n  0x20\n  add\n  swap1\n  dup2\n  mstore\n  0x20\n  add\n  0x00\n  keccak256\n    /* \"Voting.sol\":1292:1306  map[\"D\"] = 500 */\n  dup2\n  swap1\n  sstore\n  pop\n    /* \"Voting.sol\":1328:1332  1000 */\n  0x03e8\n    /* \"Voting.sol\":1317:1320  map */\n  0x02\n    /* \"Voting.sol\":1317:1325  map[\"M\"] */\n  0x00\n  and(not(0xffffffffffffffffffffffffffffffffffffffffffffffffffffffffffffff), 0x4d00000000000000000000000000000000000000000000000000000000000000)\n  dup2\n  mstore\n  0x20\n  add\n  swap1\n  dup2\n  mstore\n  0x20\n  add\n  0x00\n  keccak256\n    /* \"Voting.sol\":1317:1332  map[\"M\"] = 1000 */\n  dup2\n  swap1\n  sstore\n  pop\n    /* \"Voting.sol\":62:1972  contract Voting {... */\n  dataSize(sub_0)\n  dup1\n  dataOffset(sub_0)\n  0x00\n  codecopy\n  0x00\n  return\nstop\n\nsub_0: assembly {\n        /* \"Voting.sol\":62:1972  contract Voting {... */\n      mstore(0x40, 0x80)\n      callvalue\n      dup1\n      iszero\n      tag_1\n      jumpi\n      revert(0x00, 0x00)\n    tag_1:\n      pop\n      jumpi(tag_2, lt(calldatasize, 0x04))\n      shr(0xe0, calldataload(0x00))\n      dup1\n      0xb9830ff1\n      gt\n      tag_11\n      jumpi\n      dup1\n      0xb9830ff1\n      eq\n      tag_7\n      jumpi\n      dup1\n      0xcb159dfe\n      eq\n      tag_8\n      jumpi\n      dup1\n      0xe702f6b9\n      eq\n      tag_9\n      jumpi\n      dup1\n      0xfc36e15b\n      eq\n      tag_10\n      jumpi\n      jump(tag_2)\n    tag_11:\n      dup1\n      0x0cb6aaf1\n      eq\n      tag_3\n      jumpi\n      dup1\n      0x2cfea327\n      eq\n      tag_4\n      jumpi\n      dup1\n      0x805265e5\n      eq\n      tag_5\n      jumpi\n      dup1\n      0x9135a958\n      eq\n      tag_6\n      jumpi\n    tag_2:\n      revert(0x00, 0x00)\n        /* \"Voting.sol\":140:160  string[] public keys */\n    tag_3:\n      tag_12\n      0x04\n      dup1\n      calldatasize\n      sub\n      dup2\n      add\n      swap1\n      tag_13\n      swap2\n      swap1\n      tag_14\n      jump\t// in\n    tag_13:\n      tag_15\n      jump\t// in\n    tag_12:\n      mload(0x40)\n      tag_16\n      swap2\n      swap1\n      tag_17\n      jump\t// in\n    tag_16:\n      mload(0x40)\n      dup1\n      swap2\n      sub\n      swap1\n      return\n        /* \"Voting.sol\":91:133  mapping(string => int256) public senderMap */\n    tag_4:\n      tag_18\n      0x04\n      dup1\n      calldatasize\n      sub\n      dup2\n      add\n      swap1\n      tag_19\n      swap2\n      swap1\n      tag_20\n      jump\t// in\n    tag_19:\n      tag_21\n      jump\t// in\n    tag_18:\n      mload(0x40)\n      tag_22\n      swap2\n      swap1\n      tag_23\n      jump\t// in\n    tag_22:\n      mload(0x40)\n      dup1\n      swap2\n      sub\n      swap1\n      return\n        /* \"Voting.sol\":369:477  function getVotes(string memory name) public view returns (int256) {... */\n    tag_5:\n      tag_24\n      0x04\n      dup1\n      calldatasize\n      sub\n      dup2\n      add\n      swap1\n      tag_25\n      swap2\n      swap1\n      tag_20\n      jump\t// in\n    tag_25:\n      tag_26\n      jump\t// in\n    tag_24:\n      mload(0x40)\n      tag_27\n      swap2\n      swap1\n      tag_23\n      jump\t// in\n    tag_27:\n      mload(0x40)\n      dup1\n      swap2\n      sub\n      swap1\n      return\n        /* \"Voting.sol\":1107:1141  mapping(bytes1=>uint256)public map */\n    tag_6:\n      tag_28\n      0x04\n      dup1\n      calldatasize\n      sub\n      dup2\n      add\n      swap1\n      tag_29\n      swap2\n      swap1\n      tag_30\n      jump\t// in\n    tag_29:\n      tag_31\n      jump\t// in\n    tag_28:\n      mload(0x40)\n      tag_32\n      swap2\n      swap1\n      tag_33\n      jump\t// in\n    tag_32:\n      mload(0x40)\n      dup1\n      swap2\n      sub\n      swap1\n      return\n        /* \"Voting.sol\":485:659  function resetVotes() public {... */\n    tag_7:\n      tag_34\n      tag_35\n      jump\t// in\n    tag_34:\n      stop\n        /* \"Voting.sol\":1346:1957  function romanToInt(string memory s) public view returns(uint) {... */\n    tag_8:\n      tag_36\n      0x04\n      dup1\n      calldatasize\n      sub\n      dup2\n      add\n      swap1\n      tag_37\n      swap2\n      swap1\n      tag_20\n      jump\t// in\n    tag_37:\n      tag_38\n      jump\t// in\n    tag_36:\n      mload(0x40)\n      tag_39\n      swap2\n      swap1\n      tag_33\n      jump\t// in\n    tag_39:\n      mload(0x40)\n      dup1\n      swap2\n      sub\n      swap1\n      return\n        /* \"Voting.sol\":667:1101  function RevertString(string memory str) public pure returns(string memory) {... */\n    tag_9:\n      tag_40\n      0x04\n      dup1\n      calldatasize\n      sub\n      dup2\n      add\n      swap1\n      tag_41\n      swap2\n      swap1\n      tag_20\n      jump\t// in\n    tag_41:\n      tag_42\n      jump\t// in\n    tag_40:\n      mload(0x40)\n      tag_43\n      swap2\n      swap1\n      tag_17\n      jump\t// in\n    tag_43:\n      mload(0x40)\n      dup1\n      swap2\n      sub\n      swap1\n      return\n        /* \"Voting.sol\":169:361  function vote (string memory name) public returns(bool){... */\n    tag_10:\n      tag_44\n      0x04\n      dup1\n      calldatasize\n      sub\n      dup2\n      add\n      swap1\n      tag_45\n      swap2\n      swap1\n      tag_20\n      jump\t// in\n    tag_45:\n      tag_46\n      jump\t// in\n    tag_44:\n      mload(0x40)\n      tag_47\n      swap2\n      swap1\n      tag_48\n      jump\t// in\n    tag_47:\n      mload(0x40)\n      dup1\n      swap2\n      sub\n      swap1\n      return\n        /* \"Voting.sol\":140:160  string[] public keys */\n    tag_15:\n      0x01\n      dup2\n      dup2\n      sload\n      dup2\n      lt\n      tag_49\n      jumpi\n      0x00\n      dup1\n      revert\n    tag_49:\n      swap1\n      0x00\n      mstore\n      keccak256(0x00, 0x20)\n      add\n      0x00\n      swap2\n      pop\n      swap1\n      pop\n      dup1\n      sload\n      tag_51\n      swap1\n      tag_52\n      jump\t// in\n    tag_51:\n      dup1\n      0x1f\n      add\n      0x20\n      dup1\n      swap2\n      div\n      mul\n      0x20\n      add\n      mload(0x40)\n      swap1\n      dup2\n      add\n      0x40\n      mstore\n      dup1\n      swap3\n      swap2\n      swap1\n      dup2\n      dup2\n      mstore\n      0x20\n      add\n      dup3\n      dup1\n      sload\n      tag_53\n      swap1\n      tag_52\n      jump\t// in\n    tag_53:\n      dup1\n      iszero\n      tag_54\n      jumpi\n      dup1\n      0x1f\n      lt\n      tag_55\n      jumpi\n      0x0100\n      dup1\n      dup4\n      sload\n      div\n      mul\n      dup4\n      mstore\n      swap2\n      0x20\n      add\n      swap2\n      jump(tag_54)\n    tag_55:\n      dup3\n      add\n      swap2\n      swap1\n      0x00\n      mstore\n      keccak256(0x00, 0x20)\n      swap1\n    tag_56:\n      dup2\n      sload\n      dup2\n      mstore\n      swap1\n      0x01\n      add\n      swap1\n      0x20\n      add\n      dup1\n      dup4\n      gt\n      tag_56\n      jumpi\n      dup3\n      swap1\n      sub\n      0x1f\n      and\n      dup3\n      add\n      swap2\n    tag_54:\n      pop\n      pop\n      pop\n      pop\n      pop\n      dup2\n      jump\t// out\n        /* \"Voting.sol\":91:133  mapping(string => int256) public senderMap */\n    tag_21:\n      0x00\n      dup2\n      dup1\n      mload\n      0x20\n      dup2\n      add\n      dup3\n      add\n      dup1\n      mload\n      dup5\n      dup3\n      mstore\n      0x20\n      dup4\n      add\n      0x20\n      dup6\n      add\n      keccak256\n      dup2\n      dup4\n      mstore\n      dup1\n      swap6\n      pop\n      pop\n      pop\n      pop\n      pop\n      pop\n      0x00\n      swap2\n      pop\n      swap1\n      pop\n      sload\n      dup2\n      jump\t// out\n        /* \"Voting.sol\":369:477  function getVotes(string memory name) public view returns (int256) {... */\n    tag_26:\n        /* \"Voting.sol\":428:434  int256 */\n      0x00\n        /* \"Voting.sol\":454:463  senderMap */\n      0x00\n        /* \"Voting.sol\":464:468  name */\n      dup3\n        /* \"Voting.sol\":454:469  senderMap[name] */\n      mload(0x40)\n      tag_58\n      swap2\n      swap1\n      tag_59\n      jump\t// in\n    tag_58:\n      swap1\n      dup2\n      mstore\n      0x20\n      add\n      mload(0x40)\n      dup1\n      swap2\n      sub\n      swap1\n      keccak256\n      sload\n        /* \"Voting.sol\":447:469  return senderMap[name] */\n      swap1\n      pop\n        /* \"Voting.sol\":369:477  function getVotes(string memory name) public view returns (int256) {... */\n      swap2\n      swap1\n      pop\n      jump\t// out\n        /* \"Voting.sol\":1107:1141  mapping(bytes1=>uint256)public map */\n    tag_31:\n      mstore(0x20, 0x02)\n      dup1\n      0x00\n      mstore\n      keccak256(0x00, 0x40)\n      0x00\n      swap2\n      pop\n      swap1\n      pop\n      sload\n      dup2\n      jump\t// out\n        /* \"Voting.sol\":485:659  function resetVotes() public {... */\n    tag_35:\n        /* \"Voting.sol\":530:539  uint256 i */\n      0x00\n        /* \"Voting.sol\":542:543  0 */\n      0x00\n        /* \"Voting.sol\":530:543  uint256 i = 0 */\n      swap1\n      pop\n        /* \"Voting.sol\":525:630  for (uint256 i = 0; i < keys.length ; i++) ... */\n    tag_61:\n        /* \"Voting.sol\":549:553  keys */\n      0x01\n        /* \"Voting.sol\":549:560  keys.length */\n      dup1\n      sload\n      swap1\n      pop\n        /* \"Voting.sol\":545:546  i */\n      dup2\n        /* \"Voting.sol\":545:560  i < keys.length */\n      lt\n        /* \"Voting.sol\":525:630  for (uint256 i = 0; i < keys.length ; i++) ... */\n      iszero\n      tag_62\n      jumpi\n        /* \"Voting.sol\":600:609  senderMap */\n      0x00\n        /* \"Voting.sol\":610:614  keys */\n      0x01\n        /* \"Voting.sol\":615:616  i */\n      dup3\n        /* \"Voting.sol\":610:617  keys[i] */\n      dup2\n      sload\n      dup2\n      lt\n      tag_64\n      jumpi\n      tag_65\n      tag_66\n      jump\t// in\n    tag_65:\n    tag_64:\n      swap1\n      0x00\n      mstore\n      keccak256(0x00, 0x20)\n      add\n        /* \"Voting.sol\":600:618  senderMap[keys[i]] */\n      mload(0x40)\n      tag_68\n      swap2\n      swap1\n      tag_69\n      jump\t// in\n    tag_68:\n      swap1\n      dup2\n      mstore\n      0x20\n      add\n      mload(0x40)\n      dup1\n      swap2\n      sub\n      swap1\n      keccak256\n        /* \"Voting.sol\":593:618  delete senderMap[keys[i]] */\n      0x00\n      swap1\n      sstore\n        /* \"Voting.sol\":563:566  i++ */\n      dup1\n      dup1\n      0x01\n      add\n      swap2\n      pop\n      pop\n        /* \"Voting.sol\":525:630  for (uint256 i = 0; i < keys.length ; i++) ... */\n      jump(tag_61)\n    tag_62:\n      pop\n        /* \"Voting.sol\":647:651  keys */\n      0x01\n      0x00\n        /* \"Voting.sol\":640:651  delete keys */\n      tag_70\n      swap2\n      swap1\n      tag_71\n      jump\t// in\n    tag_70:\n        /* \"Voting.sol\":485:659  function resetVotes() public {... */\n      jump\t// out\n        /* \"Voting.sol\":1346:1957  function romanToInt(string memory s) public view returns(uint) {... */\n    tag_38:\n        /* \"Voting.sol\":1403:1407  uint */\n      0x00\n        /* \"Voting.sol\":1430:1454  bytes memory stringBytes */\n      0x00\n        /* \"Voting.sol\":1463:1464  s */\n      dup3\n        /* \"Voting.sol\":1430:1465  bytes memory stringBytes = bytes(s) */\n      swap1\n      pop\n        /* \"Voting.sol\":1476:1486  uint total */\n      0x00\n        /* \"Voting.sol\":1489:1490  0 */\n      0x00\n        /* \"Voting.sol\":1476:1490  uint total = 0 */\n      swap1\n      pop\n        /* \"Voting.sol\":1508:1514  uint i */\n      0x00\n        /* \"Voting.sol\":1517:1518  0 */\n      0x00\n        /* \"Voting.sol\":1508:1518  uint i = 0 */\n      swap1\n      pop\n        /* \"Voting.sol\":1503:1925  for (uint i = 0; i < stringBytes.length; i++) {... */\n    tag_73:\n        /* \"Voting.sol\":1524:1535  stringBytes */\n      dup3\n        /* \"Voting.sol\":1524:1542  stringBytes.length */\n      mload\n        /* \"Voting.sol\":1520:1521  i */\n      dup2\n        /* \"Voting.sol\":1520:1542  i < stringBytes.length */\n      lt\n        /* \"Voting.sol\":1503:1925  for (uint i = 0; i < stringBytes.length; i++) {... */\n      iszero\n      tag_74\n      jumpi\n        /* \"Voting.sol\":1564:1574  uint value */\n      0x00\n        /* \"Voting.sol\":1577:1580  map */\n      0x02\n        /* \"Voting.sol\":1577:1596  map[stringBytes[i]] */\n      0x00\n        /* \"Voting.sol\":1581:1592  stringBytes */\n      dup6\n        /* \"Voting.sol\":1593:1594  i */\n      dup5\n        /* \"Voting.sol\":1581:1595  stringBytes[i] */\n      dup2\n      mload\n      dup2\n      lt\n      tag_76\n      jumpi\n      tag_77\n      tag_66\n      jump\t// in\n    tag_77:\n    tag_76:\n      0x20\n      add\n      add\n      mload\n      0xf8\n      shr\n      0xf8\n      shl\n        /* \"Voting.sol\":1577:1596  map[stringBytes[i]] */\n      not(0xffffffffffffffffffffffffffffffffffffffffffffffffffffffffffffff)\n      and\n      not(0xffffffffffffffffffffffffffffffffffffffffffffffffffffffffffffff)\n      and\n      dup2\n      mstore\n      0x20\n      add\n      swap1\n      dup2\n      mstore\n      0x20\n      add\n      0x00\n      keccak256\n      sload\n        /* \"Voting.sol\":1564:1596  uint value = map[stringBytes[i]] */\n      swap1\n      pop\n        /* \"Voting.sol\":1741:1752  stringBytes */\n      dup4\n        /* \"Voting.sol\":1741:1759  stringBytes.length */\n      mload\n        /* \"Voting.sol\":1737:1738  1 */\n      0x01\n        /* \"Voting.sol\":1733:1734  i */\n      dup4\n        /* \"Voting.sol\":1733:1738  i + 1 */\n      tag_78\n      swap2\n      swap1\n      tag_79\n      jump\t// in\n    tag_78:\n        /* \"Voting.sol\":1733:1759  i + 1 < stringBytes.length */\n      lt\n        /* \"Voting.sol\":1733:1808  i + 1 < stringBytes.length && map[stringBytes[i]] < map[stringBytes[i + 1]] */\n      dup1\n      iszero\n      tag_80\n      jumpi\n      pop\n        /* \"Voting.sol\":1785:1788  map */\n      0x02\n        /* \"Voting.sol\":1785:1808  map[stringBytes[i + 1]] */\n      0x00\n        /* \"Voting.sol\":1789:1800  stringBytes */\n      dup6\n        /* \"Voting.sol\":1805:1806  1 */\n      0x01\n        /* \"Voting.sol\":1801:1802  i */\n      dup6\n        /* \"Voting.sol\":1801:1806  i + 1 */\n      tag_81\n      swap2\n      swap1\n      tag_79\n      jump\t// in\n    tag_81:\n        /* \"Voting.sol\":1789:1807  stringBytes[i + 1] */\n      dup2\n      mload\n      dup2\n      lt\n      tag_82\n      jumpi\n      tag_83\n      tag_66\n      jump\t// in\n    tag_83:\n    tag_82:\n      0x20\n      add\n      add\n      mload\n      0xf8\n      shr\n      0xf8\n      shl\n        /* \"Voting.sol\":1785:1808  map[stringBytes[i + 1]] */\n      not(0xffffffffffffffffffffffffffffffffffffffffffffffffffffffffffffff)\n      and\n      not(0xffffffffffffffffffffffffffffffffffffffffffffffffffffffffffffff)\n      and\n      dup2\n      mstore\n      0x20\n      add\n      swap1\n      dup2\n      mstore\n      0x20\n      add\n      0x00\n      keccak256\n      sload\n        /* \"Voting.sol\":1763:1766  map */\n      0x02\n        /* \"Voting.sol\":1763:1782  map[stringBytes[i]] */\n      0x00\n        /* \"Voting.sol\":1767:1778  stringBytes */\n      dup7\n        /* \"Voting.sol\":1779:1780  i */\n      dup6\n        /* \"Voting.sol\":1767:1781  stringBytes[i] */\n      dup2\n      mload\n      dup2\n      lt\n      tag_84\n      jumpi\n      tag_85\n      tag_66\n      jump\t// in\n    tag_85:\n    tag_84:\n      0x20\n      add\n      add\n      mload\n      0xf8\n      shr\n      0xf8\n      shl\n        /* \"Voting.sol\":1763:1782  map[stringBytes[i]] */\n      not(0xffffffffffffffffffffffffffffffffffffffffffffffffffffffffffffff)\n      and\n      not(0xffffffffffffffffffffffffffffffffffffffffffffffffffffffffffffff)\n      and\n      dup2\n      mstore\n      0x20\n      add\n      swap1\n      dup2\n      mstore\n      0x20\n      add\n      0x00\n      keccak256\n      sload\n        /* \"Voting.sol\":1763:1808  map[stringBytes[i]] < map[stringBytes[i + 1]] */\n      lt\n        /* \"Voting.sol\":1733:1808  i + 1 < stringBytes.length && map[stringBytes[i]] < map[stringBytes[i + 1]] */\n    tag_80:\n        /* \"Voting.sol\":1729:1914  if (i + 1 < stringBytes.length && map[stringBytes[i]] < map[stringBytes[i + 1]]) {... */\n      iszero\n      tag_86\n      jumpi\n        /* \"Voting.sol\":1838:1843  value */\n      dup1\n        /* \"Voting.sol\":1829:1843  total -= value */\n      dup4\n      tag_87\n      swap2\n      swap1\n      tag_88\n      jump\t// in\n    tag_87:\n      swap3\n      pop\n        /* \"Voting.sol\":1729:1914  if (i + 1 < stringBytes.length && map[stringBytes[i]] < map[stringBytes[i + 1]]) {... */\n      jump(tag_89)\n    tag_86:\n        /* \"Voting.sol\":1893:1898  value */\n      dup1\n        /* \"Voting.sol\":1884:1898  total += value */\n      dup4\n      tag_90\n      swap2\n      swap1\n      tag_79\n      jump\t// in\n    tag_90:\n      swap3\n      pop\n        /* \"Voting.sol\":1729:1914  if (i + 1 < stringBytes.length && map[stringBytes[i]] < map[stringBytes[i + 1]]) {... */\n    tag_89:\n        /* \"Voting.sol\":1549:1925  {... */\n      pop\n        /* \"Voting.sol\":1544:1547  i++ */\n      dup1\n      dup1\n      0x01\n      add\n      swap2\n      pop\n      pop\n        /* \"Voting.sol\":1503:1925  for (uint i = 0; i < stringBytes.length; i++) {... */\n      jump(tag_73)\n    tag_74:\n      pop\n        /* \"Voting.sol\":1944:1949  total */\n      dup1\n        /* \"Voting.sol\":1937:1949  return total */\n      swap3\n      pop\n      pop\n      pop\n        /* \"Voting.sol\":1346:1957  function romanToInt(string memory s) public view returns(uint) {... */\n      swap2\n      swap1\n      pop\n      jump\t// out\n        /* \"Voting.sol\":667:1101  function RevertString(string memory str) public pure returns(string memory) {... */\n    tag_42:\n        /* \"Voting.sol\":728:741  string memory */\n      0x60\n        /* \"Voting.sol\":754:778  bytes memory stringBytes */\n      0x00\n        /* \"Voting.sol\":787:790  str */\n      dup3\n        /* \"Voting.sol\":754:791  bytes memory stringBytes = bytes(str) */\n      swap1\n      pop\n        /* \"Voting.sol\":828:829  0 */\n      0x00\n        /* \"Voting.sol\":806:817  stringBytes */\n      dup2\n        /* \"Voting.sol\":806:824  stringBytes.length */\n      mload\n        /* \"Voting.sol\":806:829  stringBytes.length == 0 */\n      sub\n        /* \"Voting.sol\":802:867  if (stringBytes.length == 0){... */\n      tag_92\n      jumpi\n        /* \"Voting.sol\":852:855  str */\n      dup3\n        /* \"Voting.sol\":845:855  return str */\n      swap2\n      pop\n      pop\n      jump(tag_91)\n        /* \"Voting.sol\":802:867  if (stringBytes.length == 0){... */\n    tag_92:\n        /* \"Voting.sol\":877:896  bytes memory result */\n      0x00\n        /* \"Voting.sol\":909:920  stringBytes */\n      dup2\n        /* \"Voting.sol\":909:927  stringBytes.length */\n      mload\n        /* \"Voting.sol\":899:928  new bytes(stringBytes.length) */\n      0xffffffffffffffff\n      dup2\n      gt\n      iszero\n      tag_93\n      jumpi\n      tag_94\n      tag_95\n      jump\t// in\n    tag_94:\n    tag_93:\n      mload(0x40)\n      swap1\n      dup1\n      dup3\n      mstore\n      dup1\n      0x1f\n      add\n      not(0x1f)\n      and\n      0x20\n      add\n      dup3\n      add\n      0x40\n      mstore\n      dup1\n      iszero\n      tag_96\n      jumpi\n      dup2\n      0x20\n      add\n      0x01\n      dup3\n      mul\n      dup1\n      calldatasize\n      dup4\n      calldatacopy\n      dup1\n      dup3\n      add\n      swap2\n      pop\n      pop\n      swap1\n      pop\n    tag_96:\n      pop\n        /* \"Voting.sol\":877:928  bytes memory result = new bytes(stringBytes.length) */\n      swap1\n      pop\n        /* \"Voting.sol\":943:952  uint256 i */\n      0x00\n        /* \"Voting.sol\":955:956  0 */\n      0x00\n        /* \"Voting.sol\":943:956  uint256 i = 0 */\n      swap1\n      pop\n        /* \"Voting.sol\":939:1062  for(uint256 i = 0;i < stringBytes.length;i++){... */\n    tag_97:\n        /* \"Voting.sol\":961:972  stringBytes */\n      dup3\n        /* \"Voting.sol\":961:979  stringBytes.length */\n      mload\n        /* \"Voting.sol\":957:958  i */\n      dup2\n        /* \"Voting.sol\":957:979  i < stringBytes.length */\n      lt\n        /* \"Voting.sol\":939:1062  for(uint256 i = 0;i < stringBytes.length;i++){... */\n      iszero\n      tag_98\n      jumpi\n        /* \"Voting.sol\":1011:1022  stringBytes */\n      dup3\n        /* \"Voting.sol\":1048:1049  i */\n      dup2\n        /* \"Voting.sol\":1044:1045  1 */\n      0x01\n        /* \"Voting.sol\":1023:1034  stringBytes */\n      dup6\n        /* \"Voting.sol\":1023:1041  stringBytes.length */\n      mload\n        /* \"Voting.sol\":1023:1045  stringBytes.length - 1 */\n      tag_100\n      swap2\n      swap1\n      tag_88\n      jump\t// in\n    tag_100:\n        /* \"Voting.sol\":1023:1049  stringBytes.length - 1 - i */\n      tag_101\n      swap2\n      swap1\n      tag_88\n      jump\t// in\n    tag_101:\n        /* \"Voting.sol\":1011:1050  stringBytes[stringBytes.length - 1 - i] */\n      dup2\n      mload\n      dup2\n      lt\n      tag_102\n      jumpi\n      tag_103\n      tag_66\n      jump\t// in\n    tag_103:\n    tag_102:\n      0x20\n      add\n      add\n      mload\n      0xf8\n      shr\n      0xf8\n      shl\n        /* \"Voting.sol\":999:1005  result */\n      dup3\n        /* \"Voting.sol\":1006:1007  i */\n      dup3\n        /* \"Voting.sol\":999:1008  result[i] */\n      dup2\n      mload\n      dup2\n      lt\n      tag_104\n      jumpi\n      tag_105\n      tag_66\n      jump\t// in\n    tag_105:\n    tag_104:\n      0x20\n      add\n      add\n        /* \"Voting.sol\":999:1050  result[i] = stringBytes[stringBytes.length - 1 - i] */\n      swap1\n      not(0xffffffffffffffffffffffffffffffffffffffffffffffffffffffffffffff)\n      and\n      swap1\n      dup2\n      0x00\n      byte\n      swap1\n      mstore8\n      pop\n        /* \"Voting.sol\":980:983  i++ */\n      dup1\n      dup1\n      0x01\n      add\n      swap2\n      pop\n      pop\n        /* \"Voting.sol\":939:1062  for(uint256 i = 0;i < stringBytes.length;i++){... */\n      jump(tag_97)\n    tag_98:\n      pop\n        /* \"Voting.sol\":1086:1092  result */\n      dup1\n        /* \"Voting.sol\":1072:1093  return string(result) */\n      swap3\n      pop\n      pop\n      pop\n        /* \"Voting.sol\":667:1101  function RevertString(string memory str) public pure returns(string memory) {... */\n    tag_91:\n      swap2\n      swap1\n      pop\n      jump\t// out\n        /* \"Voting.sol\":169:361  function vote (string memory name) public returns(bool){... */\n    tag_46:\n        /* \"Voting.sol\":219:223  bool */\n      0x00\n        /* \"Voting.sol\":257:258  0 */\n      0x00\n        /* \"Voting.sol\":238:247  senderMap */\n      0x00\n        /* \"Voting.sol\":248:252  name */\n      dup4\n        /* \"Voting.sol\":238:253  senderMap[name] */\n      mload(0x40)\n      tag_107\n      swap2\n      swap1\n      tag_59\n      jump\t// in\n    tag_107:\n      swap1\n      dup2\n      mstore\n      0x20\n      add\n      mload(0x40)\n      dup1\n      swap2\n      sub\n      swap1\n      keccak256\n      sload\n        /* \"Voting.sol\":238:258  senderMap[name] == 0 */\n      sub\n        /* \"Voting.sol\":235:301  if(senderMap[name] == 0){... */\n      tag_108\n      jumpi\n        /* \"Voting.sol\":274:278  keys */\n      0x01\n        /* \"Voting.sol\":284:288  name */\n      dup3\n        /* \"Voting.sol\":274:289  keys.push(name) */\n      swap1\n      dup1\n      0x01\n      dup2\n      sload\n      add\n      dup1\n      dup3\n      sstore\n      dup1\n      swap2\n      pop\n      pop\n      0x01\n      swap1\n      sub\n      swap1\n      0x00\n      mstore\n      keccak256(0x00, 0x20)\n      add\n      0x00\n      swap1\n      swap2\n      swap1\n      swap2\n      swap1\n      swap2\n      pop\n      swap1\n      dup2\n      tag_110\n      swap2\n      swap1\n      tag_111\n      jump\t// in\n    tag_110:\n      pop\n        /* \"Voting.sol\":235:301  if(senderMap[name] == 0){... */\n    tag_108:\n        /* \"Voting.sol\":330:331  1 */\n      0x01\n        /* \"Voting.sol\":311:320  senderMap */\n      0x00\n        /* \"Voting.sol\":321:325  name */\n      dup4\n        /* \"Voting.sol\":311:326  senderMap[name] */\n      mload(0x40)\n      tag_112\n      swap2\n      swap1\n      tag_59\n      jump\t// in\n    tag_112:\n      swap1\n      dup2\n      mstore\n      0x20\n      add\n      mload(0x40)\n      dup1\n      swap2\n      sub\n      swap1\n      keccak256\n      0x00\n        /* \"Voting.sol\":311:331  senderMap[name] += 1 */\n      dup3\n      dup3\n      sload\n      tag_113\n      swap2\n      swap1\n      tag_114\n      jump\t// in\n    tag_113:\n      swap3\n      pop\n      pop\n      dup2\n      swap1\n      sstore\n      pop\n        /* \"Voting.sol\":349:353  true */\n      0x01\n        /* \"Voting.sol\":342:353  return true */\n      swap1\n      pop\n        /* \"Voting.sol\":169:361  function vote (string memory name) public returns(bool){... */\n      swap2\n      swap1\n      pop\n      jump\t// out\n    tag_71:\n      pop\n      dup1\n      sload\n      0x00\n      dup3\n      sstore\n      swap1\n      0x00\n      mstore\n      keccak256(0x00, 0x20)\n      swap1\n      dup2\n      add\n      swap1\n      tag_116\n      swap2\n      swap1\n      tag_117\n      jump\t// in\n    tag_116:\n      pop\n      jump\t// out\n    tag_117:\n    tag_118:\n      dup1\n      dup3\n      gt\n      iszero\n      tag_119\n      jumpi\n      0x00\n      dup2\n      dup2\n      tag_120\n      swap2\n      swap1\n      tag_121\n      jump\t// in\n    tag_120:\n      pop\n      0x01\n      add\n      jump(tag_118)\n    tag_119:\n      pop\n      swap1\n      jump\t// out\n    tag_121:\n      pop\n      dup1\n      sload\n      tag_122\n      swap1\n      tag_52\n      jump\t// in\n    tag_122:\n      0x00\n      dup3\n      sstore\n      dup1\n      0x1f\n      lt\n      tag_124\n      jumpi\n      pop\n      jump(tag_123)\n    tag_124:\n      0x1f\n      add\n      0x20\n      swap1\n      div\n      swap1\n      0x00\n      mstore\n      keccak256(0x00, 0x20)\n      swap1\n      dup2\n      add\n      swap1\n      tag_125\n      swap2\n      swap1\n      tag_126\n      jump\t// in\n    tag_125:\n    tag_123:\n      pop\n      jump\t// out\n    tag_126:\n    tag_127:\n      dup1\n      dup3\n      gt\n      iszero\n      tag_128\n      jumpi\n      0x00\n      dup2\n      0x00\n      swap1\n      sstore\n      pop\n      0x01\n      add\n      jump(tag_127)\n    tag_128:\n      pop\n      swap1\n      jump\t// out\n        /* \"#utility.yul\":7:82   */\n    tag_129:\n        /* \"#utility.yul\":40:46   */\n      0x00\n        /* \"#utility.yul\":73:75   */\n      0x40\n        /* \"#utility.yul\":67:76   */\n      mload\n        /* \"#utility.yul\":57:76   */\n      swap1\n      pop\n        /* \"#utility.yul\":7:82   */\n      swap1\n      jump\t// out\n        /* \"#utility.yul\":88:205   */\n    tag_130:\n        /* \"#utility.yul\":197:198   */\n      0x00\n        /* \"#utility.yul\":194:195   */\n      0x00\n        /* \"#utility.yul\":187:199   */\n      revert\n        /* \"#utility.yul\":211:328   */\n    tag_131:\n        /* \"#utility.yul\":320:321   */\n      0x00\n        /* \"#utility.yul\":317:318   */\n      0x00\n        /* \"#utility.yul\":310:322   */\n      revert\n        /* \"#utility.yul\":334:411   */\n    tag_132:\n        /* \"#utility.yul\":371:378   */\n      0x00\n        /* \"#utility.yul\":400:405   */\n      dup2\n        /* \"#utility.yul\":389:405   */\n      swap1\n      pop\n        /* \"#utility.yul\":334:411   */\n      swap2\n      swap1\n      pop\n      jump\t// out\n        /* \"#utility.yul\":417:539   */\n    tag_133:\n        /* \"#utility.yul\":490:514   */\n      tag_182\n        /* \"#utility.yul\":508:513   */\n      dup2\n        /* \"#utility.yul\":490:514   */\n      tag_132\n      jump\t// in\n    tag_182:\n        /* \"#utility.yul\":483:488   */\n      dup2\n        /* \"#utility.yul\":480:515   */\n      eq\n        /* \"#utility.yul\":470:533   */\n      tag_183\n      jumpi\n        /* \"#utility.yul\":529:530   */\n      0x00\n        /* \"#utility.yul\":526:527   */\n      0x00\n        /* \"#utility.yul\":519:531   */\n      revert\n        /* \"#utility.yul\":470:533   */\n    tag_183:\n        /* \"#utility.yul\":417:539   */\n      pop\n      jump\t// out\n        /* \"#utility.yul\":545:684   */\n    tag_134:\n        /* \"#utility.yul\":591:596   */\n      0x00\n        /* \"#utility.yul\":629:635   */\n      dup2\n        /* \"#utility.yul\":616:636   */\n      calldataload\n        /* \"#utility.yul\":607:636   */\n      swap1\n      pop\n        /* \"#utility.yul\":645:678   */\n      tag_185\n        /* \"#utility.yul\":672:677   */\n      dup2\n        /* \"#utility.yul\":645:678   */\n      tag_133\n      jump\t// in\n    tag_185:\n        /* \"#utility.yul\":545:684   */\n      swap3\n      swap2\n      pop\n      pop\n      jump\t// out\n        /* \"#utility.yul\":690:1019   */\n    tag_14:\n        /* \"#utility.yul\":749:755   */\n      0x00\n        /* \"#utility.yul\":798:800   */\n      0x20\n        /* \"#utility.yul\":786:795   */\n      dup3\n        /* \"#utility.yul\":777:784   */\n      dup5\n        /* \"#utility.yul\":773:796   */\n      sub\n        /* \"#utility.yul\":769:801   */\n      slt\n        /* \"#utility.yul\":766:885   */\n      iszero\n      tag_187\n      jumpi\n        /* \"#utility.yul\":804:883   */\n      tag_188\n      tag_130\n      jump\t// in\n    tag_188:\n        /* \"#utility.yul\":766:885   */\n    tag_187:\n        /* \"#utility.yul\":924:925   */\n      0x00\n        /* \"#utility.yul\":949:1002   */\n      tag_189\n        /* \"#utility.yul\":994:1001   */\n      dup5\n        /* \"#utility.yul\":985:991   */\n      dup3\n        /* \"#utility.yul\":974:983   */\n      dup6\n        /* \"#utility.yul\":970:992   */\n      add\n        /* \"#utility.yul\":949:1002   */\n      tag_134\n      jump\t// in\n    tag_189:\n        /* \"#utility.yul\":939:1002   */\n      swap2\n      pop\n        /* \"#utility.yul\":895:1012   */\n      pop\n        /* \"#utility.yul\":690:1019   */\n      swap3\n      swap2\n      pop\n      pop\n      jump\t// out\n        /* \"#utility.yul\":1025:1124   */\n    tag_135:\n        /* \"#utility.yul\":1077:1083   */\n      0x00\n        /* \"#utility.yul\":1111:1116   */\n      dup2\n        /* \"#utility.yul\":1105:1117   */\n      mload\n        /* \"#utility.yul\":1095:1117   */\n      swap1\n      pop\n        /* \"#utility.yul\":1025:1124   */\n      swap2\n      swap1\n      pop\n      jump\t// out\n        /* \"#utility.yul\":1130:1299   */\n    tag_136:\n        /* \"#utility.yul\":1214:1225   */\n      0x00\n        /* \"#utility.yul\":1248:1254   */\n      dup3\n        /* \"#utility.yul\":1243:1246   */\n      dup3\n        /* \"#utility.yul\":1236:1255   */\n      mstore\n        /* \"#utility.yul\":1288:1292   */\n      0x20\n        /* \"#utility.yul\":1283:1286   */\n      dup3\n        /* \"#utility.yul\":1279:1293   */\n      add\n        /* \"#utility.yul\":1264:1293   */\n      swap1\n      pop\n        /* \"#utility.yul\":1130:1299   */\n      swap3\n      swap2\n      pop\n      pop\n      jump\t// out\n        /* \"#utility.yul\":1305:1444   */\n    tag_137:\n        /* \"#utility.yul\":1394:1400   */\n      dup3\n        /* \"#utility.yul\":1389:1392   */\n      dup2\n        /* \"#utility.yul\":1384:1387   */\n      dup4\n        /* \"#utility.yul\":1378:1401   */\n      mcopy\n        /* \"#utility.yul\":1435:1436   */\n      0x00\n        /* \"#utility.yul\":1426:1432   */\n      dup4\n        /* \"#utility.yul\":1421:1424   */\n      dup4\n        /* \"#utility.yul\":1417:1433   */\n      add\n        /* \"#utility.yul\":1410:1437   */\n      mstore\n        /* \"#utility.yul\":1305:1444   */\n      pop\n      pop\n      pop\n      jump\t// out\n        /* \"#utility.yul\":1450:1552   */\n    tag_138:\n        /* \"#utility.yul\":1491:1497   */\n      0x00\n        /* \"#utility.yul\":1542:1544   */\n      0x1f\n        /* \"#utility.yul\":1538:1545   */\n      not\n        /* \"#utility.yul\":1533:1535   */\n      0x1f\n        /* \"#utility.yul\":1526:1531   */\n      dup4\n        /* \"#utility.yul\":1522:1536   */\n      add\n        /* \"#utility.yul\":1518:1546   */\n      and\n        /* \"#utility.yul\":1508:1546   */\n      swap1\n      pop\n        /* \"#utility.yul\":1450:1552   */\n      swap2\n      swap1\n      pop\n      jump\t// out\n        /* \"#utility.yul\":1558:1935   */\n    tag_139:\n        /* \"#utility.yul\":1646:1649   */\n      0x00\n        /* \"#utility.yul\":1674:1713   */\n      tag_195\n        /* \"#utility.yul\":1707:1712   */\n      dup3\n        /* \"#utility.yul\":1674:1713   */\n      tag_135\n      jump\t// in\n    tag_195:\n        /* \"#utility.yul\":1729:1800   */\n      tag_196\n        /* \"#utility.yul\":1793:1799   */\n      dup2\n        /* \"#utility.yul\":1788:1791   */\n      dup6\n        /* \"#utility.yul\":1729:1800   */\n      tag_136\n      jump\t// in\n    tag_196:\n        /* \"#utility.yul\":1722:1800   */\n      swap4\n      pop\n        /* \"#utility.yul\":1809:1874   */\n      tag_197\n        /* \"#utility.yul\":1867:1873   */\n      dup2\n        /* \"#utility.yul\":1862:1865   */\n      dup6\n        /* \"#utility.yul\":1855:1859   */\n      0x20\n        /* \"#utility.yul\":1848:1853   */\n      dup7\n        /* \"#utility.yul\":1844:1860   */\n      add\n        /* \"#utility.yul\":1809:1874   */\n      tag_137\n      jump\t// in\n    tag_197:\n        /* \"#utility.yul\":1899:1928   */\n      tag_198\n        /* \"#utility.yul\":1921:1927   */\n      dup2\n        /* \"#utility.yul\":1899:1928   */\n      tag_138\n      jump\t// in\n    tag_198:\n        /* \"#utility.yul\":1894:1897   */\n      dup5\n        /* \"#utility.yul\":1890:1929   */\n      add\n        /* \"#utility.yul\":1883:1929   */\n      swap2\n      pop\n        /* \"#utility.yul\":1650:1935   */\n      pop\n        /* \"#utility.yul\":1558:1935   */\n      swap3\n      swap2\n      pop\n      pop\n      jump\t// out\n        /* \"#utility.yul\":1941:2254   */\n    tag_17:\n        /* \"#utility.yul\":2054:2058   */\n      0x00\n        /* \"#utility.yul\":2092:2094   */\n      0x20\n        /* \"#utility.yul\":2081:2090   */\n      dup3\n        /* \"#utility.yul\":2077:2095   */\n      add\n        /* \"#utility.yul\":2069:2095   */\n      swap1\n      pop\n        /* \"#utility.yul\":2141:2150   */\n      dup2\n        /* \"#utility.yul\":2135:2139   */\n      dup2\n        /* \"#utility.yul\":2131:2151   */\n      sub\n        /* \"#utility.yul\":2127:2128   */\n      0x00\n        /* \"#utility.yul\":2116:2125   */\n      dup4\n        /* \"#utility.yul\":2112:2129   */\n      add\n        /* \"#utility.yul\":2105:2152   */\n      mstore\n        /* \"#utility.yul\":2169:2247   */\n      tag_200\n        /* \"#utility.yul\":2242:2246   */\n      dup2\n        /* \"#utility.yul\":2233:2239   */\n      dup5\n        /* \"#utility.yul\":2169:2247   */\n      tag_139\n      jump\t// in\n    tag_200:\n        /* \"#utility.yul\":2161:2247   */\n      swap1\n      pop\n        /* \"#utility.yul\":1941:2254   */\n      swap3\n      swap2\n      pop\n      pop\n      jump\t// out\n        /* \"#utility.yul\":2260:2377   */\n    tag_140:\n        /* \"#utility.yul\":2369:2370   */\n      0x00\n        /* \"#utility.yul\":2366:2367   */\n      0x00\n        /* \"#utility.yul\":2359:2371   */\n      revert\n        /* \"#utility.yul\":2383:2500   */\n    tag_141:\n        /* \"#utility.yul\":2492:2493   */\n      0x00\n        /* \"#utility.yul\":2489:2490   */\n      0x00\n        /* \"#utility.yul\":2482:2494   */\n      revert\n        /* \"#utility.yul\":2506:2686   */\n    tag_95:\n        /* \"#utility.yul\":2554:2631   */\n      0x4e487b7100000000000000000000000000000000000000000000000000000000\n        /* \"#utility.yul\":2551:2552   */\n      0x00\n        /* \"#utility.yul\":2544:2632   */\n      mstore\n        /* \"#utility.yul\":2651:2655   */\n      0x41\n        /* \"#utility.yul\":2648:2649   */\n      0x04\n        /* \"#utility.yul\":2641:2656   */\n      mstore\n        /* \"#utility.yul\":2675:2679   */\n      0x24\n        /* \"#utility.yul\":2672:2673   */\n      0x00\n        /* \"#utility.yul\":2665:2680   */\n      revert\n        /* \"#utility.yul\":2692:2973   */\n    tag_142:\n        /* \"#utility.yul\":2775:2802   */\n      tag_205\n        /* \"#utility.yul\":2797:2801   */\n      dup3\n        /* \"#utility.yul\":2775:2802   */\n      tag_138\n      jump\t// in\n    tag_205:\n        /* \"#utility.yul\":2767:2773   */\n      dup2\n        /* \"#utility.yul\":2763:2803   */\n      add\n        /* \"#utility.yul\":2905:2911   */\n      dup2\n        /* \"#utility.yul\":2893:2903   */\n      dup2\n        /* \"#utility.yul\":2890:2912   */\n      lt\n        /* \"#utility.yul\":2869:2887   */\n      0xffffffffffffffff\n        /* \"#utility.yul\":2857:2867   */\n      dup3\n        /* \"#utility.yul\":2854:2888   */\n      gt\n        /* \"#utility.yul\":2851:2913   */\n      or\n        /* \"#utility.yul\":2848:2936   */\n      iszero\n      tag_206\n      jumpi\n        /* \"#utility.yul\":2916:2934   */\n      tag_207\n      tag_95\n      jump\t// in\n    tag_207:\n        /* \"#utility.yul\":2848:2936   */\n    tag_206:\n        /* \"#utility.yul\":2956:2966   */\n      dup1\n        /* \"#utility.yul\":2952:2954   */\n      0x40\n        /* \"#utility.yul\":2945:2967   */\n      mstore\n        /* \"#utility.yul\":2735:2973   */\n      pop\n        /* \"#utility.yul\":2692:2973   */\n      pop\n      pop\n      jump\t// out\n        /* \"#utility.yul\":2979:3108   */\n    tag_143:\n        /* \"#utility.yul\":3013:3019   */\n      0x00\n        /* \"#utility.yul\":3040:3060   */\n      tag_209\n      tag_129\n      jump\t// in\n    tag_209:\n        /* \"#utility.yul\":3030:3060   */\n      swap1\n      pop\n        /* \"#utility.yul\":3069:3102   */\n      tag_210\n        /* \"#utility.yul\":3097:3101   */\n      dup3\n        /* \"#utility.yul\":3089:3095   */\n      dup3\n        /* \"#utility.yul\":3069:3102   */\n      tag_142\n      jump\t// in\n    tag_210:\n        /* \"#utility.yul\":2979:3108   */\n      swap2\n      swap1\n      pop\n      jump\t// out\n        /* \"#utility.yul\":3114:3422   */\n    tag_144:\n        /* \"#utility.yul\":3176:3180   */\n      0x00\n        /* \"#utility.yul\":3266:3284   */\n      0xffffffffffffffff\n        /* \"#utility.yul\":3258:3264   */\n      dup3\n        /* \"#utility.yul\":3255:3285   */\n      gt\n        /* \"#utility.yul\":3252:3308   */\n      iszero\n      tag_212\n      jumpi\n        /* \"#utility.yul\":3288:3306   */\n      tag_213\n      tag_95\n      jump\t// in\n    tag_213:\n        /* \"#utility.yul\":3252:3308   */\n    tag_212:\n        /* \"#utility.yul\":3326:3355   */\n      tag_214\n        /* \"#utility.yul\":3348:3354   */\n      dup3\n        /* \"#utility.yul\":3326:3355   */\n      tag_138\n      jump\t// in\n    tag_214:\n        /* \"#utility.yul\":3318:3355   */\n      swap1\n      pop\n        /* \"#utility.yul\":3410:3414   */\n      0x20\n        /* \"#utility.yul\":3404:3408   */\n      dup2\n        /* \"#utility.yul\":3400:3415   */\n      add\n        /* \"#utility.yul\":3392:3415   */\n      swap1\n      pop\n        /* \"#utility.yul\":3114:3422   */\n      swap2\n      swap1\n      pop\n      jump\t// out\n        /* \"#utility.yul\":3428:3576   */\n    tag_145:\n        /* \"#utility.yul\":3526:3532   */\n      dup3\n        /* \"#utility.yul\":3521:3524   */\n      dup2\n        /* \"#utility.yul\":3516:3519   */\n      dup4\n        /* \"#utility.yul\":3503:3533   */\n      calldatacopy\n        /* \"#utility.yul\":3567:3568   */\n      0x00\n        /* \"#utility.yul\":3558:3564   */\n      dup4\n        /* \"#utility.yul\":3553:3556   */\n      dup4\n        /* \"#utility.yul\":3549:3565   */\n      add\n        /* \"#utility.yul\":3542:3569   */\n      mstore\n        /* \"#utility.yul\":3428:3576   */\n      pop\n      pop\n      pop\n      jump\t// out\n        /* \"#utility.yul\":3582:4007   */\n    tag_146:\n        /* \"#utility.yul\":3660:3665   */\n      0x00\n        /* \"#utility.yul\":3685:3751   */\n      tag_217\n        /* \"#utility.yul\":3701:3750   */\n      tag_218\n        /* \"#utility.yul\":3743:3749   */\n      dup5\n        /* \"#utility.yul\":3701:3750   */\n      tag_144\n      jump\t// in\n    tag_218:\n        /* \"#utility.yul\":3685:3751   */\n      tag_143\n      jump\t// in\n    tag_217:\n        /* \"#utility.yul\":3676:3751   */\n      swap1\n      pop\n        /* \"#utility.yul\":3774:3780   */\n      dup3\n        /* \"#utility.yul\":3767:3772   */\n      dup2\n        /* \"#utility.yul\":3760:3781   */\n      mstore\n        /* \"#utility.yul\":3812:3816   */\n      0x20\n        /* \"#utility.yul\":3805:3810   */\n      dup2\n        /* \"#utility.yul\":3801:3817   */\n      add\n        /* \"#utility.yul\":3850:3853   */\n      dup5\n        /* \"#utility.yul\":3841:3847   */\n      dup5\n        /* \"#utility.yul\":3836:3839   */\n      dup5\n        /* \"#utility.yul\":3832:3848   */\n      add\n        /* \"#utility.yul\":3829:3854   */\n      gt\n        /* \"#utility.yul\":3826:3938   */\n      iszero\n      tag_219\n      jumpi\n        /* \"#utility.yul\":3857:3936   */\n      tag_220\n      tag_141\n      jump\t// in\n    tag_220:\n        /* \"#utility.yul\":3826:3938   */\n    tag_219:\n        /* \"#utility.yul\":3947:4001   */\n      tag_221\n        /* \"#utility.yul\":3994:4000   */\n      dup5\n        /* \"#utility.yul\":3989:3992   */\n      dup3\n        /* \"#utility.yul\":3984:3987   */\n      dup6\n        /* \"#utility.yul\":3947:4001   */\n      tag_145\n      jump\t// in\n    tag_221:\n        /* \"#utility.yul\":3666:4007   */\n      pop\n        /* \"#utility.yul\":3582:4007   */\n      swap4\n      swap3\n      pop\n      pop\n      pop\n      jump\t// out\n        /* \"#utility.yul\":4027:4367   */\n    tag_147:\n        /* \"#utility.yul\":4083:4088   */\n      0x00\n        /* \"#utility.yul\":4132:4135   */\n      dup3\n        /* \"#utility.yul\":4125:4129   */\n      0x1f\n        /* \"#utility.yul\":4117:4123   */\n      dup4\n        /* \"#utility.yul\":4113:4130   */\n      add\n        /* \"#utility.yul\":4109:4136   */\n      slt\n        /* \"#utility.yul\":4099:4221   */\n      tag_223\n      jumpi\n        /* \"#utility.yul\":4140:4219   */\n      tag_224\n      tag_140\n      jump\t// in\n    tag_224:\n        /* \"#utility.yul\":4099:4221   */\n    tag_223:\n        /* \"#utility.yul\":4257:4263   */\n      dup2\n        /* \"#utility.yul\":4244:4264   */\n      calldataload\n        /* \"#utility.yul\":4282:4361   */\n      tag_225\n        /* \"#utility.yul\":4357:4360   */\n      dup5\n        /* \"#utility.yul\":4349:4355   */\n      dup3\n        /* \"#utility.yul\":4342:4346   */\n      0x20\n        /* \"#utility.yul\":4334:4340   */\n      dup7\n        /* \"#utility.yul\":4330:4347   */\n      add\n        /* \"#utility.yul\":4282:4361   */\n      tag_146\n      jump\t// in\n    tag_225:\n        /* \"#utility.yul\":4273:4361   */\n      swap2\n      pop\n        /* \"#utility.yul\":4089:4367   */\n      pop\n        /* \"#utility.yul\":4027:4367   */\n      swap3\n      swap2\n      pop\n      pop\n      jump\t// out\n        /* \"#utility.yul\":4373:4882   */\n    tag_20:\n        /* \"#utility.yul\":4442:4448   */\n      0x00\n        /* \"#utility.yul\":4491:4493   */\n      0x20\n        /* \"#utility.yul\":4479:4488   */\n      dup3\n        /* \"#utility.yul\":4470:4477   */\n      dup5\n        /* \"#utility.yul\":4466:4489   */\n      sub\n        /* \"#utility.yul\":4462:4494   */\n      slt\n        /* \"#utility.yul\":4459:4578   */\n      iszero\n      tag_227\n      jumpi\n        /* \"#utility.yul\":4497:4576   */\n      tag_228\n      tag_130\n      jump\t// in\n    tag_228:\n        /* \"#utility.yul\":4459:4578   */\n    tag_227:\n        /* \"#utility.yul\":4645:4646   */\n      0x00\n        /* \"#utility.yul\":4634:4643   */\n      dup3\n        /* \"#utility.yul\":4630:4647   */\n      add\n        /* \"#utility.yul\":4617:4648   */\n      calldataload\n        /* \"#utility.yul\":4675:4693   */\n      0xffffffffffffffff\n        /* \"#utility.yul\":4667:4673   */\n      dup2\n        /* \"#utility.yul\":4664:4694   */\n      gt\n        /* \"#utility.yul\":4661:4778   */\n      iszero\n      tag_229\n      jumpi\n        /* \"#utility.yul\":4697:4776   */\n      tag_230\n      tag_131\n      jump\t// in\n    tag_230:\n        /* \"#utility.yul\":4661:4778   */\n    tag_229:\n        /* \"#utility.yul\":4802:4865   */\n      tag_231\n        /* \"#utility.yul\":4857:4864   */\n      dup5\n        /* \"#utility.yul\":4848:4854   */\n      dup3\n        /* \"#utility.yul\":4837:4846   */\n      dup6\n        /* \"#utility.yul\":4833:4855   */\n      add\n        /* \"#utility.yul\":4802:4865   */\n      tag_147\n      jump\t// in\n    tag_231:\n        /* \"#utility.yul\":4792:4865   */\n      swap2\n      pop\n        /* \"#utility.yul\":4588:4875   */\n      pop\n        /* \"#utility.yul\":4373:4882   */\n      swap3\n      swap2\n      pop\n      pop\n      jump\t// out\n        /* \"#utility.yul\":4888:4964   */\n    tag_148:\n        /* \"#utility.yul\":4924:4931   */\n      0x00\n        /* \"#utility.yul\":4953:4958   */\n      dup2\n        /* \"#utility.yul\":4942:4958   */\n      swap1\n      pop\n        /* \"#utility.yul\":4888:4964   */\n      swap2\n      swap1\n      pop\n      jump\t// out\n        /* \"#utility.yul\":4970:5085   */\n    tag_149:\n        /* \"#utility.yul\":5055:5078   */\n      tag_234\n        /* \"#utility.yul\":5072:5077   */\n      dup2\n        /* \"#utility.yul\":5055:5078   */\n      tag_148\n      jump\t// in\n    tag_234:\n        /* \"#utility.yul\":5050:5053   */\n      dup3\n        /* \"#utility.yul\":5043:5079   */\n      mstore\n        /* \"#utility.yul\":4970:5085   */\n      pop\n      pop\n      jump\t// out\n        /* \"#utility.yul\":5091:5309   */\n    tag_23:\n        /* \"#utility.yul\":5182:5186   */\n      0x00\n        /* \"#utility.yul\":5220:5222   */\n      0x20\n        /* \"#utility.yul\":5209:5218   */\n      dup3\n        /* \"#utility.yul\":5205:5223   */\n      add\n        /* \"#utility.yul\":5197:5223   */\n      swap1\n      pop\n        /* \"#utility.yul\":5233:5302   */\n      tag_236\n        /* \"#utility.yul\":5299:5300   */\n      0x00\n        /* \"#utility.yul\":5288:5297   */\n      dup4\n        /* \"#utility.yul\":5284:5301   */\n      add\n        /* \"#utility.yul\":5275:5281   */\n      dup5\n        /* \"#utility.yul\":5233:5302   */\n      tag_149\n      jump\t// in\n    tag_236:\n        /* \"#utility.yul\":5091:5309   */\n      swap3\n      swap2\n      pop\n      pop\n      jump\t// out\n        /* \"#utility.yul\":5315:5464   */\n    tag_150:\n        /* \"#utility.yul\":5351:5358   */\n      0x00\n        /* \"#utility.yul\":5391:5457   */\n      0xff00000000000000000000000000000000000000000000000000000000000000\n        /* \"#utility.yul\":5384:5389   */\n      dup3\n        /* \"#utility.yul\":5380:5458   */\n      and\n        /* \"#utility.yul\":5369:5458   */\n      swap1\n      pop\n        /* \"#utility.yul\":5315:5464   */\n      swap2\n      swap1\n      pop\n      jump\t// out\n        /* \"#utility.yul\":5470:5590   */\n    tag_151:\n        /* \"#utility.yul\":5542:5565   */\n      tag_239\n        /* \"#utility.yul\":5559:5564   */\n      dup2\n        /* \"#utility.yul\":5542:5565   */\n      tag_150\n      jump\t// in\n    tag_239:\n        /* \"#utility.yul\":5535:5540   */\n      dup2\n        /* \"#utility.yul\":5532:5566   */\n      eq\n        /* \"#utility.yul\":5522:5584   */\n      tag_240\n      jumpi\n        /* \"#utility.yul\":5580:5581   */\n      0x00\n        /* \"#utility.yul\":5577:5578   */\n      0x00\n        /* \"#utility.yul\":5570:5582   */\n      revert\n        /* \"#utility.yul\":5522:5584   */\n    tag_240:\n        /* \"#utility.yul\":5470:5590   */\n      pop\n      jump\t// out\n        /* \"#utility.yul\":5596:5733   */\n    tag_152:\n        /* \"#utility.yul\":5641:5646   */\n      0x00\n        /* \"#utility.yul\":5679:5685   */\n      dup2\n        /* \"#utility.yul\":5666:5686   */\n      calldataload\n        /* \"#utility.yul\":5657:5686   */\n      swap1\n      pop\n        /* \"#utility.yul\":5695:5727   */\n      tag_242\n        /* \"#utility.yul\":5721:5726   */\n      dup2\n        /* \"#utility.yul\":5695:5727   */\n      tag_151\n      jump\t// in\n    tag_242:\n        /* \"#utility.yul\":5596:5733   */\n      swap3\n      swap2\n      pop\n      pop\n      jump\t// out\n        /* \"#utility.yul\":5739:6066   */\n    tag_30:\n        /* \"#utility.yul\":5797:5803   */\n      0x00\n        /* \"#utility.yul\":5846:5848   */\n      0x20\n        /* \"#utility.yul\":5834:5843   */\n      dup3\n        /* \"#utility.yul\":5825:5832   */\n      dup5\n        /* \"#utility.yul\":5821:5844   */\n      sub\n        /* \"#utility.yul\":5817:5849   */\n      slt\n        /* \"#utility.yul\":5814:5933   */\n      iszero\n      tag_244\n      jumpi\n        /* \"#utility.yul\":5852:5931   */\n      tag_245\n      tag_130\n      jump\t// in\n    tag_245:\n        /* \"#utility.yul\":5814:5933   */\n    tag_244:\n        /* \"#utility.yul\":5972:5973   */\n      0x00\n        /* \"#utility.yul\":5997:6049   */\n      tag_246\n        /* \"#utility.yul\":6041:6048   */\n      dup5\n        /* \"#utility.yul\":6032:6038   */\n      dup3\n        /* \"#utility.yul\":6021:6030   */\n      dup6\n        /* \"#utility.yul\":6017:6039   */\n      add\n        /* \"#utility.yul\":5997:6049   */\n      tag_152\n      jump\t// in\n    tag_246:\n        /* \"#utility.yul\":5987:6049   */\n      swap2\n      pop\n        /* \"#utility.yul\":5943:6059   */\n      pop\n        /* \"#utility.yul\":5739:6066   */\n      swap3\n      swap2\n      pop\n      pop\n      jump\t// out\n        /* \"#utility.yul\":6072:6190   */\n    tag_153:\n        /* \"#utility.yul\":6159:6183   */\n      tag_248\n        /* \"#utility.yul\":6177:6182   */\n      dup2\n        /* \"#utility.yul\":6159:6183   */\n      tag_132\n      jump\t// in\n    tag_248:\n        /* \"#utility.yul\":6154:6157   */\n      dup3\n        /* \"#utility.yul\":6147:6184   */\n      mstore\n        /* \"#utility.yul\":6072:6190   */\n      pop\n      pop\n      jump\t// out\n        /* \"#utility.yul\":6196:6418   */\n    tag_33:\n        /* \"#utility.yul\":6289:6293   */\n      0x00\n        /* \"#utility.yul\":6327:6329   */\n      0x20\n        /* \"#utility.yul\":6316:6325   */\n      dup3\n        /* \"#utility.yul\":6312:6330   */\n      add\n        /* \"#utility.yul\":6304:6330   */\n      swap1\n      pop\n        /* \"#utility.yul\":6340:6411   */\n      tag_250\n        /* \"#utility.yul\":6408:6409   */\n      0x00\n        /* \"#utility.yul\":6397:6406   */\n      dup4\n        /* \"#utility.yul\":6393:6410   */\n      add\n        /* \"#utility.yul\":6384:6390   */\n      dup5\n        /* \"#utility.yul\":6340:6411   */\n      tag_153\n      jump\t// in\n    tag_250:\n        /* \"#utility.yul\":6196:6418   */\n      swap3\n      swap2\n      pop\n      pop\n      jump\t// out\n        /* \"#utility.yul\":6424:6514   */\n    tag_154:\n        /* \"#utility.yul\":6458:6465   */\n      0x00\n        /* \"#utility.yul\":6501:6506   */\n      dup2\n        /* \"#utility.yul\":6494:6507   */\n      iszero\n        /* \"#utility.yul\":6487:6508   */\n      iszero\n        /* \"#utility.yul\":6476:6508   */\n      swap1\n      pop\n        /* \"#utility.yul\":6424:6514   */\n      swap2\n      swap1\n      pop\n      jump\t// out\n        /* \"#utility.yul\":6520:6629   */\n    tag_155:\n        /* \"#utility.yul\":6601:6622   */\n      tag_253\n        /* \"#utility.yul\":6616:6621   */\n      dup2\n        /* \"#utility.yul\":6601:6622   */\n      tag_154\n      jump\t// in\n    tag_253:\n        /* \"#utility.yul\":6596:6599   */\n      dup3\n        /* \"#utility.yul\":6589:6623   */\n      mstore\n        /* \"#utility.yul\":6520:6629   */\n      pop\n      pop\n      jump\t// out\n        /* \"#utility.yul\":6635:6845   */\n    tag_48:\n        /* \"#utility.yul\":6722:6726   */\n      0x00\n        /* \"#utility.yul\":6760:6762   */\n      0x20\n        /* \"#utility.yul\":6749:6758   */\n      dup3\n        /* \"#utility.yul\":6745:6763   */\n      add\n        /* \"#utility.yul\":6737:6763   */\n      swap1\n      pop\n        /* \"#utility.yul\":6773:6838   */\n      tag_255\n        /* \"#utility.yul\":6835:6836   */\n      0x00\n        /* \"#utility.yul\":6824:6833   */\n      dup4\n        /* \"#utility.yul\":6820:6837   */\n      add\n        /* \"#utility.yul\":6811:6817   */\n      dup5\n        /* \"#utility.yul\":6773:6838   */\n      tag_155\n      jump\t// in\n    tag_255:\n        /* \"#utility.yul\":6635:6845   */\n      swap3\n      swap2\n      pop\n      pop\n      jump\t// out\n        /* \"#utility.yul\":6851:7031   */\n    tag_156:\n        /* \"#utility.yul\":6899:6976   */\n      0x4e487b7100000000000000000000000000000000000000000000000000000000\n        /* \"#utility.yul\":6896:6897   */\n      0x00\n        /* \"#utility.yul\":6889:6977   */\n      mstore\n        /* \"#utility.yul\":6996:7000   */\n      0x22\n        /* \"#utility.yul\":6993:6994   */\n      0x04\n        /* \"#utility.yul\":6986:7001   */\n      mstore\n        /* \"#utility.yul\":7020:7024   */\n      0x24\n        /* \"#utility.yul\":7017:7018   */\n      0x00\n        /* \"#utility.yul\":7010:7025   */\n      revert\n        /* \"#utility.yul\":7037:7357   */\n    tag_52:\n        /* \"#utility.yul\":7081:7087   */\n      0x00\n        /* \"#utility.yul\":7118:7119   */\n      0x02\n        /* \"#utility.yul\":7112:7116   */\n      dup3\n        /* \"#utility.yul\":7108:7120   */\n      div\n        /* \"#utility.yul\":7098:7120   */\n      swap1\n      pop\n        /* \"#utility.yul\":7165:7166   */\n      0x01\n        /* \"#utility.yul\":7159:7163   */\n      dup3\n        /* \"#utility.yul\":7155:7167   */\n      and\n        /* \"#utility.yul\":7186:7204   */\n      dup1\n        /* \"#utility.yul\":7176:7257   */\n      tag_258\n      jumpi\n        /* \"#utility.yul\":7242:7246   */\n      0x7f\n        /* \"#utility.yul\":7234:7240   */\n      dup3\n        /* \"#utility.yul\":7230:7247   */\n      and\n        /* \"#utility.yul\":7220:7247   */\n      swap2\n      pop\n        /* \"#utility.yul\":7176:7257   */\n    tag_258:\n        /* \"#utility.yul\":7304:7306   */\n      0x20\n        /* \"#utility.yul\":7296:7302   */\n      dup3\n        /* \"#utility.yul\":7293:7307   */\n      lt\n        /* \"#utility.yul\":7273:7291   */\n      dup2\n        /* \"#utility.yul\":7270:7308   */\n      sub\n        /* \"#utility.yul\":7267:7351   */\n      tag_259\n      jumpi\n        /* \"#utility.yul\":7323:7341   */\n      tag_260\n      tag_156\n      jump\t// in\n    tag_260:\n        /* \"#utility.yul\":7267:7351   */\n    tag_259:\n        /* \"#utility.yul\":7088:7357   */\n      pop\n        /* \"#utility.yul\":7037:7357   */\n      swap2\n      swap1\n      pop\n      jump\t// out\n        /* \"#utility.yul\":7363:7511   */\n    tag_157:\n        /* \"#utility.yul\":7465:7476   */\n      0x00\n        /* \"#utility.yul\":7502:7505   */\n      dup2\n        /* \"#utility.yul\":7487:7505   */\n      swap1\n      pop\n        /* \"#utility.yul\":7363:7511   */\n      swap3\n      swap2\n      pop\n      pop\n      jump\t// out\n        /* \"#utility.yul\":7517:7907   */\n    tag_158:\n        /* \"#utility.yul\":7623:7626   */\n      0x00\n        /* \"#utility.yul\":7651:7690   */\n      tag_263\n        /* \"#utility.yul\":7684:7689   */\n      dup3\n        /* \"#utility.yul\":7651:7690   */\n      tag_135\n      jump\t// in\n    tag_263:\n        /* \"#utility.yul\":7706:7795   */\n      tag_264\n        /* \"#utility.yul\":7788:7794   */\n      dup2\n        /* \"#utility.yul\":7783:7786   */\n      dup6\n        /* \"#utility.yul\":7706:7795   */\n      tag_157\n      jump\t// in\n    tag_264:\n        /* \"#utility.yul\":7699:7795   */\n      swap4\n      pop\n        /* \"#utility.yul\":7804:7869   */\n      tag_265\n        /* \"#utility.yul\":7862:7868   */\n      dup2\n        /* \"#utility.yul\":7857:7860   */\n      dup6\n        /* \"#utility.yul\":7850:7854   */\n      0x20\n        /* \"#utility.yul\":7843:7848   */\n      dup7\n        /* \"#utility.yul\":7839:7855   */\n      add\n        /* \"#utility.yul\":7804:7869   */\n      tag_137\n      jump\t// in\n    tag_265:\n        /* \"#utility.yul\":7894:7900   */\n      dup1\n        /* \"#utility.yul\":7889:7892   */\n      dup5\n        /* \"#utility.yul\":7885:7901   */\n      add\n        /* \"#utility.yul\":7878:7901   */\n      swap2\n      pop\n        /* \"#utility.yul\":7627:7907   */\n      pop\n        /* \"#utility.yul\":7517:7907   */\n      swap3\n      swap2\n      pop\n      pop\n      jump\t// out\n        /* \"#utility.yul\":7913:8188   */\n    tag_59:\n        /* \"#utility.yul\":8045:8048   */\n      0x00\n        /* \"#utility.yul\":8067:8162   */\n      tag_267\n        /* \"#utility.yul\":8158:8161   */\n      dup3\n        /* \"#utility.yul\":8149:8155   */\n      dup5\n        /* \"#utility.yul\":8067:8162   */\n      tag_158\n      jump\t// in\n    tag_267:\n        /* \"#utility.yul\":8060:8162   */\n      swap2\n      pop\n        /* \"#utility.yul\":8179:8182   */\n      dup2\n        /* \"#utility.yul\":8172:8182   */\n      swap1\n      pop\n        /* \"#utility.yul\":7913:8188   */\n      swap3\n      swap2\n      pop\n      pop\n      jump\t// out\n        /* \"#utility.yul\":8194:8374   */\n    tag_66:\n        /* \"#utility.yul\":8242:8319   */\n      0x4e487b7100000000000000000000000000000000000000000000000000000000\n        /* \"#utility.yul\":8239:8240   */\n      0x00\n        /* \"#utility.yul\":8232:8320   */\n      mstore\n        /* \"#utility.yul\":8339:8343   */\n      0x32\n        /* \"#utility.yul\":8336:8337   */\n      0x04\n        /* \"#utility.yul\":8329:8344   */\n      mstore\n        /* \"#utility.yul\":8363:8367   */\n      0x24\n        /* \"#utility.yul\":8360:8361   */\n      0x00\n        /* \"#utility.yul\":8353:8368   */\n      revert\n        /* \"#utility.yul\":8380:8521   */\n    tag_159:\n        /* \"#utility.yul\":8429:8433   */\n      0x00\n        /* \"#utility.yul\":8452:8455   */\n      dup2\n        /* \"#utility.yul\":8444:8455   */\n      swap1\n      pop\n        /* \"#utility.yul\":8475:8478   */\n      dup2\n        /* \"#utility.yul\":8472:8473   */\n      0x00\n        /* \"#utility.yul\":8465:8479   */\n      mstore\n        /* \"#utility.yul\":8509:8513   */\n      0x20\n        /* \"#utility.yul\":8506:8507   */\n      0x00\n        /* \"#utility.yul\":8496:8514   */\n      keccak256\n        /* \"#utility.yul\":8488:8514   */\n      swap1\n      pop\n        /* \"#utility.yul\":8380:8521   */\n      swap2\n      swap1\n      pop\n      jump\t// out\n        /* \"#utility.yul\":8551:9425   */\n    tag_160:\n        /* \"#utility.yul\":8654:8657   */\n      0x00\n        /* \"#utility.yul\":8691:8696   */\n      dup2\n        /* \"#utility.yul\":8685:8697   */\n      sload\n        /* \"#utility.yul\":8720:8756   */\n      tag_271\n        /* \"#utility.yul\":8746:8755   */\n      dup2\n        /* \"#utility.yul\":8720:8756   */\n      tag_52\n      jump\t// in\n    tag_271:\n        /* \"#utility.yul\":8772:8861   */\n      tag_272\n        /* \"#utility.yul\":8854:8860   */\n      dup2\n        /* \"#utility.yul\":8849:8852   */\n      dup7\n        /* \"#utility.yul\":8772:8861   */\n      tag_157\n      jump\t// in\n    tag_272:\n        /* \"#utility.yul\":8765:8861   */\n      swap5\n      pop\n        /* \"#utility.yul\":8892:8893   */\n      0x01\n        /* \"#utility.yul\":8881:8890   */\n      dup3\n        /* \"#utility.yul\":8877:8894   */\n      and\n        /* \"#utility.yul\":8908:8909   */\n      0x00\n        /* \"#utility.yul\":8903:9069   */\n      dup2\n      eq\n      tag_274\n      jumpi\n        /* \"#utility.yul\":9083:9084   */\n      0x01\n        /* \"#utility.yul\":9078:9419   */\n      dup2\n      eq\n      tag_275\n      jumpi\n        /* \"#utility.yul\":8870:9419   */\n      jump(tag_273)\n        /* \"#utility.yul\":8903:9069   */\n    tag_274:\n        /* \"#utility.yul\":8987:8991   */\n      0xff\n        /* \"#utility.yul\":8983:8992   */\n      not\n        /* \"#utility.yul\":8972:8981   */\n      dup4\n        /* \"#utility.yul\":8968:8993   */\n      and\n        /* \"#utility.yul\":8963:8966   */\n      dup7\n        /* \"#utility.yul\":8956:8994   */\n      mstore\n        /* \"#utility.yul\":9049:9055   */\n      dup2\n        /* \"#utility.yul\":9042:9056   */\n      iszero\n        /* \"#utility.yul\":9035:9057   */\n      iszero\n        /* \"#utility.yul\":9027:9033   */\n      dup3\n        /* \"#utility.yul\":9023:9058   */\n      mul\n        /* \"#utility.yul\":9018:9021   */\n      dup7\n        /* \"#utility.yul\":9014:9059   */\n      add\n        /* \"#utility.yul\":9007:9059   */\n      swap4\n      pop\n        /* \"#utility.yul\":8903:9069   */\n      jump(tag_273)\n        /* \"#utility.yul\":9078:9419   */\n    tag_275:\n        /* \"#utility.yul\":9145:9183   */\n      tag_276\n        /* \"#utility.yul\":9177:9182   */\n      dup6\n        /* \"#utility.yul\":9145:9183   */\n      tag_159\n      jump\t// in\n    tag_276:\n        /* \"#utility.yul\":9205:9206   */\n      0x00\n        /* \"#utility.yul\":9219:9373   */\n    tag_277:\n        /* \"#utility.yul\":9233:9239   */\n      dup4\n        /* \"#utility.yul\":9230:9231   */\n      dup2\n        /* \"#utility.yul\":9227:9240   */\n      lt\n        /* \"#utility.yul\":9219:9373   */\n      iszero\n      tag_279\n      jumpi\n        /* \"#utility.yul\":9307:9314   */\n      dup2\n        /* \"#utility.yul\":9301:9315   */\n      sload\n        /* \"#utility.yul\":9297:9298   */\n      dup2\n        /* \"#utility.yul\":9292:9295   */\n      dup10\n        /* \"#utility.yul\":9288:9299   */\n      add\n        /* \"#utility.yul\":9281:9316   */\n      mstore\n        /* \"#utility.yul\":9357:9358   */\n      0x01\n        /* \"#utility.yul\":9348:9355   */\n      dup3\n        /* \"#utility.yul\":9344:9359   */\n      add\n        /* \"#utility.yul\":9333:9359   */\n      swap2\n      pop\n        /* \"#utility.yul\":9255:9259   */\n      0x20\n        /* \"#utility.yul\":9252:9253   */\n      dup2\n        /* \"#utility.yul\":9248:9260   */\n      add\n        /* \"#utility.yul\":9243:9260   */\n      swap1\n      pop\n        /* \"#utility.yul\":9219:9373   */\n      jump(tag_277)\n    tag_279:\n        /* \"#utility.yul\":9402:9408   */\n      dup4\n        /* \"#utility.yul\":9397:9400   */\n      dup9\n        /* \"#utility.yul\":9393:9409   */\n      add\n        /* \"#utility.yul\":9386:9409   */\n      swap6\n      pop\n        /* \"#utility.yul\":9085:9419   */\n      pop\n      pop\n        /* \"#utility.yul\":8870:9419   */\n    tag_273:\n      pop\n        /* \"#utility.yul\":8658:9425   */\n      pop\n      pop\n        /* \"#utility.yul\":8551:9425   */\n      swap3\n      swap2\n      pop\n      pop\n      jump\t// out\n        /* \"#utility.yul\":9431:9700   */\n    tag_69:\n        /* \"#utility.yul\":9560:9563   */\n      0x00\n        /* \"#utility.yul\":9582:9674   */\n      tag_281\n        /* \"#utility.yul\":9670:9673   */\n      dup3\n        /* \"#utility.yul\":9661:9667   */\n      dup5\n        /* \"#utility.yul\":9582:9674   */\n      tag_160\n      jump\t// in\n    tag_281:\n        /* \"#utility.yul\":9575:9674   */\n      swap2\n      pop\n        /* \"#utility.yul\":9691:9694   */\n      dup2\n        /* \"#utility.yul\":9684:9694   */\n      swap1\n      pop\n        /* \"#utility.yul\":9431:9700   */\n      swap3\n      swap2\n      pop\n      pop\n      jump\t// out\n        /* \"#utility.yul\":9706:9886   */\n    tag_161:\n        /* \"#utility.yul\":9754:9831   */\n      0x4e487b7100000000000000000000000000000000000000000000000000000000\n        /* \"#utility.yul\":9751:9752   */\n      0x00\n        /* \"#utility.yul\":9744:9832   */\n      mstore\n        /* \"#utility.yul\":9851:9855   */\n      0x11\n        /* \"#utility.yul\":9848:9849   */\n      0x04\n        /* \"#utility.yul\":9841:9856   */\n      mstore\n        /* \"#utility.yul\":9875:9879   */\n      0x24\n        /* \"#utility.yul\":9872:9873   */\n      0x00\n        /* \"#utility.yul\":9865:9880   */\n      revert\n        /* \"#utility.yul\":9892:10083   */\n    tag_79:\n        /* \"#utility.yul\":9932:9935   */\n      0x00\n        /* \"#utility.yul\":9951:9971   */\n      tag_284\n        /* \"#utility.yul\":9969:9970   */\n      dup3\n        /* \"#utility.yul\":9951:9971   */\n      tag_132\n      jump\t// in\n    tag_284:\n        /* \"#utility.yul\":9946:9971   */\n      swap2\n      pop\n        /* \"#utility.yul\":9985:10005   */\n      tag_285\n        /* \"#utility.yul\":10003:10004   */\n      dup4\n        /* \"#utility.yul\":9985:10005   */\n      tag_132\n      jump\t// in\n    tag_285:\n        /* \"#utility.yul\":9980:10005   */\n      swap3\n      pop\n        /* \"#utility.yul\":10028:10029   */\n      dup3\n        /* \"#utility.yul\":10025:10026   */\n      dup3\n        /* \"#utility.yul\":10021:10030   */\n      add\n        /* \"#utility.yul\":10014:10030   */\n      swap1\n      pop\n        /* \"#utility.yul\":10049:10052   */\n      dup1\n        /* \"#utility.yul\":10046:10047   */\n      dup3\n        /* \"#utility.yul\":10043:10053   */\n      gt\n        /* \"#utility.yul\":10040:10076   */\n      iszero\n      tag_286\n      jumpi\n        /* \"#utility.yul\":10056:10074   */\n      tag_287\n      tag_161\n      jump\t// in\n    tag_287:\n        /* \"#utility.yul\":10040:10076   */\n    tag_286:\n        /* \"#utility.yul\":9892:10083   */\n      swap3\n      swap2\n      pop\n      pop\n      jump\t// out\n        /* \"#utility.yul\":10089:10283   */\n    tag_88:\n        /* \"#utility.yul\":10129:10133   */\n      0x00\n        /* \"#utility.yul\":10149:10169   */\n      tag_289\n        /* \"#utility.yul\":10167:10168   */\n      dup3\n        /* \"#utility.yul\":10149:10169   */\n      tag_132\n      jump\t// in\n    tag_289:\n        /* \"#utility.yul\":10144:10169   */\n      swap2\n      pop\n        /* \"#utility.yul\":10183:10203   */\n      tag_290\n        /* \"#utility.yul\":10201:10202   */\n      dup4\n        /* \"#utility.yul\":10183:10203   */\n      tag_132\n      jump\t// in\n    tag_290:\n        /* \"#utility.yul\":10178:10203   */\n      swap3\n      pop\n        /* \"#utility.yul\":10227:10228   */\n      dup3\n        /* \"#utility.yul\":10224:10225   */\n      dup3\n        /* \"#utility.yul\":10220:10229   */\n      sub\n        /* \"#utility.yul\":10212:10229   */\n      swap1\n      pop\n        /* \"#utility.yul\":10251:10252   */\n      dup2\n        /* \"#utility.yul\":10245:10249   */\n      dup2\n        /* \"#utility.yul\":10242:10253   */\n      gt\n        /* \"#utility.yul\":10239:10276   */\n      iszero\n      tag_291\n      jumpi\n        /* \"#utility.yul\":10256:10274   */\n      tag_292\n      tag_161\n      jump\t// in\n    tag_292:\n        /* \"#utility.yul\":10239:10276   */\n    tag_291:\n        /* \"#utility.yul\":10089:10283   */\n      swap3\n      swap2\n      pop\n      pop\n      jump\t// out\n        /* \"#utility.yul\":10289:10382   */\n    tag_162:\n        /* \"#utility.yul\":10326:10332   */\n      0x00\n        /* \"#utility.yul\":10373:10375   */\n      0x20\n        /* \"#utility.yul\":10368:10370   */\n      0x1f\n        /* \"#utility.yul\":10361:10366   */\n      dup4\n        /* \"#utility.yul\":10357:10371   */\n      add\n        /* \"#utility.yul\":10353:10376   */\n      div\n        /* \"#utility.yul\":10343:10376   */\n      swap1\n      pop\n        /* \"#utility.yul\":10289:10382   */\n      swap2\n      swap1\n      pop\n      jump\t// out\n        /* \"#utility.yul\":10388:10495   */\n    tag_163:\n        /* \"#utility.yul\":10432:10440   */\n      0x00\n        /* \"#utility.yul\":10482:10487   */\n      dup3\n        /* \"#utility.yul\":10476:10480   */\n      dup3\n        /* \"#utility.yul\":10472:10488   */\n      shl\n        /* \"#utility.yul\":10451:10488   */\n      swap1\n      pop\n        /* \"#utility.yul\":10388:10495   */\n      swap3\n      swap2\n      pop\n      pop\n      jump\t// out\n        /* \"#utility.yul\":10501:10894   */\n    tag_164:\n        /* \"#utility.yul\":10570:10576   */\n      0x00\n        /* \"#utility.yul\":10620:10621   */\n      0x08\n        /* \"#utility.yul\":10608:10618   */\n      dup4\n        /* \"#utility.yul\":10604:10622   */\n      mul\n        /* \"#utility.yul\":10643:10740   */\n      tag_296\n        /* \"#utility.yul\":10673:10739   */\n      0xffffffffffffffffffffffffffffffffffffffffffffffffffffffffffffffff\n        /* \"#utility.yul\":10662:10671   */\n      dup3\n        /* \"#utility.yul\":10643:10740   */\n      tag_163\n      jump\t// in\n    tag_296:\n        /* \"#utility.yul\":10761:10800   */\n      tag_297\n        /* \"#utility.yul\":10791:10799   */\n      dup7\n        /* \"#utility.yul\":10780:10789   */\n      dup4\n        /* \"#utility.yul\":10761:10800   */\n      tag_163\n      jump\t// in\n    tag_297:\n        /* \"#utility.yul\":10749:10800   */\n      swap6\n      pop\n        /* \"#utility.yul\":10833:10837   */\n      dup1\n        /* \"#utility.yul\":10829:10838   */\n      not\n        /* \"#utility.yul\":10822:10827   */\n      dup5\n        /* \"#utility.yul\":10818:10839   */\n      and\n        /* \"#utility.yul\":10809:10839   */\n      swap4\n      pop\n        /* \"#utility.yul\":10882:10886   */\n      dup1\n        /* \"#utility.yul\":10872:10880   */\n      dup7\n        /* \"#utility.yul\":10868:10887   */\n      and\n        /* \"#utility.yul\":10861:10866   */\n      dup5\n        /* \"#utility.yul\":10858:10888   */\n      or\n        /* \"#utility.yul\":10848:10888   */\n      swap3\n      pop\n        /* \"#utility.yul\":10577:10894   */\n      pop\n      pop\n        /* \"#utility.yul\":10501:10894   */\n      swap4\n      swap3\n      pop\n      pop\n      pop\n      jump\t// out\n        /* \"#utility.yul\":10900:10960   */\n    tag_165:\n        /* \"#utility.yul\":10928:10931   */\n      0x00\n        /* \"#utility.yul\":10949:10954   */\n      dup2\n        /* \"#utility.yul\":10942:10954   */\n      swap1\n      pop\n        /* \"#utility.yul\":10900:10960   */\n      swap2\n      swap1\n      pop\n      jump\t// out\n        /* \"#utility.yul\":10966:11108   */\n    tag_166:\n        /* \"#utility.yul\":11016:11025   */\n      0x00\n        /* \"#utility.yul\":11049:11102   */\n      tag_300\n        /* \"#utility.yul\":11067:11101   */\n      tag_301\n        /* \"#utility.yul\":11076:11100   */\n      tag_302\n        /* \"#utility.yul\":11094:11099   */\n      dup5\n        /* \"#utility.yul\":11076:11100   */\n      tag_132\n      jump\t// in\n    tag_302:\n        /* \"#utility.yul\":11067:11101   */\n      tag_165\n      jump\t// in\n    tag_301:\n        /* \"#utility.yul\":11049:11102   */\n      tag_132\n      jump\t// in\n    tag_300:\n        /* \"#utility.yul\":11036:11102   */\n      swap1\n      pop\n        /* \"#utility.yul\":10966:11108   */\n      swap2\n      swap1\n      pop\n      jump\t// out\n        /* \"#utility.yul\":11114:11189   */\n    tag_167:\n        /* \"#utility.yul\":11157:11160   */\n      0x00\n        /* \"#utility.yul\":11178:11183   */\n      dup2\n        /* \"#utility.yul\":11171:11183   */\n      swap1\n      pop\n        /* \"#utility.yul\":11114:11189   */\n      swap2\n      swap1\n      pop\n      jump\t// out\n        /* \"#utility.yul\":11195:11464   */\n    tag_168:\n        /* \"#utility.yul\":11305:11344   */\n      tag_305\n        /* \"#utility.yul\":11336:11343   */\n      dup4\n        /* \"#utility.yul\":11305:11344   */\n      tag_166\n      jump\t// in\n    tag_305:\n        /* \"#utility.yul\":11366:11457   */\n      tag_306\n        /* \"#utility.yul\":11415:11456   */\n      tag_307\n        /* \"#utility.yul\":11439:11455   */\n      dup3\n        /* \"#utility.yul\":11415:11456   */\n      tag_167\n      jump\t// in\n    tag_307:\n        /* \"#utility.yul\":11407:11413   */\n      dup5\n        /* \"#utility.yul\":11400:11404   */\n      dup5\n        /* \"#utility.yul\":11394:11405   */\n      sload\n        /* \"#utility.yul\":11366:11457   */\n      tag_164\n      jump\t// in\n    tag_306:\n        /* \"#utility.yul\":11360:11364   */\n      dup3\n        /* \"#utility.yul\":11353:11458   */\n      sstore\n        /* \"#utility.yul\":11271:11464   */\n      pop\n        /* \"#utility.yul\":11195:11464   */\n      pop\n      pop\n      pop\n      jump\t// out\n        /* \"#utility.yul\":11470:11543   */\n    tag_169:\n        /* \"#utility.yul\":11515:11518   */\n      0x00\n        /* \"#utility.yul\":11536:11537   */\n      0x00\n        /* \"#utility.yul\":11529:11537   */\n      swap1\n      pop\n        /* \"#utility.yul\":11470:11543   */\n      swap1\n      jump\t// out\n        /* \"#utility.yul\":11549:11738   */\n    tag_170:\n        /* \"#utility.yul\":11626:11658   */\n      tag_310\n      tag_169\n      jump\t// in\n    tag_310:\n        /* \"#utility.yul\":11667:11732   */\n      tag_311\n        /* \"#utility.yul\":11725:11731   */\n      dup2\n        /* \"#utility.yul\":11717:11723   */\n      dup5\n        /* \"#utility.yul\":11711:11715   */\n      dup5\n        /* \"#utility.yul\":11667:11732   */\n      tag_168\n      jump\t// in\n    tag_311:\n        /* \"#utility.yul\":11602:11738   */\n      pop\n        /* \"#utility.yul\":11549:11738   */\n      pop\n      pop\n      jump\t// out\n        /* \"#utility.yul\":11744:11930   */\n    tag_171:\n        /* \"#utility.yul\":11804:11924   */\n    tag_313:\n        /* \"#utility.yul\":11821:11824   */\n      dup2\n        /* \"#utility.yul\":11814:11819   */\n      dup2\n        /* \"#utility.yul\":11811:11825   */\n      lt\n        /* \"#utility.yul\":11804:11924   */\n      iszero\n      tag_315\n      jumpi\n        /* \"#utility.yul\":11875:11914   */\n      tag_316\n        /* \"#utility.yul\":11912:11913   */\n      0x00\n        /* \"#utility.yul\":11905:11910   */\n      dup3\n        /* \"#utility.yul\":11875:11914   */\n      tag_170\n      jump\t// in\n    tag_316:\n        /* \"#utility.yul\":11848:11849   */\n      0x01\n        /* \"#utility.yul\":11841:11846   */\n      dup2\n        /* \"#utility.yul\":11837:11850   */\n      add\n        /* \"#utility.yul\":11828:11850   */\n      swap1\n      pop\n        /* \"#utility.yul\":11804:11924   */\n      jump(tag_313)\n    tag_315:\n        /* \"#utility.yul\":11744:11930   */\n      pop\n      pop\n      jump\t// out\n        /* \"#utility.yul\":11936:12479   */\n    tag_172:\n        /* \"#utility.yul\":12037:12039   */\n      0x1f\n        /* \"#utility.yul\":12032:12035   */\n      dup3\n        /* \"#utility.yul\":12029:12040   */\n      gt\n        /* \"#utility.yul\":12026:12472   */\n      iszero\n      tag_318\n      jumpi\n        /* \"#utility.yul\":12071:12109   */\n      tag_319\n        /* \"#utility.yul\":12103:12108   */\n      dup2\n        /* \"#utility.yul\":12071:12109   */\n      tag_159\n      jump\t// in\n    tag_319:\n        /* \"#utility.yul\":12155:12184   */\n      tag_320\n        /* \"#utility.yul\":12173:12183   */\n      dup5\n        /* \"#utility.yul\":12155:12184   */\n      tag_162\n      jump\t// in\n    tag_320:\n        /* \"#utility.yul\":12145:12153   */\n      dup2\n        /* \"#utility.yul\":12141:12185   */\n      add\n        /* \"#utility.yul\":12338:12340   */\n      0x20\n        /* \"#utility.yul\":12326:12336   */\n      dup6\n        /* \"#utility.yul\":12323:12341   */\n      lt\n        /* \"#utility.yul\":12320:12369   */\n      iszero\n      tag_321\n      jumpi\n        /* \"#utility.yul\":12359:12367   */\n      dup2\n        /* \"#utility.yul\":12344:12367   */\n      swap1\n      pop\n        /* \"#utility.yul\":12320:12369   */\n    tag_321:\n        /* \"#utility.yul\":12382:12462   */\n      tag_322\n        /* \"#utility.yul\":12438:12460   */\n      tag_323\n        /* \"#utility.yul\":12456:12459   */\n      dup6\n        /* \"#utility.yul\":12438:12460   */\n      tag_162\n      jump\t// in\n    tag_323:\n        /* \"#utility.yul\":12428:12436   */\n      dup4\n        /* \"#utility.yul\":12424:12461   */\n      add\n        /* \"#utility.yul\":12411:12422   */\n      dup3\n        /* \"#utility.yul\":12382:12462   */\n      tag_171\n      jump\t// in\n    tag_322:\n        /* \"#utility.yul\":12041:12472   */\n      pop\n      pop\n        /* \"#utility.yul\":12026:12472   */\n    tag_318:\n        /* \"#utility.yul\":11936:12479   */\n      pop\n      pop\n      pop\n      jump\t// out\n        /* \"#utility.yul\":12485:12602   */\n    tag_173:\n        /* \"#utility.yul\":12539:12547   */\n      0x00\n        /* \"#utility.yul\":12589:12594   */\n      dup3\n        /* \"#utility.yul\":12583:12587   */\n      dup3\n        /* \"#utility.yul\":12579:12595   */\n      shr\n        /* \"#utility.yul\":12558:12595   */\n      swap1\n      pop\n        /* \"#utility.yul\":12485:12602   */\n      swap3\n      swap2\n      pop\n      pop\n      jump\t// out\n        /* \"#utility.yul\":12608:12777   */\n    tag_174:\n        /* \"#utility.yul\":12652:12658   */\n      0x00\n        /* \"#utility.yul\":12685:12736   */\n      tag_326\n        /* \"#utility.yul\":12733:12734   */\n      0x00\n        /* \"#utility.yul\":12729:12735   */\n      not\n        /* \"#utility.yul\":12721:12726   */\n      dup5\n        /* \"#utility.yul\":12718:12719   */\n      0x08\n        /* \"#utility.yul\":12714:12727   */\n      mul\n        /* \"#utility.yul\":12685:12736   */\n      tag_173\n      jump\t// in\n    tag_326:\n        /* \"#utility.yul\":12681:12737   */\n      not\n        /* \"#utility.yul\":12766:12770   */\n      dup1\n        /* \"#utility.yul\":12760:12764   */\n      dup4\n        /* \"#utility.yul\":12756:12771   */\n      and\n        /* \"#utility.yul\":12746:12771   */\n      swap2\n      pop\n        /* \"#utility.yul\":12659:12777   */\n      pop\n        /* \"#utility.yul\":12608:12777   */\n      swap3\n      swap2\n      pop\n      pop\n      jump\t// out\n        /* \"#utility.yul\":12782:13077   */\n    tag_175:\n        /* \"#utility.yul\":12858:12862   */\n      0x00\n        /* \"#utility.yul\":13004:13033   */\n      tag_328\n        /* \"#utility.yul\":13029:13032   */\n      dup4\n        /* \"#utility.yul\":13023:13027   */\n      dup4\n        /* \"#utility.yul\":13004:13033   */\n      tag_174\n      jump\t// in\n    tag_328:\n        /* \"#utility.yul\":12996:13033   */\n      swap2\n      pop\n        /* \"#utility.yul\":13066:13069   */\n      dup3\n        /* \"#utility.yul\":13063:13064   */\n      0x02\n        /* \"#utility.yul\":13059:13070   */\n      mul\n        /* \"#utility.yul\":13053:13057   */\n      dup3\n        /* \"#utility.yul\":13050:13071   */\n      or\n        /* \"#utility.yul\":13042:13071   */\n      swap1\n      pop\n        /* \"#utility.yul\":12782:13077   */\n      swap3\n      swap2\n      pop\n      pop\n      jump\t// out\n        /* \"#utility.yul\":13082:14477   */\n    tag_111:\n        /* \"#utility.yul\":13199:13236   */\n      tag_330\n        /* \"#utility.yul\":13232:13235   */\n      dup3\n        /* \"#utility.yul\":13199:13236   */\n      tag_135\n      jump\t// in\n    tag_330:\n        /* \"#utility.yul\":13301:13319   */\n      0xffffffffffffffff\n        /* \"#utility.yul\":13293:13299   */\n      dup2\n        /* \"#utility.yul\":13290:13320   */\n      gt\n        /* \"#utility.yul\":13287:13343   */\n      iszero\n      tag_331\n      jumpi\n        /* \"#utility.yul\":13323:13341   */\n      tag_332\n      tag_95\n      jump\t// in\n    tag_332:\n        /* \"#utility.yul\":13287:13343   */\n    tag_331:\n        /* \"#utility.yul\":13367:13405   */\n      tag_333\n        /* \"#utility.yul\":13399:13403   */\n      dup3\n        /* \"#utility.yul\":13393:13404   */\n      sload\n        /* \"#utility.yul\":13367:13405   */\n      tag_52\n      jump\t// in\n    tag_333:\n        /* \"#utility.yul\":13452:13519   */\n      tag_334\n        /* \"#utility.yul\":13512:13518   */\n      dup3\n        /* \"#utility.yul\":13504:13510   */\n      dup3\n        /* \"#utility.yul\":13498:13502   */\n      dup6\n        /* \"#utility.yul\":13452:13519   */\n      tag_172\n      jump\t// in\n    tag_334:\n        /* \"#utility.yul\":13546:13547   */\n      0x00\n        /* \"#utility.yul\":13570:13574   */\n      0x20\n        /* \"#utility.yul\":13557:13574   */\n      swap1\n      pop\n        /* \"#utility.yul\":13602:13604   */\n      0x1f\n        /* \"#utility.yul\":13594:13600   */\n      dup4\n        /* \"#utility.yul\":13591:13605   */\n      gt\n        /* \"#utility.yul\":13619:13620   */\n      0x01\n        /* \"#utility.yul\":13614:14232   */\n      dup2\n      eq\n      tag_336\n      jumpi\n        /* \"#utility.yul\":14276:14277   */\n      0x00\n        /* \"#utility.yul\":14293:14299   */\n      dup5\n        /* \"#utility.yul\":14290:14367   */\n      iszero\n      tag_337\n      jumpi\n        /* \"#utility.yul\":14342:14351   */\n      dup3\n        /* \"#utility.yul\":14337:14340   */\n      dup8\n        /* \"#utility.yul\":14333:14352   */\n      add\n        /* \"#utility.yul\":14327:14353   */\n      mload\n        /* \"#utility.yul\":14318:14353   */\n      swap1\n      pop\n        /* \"#utility.yul\":14290:14367   */\n    tag_337:\n        /* \"#utility.yul\":14393:14460   */\n      tag_338\n        /* \"#utility.yul\":14453:14459   */\n      dup6\n        /* \"#utility.yul\":14446:14451   */\n      dup3\n        /* \"#utility.yul\":14393:14460   */\n      tag_175\n      jump\t// in\n    tag_338:\n        /* \"#utility.yul\":14387:14391   */\n      dup7\n        /* \"#utility.yul\":14380:14461   */\n      sstore\n        /* \"#utility.yul\":14249:14471   */\n      pop\n        /* \"#utility.yul\":13584:14471   */\n      jump(tag_335)\n        /* \"#utility.yul\":13614:14232   */\n    tag_336:\n        /* \"#utility.yul\":13666:13670   */\n      0x1f\n        /* \"#utility.yul\":13662:13671   */\n      not\n        /* \"#utility.yul\":13654:13660   */\n      dup5\n        /* \"#utility.yul\":13650:13672   */\n      and\n        /* \"#utility.yul\":13700:13737   */\n      tag_339\n        /* \"#utility.yul\":13732:13736   */\n      dup7\n        /* \"#utility.yul\":13700:13737   */\n      tag_159\n      jump\t// in\n    tag_339:\n        /* \"#utility.yul\":13759:13760   */\n      0x00\n        /* \"#utility.yul\":13773:13981   */\n    tag_340:\n        /* \"#utility.yul\":13787:13794   */\n      dup3\n        /* \"#utility.yul\":13784:13785   */\n      dup2\n        /* \"#utility.yul\":13781:13795   */\n      lt\n        /* \"#utility.yul\":13773:13981   */\n      iszero\n      tag_342\n      jumpi\n        /* \"#utility.yul\":13866:13875   */\n      dup5\n        /* \"#utility.yul\":13861:13864   */\n      dup10\n        /* \"#utility.yul\":13857:13876   */\n      add\n        /* \"#utility.yul\":13851:13877   */\n      mload\n        /* \"#utility.yul\":13843:13849   */\n      dup3\n        /* \"#utility.yul\":13836:13878   */\n      sstore\n        /* \"#utility.yul\":13917:13918   */\n      0x01\n        /* \"#utility.yul\":13909:13915   */\n      dup3\n        /* \"#utility.yul\":13905:13919   */\n      add\n        /* \"#utility.yul\":13895:13919   */\n      swap2\n      pop\n        /* \"#utility.yul\":13964:13966   */\n      0x20\n        /* \"#utility.yul\":13953:13962   */\n      dup6\n        /* \"#utility.yul\":13949:13967   */\n      add\n        /* \"#utility.yul\":13936:13967   */\n      swap5\n      pop\n        /* \"#utility.yul\":13810:13814   */\n      0x20\n        /* \"#utility.yul\":13807:13808   */\n      dup2\n        /* \"#utility.yul\":13803:13815   */\n      add\n        /* \"#utility.yul\":13798:13815   */\n      swap1\n      pop\n        /* \"#utility.yul\":13773:13981   */\n      jump(tag_340)\n    tag_342:\n        /* \"#utility.yul\":14009:14015   */\n      dup7\n        /* \"#utility.yul\":14000:14007   */\n      dup4\n        /* \"#utility.yul\":13997:14016   */\n      lt\n        /* \"#utility.yul\":13994:14173   */\n      iszero\n      tag_343\n      jumpi\n        /* \"#utility.yul\":14067:14076   */\n      dup5\n        /* \"#utility.yul\":14062:14065   */\n      dup10\n        /* \"#utility.yul\":14058:14077   */\n      add\n        /* \"#utility.yul\":14052:14078   */\n      mload\n        /* \"#utility.yul\":14110:14158   */\n      tag_344\n        /* \"#utility.yul\":14152:14156   */\n      0x1f\n        /* \"#utility.yul\":14144:14150   */\n      dup10\n        /* \"#utility.yul\":14140:14157   */\n      and\n        /* \"#utility.yul\":14129:14138   */\n      dup3\n        /* \"#utility.yul\":14110:14158   */\n      tag_174\n      jump\t// in\n    tag_344:\n        /* \"#utility.yul\":14102:14108   */\n      dup4\n        /* \"#utility.yul\":14095:14159   */\n      sstore\n        /* \"#utility.yul\":14017:14173   */\n      pop\n        /* \"#utility.yul\":13994:14173   */\n    tag_343:\n        /* \"#utility.yul\":14219:14220   */\n      0x01\n        /* \"#utility.yul\":14215:14216   */\n      0x02\n        /* \"#utility.yul\":14207:14213   */\n      dup9\n        /* \"#utility.yul\":14203:14217   */\n      mul\n        /* \"#utility.yul\":14199:14221   */\n      add\n        /* \"#utility.yul\":14193:14197   */\n      dup9\n        /* \"#utility.yul\":14186:14222   */\n      sstore\n        /* \"#utility.yul\":13621:14232   */\n      pop\n      pop\n      pop\n        /* \"#utility.yul\":13584:14471   */\n    tag_335:\n      pop\n        /* \"#utility.yul\":13174:14477   */\n      pop\n      pop\n      pop\n        /* \"#utility.yul\":13082:14477   */\n      pop\n      pop\n      jump\t// out\n        /* \"#utility.yul\":14483:14858   */\n    tag_114:\n        /* \"#utility.yul\":14522:14525   */\n      0x00\n        /* \"#utility.yul\":14541:14560   */\n      tag_346\n        /* \"#utility.yul\":14558:14559   */\n      dup3\n        /* \"#utility.yul\":14541:14560   */\n      tag_148\n      jump\t// in\n    tag_346:\n        /* \"#utility.yul\":14536:14560   */\n      swap2\n      pop\n        /* \"#utility.yul\":14574:14593   */\n      tag_347\n        /* \"#utility.yul\":14591:14592   */\n      dup4\n        /* \"#utility.yul\":14574:14593   */\n      tag_148\n      jump\t// in\n    tag_347:\n        /* \"#utility.yul\":14569:14593   */\n      swap3\n      pop\n        /* \"#utility.yul\":14616:14617   */\n      dup3\n        /* \"#utility.yul\":14613:14614   */\n      dup3\n        /* \"#utility.yul\":14609:14618   */\n      add\n        /* \"#utility.yul\":14602:14618   */\n      swap1\n      pop\n        /* \"#utility.yul\":14814:14815   */\n      dup3\n        /* \"#utility.yul\":14809:14812   */\n      dup2\n        /* \"#utility.yul\":14805:14816   */\n      slt\n        /* \"#utility.yul\":14798:14817   */\n      iszero\n        /* \"#utility.yul\":14794:14795   */\n      0x00\n        /* \"#utility.yul\":14791:14792   */\n      dup4\n        /* \"#utility.yul\":14787:14796   */\n      slt\n        /* \"#utility.yul\":14783:14818   */\n      and\n        /* \"#utility.yul\":14766:14767   */\n      dup4\n        /* \"#utility.yul\":14761:14764   */\n      dup3\n        /* \"#utility.yul\":14757:14768   */\n      slt\n        /* \"#utility.yul\":14752:14753   */\n      0x00\n        /* \"#utility.yul\":14749:14750   */\n      dup5\n        /* \"#utility.yul\":14745:14754   */\n      slt\n        /* \"#utility.yul\":14738:14755   */\n      iszero\n        /* \"#utility.yul\":14734:14769   */\n      and\n        /* \"#utility.yul\":14718:14828   */\n      or\n        /* \"#utility.yul\":14715:14851   */\n      iszero\n      tag_348\n      jumpi\n        /* \"#utility.yul\":14831:14849   */\n      tag_349\n      tag_161\n      jump\t// in\n    tag_349:\n        /* \"#utility.yul\":14715:14851   */\n    tag_348:\n        /* \"#utility.yul\":14483:14858   */\n      swap3\n      swap2\n      pop\n      pop\n      jump\t// out\n\n    auxdata: 0xa2646970667358221220bf4fb080f17d0be78599532427c4eeb1aab2397442c1c953a4ce471a49ded86b64736f6c634300081e0033\n}\n",
				"bytecode": {
					"linkReferences": {},
					"object": "608060405234801561000f575f5ffd5b50600160025f7f49000000000000000000000000000000000000000000000000000000000000007effffffffffffffffffffffffffffffffffffffffffffffffffffffffffffff191681526020019081526020015f2081905550600560025f7f56000000000000000000000000000000000000000000000000000000000000007effffffffffffffffffffffffffffffffffffffffffffffffffffffffffffff191681526020019081526020015f2081905550600a60025f7f58000000000000000000000000000000000000000000000000000000000000007effffffffffffffffffffffffffffffffffffffffffffffffffffffffffffff191681526020019081526020015f2081905550603260025f7f4c000000000000000000000000000000000000000000000000000000000000007effffffffffffffffffffffffffffffffffffffffffffffffffffffffffffff191681526020019081526020015f2081905550606460025f7f43000000000000000000000000000000000000000000000000000000000000007effffffffffffffffffffffffffffffffffffffffffffffffffffffffffffff191681526020019081526020015f20819055506101f460025f7f44000000000000000000000000000000000000000000000000000000000000007effffffffffffffffffffffffffffffffffffffffffffffffffffffffffffff191681526020019081526020015f20819055506103e860025f7f4d000000000000000000000000000000000000000000000000000000000000007effffffffffffffffffffffffffffffffffffffffffffffffffffffffffffff191681526020019081526020015f2081905550610fce8061028e5f395ff3fe608060405234801561000f575f5ffd5b5060043610610086575f3560e01c8063b9830ff111610059578063b9830ff11461014a578063cb159dfe14610154578063e702f6b914610184578063fc36e15b146101b457610086565b80630cb6aaf11461008a5780632cfea327146100ba578063805265e5146100ea5780639135a9581461011a575b5f5ffd5b6100a4600480360381019061009f91906107ab565b6101e4565b6040516100b19190610846565b60405180910390f35b6100d460048036038101906100cf9190610992565b61028a565b6040516100e191906109f1565b60405180910390f35b61010460048036038101906100ff9190610992565b6102b6565b60405161011191906109f1565b60405180910390f35b610134600480360381019061012f9190610a5f565b6102dc565b6040516101419190610a99565b60405180910390f35b6101526102f1565b005b61016e60048036038101906101699190610992565b61035b565b60405161017b9190610a99565b60405180910390f35b61019e60048036038101906101999190610992565b610533565b6040516101ab9190610846565b60405180910390f35b6101ce60048036038101906101c99190610992565b610639565b6040516101db9190610acc565b60405180910390f35b600181815481106101f3575f80fd5b905f5260205f20015f91509050805461020b90610b12565b80601f016020809104026020016040519081016040528092919081815260200182805461023790610b12565b80156102825780601f1061025957610100808354040283529160200191610282565b820191905f5260205f20905b81548152906001019060200180831161026557829003601f168201915b505050505081565b5f818051602081018201805184825260208301602085012081835280955050505050505f915090505481565b5f5f826040516102c69190610b7c565b9081526020016040518091039020549050919050565b6002602052805f5260405f205f915090505481565b5f5f90505b60018054905081101561034b575f6001828154811061031857610317610b92565b5b905f5260205f200160405161032d9190610c51565b90815260200160405180910390205f905580806001019150506102f6565b5060015f61035991906106ce565b565b5f5f8290505f5f90505f5f90505b8251811015610528575f60025f85848151811061038957610388610b92565b5b602001015160f81c60f81b7effffffffffffffffffffffffffffffffffffffffffffffffffffffffffffff19167effffffffffffffffffffffffffffffffffffffffffffffffffffffffffffff191681526020019081526020015f2054905083516001836103f79190610c94565b1080156104f3575060025f856001856104109190610c94565b8151811061042157610420610b92565b5b602001015160f81c60f81b7effffffffffffffffffffffffffffffffffffffffffffffffffffffffffffff19167effffffffffffffffffffffffffffffffffffffffffffffffffffffffffffff191681526020019081526020015f205460025f86858151811061049457610493610b92565b5b602001015160f81c60f81b7effffffffffffffffffffffffffffffffffffffffffffffffffffffffffffff19167effffffffffffffffffffffffffffffffffffffffffffffffffffffffffffff191681526020019081526020015f2054105b1561050b5780836105049190610cc7565b925061051a565b80836105179190610c94565b92505b508080600101915050610369565b508092505050919050565b60605f8290505f81510361054a5782915050610634565b5f815167ffffffffffffffff8111156105665761056561086e565b5b6040519080825280601f01601f1916602001820160405280156105985781602001600182028036833780820191505090505b5090505f5f90505b825181101561062d578281600185516105b99190610cc7565b6105c39190610cc7565b815181106105d4576105d3610b92565b5b602001015160f81c60f81b8282815181106105f2576105f1610b92565b5b60200101907effffffffffffffffffffffffffffffffffffffffffffffffffffffffffffff191690815f1a90535080806001019150506105a0565b5080925050505b919050565b5f5f5f8360405161064a9190610b7c565b9081526020016040518091039020540361069157600182908060018154018082558091505060019003905f5260205f20015f90919091909150908161068f9190610e88565b505b60015f836040516106a29190610b7c565b90815260200160405180910390205f8282546106be9190610f57565b9250508190555060019050919050565b5080545f8255905f5260205f20908101906106e991906106ec565b50565b5b8082111561070b575f8181610702919061070f565b506001016106ed565b5090565b50805461071b90610b12565b5f825580601f1061072c5750610749565b601f0160209004905f5260205f2090810190610748919061074c565b5b50565b5b80821115610763575f815f90555060010161074d565b5090565b5f604051905090565b5f5ffd5b5f5ffd5b5f819050919050565b61078a81610778565b8114610794575f5ffd5b50565b5f813590506107a581610781565b92915050565b5f602082840312156107c0576107bf610770565b5b5f6107cd84828501610797565b91505092915050565b5f81519050919050565b5f82825260208201905092915050565b8281835e5f83830152505050565b5f601f19601f8301169050919050565b5f610818826107d6565b61082281856107e0565b93506108328185602086016107f0565b61083b816107fe565b840191505092915050565b5f6020820190508181035f83015261085e818461080e565b905092915050565b5f5ffd5b5f5ffd5b7f4e487b71000000000000000000000000000000000000000000000000000000005f52604160045260245ffd5b6108a4826107fe565b810181811067ffffffffffffffff821117156108c3576108c261086e565b5b80604052505050565b5f6108d5610767565b90506108e1828261089b565b919050565b5f67ffffffffffffffff821115610900576108ff61086e565b5b610909826107fe565b9050602081019050919050565b828183375f83830152505050565b5f610936610931846108e6565b6108cc565b9050828152602081018484840111156109525761095161086a565b5b61095d848285610916565b509392505050565b5f82601f83011261097957610978610866565b5b8135610989848260208601610924565b91505092915050565b5f602082840312156109a7576109a6610770565b5b5f82013567ffffffffffffffff8111156109c4576109c3610774565b5b6109d084828501610965565b91505092915050565b5f819050919050565b6109eb816109d9565b82525050565b5f602082019050610a045f8301846109e2565b92915050565b5f7fff0000000000000000000000000000000000000000000000000000000000000082169050919050565b610a3e81610a0a565b8114610a48575f5ffd5b50565b5f81359050610a5981610a35565b92915050565b5f60208284031215610a7457610a73610770565b5b5f610a8184828501610a4b565b91505092915050565b610a9381610778565b82525050565b5f602082019050610aac5f830184610a8a565b92915050565b5f8115159050919050565b610ac681610ab2565b82525050565b5f602082019050610adf5f830184610abd565b92915050565b7f4e487b71000000000000000000000000000000000000000000000000000000005f52602260045260245ffd5b5f6002820490506001821680610b2957607f821691505b602082108103610b3c57610b3b610ae5565b5b50919050565b5f81905092915050565b5f610b56826107d6565b610b608185610b42565b9350610b708185602086016107f0565b80840191505092915050565b5f610b878284610b4c565b915081905092915050565b7f4e487b71000000000000000000000000000000000000000000000000000000005f52603260045260245ffd5b5f819050815f5260205f209050919050565b5f8154610bdd81610b12565b610be78186610b42565b9450600182165f8114610c015760018114610c1657610c48565b60ff1983168652811515820286019350610c48565b610c1f85610bbf565b5f5b83811015610c4057815481890152600182019150602081019050610c21565b838801955050505b50505092915050565b5f610c5c8284610bd1565b915081905092915050565b7f4e487b71000000000000000000000000000000000000000000000000000000005f52601160045260245ffd5b5f610c9e82610778565b9150610ca983610778565b9250828201905080821115610cc157610cc0610c67565b5b92915050565b5f610cd182610778565b9150610cdc83610778565b9250828203905081811115610cf457610cf3610c67565b5b92915050565b5f6020601f8301049050919050565b5f82821b905092915050565b5f60088302610d447fffffffffffffffffffffffffffffffffffffffffffffffffffffffffffffffff82610d09565b610d4e8683610d09565b95508019841693508086168417925050509392505050565b5f819050919050565b5f610d89610d84610d7f84610778565b610d66565b610778565b9050919050565b5f819050919050565b610da283610d6f565b610db6610dae82610d90565b848454610d15565b825550505050565b5f5f905090565b610dcd610dbe565b610dd8818484610d99565b505050565b5b81811015610dfb57610df05f82610dc5565b600181019050610dde565b5050565b601f821115610e4057610e1181610bbf565b610e1a84610cfa565b81016020851015610e29578190505b610e3d610e3585610cfa565b830182610ddd565b50505b505050565b5f82821c905092915050565b5f610e605f1984600802610e45565b1980831691505092915050565b5f610e788383610e51565b9150826002028217905092915050565b610e91826107d6565b67ffffffffffffffff811115610eaa57610ea961086e565b5b610eb48254610b12565b610ebf828285610dff565b5f60209050601f831160018114610ef0575f8415610ede578287015190505b610ee88582610e6d565b865550610f4f565b601f198416610efe86610bbf565b5f5b82811015610f2557848901518255600182019150602085019450602081019050610f00565b86831015610f425784890151610f3e601f891682610e51565b8355505b6001600288020188555050505b505050505050565b5f610f61826109d9565b9150610f6c836109d9565b92508282019050828112155f8312168382125f841215161715610f9257610f91610c67565b5b9291505056fea2646970667358221220bf4fb080f17d0be78599532427c4eeb1aab2397442c1c953a4ce471a49ded86b64736f6c634300081e0033",
					"opcodes": "PUSH1 0x80 PUSH1 0x40 MSTORE CALLVALUE DUP1 ISZERO PUSH2 0xF JUMPI PUSH0 PUSH0 REVERT JUMPDEST POP PUSH1 0x1 PUSH1 0x2 PUSH0 PUSH32 0x4900000000000000000000000000000000000000000000000000000000000000 PUSH31 0xFFFFFFFFFFFFFFFFFFFFFFFFFFFFFFFFFFFFFFFFFFFFFFFFFFFFFFFFFFFFFF NOT AND DUP2 MSTORE PUSH1 0x20 ADD SWAP1 DUP2 MSTORE PUSH1 0x20 ADD PUSH0 KECCAK256 DUP2 SWAP1 SSTORE POP PUSH1 0x5 PUSH1 0x2 PUSH0 PUSH32 0x5600000000000000000000000000000000000000000000000000000000000000 PUSH31 0xFFFFFFFFFFFFFFFFFFFFFFFFFFFFFFFFFFFFFFFFFFFFFFFFFFFFFFFFFFFFFF NOT AND DUP2 MSTORE PUSH1 0x20 ADD SWAP1 DUP2 MSTORE PUSH1 0x20 ADD PUSH0 KECCAK256 DUP2 SWAP1 SSTORE POP PUSH1 0xA PUSH1 0x2 PUSH0 PUSH32 0x5800000000000000000000000000000000000000000000000000000000000000 PUSH31 0xFFFFFFFFFFFFFFFFFFFFFFFFFFFFFFFFFFFFFFFFFFFFFFFFFFFFFFFFFFFFFF NOT AND DUP2 MSTORE PUSH1 0x20 ADD SWAP1 DUP2 MSTORE PUSH1 0x20 ADD PUSH0 KECCAK256 DUP2 SWAP1 SSTORE POP PUSH1 0x32 PUSH1 0x2 PUSH0 PUSH32 0x4C00000000000000000000000000000000000000000000000000000000000000 PUSH31 0xFFFFFFFFFFFFFFFFFFFFFFFFFFFFFFFFFFFFFFFFFFFFFFFFFFFFFFFFFFFFFF NOT AND DUP2 MSTORE PUSH1 0x20 ADD SWAP1 DUP2 MSTORE PUSH1 0x20 ADD PUSH0 KECCAK256 DUP2 SWAP1 SSTORE POP PUSH1 0x64 PUSH1 0x2 PUSH0 PUSH32 0x4300000000000000000000000000000000000000000000000000000000000000 PUSH31 0xFFFFFFFFFFFFFFFFFFFFFFFFFFFFFFFFFFFFFFFFFFFFFFFFFFFFFFFFFFFFFF NOT AND DUP2 MSTORE PUSH1 0x20 ADD SWAP1 DUP2 MSTORE PUSH1 0x20 ADD PUSH0 KECCAK256 DUP2 SWAP1 SSTORE POP PUSH2 0x1F4 PUSH1 0x2 PUSH0 PUSH32 0x4400000000000000000000000000000000000000000000000000000000000000 PUSH31 0xFFFFFFFFFFFFFFFFFFFFFFFFFFFFFFFFFFFFFFFFFFFFFFFFFFFFFFFFFFFFFF NOT AND DUP2 MSTORE PUSH1 0x20 ADD SWAP1 DUP2 MSTORE PUSH1 0x20 ADD PUSH0 KECCAK256 DUP2 SWAP1 SSTORE POP PUSH2 0x3E8 PUSH1 0x2 PUSH0 PUSH32 0x4D00000000000000000000000000000000000000000000000000000000000000 PUSH31 0xFFFFFFFFFFFFFFFFFFFFFFFFFFFFFFFFFFFFFFFFFFFFFFFFFFFFFFFFFFFFFF NOT AND DUP2 MSTORE PUSH1 0x20 ADD SWAP1 DUP2 MSTORE PUSH1 0x20 ADD PUSH0 KECCAK256 DUP2 SWAP1 SSTORE POP PUSH2 0xFCE DUP1 PUSH2 0x28E PUSH0 CODECOPY PUSH0 RETURN INVALID PUSH1 0x80 PUSH1 0x40 MSTORE CALLVALUE DUP1 ISZERO PUSH2 0xF JUMPI PUSH0 PUSH0 REVERT JUMPDEST POP PUSH1 0x4 CALLDATASIZE LT PUSH2 0x86 JUMPI PUSH0 CALLDATALOAD PUSH1 0xE0 SHR DUP1 PUSH4 0xB9830FF1 GT PUSH2 0x59 JUMPI DUP1 PUSH4 0xB9830FF1 EQ PUSH2 0x14A JUMPI DUP1 PUSH4 0xCB159DFE EQ PUSH2 0x154 JUMPI DUP1 PUSH4 0xE702F6B9 EQ PUSH2 0x184 JUMPI DUP1 PUSH4 0xFC36E15B EQ PUSH2 0x1B4 JUMPI PUSH2 0x86 JUMP JUMPDEST DUP1 PUSH4 0xCB6AAF1 EQ PUSH2 0x8A JUMPI DUP1 PUSH4 0x2CFEA327 EQ PUSH2 0xBA JUMPI DUP1 PUSH4 0x805265E5 EQ PUSH2 0xEA JUMPI DUP1 PUSH4 0x9135A958 EQ PUSH2 0x11A JUMPI JUMPDEST PUSH0 PUSH0 REVERT JUMPDEST PUSH2 0xA4 PUSH1 0x4 DUP1 CALLDATASIZE SUB DUP2 ADD SWAP1 PUSH2 0x9F SWAP2 SWAP1 PUSH2 0x7AB JUMP JUMPDEST PUSH2 0x1E4 JUMP JUMPDEST PUSH1 0x40 MLOAD PUSH2 0xB1 SWAP2 SWAP1 PUSH2 0x846 JUMP JUMPDEST PUSH1 0x40 MLOAD DUP1 SWAP2 SUB SWAP1 RETURN JUMPDEST PUSH2 0xD4 PUSH1 0x4 DUP1 CALLDATASIZE SUB DUP2 ADD SWAP1 PUSH2 0xCF SWAP2 SWAP1 PUSH2 0x992 JUMP JUMPDEST PUSH2 0x28A JUMP JUMPDEST PUSH1 0x40 MLOAD PUSH2 0xE1 SWAP2 SWAP1 PUSH2 0x9F1 JUMP JUMPDEST PUSH1 0x40 MLOAD DUP1 SWAP2 SUB SWAP1 RETURN JUMPDEST PUSH2 0x104 PUSH1 0x4 DUP1 CALLDATASIZE SUB DUP2 ADD SWAP1 PUSH2 0xFF SWAP2 SWAP1 PUSH2 0x992 JUMP JUMPDEST PUSH2 0x2B6 JUMP JUMPDEST PUSH1 0x40 MLOAD PUSH2 0x111 SWAP2 SWAP1 PUSH2 0x9F1 JUMP JUMPDEST PUSH1 0x40 MLOAD DUP1 SWAP2 SUB SWAP1 RETURN JUMPDEST PUSH2 0x134 PUSH1 0x4 DUP1 CALLDATASIZE SUB DUP2 ADD SWAP1 PUSH2 0x12F SWAP2 SWAP1 PUSH2 0xA5F JUMP JUMPDEST PUSH2 0x2DC JUMP JUMPDEST PUSH1 0x40 MLOAD PUSH2 0x141 SWAP2 SWAP1 PUSH2 0xA99 JUMP JUMPDEST PUSH1 0x40 MLOAD DUP1 SWAP2 SUB SWAP1 RETURN JUMPDEST PUSH2 0x152 PUSH2 0x2F1 JUMP JUMPDEST STOP JUMPDEST PUSH2 0x16E PUSH1 0x4 DUP1 CALLDATASIZE SUB DUP2 ADD SWAP1 PUSH2 0x169 SWAP2 SWAP1 PUSH2 0x992 JUMP JUMPDEST PUSH2 0x35B JUMP JUMPDEST PUSH1 0x40 MLOAD PUSH2 0x17B SWAP2 SWAP1 PUSH2 0xA99 JUMP JUMPDEST PUSH1 0x40 MLOAD DUP1 SWAP2 SUB SWAP1 RETURN JUMPDEST PUSH2 0x19E PUSH1 0x4 DUP1 CALLDATASIZE SUB DUP2 ADD SWAP1 PUSH2 0x199 SWAP2 SWAP1 PUSH2 0x992 JUMP JUMPDEST PUSH2 0x533 JUMP JUMPDEST PUSH1 0x40 MLOAD PUSH2 0x1AB SWAP2 SWAP1 PUSH2 0x846 JUMP JUMPDEST PUSH1 0x40 MLOAD DUP1 SWAP2 SUB SWAP1 RETURN JUMPDEST PUSH2 0x1CE PUSH1 0x4 DUP1 CALLDATASIZE SUB DUP2 ADD SWAP1 PUSH2 0x1C9 SWAP2 SWAP1 PUSH2 0x992 JUMP JUMPDEST PUSH2 0x639 JUMP JUMPDEST PUSH1 0x40 MLOAD PUSH2 0x1DB SWAP2 SWAP1 PUSH2 0xACC JUMP JUMPDEST PUSH1 0x40 MLOAD DUP1 SWAP2 SUB SWAP1 RETURN JUMPDEST PUSH1 0x1 DUP2 DUP2 SLOAD DUP2 LT PUSH2 0x1F3 JUMPI PUSH0 DUP1 REVERT JUMPDEST SWAP1 PUSH0 MSTORE PUSH1 0x20 PUSH0 KECCAK256 ADD PUSH0 SWAP2 POP SWAP1 POP DUP1 SLOAD PUSH2 0x20B SWAP1 PUSH2 0xB12 JUMP JUMPDEST DUP1 PUSH1 0x1F ADD PUSH1 0x20 DUP1 SWAP2 DIV MUL PUSH1 0x20 ADD PUSH1 0x40 MLOAD SWAP1 DUP2 ADD PUSH1 0x40 MSTORE DUP1 SWAP3 SWAP2 SWAP1 DUP2 DUP2 MSTORE PUSH1 0x20 ADD DUP3 DUP1 SLOAD PUSH2 0x237 SWAP1 PUSH2 0xB12 JUMP JUMPDEST DUP1 ISZERO PUSH2 0x282 JUMPI DUP1 PUSH1 0x1F LT PUSH2 0x259 JUMPI PUSH2 0x100 DUP1 DUP4 SLOAD DIV MUL DUP4 MSTORE SWAP2 PUSH1 0x20 ADD SWAP2 PUSH2 0x282 JUMP JUMPDEST DUP3 ADD SWAP2 SWAP1 PUSH0 MSTORE PUSH1 0x20 PUSH0 KECCAK256 SWAP1 JUMPDEST DUP2 SLOAD DUP2 MSTORE SWAP1 PUSH1 0x1 ADD SWAP1 PUSH1 0x20 ADD DUP1 DUP4 GT PUSH2 0x265 JUMPI DUP3 SWAP1 SUB PUSH1 0x1F AND DUP3 ADD SWAP2 JUMPDEST POP POP POP POP POP DUP2 JUMP JUMPDEST PUSH0 DUP2 DUP1 MLOAD PUSH1 0x20 DUP2 ADD DUP3 ADD DUP1 MLOAD DUP5 DUP3 MSTORE PUSH1 0x20 DUP4 ADD PUSH1 0x20 DUP6 ADD KECCAK256 DUP2 DUP4 MSTORE DUP1 SWAP6 POP POP POP POP POP POP PUSH0 SWAP2 POP SWAP1 POP SLOAD DUP2 JUMP JUMPDEST PUSH0 PUSH0 DUP3 PUSH1 0x40 MLOAD PUSH2 0x2C6 SWAP2 SWAP1 PUSH2 0xB7C JUMP JUMPDEST SWAP1 DUP2 MSTORE PUSH1 0x20 ADD PUSH1 0x40 MLOAD DUP1 SWAP2 SUB SWAP1 KECCAK256 SLOAD SWAP1 POP SWAP2 SWAP1 POP JUMP JUMPDEST PUSH1 0x2 PUSH1 0x20 MSTORE DUP1 PUSH0 MSTORE PUSH1 0x40 PUSH0 KECCAK256 PUSH0 SWAP2 POP SWAP1 POP SLOAD DUP2 JUMP JUMPDEST PUSH0 PUSH0 SWAP1 POP JUMPDEST PUSH1 0x1 DUP1 SLOAD SWAP1 POP DUP2 LT ISZERO PUSH2 0x34B JUMPI PUSH0 PUSH1 0x1 DUP3 DUP2 SLOAD DUP2 LT PUSH2 0x318 JUMPI PUSH2 0x317 PUSH2 0xB92 JUMP JUMPDEST JUMPDEST SWAP1 PUSH0 MSTORE PUSH1 0x20 PUSH0 KECCAK256 ADD PUSH1 0x40 MLOAD PUSH2 0x32D SWAP2 SWAP1 PUSH2 0xC51 JUMP JUMPDEST SWAP1 DUP2 MSTORE PUSH1 0x20 ADD PUSH1 0x40 MLOAD DUP1 SWAP2 SUB SWAP1 KECCAK256 PUSH0 SWAP1 SSTORE DUP1 DUP1 PUSH1 0x1 ADD SWAP2 POP POP PUSH2 0x2F6 JUMP JUMPDEST POP PUSH1 0x1 PUSH0 PUSH2 0x359 SWAP2 SWAP1 PUSH2 0x6CE JUMP JUMPDEST JUMP JUMPDEST PUSH0 PUSH0 DUP3 SWAP1 POP PUSH0 PUSH0 SWAP1 POP PUSH0 PUSH0 SWAP1 POP JUMPDEST DUP3 MLOAD DUP2 LT ISZERO PUSH2 0x528 JUMPI PUSH0 PUSH1 0x2 PUSH0 DUP6 DUP5 DUP2 MLOAD DUP2 LT PUSH2 0x389 JUMPI PUSH2 0x388 PUSH2 0xB92 JUMP JUMPDEST JUMPDEST PUSH1 0x20 ADD ADD MLOAD PUSH1 0xF8 SHR PUSH1 0xF8 SHL PUSH31 0xFFFFFFFFFFFFFFFFFFFFFFFFFFFFFFFFFFFFFFFFFFFFFFFFFFFFFFFFFFFFFF NOT AND PUSH31 0xFFFFFFFFFFFFFFFFFFFFFFFFFFFFFFFFFFFFFFFFFFFFFFFFFFFFFFFFFFFFFF NOT AND DUP2 MSTORE PUSH1 0x20 ADD SWAP1 DUP2 MSTORE PUSH1 0x20 ADD PUSH0 KECCAK256 SLOAD SWAP1 POP DUP4 MLOAD PUSH1 0x1 DUP4 PUSH2 0x3F7 SWAP2 SWAP1 PUSH2 0xC94 JUMP JUMPDEST LT DUP1 ISZERO PUSH2 0x4F3 JUMPI POP PUSH1 0x2 PUSH0 DUP6 PUSH1 0x1 DUP6 PUSH2 0x410 SWAP2 SWAP1 PUSH2 0xC94 JUMP JUMPDEST DUP2 MLOAD DUP2 LT PUSH2 0x421 JUMPI PUSH2 0x420 PUSH2 0xB92 JUMP JUMPDEST JUMPDEST PUSH1 0x20 ADD ADD MLOAD PUSH1 0xF8 SHR PUSH1 0xF8 SHL PUSH31 0xFFFFFFFFFFFFFFFFFFFFFFFFFFFFFFFFFFFFFFFFFFFFFFFFFFFFFFFFFFFFFF NOT AND PUSH31 0xFFFFFFFFFFFFFFFFFFFFFFFFFFFFFFFFFFFFFFFFFFFFFFFFFFFFFFFFFFFFFF NOT AND DUP2 MSTORE PUSH1 0x20 ADD SWAP1 DUP2 MSTORE PUSH1 0x20 ADD PUSH0 KECCAK256 SLOAD PUSH1 0x2 PUSH0 DUP7 DUP6 DUP2 MLOAD DUP2 LT PUSH2 0x494 JUMPI PUSH2 0x493 PUSH2 0xB92 JUMP JUMPDEST JUMPDEST PUSH1 0x20 ADD ADD MLOAD PUSH1 0xF8 SHR PUSH1 0xF8 SHL PUSH31 0xFFFFFFFFFFFFFFFFFFFFFFFFFFFFFFFFFFFFFFFFFFFFFFFFFFFFFFFFFFFFFF NOT AND PUSH31 0xFFFFFFFFFFFFFFFFFFFFFFFFFFFFFFFFFFFFFFFFFFFFFFFFFFFFFFFFFFFFFF NOT AND DUP2 MSTORE PUSH1 0x20 ADD SWAP1 DUP2 MSTORE PUSH1 0x20 ADD PUSH0 KECCAK256 SLOAD LT JUMPDEST ISZERO PUSH2 0x50B JUMPI DUP1 DUP4 PUSH2 0x504 SWAP2 SWAP1 PUSH2 0xCC7 JUMP JUMPDEST SWAP3 POP PUSH2 0x51A JUMP JUMPDEST DUP1 DUP4 PUSH2 0x517 SWAP2 SWAP1 PUSH2 0xC94 JUMP JUMPDEST SWAP3 POP JUMPDEST POP DUP1 DUP1 PUSH1 0x1 ADD SWAP2 POP POP PUSH2 0x369 JUMP JUMPDEST POP DUP1 SWAP3 POP POP POP SWAP2 SWAP1 POP JUMP JUMPDEST PUSH1 0x60 PUSH0 DUP3 SWAP1 POP PUSH0 DUP2 MLOAD SUB PUSH2 0x54A JUMPI DUP3 SWAP2 POP POP PUSH2 0x634 JUMP JUMPDEST PUSH0 DUP2 MLOAD PUSH8 0xFFFFFFFFFFFFFFFF DUP2 GT ISZERO PUSH2 0x566 JUMPI PUSH2 0x565 PUSH2 0x86E JUMP JUMPDEST JUMPDEST PUSH1 0x40 MLOAD SWAP1 DUP1 DUP3 MSTORE DUP1 PUSH1 0x1F ADD PUSH1 0x1F NOT AND PUSH1 0x20 ADD DUP3 ADD PUSH1 0x40 MSTORE DUP1 ISZERO PUSH2 0x598 JUMPI DUP2 PUSH1 0x20 ADD PUSH1 0x1 DUP3 MUL DUP1 CALLDATASIZE DUP4 CALLDATACOPY DUP1 DUP3 ADD SWAP2 POP POP SWAP1 POP JUMPDEST POP SWAP1 POP PUSH0 PUSH0 SWAP1 POP JUMPDEST DUP3 MLOAD DUP2 LT ISZERO PUSH2 0x62D JUMPI DUP3 DUP2 PUSH1 0x1 DUP6 MLOAD PUSH2 0x5B9 SWAP2 SWAP1 PUSH2 0xCC7 JUMP JUMPDEST PUSH2 0x5C3 SWAP2 SWAP1 PUSH2 0xCC7 JUMP JUMPDEST DUP2 MLOAD DUP2 LT PUSH2 0x5D4 JUMPI PUSH2 0x5D3 PUSH2 0xB92 JUMP JUMPDEST JUMPDEST PUSH1 0x20 ADD ADD MLOAD PUSH1 0xF8 SHR PUSH1 0xF8 SHL DUP3 DUP3 DUP2 MLOAD DUP2 LT PUSH2 0x5F2 JUMPI PUSH2 0x5F1 PUSH2 0xB92 JUMP JUMPDEST JUMPDEST PUSH1 0x20 ADD ADD SWAP1 PUSH31 0xFFFFFFFFFFFFFFFFFFFFFFFFFFFFFFFFFFFFFFFFFFFFFFFFFFFFFFFFFFFFFF NOT AND SWAP1 DUP2 PUSH0 BYTE SWAP1 MSTORE8 POP DUP1 DUP1 PUSH1 0x1 ADD SWAP2 POP POP PUSH2 0x5A0 JUMP JUMPDEST POP DUP1 SWAP3 POP POP POP JUMPDEST SWAP2 SWAP1 POP JUMP JUMPDEST PUSH0 PUSH0 PUSH0 DUP4 PUSH1 0x40 MLOAD PUSH2 0x64A SWAP2 SWAP1 PUSH2 0xB7C JUMP JUMPDEST SWAP1 DUP2 MSTORE PUSH1 0x20 ADD PUSH1 0x40 MLOAD DUP1 SWAP2 SUB SWAP1 KECCAK256 SLOAD SUB PUSH2 0x691 JUMPI PUSH1 0x1 DUP3 SWAP1 DUP1 PUSH1 0x1 DUP2 SLOAD ADD DUP1 DUP3 SSTORE DUP1 SWAP2 POP POP PUSH1 0x1 SWAP1 SUB SWAP1 PUSH0 MSTORE PUSH1 0x20 PUSH0 KECCAK256 ADD PUSH0 SWAP1 SWAP2 SWAP1 SWAP2 SWAP1 SWAP2 POP SWAP1 DUP2 PUSH2 0x68F SWAP2 SWAP1 PUSH2 0xE88 JUMP JUMPDEST POP JUMPDEST PUSH1 0x1 PUSH0 DUP4 PUSH1 0x40 MLOAD PUSH2 0x6A2 SWAP2 SWAP1 PUSH2 0xB7C JUMP JUMPDEST SWAP1 DUP2 MSTORE PUSH1 0x20 ADD PUSH1 0x40 MLOAD DUP1 SWAP2 SUB SWAP1 KECCAK256 PUSH0 DUP3 DUP3 SLOAD PUSH2 0x6BE SWAP2 SWAP1 PUSH2 0xF57 JUMP JUMPDEST SWAP3 POP POP DUP2 SWAP1 SSTORE POP PUSH1 0x1 SWAP1 POP SWAP2 SWAP1 POP JUMP JUMPDEST POP DUP1 SLOAD PUSH0 DUP3 SSTORE SWAP1 PUSH0 MSTORE PUSH1 0x20 PUSH0 KECCAK256 SWAP1 DUP2 ADD SWAP1 PUSH2 0x6E9 SWAP2 SWAP1 PUSH2 0x6EC JUMP JUMPDEST POP JUMP JUMPDEST JUMPDEST DUP1 DUP3 GT ISZERO PUSH2 0x70B JUMPI PUSH0 DUP2 DUP2 PUSH2 0x702 SWAP2 SWAP1 PUSH2 0x70F JUMP JUMPDEST POP PUSH1 0x1 ADD PUSH2 0x6ED JUMP JUMPDEST POP SWAP1 JUMP JUMPDEST POP DUP1 SLOAD PUSH2 0x71B SWAP1 PUSH2 0xB12 JUMP JUMPDEST PUSH0 DUP3 SSTORE DUP1 PUSH1 0x1F LT PUSH2 0x72C JUMPI POP PUSH2 0x749 JUMP JUMPDEST PUSH1 0x1F ADD PUSH1 0x20 SWAP1 DIV SWAP1 PUSH0 MSTORE PUSH1 0x20 PUSH0 KECCAK256 SWAP1 DUP2 ADD SWAP1 PUSH2 0x748 SWAP2 SWAP1 PUSH2 0x74C JUMP JUMPDEST JUMPDEST POP JUMP JUMPDEST JUMPDEST DUP1 DUP3 GT ISZERO PUSH2 0x763 JUMPI PUSH0 DUP2 PUSH0 SWAP1 SSTORE POP PUSH1 0x1 ADD PUSH2 0x74D JUMP JUMPDEST POP SWAP1 JUMP JUMPDEST PUSH0 PUSH1 0x40 MLOAD SWAP1 POP SWAP1 JUMP JUMPDEST PUSH0 PUSH0 REVERT JUMPDEST PUSH0 PUSH0 REVERT JUMPDEST PUSH0 DUP2 SWAP1 POP SWAP2 SWAP1 POP JUMP JUMPDEST PUSH2 0x78A DUP2 PUSH2 0x778 JUMP JUMPDEST DUP2 EQ PUSH2 0x794 JUMPI PUSH0 PUSH0 REVERT JUMPDEST POP JUMP JUMPDEST PUSH0 DUP2 CALLDATALOAD SWAP1 POP PUSH2 0x7A5 DUP2 PUSH2 0x781 JUMP JUMPDEST SWAP3 SWAP2 POP POP JUMP JUMPDEST PUSH0 PUSH1 0x20 DUP3 DUP5 SUB SLT ISZERO PUSH2 0x7C0 JUMPI PUSH2 0x7BF PUSH2 0x770 JUMP JUMPDEST JUMPDEST PUSH0 PUSH2 0x7CD DUP5 DUP3 DUP6 ADD PUSH2 0x797 JUMP JUMPDEST SWAP2 POP POP SWAP3 SWAP2 POP POP JUMP JUMPDEST PUSH0 DUP2 MLOAD SWAP1 POP SWAP2 SWAP1 POP JUMP JUMPDEST PUSH0 DUP3 DUP3 MSTORE PUSH1 0x20 DUP3 ADD SWAP1 POP SWAP3 SWAP2 POP POP JUMP JUMPDEST DUP3 DUP2 DUP4 MCOPY PUSH0 DUP4 DUP4 ADD MSTORE POP POP POP JUMP JUMPDEST PUSH0 PUSH1 0x1F NOT PUSH1 0x1F DUP4 ADD AND SWAP1 POP SWAP2 SWAP1 POP JUMP JUMPDEST PUSH0 PUSH2 0x818 DUP3 PUSH2 0x7D6 JUMP JUMPDEST PUSH2 0x822 DUP2 DUP6 PUSH2 0x7E0 JUMP JUMPDEST SWAP4 POP PUSH2 0x832 DUP2 DUP6 PUSH1 0x20 DUP7 ADD PUSH2 0x7F0 JUMP JUMPDEST PUSH2 0x83B DUP2 PUSH2 0x7FE JUMP JUMPDEST DUP5 ADD SWAP2 POP POP SWAP3 SWAP2 POP POP JUMP JUMPDEST PUSH0 PUSH1 0x20 DUP3 ADD SWAP1 POP DUP2 DUP2 SUB PUSH0 DUP4 ADD MSTORE PUSH2 0x85E DUP2 DUP5 PUSH2 0x80E JUMP JUMPDEST SWAP1 POP SWAP3 SWAP2 POP POP JUMP JUMPDEST PUSH0 PUSH0 REVERT JUMPDEST PUSH0 PUSH0 REVERT JUMPDEST PUSH32 0x4E487B7100000000000000000000000000000000000000000000000000000000 PUSH0 MSTORE PUSH1 0x41 PUSH1 0x4 MSTORE PUSH1 0x24 PUSH0 REVERT JUMPDEST PUSH2 0x8A4 DUP3 PUSH2 0x7FE JUMP JUMPDEST DUP2 ADD DUP2 DUP2 LT PUSH8 0xFFFFFFFFFFFFFFFF DUP3 GT OR ISZERO PUSH2 0x8C3 JUMPI PUSH2 0x8C2 PUSH2 0x86E JUMP JUMPDEST JUMPDEST DUP1 PUSH1 0x40 MSTORE POP POP POP JUMP JUMPDEST PUSH0 PUSH2 0x8D5 PUSH2 0x767 JUMP JUMPDEST SWAP1 POP PUSH2 0x8E1 DUP3 DUP3 PUSH2 0x89B JUMP JUMPDEST SWAP2 SWAP1 POP JUMP JUMPDEST PUSH0 PUSH8 0xFFFFFFFFFFFFFFFF DUP3 GT ISZERO PUSH2 0x900 JUMPI PUSH2 0x8FF PUSH2 0x86E JUMP JUMPDEST JUMPDEST PUSH2 0x909 DUP3 PUSH2 0x7FE JUMP JUMPDEST SWAP1 POP PUSH1 0x20 DUP2 ADD SWAP1 POP SWAP2 SWAP1 POP JUMP JUMPDEST DUP3 DUP2 DUP4 CALLDATACOPY PUSH0 DUP4 DUP4 ADD MSTORE POP POP POP JUMP JUMPDEST PUSH0 PUSH2 0x936 PUSH2 0x931 DUP5 PUSH2 0x8E6 JUMP JUMPDEST PUSH2 0x8CC JUMP JUMPDEST SWAP1 POP DUP3 DUP2 MSTORE PUSH1 0x20 DUP2 ADD DUP5 DUP5 DUP5 ADD GT ISZERO PUSH2 0x952 JUMPI PUSH2 0x951 PUSH2 0x86A JUMP JUMPDEST JUMPDEST PUSH2 0x95D DUP5 DUP3 DUP6 PUSH2 0x916 JUMP JUMPDEST POP SWAP4 SWAP3 POP POP POP JUMP JUMPDEST PUSH0 DUP3 PUSH1 0x1F DUP4 ADD SLT PUSH2 0x979 JUMPI PUSH2 0x978 PUSH2 0x866 JUMP JUMPDEST JUMPDEST DUP2 CALLDATALOAD PUSH2 0x989 DUP5 DUP3 PUSH1 0x20 DUP7 ADD PUSH2 0x924 JUMP JUMPDEST SWAP2 POP POP SWAP3 SWAP2 POP POP JUMP JUMPDEST PUSH0 PUSH1 0x20 DUP3 DUP5 SUB SLT ISZERO PUSH2 0x9A7 JUMPI PUSH2 0x9A6 PUSH2 0x770 JUMP JUMPDEST JUMPDEST PUSH0 DUP3 ADD CALLDATALOAD PUSH8 0xFFFFFFFFFFFFFFFF DUP2 GT ISZERO PUSH2 0x9C4 JUMPI PUSH2 0x9C3 PUSH2 0x774 JUMP JUMPDEST JUMPDEST PUSH2 0x9D0 DUP5 DUP3 DUP6 ADD PUSH2 0x965 JUMP JUMPDEST SWAP2 POP POP SWAP3 SWAP2 POP POP JUMP JUMPDEST PUSH0 DUP2 SWAP1 POP SWAP2 SWAP1 POP JUMP JUMPDEST PUSH2 0x9EB DUP2 PUSH2 0x9D9 JUMP JUMPDEST DUP3 MSTORE POP POP JUMP JUMPDEST PUSH0 PUSH1 0x20 DUP3 ADD SWAP1 POP PUSH2 0xA04 PUSH0 DUP4 ADD DUP5 PUSH2 0x9E2 JUMP JUMPDEST SWAP3 SWAP2 POP POP JUMP JUMPDEST PUSH0 PUSH32 0xFF00000000000000000000000000000000000000000000000000000000000000 DUP3 AND SWAP1 POP SWAP2 SWAP1 POP JUMP JUMPDEST PUSH2 0xA3E DUP2 PUSH2 0xA0A JUMP JUMPDEST DUP2 EQ PUSH2 0xA48 JUMPI PUSH0 PUSH0 REVERT JUMPDEST POP JUMP JUMPDEST PUSH0 DUP2 CALLDATALOAD SWAP1 POP PUSH2 0xA59 DUP2 PUSH2 0xA35 JUMP JUMPDEST SWAP3 SWAP2 POP POP JUMP JUMPDEST PUSH0 PUSH1 0x20 DUP3 DUP5 SUB SLT ISZERO PUSH2 0xA74 JUMPI PUSH2 0xA73 PUSH2 0x770 JUMP JUMPDEST JUMPDEST PUSH0 PUSH2 0xA81 DUP5 DUP3 DUP6 ADD PUSH2 0xA4B JUMP JUMPDEST SWAP2 POP POP SWAP3 SWAP2 POP POP JUMP JUMPDEST PUSH2 0xA93 DUP2 PUSH2 0x778 JUMP JUMPDEST DUP3 MSTORE POP POP JUMP JUMPDEST PUSH0 PUSH1 0x20 DUP3 ADD SWAP1 POP PUSH2 0xAAC PUSH0 DUP4 ADD DUP5 PUSH2 0xA8A JUMP JUMPDEST SWAP3 SWAP2 POP POP JUMP JUMPDEST PUSH0 DUP2 ISZERO ISZERO SWAP1 POP SWAP2 SWAP1 POP JUMP JUMPDEST PUSH2 0xAC6 DUP2 PUSH2 0xAB2 JUMP JUMPDEST DUP3 MSTORE POP POP JUMP JUMPDEST PUSH0 PUSH1 0x20 DUP3 ADD SWAP1 POP PUSH2 0xADF PUSH0 DUP4 ADD DUP5 PUSH2 0xABD JUMP JUMPDEST SWAP3 SWAP2 POP POP JUMP JUMPDEST PUSH32 0x4E487B7100000000000000000000000000000000000000000000000000000000 PUSH0 MSTORE PUSH1 0x22 PUSH1 0x4 MSTORE PUSH1 0x24 PUSH0 REVERT JUMPDEST PUSH0 PUSH1 0x2 DUP3 DIV SWAP1 POP PUSH1 0x1 DUP3 AND DUP1 PUSH2 0xB29 JUMPI PUSH1 0x7F DUP3 AND SWAP2 POP JUMPDEST PUSH1 0x20 DUP3 LT DUP2 SUB PUSH2 0xB3C JUMPI PUSH2 0xB3B PUSH2 0xAE5 JUMP JUMPDEST JUMPDEST POP SWAP2 SWAP1 POP JUMP JUMPDEST PUSH0 DUP2 SWAP1 POP SWAP3 SWAP2 POP POP JUMP JUMPDEST PUSH0 PUSH2 0xB56 DUP3 PUSH2 0x7D6 JUMP JUMPDEST PUSH2 0xB60 DUP2 DUP6 PUSH2 0xB42 JUMP JUMPDEST SWAP4 POP PUSH2 0xB70 DUP2 DUP6 PUSH1 0x20 DUP7 ADD PUSH2 0x7F0 JUMP JUMPDEST DUP1 DUP5 ADD SWAP2 POP POP SWAP3 SWAP2 POP POP JUMP JUMPDEST PUSH0 PUSH2 0xB87 DUP3 DUP5 PUSH2 0xB4C JUMP JUMPDEST SWAP2 POP DUP2 SWAP1 POP SWAP3 SWAP2 POP POP JUMP JUMPDEST PUSH32 0x4E487B7100000000000000000000000000000000000000000000000000000000 PUSH0 MSTORE PUSH1 0x32 PUSH1 0x4 MSTORE PUSH1 0x24 PUSH0 REVERT JUMPDEST PUSH0 DUP2 SWAP1 POP DUP2 PUSH0 MSTORE PUSH1 0x20 PUSH0 KECCAK256 SWAP1 POP SWAP2 SWAP1 POP JUMP JUMPDEST PUSH0 DUP2 SLOAD PUSH2 0xBDD DUP2 PUSH2 0xB12 JUMP JUMPDEST PUSH2 0xBE7 DUP2 DUP7 PUSH2 0xB42 JUMP JUMPDEST SWAP5 POP PUSH1 0x1 DUP3 AND PUSH0 DUP2 EQ PUSH2 0xC01 JUMPI PUSH1 0x1 DUP2 EQ PUSH2 0xC16 JUMPI PUSH2 0xC48 JUMP JUMPDEST PUSH1 0xFF NOT DUP4 AND DUP7 MSTORE DUP2 ISZERO ISZERO DUP3 MUL DUP7 ADD SWAP4 POP PUSH2 0xC48 JUMP JUMPDEST PUSH2 0xC1F DUP6 PUSH2 0xBBF JUMP JUMPDEST PUSH0 JUMPDEST DUP4 DUP2 LT ISZERO PUSH2 0xC40 JUMPI DUP2 SLOAD DUP2 DUP10 ADD MSTORE PUSH1 0x1 DUP3 ADD SWAP2 POP PUSH1 0x20 DUP2 ADD SWAP1 POP PUSH2 0xC21 JUMP JUMPDEST DUP4 DUP9 ADD SWAP6 POP POP POP JUMPDEST POP POP POP SWAP3 SWAP2 POP POP JUMP JUMPDEST PUSH0 PUSH2 0xC5C DUP3 DUP5 PUSH2 0xBD1 JUMP JUMPDEST SWAP2 POP DUP2 SWAP1 POP SWAP3 SWAP2 POP POP JUMP JUMPDEST PUSH32 0x4E487B7100000000000000000000000000000000000000000000000000000000 PUSH0 MSTORE PUSH1 0x11 PUSH1 0x4 MSTORE PUSH1 0x24 PUSH0 REVERT JUMPDEST PUSH0 PUSH2 0xC9E DUP3 PUSH2 0x778 JUMP JUMPDEST SWAP2 POP PUSH2 0xCA9 DUP4 PUSH2 0x778 JUMP JUMPDEST SWAP3 POP DUP3 DUP3 ADD SWAP1 POP DUP1 DUP3 GT ISZERO PUSH2 0xCC1 JUMPI PUSH2 0xCC0 PUSH2 0xC67 JUMP JUMPDEST JUMPDEST SWAP3 SWAP2 POP POP JUMP JUMPDEST PUSH0 PUSH2 0xCD1 DUP3 PUSH2 0x778 JUMP JUMPDEST SWAP2 POP PUSH2 0xCDC DUP4 PUSH2 0x778 JUMP JUMPDEST SWAP3 POP DUP3 DUP3 SUB SWAP1 POP DUP2 DUP2 GT ISZERO PUSH2 0xCF4 JUMPI PUSH2 0xCF3 PUSH2 0xC67 JUMP JUMPDEST JUMPDEST SWAP3 SWAP2 POP POP JUMP JUMPDEST PUSH0 PUSH1 0x20 PUSH1 0x1F DUP4 ADD DIV SWAP1 POP SWAP2 SWAP1 POP JUMP JUMPDEST PUSH0 DUP3 DUP3 SHL SWAP1 POP SWAP3 SWAP2 POP POP JUMP JUMPDEST PUSH0 PUSH1 0x8 DUP4 MUL PUSH2 0xD44 PUSH32 0xFFFFFFFFFFFFFFFFFFFFFFFFFFFFFFFFFFFFFFFFFFFFFFFFFFFFFFFFFFFFFFFF DUP3 PUSH2 0xD09 JUMP JUMPDEST PUSH2 0xD4E DUP7 DUP4 PUSH2 0xD09 JUMP JUMPDEST SWAP6 POP DUP1 NOT DUP5 AND SWAP4 POP DUP1 DUP7 AND DUP5 OR SWAP3 POP POP POP SWAP4 SWAP3 POP POP POP JUMP JUMPDEST PUSH0 DUP2 SWAP1 POP SWAP2 SWAP1 POP JUMP JUMPDEST PUSH0 PUSH2 0xD89 PUSH2 0xD84 PUSH2 0xD7F DUP5 PUSH2 0x778 JUMP JUMPDEST PUSH2 0xD66 JUMP JUMPDEST PUSH2 0x778 JUMP JUMPDEST SWAP1 POP SWAP2 SWAP1 POP JUMP JUMPDEST PUSH0 DUP2 SWAP1 POP SWAP2 SWAP1 POP JUMP JUMPDEST PUSH2 0xDA2 DUP4 PUSH2 0xD6F JUMP JUMPDEST PUSH2 0xDB6 PUSH2 0xDAE DUP3 PUSH2 0xD90 JUMP JUMPDEST DUP5 DUP5 SLOAD PUSH2 0xD15 JUMP JUMPDEST DUP3 SSTORE POP POP POP POP JUMP JUMPDEST PUSH0 PUSH0 SWAP1 POP SWAP1 JUMP JUMPDEST PUSH2 0xDCD PUSH2 0xDBE JUMP JUMPDEST PUSH2 0xDD8 DUP2 DUP5 DUP5 PUSH2 0xD99 JUMP JUMPDEST POP POP POP JUMP JUMPDEST JUMPDEST DUP2 DUP2 LT ISZERO PUSH2 0xDFB JUMPI PUSH2 0xDF0 PUSH0 DUP3 PUSH2 0xDC5 JUMP JUMPDEST PUSH1 0x1 DUP2 ADD SWAP1 POP PUSH2 0xDDE JUMP JUMPDEST POP POP JUMP JUMPDEST PUSH1 0x1F DUP3 GT ISZERO PUSH2 0xE40 JUMPI PUSH2 0xE11 DUP2 PUSH2 0xBBF JUMP JUMPDEST PUSH2 0xE1A DUP5 PUSH2 0xCFA JUMP JUMPDEST DUP2 ADD PUSH1 0x20 DUP6 LT ISZERO PUSH2 0xE29 JUMPI DUP2 SWAP1 POP JUMPDEST PUSH2 0xE3D PUSH2 0xE35 DUP6 PUSH2 0xCFA JUMP JUMPDEST DUP4 ADD DUP3 PUSH2 0xDDD JUMP JUMPDEST POP POP JUMPDEST POP POP POP JUMP JUMPDEST PUSH0 DUP3 DUP3 SHR SWAP1 POP SWAP3 SWAP2 POP POP JUMP JUMPDEST PUSH0 PUSH2 0xE60 PUSH0 NOT DUP5 PUSH1 0x8 MUL PUSH2 0xE45 JUMP JUMPDEST NOT DUP1 DUP4 AND SWAP2 POP POP SWAP3 SWAP2 POP POP JUMP JUMPDEST PUSH0 PUSH2 0xE78 DUP4 DUP4 PUSH2 0xE51 JUMP JUMPDEST SWAP2 POP DUP3 PUSH1 0x2 MUL DUP3 OR SWAP1 POP SWAP3 SWAP2 POP POP JUMP JUMPDEST PUSH2 0xE91 DUP3 PUSH2 0x7D6 JUMP JUMPDEST PUSH8 0xFFFFFFFFFFFFFFFF DUP2 GT ISZERO PUSH2 0xEAA JUMPI PUSH2 0xEA9 PUSH2 0x86E JUMP JUMPDEST JUMPDEST PUSH2 0xEB4 DUP3 SLOAD PUSH2 0xB12 JUMP JUMPDEST PUSH2 0xEBF DUP3 DUP3 DUP6 PUSH2 0xDFF JUMP JUMPDEST PUSH0 PUSH1 0x20 SWAP1 POP PUSH1 0x1F DUP4 GT PUSH1 0x1 DUP2 EQ PUSH2 0xEF0 JUMPI PUSH0 DUP5 ISZERO PUSH2 0xEDE JUMPI DUP3 DUP8 ADD MLOAD SWAP1 POP JUMPDEST PUSH2 0xEE8 DUP6 DUP3 PUSH2 0xE6D JUMP JUMPDEST DUP7 SSTORE POP PUSH2 0xF4F JUMP JUMPDEST PUSH1 0x1F NOT DUP5 AND PUSH2 0xEFE DUP7 PUSH2 0xBBF JUMP JUMPDEST PUSH0 JUMPDEST DUP3 DUP2 LT ISZERO PUSH2 0xF25 JUMPI DUP5 DUP10 ADD MLOAD DUP3 SSTORE PUSH1 0x1 DUP3 ADD SWAP2 POP PUSH1 0x20 DUP6 ADD SWAP5 POP PUSH1 0x20 DUP2 ADD SWAP1 POP PUSH2 0xF00 JUMP JUMPDEST DUP7 DUP4 LT ISZERO PUSH2 0xF42 JUMPI DUP5 DUP10 ADD MLOAD PUSH2 0xF3E PUSH1 0x1F DUP10 AND DUP3 PUSH2 0xE51 JUMP JUMPDEST DUP4 SSTORE POP JUMPDEST PUSH1 0x1 PUSH1 0x2 DUP9 MUL ADD DUP9 SSTORE POP POP POP JUMPDEST POP POP POP POP POP POP JUMP JUMPDEST PUSH0 PUSH2 0xF61 DUP3 PUSH2 0x9D9 JUMP JUMPDEST SWAP2 POP PUSH2 0xF6C DUP4 PUSH2 0x9D9 JUMP JUMPDEST SWAP3 POP DUP3 DUP3 ADD SWAP1 POP DUP3 DUP2 SLT ISZERO PUSH0 DUP4 SLT AND DUP4 DUP3 SLT PUSH0 DUP5 SLT ISZERO AND OR ISZERO PUSH2 0xF92 JUMPI PUSH2 0xF91 PUSH2 0xC67 JUMP JUMPDEST JUMPDEST SWAP3 SWAP2 POP POP JUMP INVALID LOG2 PUSH5 0x6970667358 0x22 SLT KECCAK256 0xBF 0x4F 0xB0 DUP1 CALL PUSH30 0xBE78599532427C4EEB1AAB2397442C1C953A4CE471A49DED86B64736F6C PUSH4 0x4300081E STOP CALLER "
				},
				"gasEstimates": {
					"creation": {
						"codeDepositCost": "809200",
						"executionCost": "156235",
						"totalCost": "965435"
					},
					"external": {
						"RevertString(string)": "infinite",
						"getVotes(string)": "infinite",
						"keys(uint256)": "infinite",
						"map(bytes1)": "2827",
						"resetVotes()": "infinite",
						"romanToInt(string)": "infinite",
						"senderMap(string)": "infinite",
						"vote(string)": "infinite"
					}
				},
				"methodIdentifiers": {
					"RevertString(string)": "e702f6b9",
					"getVotes(string)": "805265e5",
					"keys(uint256)": "0cb6aaf1",
					"map(bytes1)": "9135a958",
					"resetVotes()": "b9830ff1",
					"romanToInt(string)": "cb159dfe",
					"senderMap(string)": "2cfea327",
					"vote(string)": "fc36e15b"
				}
			},
			"storageLayout": {
				"storage": [
					{
						"astId": 5,
						"contract": "Voting.sol:Voting",
						"label": "senderMap",
						"offset": 0,
						"slot": "0",
						"type": "t_mapping(t_string_memory_ptr,t_int256)"
					},
					{
						"astId": 8,
						"contract": "Voting.sol:Voting",
						"label": "keys",
						"offset": 0,
						"slot": "1",
						"type": "t_array(t_string_storage)dyn_storage"
					},
					{
						"astId": 142,
						"contract": "Voting.sol:Voting",
						"label": "map",
						"offset": 0,
						"slot": "2",
						"type": "t_mapping(t_bytes1,t_uint256)"
					}
				],
				"types": {
					"t_array(t_string_storage)dyn_storage": {
						"base": "t_string_storage",
						"encoding": "dynamic_array",
						"label": "string[]",
						"numberOfBytes": "32"
					},
					"t_bytes1": {
						"encoding": "inplace",
						"label": "bytes1",
						"numberOfBytes": "1"
					},
					"t_int256": {
						"encoding": "inplace",
						"label": "int256",
						"numberOfBytes": "32"
					},
					"t_mapping(t_bytes1,t_uint256)": {
						"encoding": "mapping",
						"key": "t_bytes1",
						"label": "mapping(bytes1 => uint256)",
						"numberOfBytes": "32",
						"value": "t_uint256"
					},
					"t_mapping(t_string_memory_ptr,t_int256)": {
						"encoding": "mapping",
						"key": "t_string_memory_ptr",
						"label": "mapping(string => int256)",
						"numberOfBytes": "32",
						"value": "t_int256"
					},
					"t_string_memory_ptr": {
						"encoding": "bytes",
						"label": "string",
						"numberOfBytes": "32"
					},
					"t_string_storage": {
						"encoding": "bytes",
						"label": "string",
						"numberOfBytes": "32"
					},
					"t_uint256": {
						"encoding": "inplace",
						"label": "uint256",
						"numberOfBytes": "32"
					}
				}
			},
			"userdoc": {
				"kind": "user",
				"methods": {},
				"version": 1
			}
		}
	}
}