{
	"BeggingContract.sol": {
		"BeggingContract": {
			"abi": [
				{
					"inputs": [
						{
							"internalType": "uint256",
							"name": "_start",
							"type": "uint256"
						},
						{
							"internalType": "uint256",
							"name": "_end",
							"type": "uint256"
						}
					],
					"stateMutability": "nonpayable",
					"type": "constructor"
				},
				{
					"anonymous": false,
					"inputs": [
						{
							"indexed": true,
							"internalType": "address",
							"name": "donor",
							"type": "address"
						},
						{
							"indexed": false,
							"internalType": "uint256",
							"name": "amount",
							"type": "uint256"
						}
					],
					"name": "Donation",
					"type": "event"
				},
				{
					"anonymous": false,
					"inputs": [
						{
							"indexed": true,
							"internalType": "address",
							"name": "owner",
							"type": "address"
						},
						{
							"indexed": false,
							"internalType": "uint256",
							"name": "amount",
							"type": "uint256"
						}
					],
					"name": "Withdraw",
					"type": "event"
				},
				{
					"inputs": [],
					"name": "donate",
					"outputs": [],
					"stateMutability": "payable",
					"type": "function"
				},
				{
					"inputs": [],
					"name": "donationAllowed",
					"outputs": [
						{
							"internalType": "bool",
							"name": "",
							"type": "bool"
						}
					],
					"stateMutability": "view",
					"type": "function"
				},
				{
					"inputs": [],
					"name": "donationEnd",
					"outputs": [
						{
							"internalType": "uint256",
							"name": "",
							"type": "uint256"
						}
					],
					"stateMutability": "view",
					"type": "function"
				},
				{
					"inputs": [],
					"name": "donationStart",
					"outputs": [
						{
							"internalType": "uint256",
							"name": "",
							"type": "uint256"
						}
					],
					"stateMutability": "view",
					"type": "function"
				},
				{
					"inputs": [
						{
							"internalType": "address",
							"name": "",
							"type": "address"
						}
					],
					"name": "donations",
					"outputs": [
						{
							"internalType": "uint256",
							"name": "",
							"type": "uint256"
						}
					],
					"stateMutability": "view",
					"type": "function"
				},
				{
					"inputs": [
						{
							"internalType": "uint256",
							"name": "",
							"type": "uint256"
						}
					],
					"name": "donors",
					"outputs": [
						{
							"internalType": "address",
							"name": "",
							"type": "address"
						}
					],
					"stateMutability": "view",
					"type": "function"
				},
				{
					"inputs": [],
					"name": "getTopDonors",
					"outputs": [
						{
							"internalType": "address[3]",
							"name": "",
							"type": "address[3]"
						}
					],
					"stateMutability": "view",
					"type": "function"
				},
				{
					"inputs": [],
					"name": "owner",
					"outputs": [
						{
							"internalType": "address",
							"name": "",
							"type": "address"
						}
					],
					"stateMutability": "view",
					"type": "function"
				},
				{
					"inputs": [],
					"name": "withdraw",
					"outputs": [],
					"stateMutability": "nonpayable",
					"type": "function"
				},
				{
					"stateMutability": "payable",
					"type": "receive"
				}
			],
			"devdoc": {
				"kind": "dev",
				"methods": {},
				"version": 1
			},
			"evm": {
				"assembly": "    /* \"BeggingContract.sol\":60:2692  contract BeggingContract{... */\n  mstore(0x40, 0x80)\n    /* \"BeggingContract.sol\":661:866  constructor(uint256 _start,uint256 _end){... */\n  callvalue\n  dup1\n  iszero\n  tag_1\n  jumpi\n  revert(0x00, 0x00)\ntag_1:\n  pop\n  mload(0x40)\n  sub(codesize, bytecodeSize)\n  dup1\n  bytecodeSize\n  dup4\n  codecopy\n  dup2\n  dup2\n  add\n  0x40\n  mstore\n  dup2\n  add\n  swap1\n  tag_2\n  swap2\n  swap1\n  tag_3\n  jump\t// in\ntag_2:\n    /* \"BeggingContract.sol\":730:734  _end */\n  dup1\n    /* \"BeggingContract.sol\":720:726  _start */\n  dup3\n    /* \"BeggingContract.sol\":720:734  _start <= _end */\n  gt\n  iszero\n    /* \"BeggingContract.sol\":712:767  require(_start <= _end,\"Start should be less than end\") */\n  tag_6\n  jumpi\n  mload(0x40)\n  0x08c379a000000000000000000000000000000000000000000000000000000000\n  dup2\n  mstore\n  0x04\n  add\n  tag_7\n  swap1\n  tag_8\n  jump\t// in\ntag_7:\n  mload(0x40)\n  dup1\n  swap2\n  sub\n  swap1\n  revert\ntag_6:\n    /* \"BeggingContract.sol\":786:796  msg.sender */\n  caller\n    /* \"BeggingContract.sol\":778:783  owner */\n  0x00\n  0x00\n    /* \"BeggingContract.sol\":778:796  owner = msg.sender */\n  0x0100\n  exp\n  dup2\n  sload\n  dup2\n  0xffffffffffffffffffffffffffffffffffffffff\n  mul\n  not\n  and\n  swap1\n  dup4\n  0xffffffffffffffffffffffffffffffffffffffff\n  and\n  mul\n  or\n  swap1\n  sstore\n  pop\n    /* \"BeggingContract.sol\":823:829  _start */\n  dup2\n    /* \"BeggingContract.sol\":807:820  donationStart */\n  0x01\n    /* \"BeggingContract.sol\":807:829  donationStart = _start */\n  dup2\n  swap1\n  sstore\n  pop\n    /* \"BeggingContract.sol\":854:858  _end */\n  dup1\n    /* \"BeggingContract.sol\":840:851  donationEnd */\n  0x02\n    /* \"BeggingContract.sol\":840:858  donationEnd = _end */\n  dup2\n  swap1\n  sstore\n  pop\n    /* \"BeggingContract.sol\":661:866  constructor(uint256 _start,uint256 _end){... */\n  pop\n  pop\n    /* \"BeggingContract.sol\":60:2692  contract BeggingContract{... */\n  jump(tag_9)\n    /* \"#utility.yul\":88:205   */\ntag_11:\n    /* \"#utility.yul\":197:198   */\n  0x00\n    /* \"#utility.yul\":194:195   */\n  0x00\n    /* \"#utility.yul\":187:199   */\n  revert\n    /* \"#utility.yul\":334:411   */\ntag_13:\n    /* \"#utility.yul\":371:378   */\n  0x00\n    /* \"#utility.yul\":400:405   */\n  dup2\n    /* \"#utility.yul\":389:405   */\n  swap1\n  pop\n    /* \"#utility.yul\":334:411   */\n  swap2\n  swap1\n  pop\n  jump\t// out\n    /* \"#utility.yul\":417:539   */\ntag_14:\n    /* \"#utility.yul\":490:514   */\n  tag_25\n    /* \"#utility.yul\":508:513   */\n  dup2\n    /* \"#utility.yul\":490:514   */\n  tag_13\n  jump\t// in\ntag_25:\n    /* \"#utility.yul\":483:488   */\n  dup2\n    /* \"#utility.yul\":480:515   */\n  eq\n    /* \"#utility.yul\":470:533   */\n  tag_26\n  jumpi\n    /* \"#utility.yul\":529:530   */\n  0x00\n    /* \"#utility.yul\":526:527   */\n  0x00\n    /* \"#utility.yul\":519:531   */\n  revert\n    /* \"#utility.yul\":470:533   */\ntag_26:\n    /* \"#utility.yul\":417:539   */\n  pop\n  jump\t// out\n    /* \"#utility.yul\":545:688   */\ntag_15:\n    /* \"#utility.yul\":602:607   */\n  0x00\n    /* \"#utility.yul\":633:639   */\n  dup2\n    /* \"#utility.yul\":627:640   */\n  mload\n    /* \"#utility.yul\":618:640   */\n  swap1\n  pop\n    /* \"#utility.yul\":649:682   */\n  tag_28\n    /* \"#utility.yul\":676:681   */\n  dup2\n    /* \"#utility.yul\":649:682   */\n  tag_14\n  jump\t// in\ntag_28:\n    /* \"#utility.yul\":545:688   */\n  swap3\n  swap2\n  pop\n  pop\n  jump\t// out\n    /* \"#utility.yul\":694:1201   */\ntag_3:\n    /* \"#utility.yul\":773:779   */\n  0x00\n    /* \"#utility.yul\":781:787   */\n  0x00\n    /* \"#utility.yul\":830:832   */\n  0x40\n    /* \"#utility.yul\":818:827   */\n  dup4\n    /* \"#utility.yul\":809:816   */\n  dup6\n    /* \"#utility.yul\":805:828   */\n  sub\n    /* \"#utility.yul\":801:833   */\n  slt\n    /* \"#utility.yul\":798:917   */\n  iszero\n  tag_30\n  jumpi\n    /* \"#utility.yul\":836:915   */\n  tag_31\n  tag_11\n  jump\t// in\ntag_31:\n    /* \"#utility.yul\":798:917   */\ntag_30:\n    /* \"#utility.yul\":956:957   */\n  0x00\n    /* \"#utility.yul\":981:1045   */\n  tag_32\n    /* \"#utility.yul\":1037:1044   */\n  dup6\n    /* \"#utility.yul\":1028:1034   */\n  dup3\n    /* \"#utility.yul\":1017:1026   */\n  dup7\n    /* \"#utility.yul\":1013:1035   */\n  add\n    /* \"#utility.yul\":981:1045   */\n  tag_15\n  jump\t// in\ntag_32:\n    /* \"#utility.yul\":971:1045   */\n  swap3\n  pop\n    /* \"#utility.yul\":927:1055   */\n  pop\n    /* \"#utility.yul\":1094:1096   */\n  0x20\n    /* \"#utility.yul\":1120:1184   */\n  tag_33\n    /* \"#utility.yul\":1176:1183   */\n  dup6\n    /* \"#utility.yul\":1167:1173   */\n  dup3\n    /* \"#utility.yul\":1156:1165   */\n  dup7\n    /* \"#utility.yul\":1152:1174   */\n  add\n    /* \"#utility.yul\":1120:1184   */\n  tag_15\n  jump\t// in\ntag_33:\n    /* \"#utility.yul\":1110:1184   */\n  swap2\n  pop\n    /* \"#utility.yul\":1065:1194   */\n  pop\n    /* \"#utility.yul\":694:1201   */\n  swap3\n  pop\n  swap3\n  swap1\n  pop\n  jump\t// out\n    /* \"#utility.yul\":1207:1376   */\ntag_16:\n    /* \"#utility.yul\":1291:1302   */\n  0x00\n    /* \"#utility.yul\":1325:1331   */\n  dup3\n    /* \"#utility.yul\":1320:1323   */\n  dup3\n    /* \"#utility.yul\":1313:1332   */\n  mstore\n    /* \"#utility.yul\":1365:1369   */\n  0x20\n    /* \"#utility.yul\":1360:1363   */\n  dup3\n    /* \"#utility.yul\":1356:1370   */\n  add\n    /* \"#utility.yul\":1341:1370   */\n  swap1\n  pop\n    /* \"#utility.yul\":1207:1376   */\n  swap3\n  swap2\n  pop\n  pop\n  jump\t// out\n    /* \"#utility.yul\":1382:1561   */\ntag_17:\n    /* \"#utility.yul\":1522:1553   */\n  0x53746172742073686f756c64206265206c657373207468616e20656e64000000\n    /* \"#utility.yul\":1518:1519   */\n  0x00\n    /* \"#utility.yul\":1510:1516   */\n  dup3\n    /* \"#utility.yul\":1506:1520   */\n  add\n    /* \"#utility.yul\":1499:1554   */\n  mstore\n    /* \"#utility.yul\":1382:1561   */\n  pop\n  jump\t// out\n    /* \"#utility.yul\":1567:1933   */\ntag_18:\n    /* \"#utility.yul\":1709:1712   */\n  0x00\n    /* \"#utility.yul\":1730:1797   */\n  tag_37\n    /* \"#utility.yul\":1794:1796   */\n  0x1d\n    /* \"#utility.yul\":1789:1792   */\n  dup4\n    /* \"#utility.yul\":1730:1797   */\n  tag_16\n  jump\t// in\ntag_37:\n    /* \"#utility.yul\":1723:1797   */\n  swap2\n  pop\n    /* \"#utility.yul\":1806:1899   */\n  tag_38\n    /* \"#utility.yul\":1895:1898   */\n  dup3\n    /* \"#utility.yul\":1806:1899   */\n  tag_17\n  jump\t// in\ntag_38:\n    /* \"#utility.yul\":1924:1926   */\n  0x20\n    /* \"#utility.yul\":1919:1922   */\n  dup3\n    /* \"#utility.yul\":1915:1927   */\n  add\n    /* \"#utility.yul\":1908:1927   */\n  swap1\n  pop\n    /* \"#utility.yul\":1567:1933   */\n  swap2\n  swap1\n  pop\n  jump\t// out\n    /* \"#utility.yul\":1939:2358   */\ntag_8:\n    /* \"#utility.yul\":2105:2109   */\n  0x00\n    /* \"#utility.yul\":2143:2145   */\n  0x20\n    /* \"#utility.yul\":2132:2141   */\n  dup3\n    /* \"#utility.yul\":2128:2146   */\n  add\n    /* \"#utility.yul\":2120:2146   */\n  swap1\n  pop\n    /* \"#utility.yul\":2192:2201   */\n  dup2\n    /* \"#utility.yul\":2186:2190   */\n  dup2\n    /* \"#utility.yul\":2182:2202   */\n  sub\n    /* \"#utility.yul\":2178:2179   */\n  0x00\n    /* \"#utility.yul\":2167:2176   */\n  dup4\n    /* \"#utility.yul\":2163:2180   */\n  add\n    /* \"#utility.yul\":2156:2203   */\n  mstore\n    /* \"#utility.yul\":2220:2351   */\n  tag_40\n    /* \"#utility.yul\":2346:2350   */\n  dup2\n    /* \"#utility.yul\":2220:2351   */\n  tag_18\n  jump\t// in\ntag_40:\n    /* \"#utility.yul\":2212:2351   */\n  swap1\n  pop\n    /* \"#utility.yul\":1939:2358   */\n  swap2\n  swap1\n  pop\n  jump\t// out\n    /* \"BeggingContract.sol\":60:2692  contract BeggingContract{... */\ntag_9:\n  dataSize(sub_0)\n  dup1\n  dataOffset(sub_0)\n  0x00\n  codecopy\n  0x00\n  return\nstop\n\nsub_0: assembly {\n        /* \"BeggingContract.sol\":60:2692  contract BeggingContract{... */\n      mstore(0x40, 0x80)\n      jumpi(tag_1, lt(calldatasize, 0x04))\n      shr(0xe0, calldataload(0x00))\n      dup1\n      0x8da5cb5b\n      gt\n      tag_12\n      jumpi\n      dup1\n      0x8da5cb5b\n      eq\n      tag_7\n      jumpi\n      dup1\n      0xaa3c9486\n      eq\n      tag_8\n      jumpi\n      dup1\n      0xcc6cb19a\n      eq\n      tag_9\n      jumpi\n      dup1\n      0xd6387ed8\n      eq\n      tag_10\n      jumpi\n      dup1\n      0xed88c68e\n      eq\n      tag_11\n      jumpi\n      jump(tag_2)\n    tag_12:\n      dup1\n      0x3ccfd60b\n      eq\n      tag_3\n      jumpi\n      dup1\n      0x4abfa163\n      eq\n      tag_4\n      jumpi\n      dup1\n      0x5922e496\n      eq\n      tag_5\n      jumpi\n      dup1\n      0x5f5a8270\n      eq\n      tag_6\n      jumpi\n      jump(tag_2)\n    tag_1:\n      jumpi(tag_2, calldatasize)\n        /* \"BeggingContract.sol\":2673:2681  donate() */\n      tag_15\n        /* \"BeggingContract.sol\":2673:2679  donate */\n      tag_16\n        /* \"BeggingContract.sol\":2673:2681  donate() */\n      jump\t// in\n    tag_15:\n        /* \"BeggingContract.sol\":60:2692  contract BeggingContract{... */\n      stop\n    tag_2:\n      revert(0x00, 0x00)\n        /* \"BeggingContract.sol\":1220:1454  function withdraw() public onlyOwner{... */\n    tag_3:\n      callvalue\n      dup1\n      iszero\n      tag_17\n      jumpi\n      revert(0x00, 0x00)\n    tag_17:\n      pop\n      tag_18\n      tag_19\n      jump\t// in\n    tag_18:\n      stop\n        /* \"BeggingContract.sol\":236:259  address[] public donors */\n    tag_4:\n      callvalue\n      dup1\n      iszero\n      tag_20\n      jumpi\n      revert(0x00, 0x00)\n    tag_20:\n      pop\n      tag_21\n      0x04\n      dup1\n      calldatasize\n      sub\n      dup2\n      add\n      swap1\n      tag_22\n      swap2\n      swap1\n      tag_23\n      jump\t// in\n    tag_22:\n      tag_24\n      jump\t// in\n    tag_21:\n      mload(0x40)\n      tag_25\n      swap2\n      swap1\n      tag_26\n      jump\t// in\n    tag_25:\n      mload(0x40)\n      dup1\n      swap2\n      sub\n      swap1\n      return\n        /* \"BeggingContract.sol\":2482:2626  function donationAllowed() public view returns(bool){... */\n    tag_5:\n      callvalue\n      dup1\n      iszero\n      tag_27\n      jumpi\n      revert(0x00, 0x00)\n    tag_27:\n      pop\n      tag_28\n      tag_29\n      jump\t// in\n    tag_28:\n      mload(0x40)\n      tag_30\n      swap2\n      swap1\n      tag_31\n      jump\t// in\n    tag_30:\n      mload(0x40)\n      dup1\n      swap2\n      sub\n      swap1\n      return\n        /* \"BeggingContract.sol\":153:179  uint256 public donationEnd */\n    tag_6:\n      callvalue\n      dup1\n      iszero\n      tag_32\n      jumpi\n      revert(0x00, 0x00)\n    tag_32:\n      pop\n      tag_33\n      tag_34\n      jump\t// in\n    tag_33:\n      mload(0x40)\n      tag_35\n      swap2\n      swap1\n      tag_36\n      jump\t// in\n    tag_35:\n      mload(0x40)\n      dup1\n      swap2\n      sub\n      swap1\n      return\n        /* \"BeggingContract.sol\":91:111  address public owner */\n    tag_7:\n      callvalue\n      dup1\n      iszero\n      tag_37\n      jumpi\n      revert(0x00, 0x00)\n    tag_37:\n      pop\n      tag_38\n      tag_39\n      jump\t// in\n    tag_38:\n      mload(0x40)\n      tag_40\n      swap2\n      swap1\n      tag_26\n      jump\t// in\n    tag_40:\n      mload(0x40)\n      dup1\n      swap2\n      sub\n      swap1\n      return\n        /* \"BeggingContract.sol\":118:146  uint256 public donationStart */\n    tag_8:\n      callvalue\n      dup1\n      iszero\n      tag_41\n      jumpi\n      revert(0x00, 0x00)\n    tag_41:\n      pop\n      tag_42\n      tag_43\n      jump\t// in\n    tag_42:\n      mload(0x40)\n      tag_44\n      swap2\n      swap1\n      tag_36\n      jump\t// in\n    tag_44:\n      mload(0x40)\n      dup1\n      swap2\n      sub\n      swap1\n      return\n        /* \"BeggingContract.sol\":186:227  mapping(address => uint) public donations */\n    tag_9:\n      callvalue\n      dup1\n      iszero\n      tag_45\n      jumpi\n      revert(0x00, 0x00)\n    tag_45:\n      pop\n      tag_46\n      0x04\n      dup1\n      calldatasize\n      sub\n      dup2\n      add\n      swap1\n      tag_47\n      swap2\n      swap1\n      tag_48\n      jump\t// in\n    tag_47:\n      tag_49\n      jump\t// in\n    tag_46:\n      mload(0x40)\n      tag_50\n      swap2\n      swap1\n      tag_36\n      jump\t// in\n    tag_50:\n      mload(0x40)\n      dup1\n      swap2\n      sub\n      swap1\n      return\n        /* \"BeggingContract.sol\":1462:2474  function getTopDonors() public view returns(address[3] memory){... */\n    tag_10:\n      callvalue\n      dup1\n      iszero\n      tag_51\n      jumpi\n      revert(0x00, 0x00)\n    tag_51:\n      pop\n      tag_52\n      tag_53\n      jump\t// in\n    tag_52:\n      mload(0x40)\n      tag_54\n      swap2\n      swap1\n      tag_55\n      jump\t// in\n    tag_54:\n      mload(0x40)\n      dup1\n      swap2\n      sub\n      swap1\n      return\n        /* \"BeggingContract.sol\":888:1193  function donate() public payable onlyDuringDonation{... */\n    tag_11:\n      tag_56\n      tag_16\n      jump\t// in\n    tag_56:\n      stop\n    tag_16:\n        /* \"BeggingContract.sol\":563:576  donationStart */\n      sload(0x01)\n        /* \"BeggingContract.sol\":544:559  block.timestamp */\n      timestamp\n        /* \"BeggingContract.sol\":544:576  block.timestamp >= donationStart */\n      lt\n      iszero\n        /* \"BeggingContract.sol\":544:610  block.timestamp >= donationStart && block.timestamp <= donationEnd */\n      dup1\n      iszero\n      tag_58\n      jumpi\n      pop\n        /* \"BeggingContract.sol\":599:610  donationEnd */\n      sload(0x02)\n        /* \"BeggingContract.sol\":580:595  block.timestamp */\n      timestamp\n        /* \"BeggingContract.sol\":580:610  block.timestamp <= donationEnd */\n      gt\n      iszero\n        /* \"BeggingContract.sol\":544:610  block.timestamp >= donationStart && block.timestamp <= donationEnd */\n    tag_58:\n        /* \"BeggingContract.sol\":536:633  require(block.timestamp >= donationStart && block.timestamp <= donationEnd,\"Not during donating\") */\n      tag_59\n      jumpi\n      mload(0x40)\n      0x08c379a000000000000000000000000000000000000000000000000000000000\n      dup2\n      mstore\n      0x04\n      add\n      tag_60\n      swap1\n      tag_61\n      jump\t// in\n    tag_60:\n      mload(0x40)\n      dup1\n      swap2\n      sub\n      swap1\n      revert\n    tag_59:\n        /* \"BeggingContract.sol\":970:971  0 */\n      0x00\n        /* \"BeggingContract.sol\":958:967  msg.value */\n      callvalue\n        /* \"BeggingContract.sol\":958:971  msg.value > 0 */\n      gt\n        /* \"BeggingContract.sol\":950:1004  require(msg.value > 0,\"Not enough money for donating\") */\n      tag_63\n      jumpi\n      mload(0x40)\n      0x08c379a000000000000000000000000000000000000000000000000000000000\n      dup2\n      mstore\n      0x04\n      add\n      tag_64\n      swap1\n      tag_65\n      jump\t// in\n    tag_64:\n      mload(0x40)\n      dup1\n      swap2\n      sub\n      swap1\n      revert\n    tag_63:\n        /* \"BeggingContract.sol\":1043:1044  0 */\n      0x00\n        /* \"BeggingContract.sol\":1018:1027  donations */\n      0x03\n        /* \"BeggingContract.sol\":1018:1039  donations[msg.sender] */\n      0x00\n        /* \"BeggingContract.sol\":1028:1038  msg.sender */\n      caller\n        /* \"BeggingContract.sol\":1018:1039  donations[msg.sender] */\n      0xffffffffffffffffffffffffffffffffffffffff\n      and\n      0xffffffffffffffffffffffffffffffffffffffff\n      and\n      dup2\n      mstore\n      0x20\n      add\n      swap1\n      dup2\n      mstore\n      0x20\n      add\n      0x00\n      keccak256\n      sload\n        /* \"BeggingContract.sol\":1018:1044  donations[msg.sender] == 0 */\n      sub\n        /* \"BeggingContract.sol\":1015:1095  if(donations[msg.sender] == 0){... */\n      tag_66\n      jumpi\n        /* \"BeggingContract.sol\":1060:1066  donors */\n      0x04\n        /* \"BeggingContract.sol\":1072:1082  msg.sender */\n      caller\n        /* \"BeggingContract.sol\":1060:1083  donors.push(msg.sender) */\n      swap1\n      dup1\n      0x01\n      dup2\n      sload\n      add\n      dup1\n      dup3\n      sstore\n      dup1\n      swap2\n      pop\n      pop\n      0x01\n      swap1\n      sub\n      swap1\n      0x00\n      mstore\n      keccak256(0x00, 0x20)\n      add\n      0x00\n      swap1\n      swap2\n      swap1\n      swap2\n      swap1\n      swap2\n      0x0100\n      exp\n      dup2\n      sload\n      dup2\n      0xffffffffffffffffffffffffffffffffffffffff\n      mul\n      not\n      and\n      swap1\n      dup4\n      0xffffffffffffffffffffffffffffffffffffffff\n      and\n      mul\n      or\n      swap1\n      sstore\n      pop\n        /* \"BeggingContract.sol\":1015:1095  if(donations[msg.sender] == 0){... */\n    tag_66:\n        /* \"BeggingContract.sol\":1130:1139  msg.value */\n      callvalue\n        /* \"BeggingContract.sol\":1105:1114  donations */\n      0x03\n        /* \"BeggingContract.sol\":1105:1126  donations[msg.sender] */\n      0x00\n        /* \"BeggingContract.sol\":1115:1125  msg.sender */\n      caller\n        /* \"BeggingContract.sol\":1105:1126  donations[msg.sender] */\n      0xffffffffffffffffffffffffffffffffffffffff\n      and\n      0xffffffffffffffffffffffffffffffffffffffff\n      and\n      dup2\n      mstore\n      0x20\n      add\n      swap1\n      dup2\n      mstore\n      0x20\n      add\n      0x00\n      keccak256\n      0x00\n        /* \"BeggingContract.sol\":1105:1139  donations[msg.sender] += msg.value */\n      dup3\n      dup3\n      sload\n      tag_68\n      swap2\n      swap1\n      tag_69\n      jump\t// in\n    tag_68:\n      swap3\n      pop\n      pop\n      dup2\n      swap1\n      sstore\n      pop\n        /* \"BeggingContract.sol\":1164:1174  msg.sender */\n      caller\n        /* \"BeggingContract.sol\":1155:1185  Donation(msg.sender,msg.value) */\n      0xffffffffffffffffffffffffffffffffffffffff\n      and\n      0x5d8bc849764969eb1bcc6d0a2f55999d0167c1ccec240a4f39cf664ca9c4148e\n        /* \"BeggingContract.sol\":1175:1184  msg.value */\n      callvalue\n        /* \"BeggingContract.sol\":1155:1185  Donation(msg.sender,msg.value) */\n      mload(0x40)\n      tag_70\n      swap2\n      swap1\n      tag_36\n      jump\t// in\n    tag_70:\n      mload(0x40)\n      dup1\n      swap2\n      sub\n      swap1\n      log2\n        /* \"BeggingContract.sol\":888:1193  function donate() public payable onlyDuringDonation{... */\n      jump\t// out\n        /* \"BeggingContract.sol\":1220:1454  function withdraw() public onlyOwner{... */\n    tag_19:\n        /* \"BeggingContract.sol\":441:446  owner */\n      0x00\n      0x00\n      swap1\n      sload\n      swap1\n      0x0100\n      exp\n      swap1\n      div\n      0xffffffffffffffffffffffffffffffffffffffff\n      and\n        /* \"BeggingContract.sol\":427:446  msg.sender == owner */\n      0xffffffffffffffffffffffffffffffffffffffff\n      and\n        /* \"BeggingContract.sol\":427:437  msg.sender */\n      caller\n        /* \"BeggingContract.sol\":427:446  msg.sender == owner */\n      0xffffffffffffffffffffffffffffffffffffffff\n      and\n      eq\n        /* \"BeggingContract.sol\":419:468  require(msg.sender == owner,\"Not contract owner\") */\n      tag_72\n      jumpi\n      mload(0x40)\n      0x08c379a000000000000000000000000000000000000000000000000000000000\n      dup2\n      mstore\n      0x04\n      add\n      tag_73\n      swap1\n      tag_74\n      jump\t// in\n    tag_73:\n      mload(0x40)\n      dup1\n      swap2\n      sub\n      swap1\n      revert\n    tag_72:\n        /* \"BeggingContract.sol\":1267:1282  uint256 balance */\n      0x00\n        /* \"BeggingContract.sol\":1285:1306  address(this).balance */\n      selfbalance\n        /* \"BeggingContract.sol\":1267:1306  uint256 balance = address(this).balance */\n      swap1\n      pop\n        /* \"BeggingContract.sol\":1336:1337  0 */\n      0x00\n        /* \"BeggingContract.sol\":1325:1332  balance */\n      dup2\n        /* \"BeggingContract.sol\":1325:1337  balance >  0 */\n      gt\n        /* \"BeggingContract.sol\":1317:1361  require(balance >  0,\"no funds to withdraw\") */\n      tag_76\n      jumpi\n      mload(0x40)\n      0x08c379a000000000000000000000000000000000000000000000000000000000\n      dup2\n      mstore\n      0x04\n      add\n      tag_77\n      swap1\n      tag_78\n      jump\t// in\n    tag_77:\n      mload(0x40)\n      dup1\n      swap2\n      sub\n      swap1\n      revert\n    tag_76:\n        /* \"BeggingContract.sol\":1382:1387  owner */\n      0x00\n      0x00\n      swap1\n      sload\n      swap1\n      0x0100\n      exp\n      swap1\n      div\n      0xffffffffffffffffffffffffffffffffffffffff\n      and\n        /* \"BeggingContract.sol\":1374:1397  payable(owner).transfer */\n      0xffffffffffffffffffffffffffffffffffffffff\n      and\n        /* \"BeggingContract.sol\":1374:1406  payable(owner).transfer(balance) */\n      0x08fc\n        /* \"BeggingContract.sol\":1398:1405  balance */\n      dup3\n        /* \"BeggingContract.sol\":1374:1406  payable(owner).transfer(balance) */\n      swap1\n      dup2\n      iszero\n      mul\n      swap1\n      mload(0x40)\n      0x00\n      mload(0x40)\n      dup1\n      dup4\n      sub\n      dup2\n      dup6\n      dup9\n      dup9\n      call\n      swap4\n      pop\n      pop\n      pop\n      pop\n      iszero\n      dup1\n      iszero\n      tag_80\n      jumpi\n      returndatacopy(0x00, 0x00, returndatasize)\n      revert(0x00, returndatasize)\n    tag_80:\n      pop\n        /* \"BeggingContract.sol\":1431:1436  owner */\n      0x00\n      0x00\n      swap1\n      sload\n      swap1\n      0x0100\n      exp\n      swap1\n      div\n      0xffffffffffffffffffffffffffffffffffffffff\n      and\n        /* \"BeggingContract.sol\":1422:1446  Withdraw(owner, balance) */\n      0xffffffffffffffffffffffffffffffffffffffff\n      and\n      0x884edad9ce6fa2440d8a54cc123490eb96d2768479d49ff9c7366125a9424364\n        /* \"BeggingContract.sol\":1438:1445  balance */\n      dup3\n        /* \"BeggingContract.sol\":1422:1446  Withdraw(owner, balance) */\n      mload(0x40)\n      tag_81\n      swap2\n      swap1\n      tag_36\n      jump\t// in\n    tag_81:\n      mload(0x40)\n      dup1\n      swap2\n      sub\n      swap1\n      log2\n        /* \"BeggingContract.sol\":1256:1454  {... */\n      pop\n        /* \"BeggingContract.sol\":1220:1454  function withdraw() public onlyOwner{... */\n      jump\t// out\n        /* \"BeggingContract.sol\":236:259  address[] public donors */\n    tag_24:\n      0x04\n      dup2\n      dup2\n      sload\n      dup2\n      lt\n      tag_82\n      jumpi\n      0x00\n      dup1\n      revert\n    tag_82:\n      swap1\n      0x00\n      mstore\n      keccak256(0x00, 0x20)\n      add\n      0x00\n      swap2\n      pop\n      sload\n      swap1\n      0x0100\n      exp\n      swap1\n      div\n      0xffffffffffffffffffffffffffffffffffffffff\n      and\n      dup2\n      jump\t// out\n        /* \"BeggingContract.sol\":2482:2626  function donationAllowed() public view returns(bool){... */\n    tag_29:\n        /* \"BeggingContract.sol\":2529:2533  bool */\n      0x00\n        /* \"BeggingContract.sol\":2571:2584  donationStart */\n      sload(0x01)\n        /* \"BeggingContract.sol\":2552:2567  block.timestamp */\n      timestamp\n        /* \"BeggingContract.sol\":2552:2584  block.timestamp >= donationStart */\n      lt\n      iszero\n        /* \"BeggingContract.sol\":2552:2618  block.timestamp >= donationStart && block.timestamp <= donationEnd */\n      dup1\n      iszero\n      tag_85\n      jumpi\n      pop\n        /* \"BeggingContract.sol\":2607:2618  donationEnd */\n      sload(0x02)\n        /* \"BeggingContract.sol\":2588:2603  block.timestamp */\n      timestamp\n        /* \"BeggingContract.sol\":2588:2618  block.timestamp <= donationEnd */\n      gt\n      iszero\n        /* \"BeggingContract.sol\":2552:2618  block.timestamp >= donationStart && block.timestamp <= donationEnd */\n    tag_85:\n        /* \"BeggingContract.sol\":2545:2618  return block.timestamp >= donationStart && block.timestamp <= donationEnd */\n      swap1\n      pop\n        /* \"BeggingContract.sol\":2482:2626  function donationAllowed() public view returns(bool){... */\n      swap1\n      jump\t// out\n        /* \"BeggingContract.sol\":153:179  uint256 public donationEnd */\n    tag_34:\n      sload(0x02)\n      dup2\n      jump\t// out\n        /* \"BeggingContract.sol\":91:111  address public owner */\n    tag_39:\n      0x00\n      0x00\n      swap1\n      sload\n      swap1\n      0x0100\n      exp\n      swap1\n      div\n      0xffffffffffffffffffffffffffffffffffffffff\n      and\n      dup2\n      jump\t// out\n        /* \"BeggingContract.sol\":118:146  uint256 public donationStart */\n    tag_43:\n      sload(0x01)\n      dup2\n      jump\t// out\n        /* \"BeggingContract.sol\":186:227  mapping(address => uint) public donations */\n    tag_49:\n      mstore(0x20, 0x03)\n      dup1\n      0x00\n      mstore\n      keccak256(0x00, 0x40)\n      0x00\n      swap2\n      pop\n      swap1\n      pop\n      sload\n      dup2\n      jump\t// out\n        /* \"BeggingContract.sol\":1462:2474  function getTopDonors() public view returns(address[3] memory){... */\n    tag_53:\n        /* \"BeggingContract.sol\":1506:1523  address[3] memory */\n      tag_86\n      tag_87\n      jump\t// in\n    tag_86:\n        /* \"BeggingContract.sol\":1535:1563  uint256[3] memory topAmounts */\n      tag_89\n      tag_90\n      jump\t// in\n    tag_89:\n        /* \"BeggingContract.sol\":1574:1601  address[3] memory topDonors */\n      tag_91\n      tag_87\n      jump\t// in\n    tag_91:\n        /* \"BeggingContract.sol\":1616:1625  uint256 i */\n      0x00\n        /* \"BeggingContract.sol\":1628:1629  0 */\n      0x00\n        /* \"BeggingContract.sol\":1616:1629  uint256 i = 0 */\n      swap1\n      pop\n        /* \"BeggingContract.sol\":1612:2440  for(uint256 i = 0;i< donors.length;i++){... */\n    tag_92:\n        /* \"BeggingContract.sol\":1633:1639  donors */\n      0x04\n        /* \"BeggingContract.sol\":1633:1646  donors.length */\n      dup1\n      sload\n      swap1\n      pop\n        /* \"BeggingContract.sol\":1630:1631  i */\n      dup2\n        /* \"BeggingContract.sol\":1630:1646  i< donors.length */\n      lt\n        /* \"BeggingContract.sol\":1612:2440  for(uint256 i = 0;i< donors.length;i++){... */\n      iszero\n      tag_93\n      jumpi\n        /* \"BeggingContract.sol\":1666:1680  uint256 amount */\n      0x00\n        /* \"BeggingContract.sol\":1683:1692  donations */\n      0x03\n        /* \"BeggingContract.sol\":1683:1703  donations[donors[i]] */\n      0x00\n        /* \"BeggingContract.sol\":1693:1699  donors */\n      0x04\n        /* \"BeggingContract.sol\":1700:1701  i */\n      dup5\n        /* \"BeggingContract.sol\":1693:1702  donors[i] */\n      dup2\n      sload\n      dup2\n      lt\n      tag_95\n      jumpi\n      tag_96\n      tag_97\n      jump\t// in\n    tag_96:\n    tag_95:\n      swap1\n      0x00\n      mstore\n      keccak256(0x00, 0x20)\n      add\n      0x00\n      swap1\n      sload\n      swap1\n      0x0100\n      exp\n      swap1\n      div\n      0xffffffffffffffffffffffffffffffffffffffff\n      and\n        /* \"BeggingContract.sol\":1683:1703  donations[donors[i]] */\n      0xffffffffffffffffffffffffffffffffffffffff\n      and\n      0xffffffffffffffffffffffffffffffffffffffff\n      and\n      dup2\n      mstore\n      0x20\n      add\n      swap1\n      dup2\n      mstore\n      0x20\n      add\n      0x00\n      keccak256\n      sload\n        /* \"BeggingContract.sol\":1666:1703  uint256 amount = donations[donors[i]] */\n      swap1\n      pop\n        /* \"BeggingContract.sol\":1731:1741  topAmounts */\n      dup4\n        /* \"BeggingContract.sol\":1742:1743  0 */\n      0x00\n        /* \"BeggingContract.sol\":1731:1744  topAmounts[0] */\n      0x03\n      dup2\n      lt\n      tag_99\n      jumpi\n      tag_100\n      tag_97\n      jump\t// in\n    tag_100:\n    tag_99:\n      0x20\n      mul\n      add\n      mload\n        /* \"BeggingContract.sol\":1722:1728  amount */\n      dup2\n        /* \"BeggingContract.sol\":1722:1744  amount > topAmounts[0] */\n      gt\n        /* \"BeggingContract.sol\":1718:2429  if (amount > topAmounts[0]) {... */\n      iszero\n      tag_101\n      jumpi\n        /* \"BeggingContract.sol\":1814:1824  topAmounts */\n      dup4\n        /* \"BeggingContract.sol\":1825:1826  1 */\n      0x01\n        /* \"BeggingContract.sol\":1814:1827  topAmounts[1] */\n      0x03\n      dup2\n      lt\n      tag_102\n      jumpi\n      tag_103\n      tag_97\n      jump\t// in\n    tag_103:\n    tag_102:\n      0x20\n      mul\n      add\n      mload\n        /* \"BeggingContract.sol\":1798:1808  topAmounts */\n      dup5\n        /* \"BeggingContract.sol\":1809:1810  2 */\n      0x02\n        /* \"BeggingContract.sol\":1798:1811  topAmounts[2] */\n      0x03\n      dup2\n      lt\n      tag_104\n      jumpi\n      tag_105\n      tag_97\n      jump\t// in\n    tag_105:\n    tag_104:\n      0x20\n      mul\n      add\n        /* \"BeggingContract.sol\":1798:1827  topAmounts[2] = topAmounts[1] */\n      dup2\n      dup2\n      mstore\n      pop\n      pop\n        /* \"BeggingContract.sol\":1861:1870  topDonors */\n      dup3\n        /* \"BeggingContract.sol\":1871:1872  1 */\n      0x01\n        /* \"BeggingContract.sol\":1861:1873  topDonors[1] */\n      0x03\n      dup2\n      lt\n      tag_106\n      jumpi\n      tag_107\n      tag_97\n      jump\t// in\n    tag_107:\n    tag_106:\n      0x20\n      mul\n      add\n      mload\n        /* \"BeggingContract.sol\":1846:1855  topDonors */\n      dup4\n        /* \"BeggingContract.sol\":1856:1857  2 */\n      0x02\n        /* \"BeggingContract.sol\":1846:1858  topDonors[2] */\n      0x03\n      dup2\n      lt\n      tag_108\n      jumpi\n      tag_109\n      tag_97\n      jump\t// in\n    tag_109:\n    tag_108:\n      0x20\n      mul\n      add\n        /* \"BeggingContract.sol\":1846:1873  topDonors[2] = topDonors[1] */\n      swap1\n      0xffffffffffffffffffffffffffffffffffffffff\n      and\n      swap1\n      dup2\n      0xffffffffffffffffffffffffffffffffffffffff\n      and\n      dup2\n      mstore\n      pop\n      pop\n        /* \"BeggingContract.sol\":1908:1918  topAmounts */\n      dup4\n        /* \"BeggingContract.sol\":1919:1920  0 */\n      0x00\n        /* \"BeggingContract.sol\":1908:1921  topAmounts[0] */\n      0x03\n      dup2\n      lt\n      tag_110\n      jumpi\n      tag_111\n      tag_97\n      jump\t// in\n    tag_111:\n    tag_110:\n      0x20\n      mul\n      add\n      mload\n        /* \"BeggingContract.sol\":1892:1902  topAmounts */\n      dup5\n        /* \"BeggingContract.sol\":1903:1904  1 */\n      0x01\n        /* \"BeggingContract.sol\":1892:1905  topAmounts[1] */\n      0x03\n      dup2\n      lt\n      tag_112\n      jumpi\n      tag_113\n      tag_97\n      jump\t// in\n    tag_113:\n    tag_112:\n      0x20\n      mul\n      add\n        /* \"BeggingContract.sol\":1892:1921  topAmounts[1] = topAmounts[0] */\n      dup2\n      dup2\n      mstore\n      pop\n      pop\n        /* \"BeggingContract.sol\":1955:1964  topDonors */\n      dup3\n        /* \"BeggingContract.sol\":1965:1966  0 */\n      0x00\n        /* \"BeggingContract.sol\":1955:1967  topDonors[0] */\n      0x03\n      dup2\n      lt\n      tag_114\n      jumpi\n      tag_115\n      tag_97\n      jump\t// in\n    tag_115:\n    tag_114:\n      0x20\n      mul\n      add\n      mload\n        /* \"BeggingContract.sol\":1940:1949  topDonors */\n      dup4\n        /* \"BeggingContract.sol\":1950:1951  1 */\n      0x01\n        /* \"BeggingContract.sol\":1940:1952  topDonors[1] */\n      0x03\n      dup2\n      lt\n      tag_116\n      jumpi\n      tag_117\n      tag_97\n      jump\t// in\n    tag_117:\n    tag_116:\n      0x20\n      mul\n      add\n        /* \"BeggingContract.sol\":1940:1967  topDonors[1] = topDonors[0] */\n      swap1\n      0xffffffffffffffffffffffffffffffffffffffff\n      and\n      swap1\n      dup2\n      0xffffffffffffffffffffffffffffffffffffffff\n      and\n      dup2\n      mstore\n      pop\n      pop\n        /* \"BeggingContract.sol\":2002:2008  amount */\n      dup1\n        /* \"BeggingContract.sol\":1986:1996  topAmounts */\n      dup5\n        /* \"BeggingContract.sol\":1997:1998  0 */\n      0x00\n        /* \"BeggingContract.sol\":1986:1999  topAmounts[0] */\n      0x03\n      dup2\n      lt\n      tag_118\n      jumpi\n      tag_119\n      tag_97\n      jump\t// in\n    tag_119:\n    tag_118:\n      0x20\n      mul\n      add\n        /* \"BeggingContract.sol\":1986:2008  topAmounts[0] = amount */\n      dup2\n      dup2\n      mstore\n      pop\n      pop\n        /* \"BeggingContract.sol\":2042:2048  donors */\n      0x04\n        /* \"BeggingContract.sol\":2049:2050  i */\n      dup3\n        /* \"BeggingContract.sol\":2042:2051  donors[i] */\n      dup2\n      sload\n      dup2\n      lt\n      tag_120\n      jumpi\n      tag_121\n      tag_97\n      jump\t// in\n    tag_121:\n    tag_120:\n      swap1\n      0x00\n      mstore\n      keccak256(0x00, 0x20)\n      add\n      0x00\n      swap1\n      sload\n      swap1\n      0x0100\n      exp\n      swap1\n      div\n      0xffffffffffffffffffffffffffffffffffffffff\n      and\n        /* \"BeggingContract.sol\":2027:2036  topDonors */\n      dup4\n        /* \"BeggingContract.sol\":2037:2038  0 */\n      0x00\n        /* \"BeggingContract.sol\":2027:2039  topDonors[0] */\n      0x03\n      dup2\n      lt\n      tag_123\n      jumpi\n      tag_124\n      tag_97\n      jump\t// in\n    tag_124:\n    tag_123:\n      0x20\n      mul\n      add\n        /* \"BeggingContract.sol\":2027:2051  topDonors[0] = donors[i] */\n      swap1\n      0xffffffffffffffffffffffffffffffffffffffff\n      and\n      swap1\n      dup2\n      0xffffffffffffffffffffffffffffffffffffffff\n      and\n      dup2\n      mstore\n      pop\n      pop\n        /* \"BeggingContract.sol\":1718:2429  if (amount > topAmounts[0]) {... */\n      jump(tag_125)\n    tag_101:\n        /* \"BeggingContract.sol\":2086:2096  topAmounts */\n      dup4\n        /* \"BeggingContract.sol\":2097:2098  1 */\n      0x01\n        /* \"BeggingContract.sol\":2086:2099  topAmounts[1] */\n      0x03\n      dup2\n      lt\n      tag_126\n      jumpi\n      tag_127\n      tag_97\n      jump\t// in\n    tag_127:\n    tag_126:\n      0x20\n      mul\n      add\n      mload\n        /* \"BeggingContract.sol\":2077:2083  amount */\n      dup2\n        /* \"BeggingContract.sol\":2077:2099  amount > topAmounts[1] */\n      gt\n        /* \"BeggingContract.sol\":2073:2429  if (amount > topAmounts[1]) {... */\n      iszero\n      tag_128\n      jumpi\n        /* \"BeggingContract.sol\":2136:2146  topAmounts */\n      dup4\n        /* \"BeggingContract.sol\":2147:2148  1 */\n      0x01\n        /* \"BeggingContract.sol\":2136:2149  topAmounts[1] */\n      0x03\n      dup2\n      lt\n      tag_129\n      jumpi\n      tag_130\n      tag_97\n      jump\t// in\n    tag_130:\n    tag_129:\n      0x20\n      mul\n      add\n      mload\n        /* \"BeggingContract.sol\":2120:2130  topAmounts */\n      dup5\n        /* \"BeggingContract.sol\":2131:2132  2 */\n      0x02\n        /* \"BeggingContract.sol\":2120:2133  topAmounts[2] */\n      0x03\n      dup2\n      lt\n      tag_131\n      jumpi\n      tag_132\n      tag_97\n      jump\t// in\n    tag_132:\n    tag_131:\n      0x20\n      mul\n      add\n        /* \"BeggingContract.sol\":2120:2149  topAmounts[2] = topAmounts[1] */\n      dup2\n      dup2\n      mstore\n      pop\n      pop\n        /* \"BeggingContract.sol\":2183:2192  topDonors */\n      dup3\n        /* \"BeggingContract.sol\":2193:2194  1 */\n      0x01\n        /* \"BeggingContract.sol\":2183:2195  topDonors[1] */\n      0x03\n      dup2\n      lt\n      tag_133\n      jumpi\n      tag_134\n      tag_97\n      jump\t// in\n    tag_134:\n    tag_133:\n      0x20\n      mul\n      add\n      mload\n        /* \"BeggingContract.sol\":2168:2177  topDonors */\n      dup4\n        /* \"BeggingContract.sol\":2178:2179  2 */\n      0x02\n        /* \"BeggingContract.sol\":2168:2180  topDonors[2] */\n      0x03\n      dup2\n      lt\n      tag_135\n      jumpi\n      tag_136\n      tag_97\n      jump\t// in\n    tag_136:\n    tag_135:\n      0x20\n      mul\n      add\n        /* \"BeggingContract.sol\":2168:2195  topDonors[2] = topDonors[1] */\n      swap1\n      0xffffffffffffffffffffffffffffffffffffffff\n      and\n      swap1\n      dup2\n      0xffffffffffffffffffffffffffffffffffffffff\n      and\n      dup2\n      mstore\n      pop\n      pop\n        /* \"BeggingContract.sol\":2230:2236  amount */\n      dup1\n        /* \"BeggingContract.sol\":2214:2224  topAmounts */\n      dup5\n        /* \"BeggingContract.sol\":2225:2226  1 */\n      0x01\n        /* \"BeggingContract.sol\":2214:2227  topAmounts[1] */\n      0x03\n      dup2\n      lt\n      tag_137\n      jumpi\n      tag_138\n      tag_97\n      jump\t// in\n    tag_138:\n    tag_137:\n      0x20\n      mul\n      add\n        /* \"BeggingContract.sol\":2214:2236  topAmounts[1] = amount */\n      dup2\n      dup2\n      mstore\n      pop\n      pop\n        /* \"BeggingContract.sol\":2270:2276  donors */\n      0x04\n        /* \"BeggingContract.sol\":2277:2278  i */\n      dup3\n        /* \"BeggingContract.sol\":2270:2279  donors[i] */\n      dup2\n      sload\n      dup2\n      lt\n      tag_139\n      jumpi\n      tag_140\n      tag_97\n      jump\t// in\n    tag_140:\n    tag_139:\n      swap1\n      0x00\n      mstore\n      keccak256(0x00, 0x20)\n      add\n      0x00\n      swap1\n      sload\n      swap1\n      0x0100\n      exp\n      swap1\n      div\n      0xffffffffffffffffffffffffffffffffffffffff\n      and\n        /* \"BeggingContract.sol\":2255:2264  topDonors */\n      dup4\n        /* \"BeggingContract.sol\":2265:2266  1 */\n      0x01\n        /* \"BeggingContract.sol\":2255:2267  topDonors[1] */\n      0x03\n      dup2\n      lt\n      tag_142\n      jumpi\n      tag_143\n      tag_97\n      jump\t// in\n    tag_143:\n    tag_142:\n      0x20\n      mul\n      add\n        /* \"BeggingContract.sol\":2255:2279  topDonors[1] = donors[i] */\n      swap1\n      0xffffffffffffffffffffffffffffffffffffffff\n      and\n      swap1\n      dup2\n      0xffffffffffffffffffffffffffffffffffffffff\n      and\n      dup2\n      mstore\n      pop\n      pop\n        /* \"BeggingContract.sol\":2073:2429  if (amount > topAmounts[1]) {... */\n      jump(tag_144)\n    tag_128:\n        /* \"BeggingContract.sol\":2314:2324  topAmounts */\n      dup4\n        /* \"BeggingContract.sol\":2325:2326  2 */\n      0x02\n        /* \"BeggingContract.sol\":2314:2327  topAmounts[2] */\n      0x03\n      dup2\n      lt\n      tag_145\n      jumpi\n      tag_146\n      tag_97\n      jump\t// in\n    tag_146:\n    tag_145:\n      0x20\n      mul\n      add\n      mload\n        /* \"BeggingContract.sol\":2305:2311  amount */\n      dup2\n        /* \"BeggingContract.sol\":2305:2327  amount > topAmounts[2] */\n      gt\n        /* \"BeggingContract.sol\":2301:2429  if (amount > topAmounts[2]) {... */\n      iszero\n      tag_147\n      jumpi\n        /* \"BeggingContract.sol\":2364:2370  amount */\n      dup1\n        /* \"BeggingContract.sol\":2348:2358  topAmounts */\n      dup5\n        /* \"BeggingContract.sol\":2359:2360  2 */\n      0x02\n        /* \"BeggingContract.sol\":2348:2361  topAmounts[2] */\n      0x03\n      dup2\n      lt\n      tag_148\n      jumpi\n      tag_149\n      tag_97\n      jump\t// in\n    tag_149:\n    tag_148:\n      0x20\n      mul\n      add\n        /* \"BeggingContract.sol\":2348:2370  topAmounts[2] = amount */\n      dup2\n      dup2\n      mstore\n      pop\n      pop\n        /* \"BeggingContract.sol\":2404:2410  donors */\n      0x04\n        /* \"BeggingContract.sol\":2411:2412  i */\n      dup3\n        /* \"BeggingContract.sol\":2404:2413  donors[i] */\n      dup2\n      sload\n      dup2\n      lt\n      tag_150\n      jumpi\n      tag_151\n      tag_97\n      jump\t// in\n    tag_151:\n    tag_150:\n      swap1\n      0x00\n      mstore\n      keccak256(0x00, 0x20)\n      add\n      0x00\n      swap1\n      sload\n      swap1\n      0x0100\n      exp\n      swap1\n      div\n      0xffffffffffffffffffffffffffffffffffffffff\n      and\n        /* \"BeggingContract.sol\":2389:2398  topDonors */\n      dup4\n        /* \"BeggingContract.sol\":2399:2400  2 */\n      0x02\n        /* \"BeggingContract.sol\":2389:2401  topDonors[2] */\n      0x03\n      dup2\n      lt\n      tag_153\n      jumpi\n      tag_154\n      tag_97\n      jump\t// in\n    tag_154:\n    tag_153:\n      0x20\n      mul\n      add\n        /* \"BeggingContract.sol\":2389:2413  topDonors[2] = donors[i] */\n      swap1\n      0xffffffffffffffffffffffffffffffffffffffff\n      and\n      swap1\n      dup2\n      0xffffffffffffffffffffffffffffffffffffffff\n      and\n      dup2\n      mstore\n      pop\n      pop\n        /* \"BeggingContract.sol\":2301:2429  if (amount > topAmounts[2]) {... */\n    tag_147:\n        /* \"BeggingContract.sol\":2073:2429  if (amount > topAmounts[1]) {... */\n    tag_144:\n        /* \"BeggingContract.sol\":1718:2429  if (amount > topAmounts[0]) {... */\n    tag_125:\n        /* \"BeggingContract.sol\":1651:2440  {... */\n      pop\n        /* \"BeggingContract.sol\":1647:1650  i++ */\n      dup1\n      dup1\n      0x01\n      add\n      swap2\n      pop\n      pop\n        /* \"BeggingContract.sol\":1612:2440  for(uint256 i = 0;i< donors.length;i++){... */\n      jump(tag_92)\n    tag_93:\n      pop\n        /* \"BeggingContract.sol\":2457:2466  topDonors */\n      dup1\n        /* \"BeggingContract.sol\":2450:2466  return topDonors */\n      swap3\n      pop\n      pop\n      pop\n        /* \"BeggingContract.sol\":1462:2474  function getTopDonors() public view returns(address[3] memory){... */\n      swap1\n      jump\t// out\n    tag_87:\n      mload(0x40)\n      dup1\n      0x60\n      add\n      0x40\n      mstore\n      dup1\n      0x03\n      swap1\n      0x20\n      dup3\n      mul\n      dup1\n      calldatasize\n      dup4\n      calldatacopy\n      dup1\n      dup3\n      add\n      swap2\n      pop\n      pop\n      swap1\n      pop\n      pop\n      swap1\n      jump\t// out\n    tag_90:\n      mload(0x40)\n      dup1\n      0x60\n      add\n      0x40\n      mstore\n      dup1\n      0x03\n      swap1\n      0x20\n      dup3\n      mul\n      dup1\n      calldatasize\n      dup4\n      calldatacopy\n      dup1\n      dup3\n      add\n      swap2\n      pop\n      pop\n      swap1\n      pop\n      pop\n      swap1\n      jump\t// out\n        /* \"#utility.yul\":88:205   */\n    tag_156:\n        /* \"#utility.yul\":197:198   */\n      0x00\n        /* \"#utility.yul\":194:195   */\n      0x00\n        /* \"#utility.yul\":187:199   */\n      revert\n        /* \"#utility.yul\":334:411   */\n    tag_158:\n        /* \"#utility.yul\":371:378   */\n      0x00\n        /* \"#utility.yul\":400:405   */\n      dup2\n        /* \"#utility.yul\":389:405   */\n      swap1\n      pop\n        /* \"#utility.yul\":334:411   */\n      swap2\n      swap1\n      pop\n      jump\t// out\n        /* \"#utility.yul\":417:539   */\n    tag_159:\n        /* \"#utility.yul\":490:514   */\n      tag_192\n        /* \"#utility.yul\":508:513   */\n      dup2\n        /* \"#utility.yul\":490:514   */\n      tag_158\n      jump\t// in\n    tag_192:\n        /* \"#utility.yul\":483:488   */\n      dup2\n        /* \"#utility.yul\":480:515   */\n      eq\n        /* \"#utility.yul\":470:533   */\n      tag_193\n      jumpi\n        /* \"#utility.yul\":529:530   */\n      0x00\n        /* \"#utility.yul\":526:527   */\n      0x00\n        /* \"#utility.yul\":519:531   */\n      revert\n        /* \"#utility.yul\":470:533   */\n    tag_193:\n        /* \"#utility.yul\":417:539   */\n      pop\n      jump\t// out\n        /* \"#utility.yul\":545:684   */\n    tag_160:\n        /* \"#utility.yul\":591:596   */\n      0x00\n        /* \"#utility.yul\":629:635   */\n      dup2\n        /* \"#utility.yul\":616:636   */\n      calldataload\n        /* \"#utility.yul\":607:636   */\n      swap1\n      pop\n        /* \"#utility.yul\":645:678   */\n      tag_195\n        /* \"#utility.yul\":672:677   */\n      dup2\n        /* \"#utility.yul\":645:678   */\n      tag_159\n      jump\t// in\n    tag_195:\n        /* \"#utility.yul\":545:684   */\n      swap3\n      swap2\n      pop\n      pop\n      jump\t// out\n        /* \"#utility.yul\":690:1019   */\n    tag_23:\n        /* \"#utility.yul\":749:755   */\n      0x00\n        /* \"#utility.yul\":798:800   */\n      0x20\n        /* \"#utility.yul\":786:795   */\n      dup3\n        /* \"#utility.yul\":777:784   */\n      dup5\n        /* \"#utility.yul\":773:796   */\n      sub\n        /* \"#utility.yul\":769:801   */\n      slt\n        /* \"#utility.yul\":766:885   */\n      iszero\n      tag_197\n      jumpi\n        /* \"#utility.yul\":804:883   */\n      tag_198\n      tag_156\n      jump\t// in\n    tag_198:\n        /* \"#utility.yul\":766:885   */\n    tag_197:\n        /* \"#utility.yul\":924:925   */\n      0x00\n        /* \"#utility.yul\":949:1002   */\n      tag_199\n        /* \"#utility.yul\":994:1001   */\n      dup5\n        /* \"#utility.yul\":985:991   */\n      dup3\n        /* \"#utility.yul\":974:983   */\n      dup6\n        /* \"#utility.yul\":970:992   */\n      add\n        /* \"#utility.yul\":949:1002   */\n      tag_160\n      jump\t// in\n    tag_199:\n        /* \"#utility.yul\":939:1002   */\n      swap2\n      pop\n        /* \"#utility.yul\":895:1012   */\n      pop\n        /* \"#utility.yul\":690:1019   */\n      swap3\n      swap2\n      pop\n      pop\n      jump\t// out\n        /* \"#utility.yul\":1025:1151   */\n    tag_161:\n        /* \"#utility.yul\":1062:1069   */\n      0x00\n        /* \"#utility.yul\":1102:1144   */\n      0xffffffffffffffffffffffffffffffffffffffff\n        /* \"#utility.yul\":1095:1100   */\n      dup3\n        /* \"#utility.yul\":1091:1145   */\n      and\n        /* \"#utility.yul\":1080:1145   */\n      swap1\n      pop\n        /* \"#utility.yul\":1025:1151   */\n      swap2\n      swap1\n      pop\n      jump\t// out\n        /* \"#utility.yul\":1157:1253   */\n    tag_162:\n        /* \"#utility.yul\":1194:1201   */\n      0x00\n        /* \"#utility.yul\":1223:1247   */\n      tag_202\n        /* \"#utility.yul\":1241:1246   */\n      dup3\n        /* \"#utility.yul\":1223:1247   */\n      tag_161\n      jump\t// in\n    tag_202:\n        /* \"#utility.yul\":1212:1247   */\n      swap1\n      pop\n        /* \"#utility.yul\":1157:1253   */\n      swap2\n      swap1\n      pop\n      jump\t// out\n        /* \"#utility.yul\":1259:1377   */\n    tag_163:\n        /* \"#utility.yul\":1346:1370   */\n      tag_204\n        /* \"#utility.yul\":1364:1369   */\n      dup2\n        /* \"#utility.yul\":1346:1370   */\n      tag_162\n      jump\t// in\n    tag_204:\n        /* \"#utility.yul\":1341:1344   */\n      dup3\n        /* \"#utility.yul\":1334:1371   */\n      mstore\n        /* \"#utility.yul\":1259:1377   */\n      pop\n      pop\n      jump\t// out\n        /* \"#utility.yul\":1383:1605   */\n    tag_26:\n        /* \"#utility.yul\":1476:1480   */\n      0x00\n        /* \"#utility.yul\":1514:1516   */\n      0x20\n        /* \"#utility.yul\":1503:1512   */\n      dup3\n        /* \"#utility.yul\":1499:1517   */\n      add\n        /* \"#utility.yul\":1491:1517   */\n      swap1\n      pop\n        /* \"#utility.yul\":1527:1598   */\n      tag_206\n        /* \"#utility.yul\":1595:1596   */\n      0x00\n        /* \"#utility.yul\":1584:1593   */\n      dup4\n        /* \"#utility.yul\":1580:1597   */\n      add\n        /* \"#utility.yul\":1571:1577   */\n      dup5\n        /* \"#utility.yul\":1527:1598   */\n      tag_163\n      jump\t// in\n    tag_206:\n        /* \"#utility.yul\":1383:1605   */\n      swap3\n      swap2\n      pop\n      pop\n      jump\t// out\n        /* \"#utility.yul\":1611:1701   */\n    tag_164:\n        /* \"#utility.yul\":1645:1652   */\n      0x00\n        /* \"#utility.yul\":1688:1693   */\n      dup2\n        /* \"#utility.yul\":1681:1694   */\n      iszero\n        /* \"#utility.yul\":1674:1695   */\n      iszero\n        /* \"#utility.yul\":1663:1695   */\n      swap1\n      pop\n        /* \"#utility.yul\":1611:1701   */\n      swap2\n      swap1\n      pop\n      jump\t// out\n        /* \"#utility.yul\":1707:1816   */\n    tag_165:\n        /* \"#utility.yul\":1788:1809   */\n      tag_209\n        /* \"#utility.yul\":1803:1808   */\n      dup2\n        /* \"#utility.yul\":1788:1809   */\n      tag_164\n      jump\t// in\n    tag_209:\n        /* \"#utility.yul\":1783:1786   */\n      dup3\n        /* \"#utility.yul\":1776:1810   */\n      mstore\n        /* \"#utility.yul\":1707:1816   */\n      pop\n      pop\n      jump\t// out\n        /* \"#utility.yul\":1822:2032   */\n    tag_31:\n        /* \"#utility.yul\":1909:1913   */\n      0x00\n        /* \"#utility.yul\":1947:1949   */\n      0x20\n        /* \"#utility.yul\":1936:1945   */\n      dup3\n        /* \"#utility.yul\":1932:1950   */\n      add\n        /* \"#utility.yul\":1924:1950   */\n      swap1\n      pop\n        /* \"#utility.yul\":1960:2025   */\n      tag_211\n        /* \"#utility.yul\":2022:2023   */\n      0x00\n        /* \"#utility.yul\":2011:2020   */\n      dup4\n        /* \"#utility.yul\":2007:2024   */\n      add\n        /* \"#utility.yul\":1998:2004   */\n      dup5\n        /* \"#utility.yul\":1960:2025   */\n      tag_165\n      jump\t// in\n    tag_211:\n        /* \"#utility.yul\":1822:2032   */\n      swap3\n      swap2\n      pop\n      pop\n      jump\t// out\n        /* \"#utility.yul\":2038:2156   */\n    tag_166:\n        /* \"#utility.yul\":2125:2149   */\n      tag_213\n        /* \"#utility.yul\":2143:2148   */\n      dup2\n        /* \"#utility.yul\":2125:2149   */\n      tag_158\n      jump\t// in\n    tag_213:\n        /* \"#utility.yul\":2120:2123   */\n      dup3\n        /* \"#utility.yul\":2113:2150   */\n      mstore\n        /* \"#utility.yul\":2038:2156   */\n      pop\n      pop\n      jump\t// out\n        /* \"#utility.yul\":2162:2384   */\n    tag_36:\n        /* \"#utility.yul\":2255:2259   */\n      0x00\n        /* \"#utility.yul\":2293:2295   */\n      0x20\n        /* \"#utility.yul\":2282:2291   */\n      dup3\n        /* \"#utility.yul\":2278:2296   */\n      add\n        /* \"#utility.yul\":2270:2296   */\n      swap1\n      pop\n        /* \"#utility.yul\":2306:2377   */\n      tag_215\n        /* \"#utility.yul\":2374:2375   */\n      0x00\n        /* \"#utility.yul\":2363:2372   */\n      dup4\n        /* \"#utility.yul\":2359:2376   */\n      add\n        /* \"#utility.yul\":2350:2356   */\n      dup5\n        /* \"#utility.yul\":2306:2377   */\n      tag_166\n      jump\t// in\n    tag_215:\n        /* \"#utility.yul\":2162:2384   */\n      swap3\n      swap2\n      pop\n      pop\n      jump\t// out\n        /* \"#utility.yul\":2390:2512   */\n    tag_167:\n        /* \"#utility.yul\":2463:2487   */\n      tag_217\n        /* \"#utility.yul\":2481:2486   */\n      dup2\n        /* \"#utility.yul\":2463:2487   */\n      tag_162\n      jump\t// in\n    tag_217:\n        /* \"#utility.yul\":2456:2461   */\n      dup2\n        /* \"#utility.yul\":2453:2488   */\n      eq\n        /* \"#utility.yul\":2443:2506   */\n      tag_218\n      jumpi\n        /* \"#utility.yul\":2502:2503   */\n      0x00\n        /* \"#utility.yul\":2499:2500   */\n      0x00\n        /* \"#utility.yul\":2492:2504   */\n      revert\n        /* \"#utility.yul\":2443:2506   */\n    tag_218:\n        /* \"#utility.yul\":2390:2512   */\n      pop\n      jump\t// out\n        /* \"#utility.yul\":2518:2657   */\n    tag_168:\n        /* \"#utility.yul\":2564:2569   */\n      0x00\n        /* \"#utility.yul\":2602:2608   */\n      dup2\n        /* \"#utility.yul\":2589:2609   */\n      calldataload\n        /* \"#utility.yul\":2580:2609   */\n      swap1\n      pop\n        /* \"#utility.yul\":2618:2651   */\n      tag_220\n        /* \"#utility.yul\":2645:2650   */\n      dup2\n        /* \"#utility.yul\":2618:2651   */\n      tag_167\n      jump\t// in\n    tag_220:\n        /* \"#utility.yul\":2518:2657   */\n      swap3\n      swap2\n      pop\n      pop\n      jump\t// out\n        /* \"#utility.yul\":2663:2992   */\n    tag_48:\n        /* \"#utility.yul\":2722:2728   */\n      0x00\n        /* \"#utility.yul\":2771:2773   */\n      0x20\n        /* \"#utility.yul\":2759:2768   */\n      dup3\n        /* \"#utility.yul\":2750:2757   */\n      dup5\n        /* \"#utility.yul\":2746:2769   */\n      sub\n        /* \"#utility.yul\":2742:2774   */\n      slt\n        /* \"#utility.yul\":2739:2858   */\n      iszero\n      tag_222\n      jumpi\n        /* \"#utility.yul\":2777:2856   */\n      tag_223\n      tag_156\n      jump\t// in\n    tag_223:\n        /* \"#utility.yul\":2739:2858   */\n    tag_222:\n        /* \"#utility.yul\":2897:2898   */\n      0x00\n        /* \"#utility.yul\":2922:2975   */\n      tag_224\n        /* \"#utility.yul\":2967:2974   */\n      dup5\n        /* \"#utility.yul\":2958:2964   */\n      dup3\n        /* \"#utility.yul\":2947:2956   */\n      dup6\n        /* \"#utility.yul\":2943:2965   */\n      add\n        /* \"#utility.yul\":2922:2975   */\n      tag_168\n      jump\t// in\n    tag_224:\n        /* \"#utility.yul\":2912:2975   */\n      swap2\n      pop\n        /* \"#utility.yul\":2868:2985   */\n      pop\n        /* \"#utility.yul\":2663:2992   */\n      swap3\n      swap2\n      pop\n      pop\n      jump\t// out\n        /* \"#utility.yul\":2998:3102   */\n    tag_169:\n        /* \"#utility.yul\":3063:3069   */\n      0x00\n        /* \"#utility.yul\":3091:3095   */\n      0x03\n        /* \"#utility.yul\":3081:3095   */\n      swap1\n      pop\n        /* \"#utility.yul\":2998:3102   */\n      swap2\n      swap1\n      pop\n      jump\t// out\n        /* \"#utility.yul\":3108:3251   */\n    tag_170:\n        /* \"#utility.yul\":3205:3216   */\n      0x00\n        /* \"#utility.yul\":3242:3245   */\n      dup2\n        /* \"#utility.yul\":3227:3245   */\n      swap1\n      pop\n        /* \"#utility.yul\":3108:3251   */\n      swap3\n      swap2\n      pop\n      pop\n      jump\t// out\n        /* \"#utility.yul\":3257:3355   */\n    tag_171:\n        /* \"#utility.yul\":3322:3326   */\n      0x00\n        /* \"#utility.yul\":3345:3348   */\n      dup2\n        /* \"#utility.yul\":3337:3348   */\n      swap1\n      pop\n        /* \"#utility.yul\":3257:3355   */\n      swap2\n      swap1\n      pop\n      jump\t// out\n        /* \"#utility.yul\":3361:3469   */\n    tag_172:\n        /* \"#utility.yul\":3438:3462   */\n      tag_229\n        /* \"#utility.yul\":3456:3461   */\n      dup2\n        /* \"#utility.yul\":3438:3462   */\n      tag_162\n      jump\t// in\n    tag_229:\n        /* \"#utility.yul\":3433:3436   */\n      dup3\n        /* \"#utility.yul\":3426:3463   */\n      mstore\n        /* \"#utility.yul\":3361:3469   */\n      pop\n      pop\n      jump\t// out\n        /* \"#utility.yul\":3475:3654   */\n    tag_173:\n        /* \"#utility.yul\":3544:3554   */\n      0x00\n        /* \"#utility.yul\":3565:3611   */\n      tag_231\n        /* \"#utility.yul\":3607:3610   */\n      dup4\n        /* \"#utility.yul\":3599:3605   */\n      dup4\n        /* \"#utility.yul\":3565:3611   */\n      tag_172\n      jump\t// in\n    tag_231:\n        /* \"#utility.yul\":3643:3647   */\n      0x20\n        /* \"#utility.yul\":3638:3641   */\n      dup4\n        /* \"#utility.yul\":3634:3648   */\n      add\n        /* \"#utility.yul\":3620:3648   */\n      swap1\n      pop\n        /* \"#utility.yul\":3475:3654   */\n      swap3\n      swap2\n      pop\n      pop\n      jump\t// out\n        /* \"#utility.yul\":3660:3771   */\n    tag_174:\n        /* \"#utility.yul\":3728:3732   */\n      0x00\n        /* \"#utility.yul\":3760:3764   */\n      0x20\n        /* \"#utility.yul\":3755:3758   */\n      dup3\n        /* \"#utility.yul\":3751:3765   */\n      add\n        /* \"#utility.yul\":3743:3765   */\n      swap1\n      pop\n        /* \"#utility.yul\":3660:3771   */\n      swap2\n      swap1\n      pop\n      jump\t// out\n        /* \"#utility.yul\":3809:4503   */\n    tag_175:\n        /* \"#utility.yul\":3945:3997   */\n      tag_234\n        /* \"#utility.yul\":3991:3996   */\n      dup2\n        /* \"#utility.yul\":3945:3997   */\n      tag_169\n      jump\t// in\n    tag_234:\n        /* \"#utility.yul\":4013:4097   */\n      tag_235\n        /* \"#utility.yul\":4090:4096   */\n      dup2\n        /* \"#utility.yul\":4085:4088   */\n      dup5\n        /* \"#utility.yul\":4013:4097   */\n      tag_170\n      jump\t// in\n    tag_235:\n        /* \"#utility.yul\":4006:4097   */\n      swap3\n      pop\n        /* \"#utility.yul\":4121:4175   */\n      tag_236\n        /* \"#utility.yul\":4169:4174   */\n      dup3\n        /* \"#utility.yul\":4121:4175   */\n      tag_171\n      jump\t// in\n    tag_236:\n        /* \"#utility.yul\":4198:4205   */\n      dup1\n        /* \"#utility.yul\":4229:4230   */\n      0x00\n        /* \"#utility.yul\":4214:4496   */\n    tag_237:\n        /* \"#utility.yul\":4239:4245   */\n      dup4\n        /* \"#utility.yul\":4236:4237   */\n      dup2\n        /* \"#utility.yul\":4233:4246   */\n      lt\n        /* \"#utility.yul\":4214:4496   */\n      iszero\n      tag_239\n      jumpi\n        /* \"#utility.yul\":4315:4321   */\n      dup2\n        /* \"#utility.yul\":4309:4322   */\n      mload\n        /* \"#utility.yul\":4342:4405   */\n      tag_240\n        /* \"#utility.yul\":4401:4404   */\n      dup8\n        /* \"#utility.yul\":4386:4399   */\n      dup3\n        /* \"#utility.yul\":4342:4405   */\n      tag_173\n      jump\t// in\n    tag_240:\n        /* \"#utility.yul\":4335:4405   */\n      swap7\n      pop\n        /* \"#utility.yul\":4428:4486   */\n      tag_241\n        /* \"#utility.yul\":4479:4485   */\n      dup4\n        /* \"#utility.yul\":4428:4486   */\n      tag_174\n      jump\t// in\n    tag_241:\n        /* \"#utility.yul\":4418:4486   */\n      swap3\n      pop\n        /* \"#utility.yul\":4274:4496   */\n      pop\n        /* \"#utility.yul\":4261:4262   */\n      0x01\n        /* \"#utility.yul\":4258:4259   */\n      dup2\n        /* \"#utility.yul\":4254:4263   */\n      add\n        /* \"#utility.yul\":4249:4263   */\n      swap1\n      pop\n        /* \"#utility.yul\":4214:4496   */\n      jump(tag_237)\n    tag_239:\n        /* \"#utility.yul\":4218:4232   */\n      pop\n        /* \"#utility.yul\":3921:4503   */\n      pop\n      pop\n      pop\n        /* \"#utility.yul\":3809:4503   */\n      pop\n      pop\n      jump\t// out\n        /* \"#utility.yul\":4509:4823   */\n    tag_55:\n        /* \"#utility.yul\":4648:4652   */\n      0x00\n        /* \"#utility.yul\":4686:4688   */\n      0x60\n        /* \"#utility.yul\":4675:4684   */\n      dup3\n        /* \"#utility.yul\":4671:4689   */\n      add\n        /* \"#utility.yul\":4663:4689   */\n      swap1\n      pop\n        /* \"#utility.yul\":4699:4816   */\n      tag_243\n        /* \"#utility.yul\":4813:4814   */\n      0x00\n        /* \"#utility.yul\":4802:4811   */\n      dup4\n        /* \"#utility.yul\":4798:4815   */\n      add\n        /* \"#utility.yul\":4789:4795   */\n      dup5\n        /* \"#utility.yul\":4699:4816   */\n      tag_175\n      jump\t// in\n    tag_243:\n        /* \"#utility.yul\":4509:4823   */\n      swap3\n      swap2\n      pop\n      pop\n      jump\t// out\n        /* \"#utility.yul\":4829:4998   */\n    tag_176:\n        /* \"#utility.yul\":4913:4924   */\n      0x00\n        /* \"#utility.yul\":4947:4953   */\n      dup3\n        /* \"#utility.yul\":4942:4945   */\n      dup3\n        /* \"#utility.yul\":4935:4954   */\n      mstore\n        /* \"#utility.yul\":4987:4991   */\n      0x20\n        /* \"#utility.yul\":4982:4985   */\n      dup3\n        /* \"#utility.yul\":4978:4992   */\n      add\n        /* \"#utility.yul\":4963:4992   */\n      swap1\n      pop\n        /* \"#utility.yul\":4829:4998   */\n      swap3\n      swap2\n      pop\n      pop\n      jump\t// out\n        /* \"#utility.yul\":5004:5173   */\n    tag_177:\n        /* \"#utility.yul\":5144:5165   */\n      0x4e6f7420647572696e6720646f6e6174696e6700000000000000000000000000\n        /* \"#utility.yul\":5140:5141   */\n      0x00\n        /* \"#utility.yul\":5132:5138   */\n      dup3\n        /* \"#utility.yul\":5128:5142   */\n      add\n        /* \"#utility.yul\":5121:5166   */\n      mstore\n        /* \"#utility.yul\":5004:5173   */\n      pop\n      jump\t// out\n        /* \"#utility.yul\":5179:5545   */\n    tag_178:\n        /* \"#utility.yul\":5321:5324   */\n      0x00\n        /* \"#utility.yul\":5342:5409   */\n      tag_247\n        /* \"#utility.yul\":5406:5408   */\n      0x13\n        /* \"#utility.yul\":5401:5404   */\n      dup4\n        /* \"#utility.yul\":5342:5409   */\n      tag_176\n      jump\t// in\n    tag_247:\n        /* \"#utility.yul\":5335:5409   */\n      swap2\n      pop\n        /* \"#utility.yul\":5418:5511   */\n      tag_248\n        /* \"#utility.yul\":5507:5510   */\n      dup3\n        /* \"#utility.yul\":5418:5511   */\n      tag_177\n      jump\t// in\n    tag_248:\n        /* \"#utility.yul\":5536:5538   */\n      0x20\n        /* \"#utility.yul\":5531:5534   */\n      dup3\n        /* \"#utility.yul\":5527:5539   */\n      add\n        /* \"#utility.yul\":5520:5539   */\n      swap1\n      pop\n        /* \"#utility.yul\":5179:5545   */\n      swap2\n      swap1\n      pop\n      jump\t// out\n        /* \"#utility.yul\":5551:5970   */\n    tag_61:\n        /* \"#utility.yul\":5717:5721   */\n      0x00\n        /* \"#utility.yul\":5755:5757   */\n      0x20\n        /* \"#utility.yul\":5744:5753   */\n      dup3\n        /* \"#utility.yul\":5740:5758   */\n      add\n        /* \"#utility.yul\":5732:5758   */\n      swap1\n      pop\n        /* \"#utility.yul\":5804:5813   */\n      dup2\n        /* \"#utility.yul\":5798:5802   */\n      dup2\n        /* \"#utility.yul\":5794:5814   */\n      sub\n        /* \"#utility.yul\":5790:5791   */\n      0x00\n        /* \"#utility.yul\":5779:5788   */\n      dup4\n        /* \"#utility.yul\":5775:5792   */\n      add\n        /* \"#utility.yul\":5768:5815   */\n      mstore\n        /* \"#utility.yul\":5832:5963   */\n      tag_250\n        /* \"#utility.yul\":5958:5962   */\n      dup2\n        /* \"#utility.yul\":5832:5963   */\n      tag_178\n      jump\t// in\n    tag_250:\n        /* \"#utility.yul\":5824:5963   */\n      swap1\n      pop\n        /* \"#utility.yul\":5551:5970   */\n      swap2\n      swap1\n      pop\n      jump\t// out\n        /* \"#utility.yul\":5976:6155   */\n    tag_179:\n        /* \"#utility.yul\":6116:6147   */\n      0x4e6f7420656e6f756768206d6f6e657920666f7220646f6e6174696e67000000\n        /* \"#utility.yul\":6112:6113   */\n      0x00\n        /* \"#utility.yul\":6104:6110   */\n      dup3\n        /* \"#utility.yul\":6100:6114   */\n      add\n        /* \"#utility.yul\":6093:6148   */\n      mstore\n        /* \"#utility.yul\":5976:6155   */\n      pop\n      jump\t// out\n        /* \"#utility.yul\":6161:6527   */\n    tag_180:\n        /* \"#utility.yul\":6303:6306   */\n      0x00\n        /* \"#utility.yul\":6324:6391   */\n      tag_253\n        /* \"#utility.yul\":6388:6390   */\n      0x1d\n        /* \"#utility.yul\":6383:6386   */\n      dup4\n        /* \"#utility.yul\":6324:6391   */\n      tag_176\n      jump\t// in\n    tag_253:\n        /* \"#utility.yul\":6317:6391   */\n      swap2\n      pop\n        /* \"#utility.yul\":6400:6493   */\n      tag_254\n        /* \"#utility.yul\":6489:6492   */\n      dup3\n        /* \"#utility.yul\":6400:6493   */\n      tag_179\n      jump\t// in\n    tag_254:\n        /* \"#utility.yul\":6518:6520   */\n      0x20\n        /* \"#utility.yul\":6513:6516   */\n      dup3\n        /* \"#utility.yul\":6509:6521   */\n      add\n        /* \"#utility.yul\":6502:6521   */\n      swap1\n      pop\n        /* \"#utility.yul\":6161:6527   */\n      swap2\n      swap1\n      pop\n      jump\t// out\n        /* \"#utility.yul\":6533:6952   */\n    tag_65:\n        /* \"#utility.yul\":6699:6703   */\n      0x00\n        /* \"#utility.yul\":6737:6739   */\n      0x20\n        /* \"#utility.yul\":6726:6735   */\n      dup3\n        /* \"#utility.yul\":6722:6740   */\n      add\n        /* \"#utility.yul\":6714:6740   */\n      swap1\n      pop\n        /* \"#utility.yul\":6786:6795   */\n      dup2\n        /* \"#utility.yul\":6780:6784   */\n      dup2\n        /* \"#utility.yul\":6776:6796   */\n      sub\n        /* \"#utility.yul\":6772:6773   */\n      0x00\n        /* \"#utility.yul\":6761:6770   */\n      dup4\n        /* \"#utility.yul\":6757:6774   */\n      add\n        /* \"#utility.yul\":6750:6797   */\n      mstore\n        /* \"#utility.yul\":6814:6945   */\n      tag_256\n        /* \"#utility.yul\":6940:6944   */\n      dup2\n        /* \"#utility.yul\":6814:6945   */\n      tag_180\n      jump\t// in\n    tag_256:\n        /* \"#utility.yul\":6806:6945   */\n      swap1\n      pop\n        /* \"#utility.yul\":6533:6952   */\n      swap2\n      swap1\n      pop\n      jump\t// out\n        /* \"#utility.yul\":6958:7138   */\n    tag_181:\n        /* \"#utility.yul\":7006:7083   */\n      0x4e487b7100000000000000000000000000000000000000000000000000000000\n        /* \"#utility.yul\":7003:7004   */\n      0x00\n        /* \"#utility.yul\":6996:7084   */\n      mstore\n        /* \"#utility.yul\":7103:7107   */\n      0x11\n        /* \"#utility.yul\":7100:7101   */\n      0x04\n        /* \"#utility.yul\":7093:7108   */\n      mstore\n        /* \"#utility.yul\":7127:7131   */\n      0x24\n        /* \"#utility.yul\":7124:7125   */\n      0x00\n        /* \"#utility.yul\":7117:7132   */\n      revert\n        /* \"#utility.yul\":7144:7335   */\n    tag_69:\n        /* \"#utility.yul\":7184:7187   */\n      0x00\n        /* \"#utility.yul\":7203:7223   */\n      tag_259\n        /* \"#utility.yul\":7221:7222   */\n      dup3\n        /* \"#utility.yul\":7203:7223   */\n      tag_158\n      jump\t// in\n    tag_259:\n        /* \"#utility.yul\":7198:7223   */\n      swap2\n      pop\n        /* \"#utility.yul\":7237:7257   */\n      tag_260\n        /* \"#utility.yul\":7255:7256   */\n      dup4\n        /* \"#utility.yul\":7237:7257   */\n      tag_158\n      jump\t// in\n    tag_260:\n        /* \"#utility.yul\":7232:7257   */\n      swap3\n      pop\n        /* \"#utility.yul\":7280:7281   */\n      dup3\n        /* \"#utility.yul\":7277:7278   */\n      dup3\n        /* \"#utility.yul\":7273:7282   */\n      add\n        /* \"#utility.yul\":7266:7282   */\n      swap1\n      pop\n        /* \"#utility.yul\":7301:7304   */\n      dup1\n        /* \"#utility.yul\":7298:7299   */\n      dup3\n        /* \"#utility.yul\":7295:7305   */\n      gt\n        /* \"#utility.yul\":7292:7328   */\n      iszero\n      tag_261\n      jumpi\n        /* \"#utility.yul\":7308:7326   */\n      tag_262\n      tag_181\n      jump\t// in\n    tag_262:\n        /* \"#utility.yul\":7292:7328   */\n    tag_261:\n        /* \"#utility.yul\":7144:7335   */\n      swap3\n      swap2\n      pop\n      pop\n      jump\t// out\n        /* \"#utility.yul\":7341:7509   */\n    tag_182:\n        /* \"#utility.yul\":7481:7501   */\n      0x4e6f7420636f6e7472616374206f776e65720000000000000000000000000000\n        /* \"#utility.yul\":7477:7478   */\n      0x00\n        /* \"#utility.yul\":7469:7475   */\n      dup3\n        /* \"#utility.yul\":7465:7479   */\n      add\n        /* \"#utility.yul\":7458:7502   */\n      mstore\n        /* \"#utility.yul\":7341:7509   */\n      pop\n      jump\t// out\n        /* \"#utility.yul\":7515:7881   */\n    tag_183:\n        /* \"#utility.yul\":7657:7660   */\n      0x00\n        /* \"#utility.yul\":7678:7745   */\n      tag_265\n        /* \"#utility.yul\":7742:7744   */\n      0x12\n        /* \"#utility.yul\":7737:7740   */\n      dup4\n        /* \"#utility.yul\":7678:7745   */\n      tag_176\n      jump\t// in\n    tag_265:\n        /* \"#utility.yul\":7671:7745   */\n      swap2\n      pop\n        /* \"#utility.yul\":7754:7847   */\n      tag_266\n        /* \"#utility.yul\":7843:7846   */\n      dup3\n        /* \"#utility.yul\":7754:7847   */\n      tag_182\n      jump\t// in\n    tag_266:\n        /* \"#utility.yul\":7872:7874   */\n      0x20\n        /* \"#utility.yul\":7867:7870   */\n      dup3\n        /* \"#utility.yul\":7863:7875   */\n      add\n        /* \"#utility.yul\":7856:7875   */\n      swap1\n      pop\n        /* \"#utility.yul\":7515:7881   */\n      swap2\n      swap1\n      pop\n      jump\t// out\n        /* \"#utility.yul\":7887:8306   */\n    tag_74:\n        /* \"#utility.yul\":8053:8057   */\n      0x00\n        /* \"#utility.yul\":8091:8093   */\n      0x20\n        /* \"#utility.yul\":8080:8089   */\n      dup3\n        /* \"#utility.yul\":8076:8094   */\n      add\n        /* \"#utility.yul\":8068:8094   */\n      swap1\n      pop\n        /* \"#utility.yul\":8140:8149   */\n      dup2\n        /* \"#utility.yul\":8134:8138   */\n      dup2\n        /* \"#utility.yul\":8130:8150   */\n      sub\n        /* \"#utility.yul\":8126:8127   */\n      0x00\n        /* \"#utility.yul\":8115:8124   */\n      dup4\n        /* \"#utility.yul\":8111:8128   */\n      add\n        /* \"#utility.yul\":8104:8151   */\n      mstore\n        /* \"#utility.yul\":8168:8299   */\n      tag_268\n        /* \"#utility.yul\":8294:8298   */\n      dup2\n        /* \"#utility.yul\":8168:8299   */\n      tag_183\n      jump\t// in\n    tag_268:\n        /* \"#utility.yul\":8160:8299   */\n      swap1\n      pop\n        /* \"#utility.yul\":7887:8306   */\n      swap2\n      swap1\n      pop\n      jump\t// out\n        /* \"#utility.yul\":8312:8482   */\n    tag_184:\n        /* \"#utility.yul\":8452:8474   */\n      0x6e6f2066756e647320746f207769746864726177000000000000000000000000\n        /* \"#utility.yul\":8448:8449   */\n      0x00\n        /* \"#utility.yul\":8440:8446   */\n      dup3\n        /* \"#utility.yul\":8436:8450   */\n      add\n        /* \"#utility.yul\":8429:8475   */\n      mstore\n        /* \"#utility.yul\":8312:8482   */\n      pop\n      jump\t// out\n        /* \"#utility.yul\":8488:8854   */\n    tag_185:\n        /* \"#utility.yul\":8630:8633   */\n      0x00\n        /* \"#utility.yul\":8651:8718   */\n      tag_271\n        /* \"#utility.yul\":8715:8717   */\n      0x14\n        /* \"#utility.yul\":8710:8713   */\n      dup4\n        /* \"#utility.yul\":8651:8718   */\n      tag_176\n      jump\t// in\n    tag_271:\n        /* \"#utility.yul\":8644:8718   */\n      swap2\n      pop\n        /* \"#utility.yul\":8727:8820   */\n      tag_272\n        /* \"#utility.yul\":8816:8819   */\n      dup3\n        /* \"#utility.yul\":8727:8820   */\n      tag_184\n      jump\t// in\n    tag_272:\n        /* \"#utility.yul\":8845:8847   */\n      0x20\n        /* \"#utility.yul\":8840:8843   */\n      dup3\n        /* \"#utility.yul\":8836:8848   */\n      add\n        /* \"#utility.yul\":8829:8848   */\n      swap1\n      pop\n        /* \"#utility.yul\":8488:8854   */\n      swap2\n      swap1\n      pop\n      jump\t// out\n        /* \"#utility.yul\":8860:9279   */\n    tag_78:\n        /* \"#utility.yul\":9026:9030   */\n      0x00\n        /* \"#utility.yul\":9064:9066   */\n      0x20\n        /* \"#utility.yul\":9053:9062   */\n      dup3\n        /* \"#utility.yul\":9049:9067   */\n      add\n        /* \"#utility.yul\":9041:9067   */\n      swap1\n      pop\n        /* \"#utility.yul\":9113:9122   */\n      dup2\n        /* \"#utility.yul\":9107:9111   */\n      dup2\n        /* \"#utility.yul\":9103:9123   */\n      sub\n        /* \"#utility.yul\":9099:9100   */\n      0x00\n        /* \"#utility.yul\":9088:9097   */\n      dup4\n        /* \"#utility.yul\":9084:9101   */\n      add\n        /* \"#utility.yul\":9077:9124   */\n      mstore\n        /* \"#utility.yul\":9141:9272   */\n      tag_274\n        /* \"#utility.yul\":9267:9271   */\n      dup2\n        /* \"#utility.yul\":9141:9272   */\n      tag_185\n      jump\t// in\n    tag_274:\n        /* \"#utility.yul\":9133:9272   */\n      swap1\n      pop\n        /* \"#utility.yul\":8860:9279   */\n      swap2\n      swap1\n      pop\n      jump\t// out\n        /* \"#utility.yul\":9285:9465   */\n    tag_97:\n        /* \"#utility.yul\":9333:9410   */\n      0x4e487b7100000000000000000000000000000000000000000000000000000000\n        /* \"#utility.yul\":9330:9331   */\n      0x00\n        /* \"#utility.yul\":9323:9411   */\n      mstore\n        /* \"#utility.yul\":9430:9434   */\n      0x32\n        /* \"#utility.yul\":9427:9428   */\n      0x04\n        /* \"#utility.yul\":9420:9435   */\n      mstore\n        /* \"#utility.yul\":9454:9458   */\n      0x24\n        /* \"#utility.yul\":9451:9452   */\n      0x00\n        /* \"#utility.yul\":9444:9459   */\n      revert\n\n    auxdata: 0xa2646970667358221220f7197832cb30794113ecf1cc4eb5ea0cd17f9510389494078ef47c98caf4c06e64736f6c634300081e0033\n}\n",
				"bytecode": {
					"linkReferences": {},
					"object": "608060405234801561000f575f5ffd5b506040516111a93803806111a9833981810160405281019061003191906100ff565b80821115610074576040517f08c379a000000000000000000000000000000000000000000000000000000000815260040161006b90610197565b60405180910390fd5b335f5f6101000a81548173ffffffffffffffffffffffffffffffffffffffff021916908373ffffffffffffffffffffffffffffffffffffffff160217905550816001819055508060028190555050506101b5565b5f5ffd5b5f819050919050565b6100de816100cc565b81146100e8575f5ffd5b50565b5f815190506100f9816100d5565b92915050565b5f5f60408385031215610115576101146100c8565b5b5f610122858286016100eb565b9250506020610133858286016100eb565b9150509250929050565b5f82825260208201905092915050565b7f53746172742073686f756c64206265206c657373207468616e20656e640000005f82015250565b5f610181601d8361013d565b915061018c8261014d565b602082019050919050565b5f6020820190508181035f8301526101ae81610175565b9050919050565b610fe7806101c25f395ff3fe608060405260043610610089575f3560e01c80638da5cb5b116100585780638da5cb5b14610142578063aa3c94861461016c578063cc6cb19a14610196578063d6387ed8146101d2578063ed88c68e146101fc57610098565b80633ccfd60b1461009c5780634abfa163146100b25780635922e496146100ee5780635f5a82701461011857610098565b3661009857610096610206565b005b5f5ffd5b3480156100a7575f5ffd5b506100b06103e3565b005b3480156100bd575f5ffd5b506100d860048036038101906100d39190610b83565b61058c565b6040516100e59190610bed565b60405180910390f35b3480156100f9575f5ffd5b506101026105c7565b60405161010f9190610c20565b60405180910390f35b348015610123575f5ffd5b5061012c6105e1565b6040516101399190610c48565b60405180910390f35b34801561014d575f5ffd5b506101566105e7565b6040516101639190610bed565b60405180910390f35b348015610177575f5ffd5b5061018061060b565b60405161018d9190610c48565b60405180910390f35b3480156101a1575f5ffd5b506101bc60048036038101906101b79190610c8b565b610611565b6040516101c99190610c48565b60405180910390f35b3480156101dd575f5ffd5b506101e6610626565b6040516101f39190610d5b565b60405180910390f35b610204610206565b005b600154421015801561021a57506002544211155b610259576040517f08c379a000000000000000000000000000000000000000000000000000000000815260040161025090610dce565b60405180910390fd5b5f341161029b576040517f08c379a000000000000000000000000000000000000000000000000000000000815260040161029290610e36565b60405180910390fd5b5f60035f3373ffffffffffffffffffffffffffffffffffffffff1673ffffffffffffffffffffffffffffffffffffffff1681526020019081526020015f20540361034057600433908060018154018082558091505060019003905f5260205f20015f9091909190916101000a81548173ffffffffffffffffffffffffffffffffffffffff021916908373ffffffffffffffffffffffffffffffffffffffff1602179055505b3460035f3373ffffffffffffffffffffffffffffffffffffffff1673ffffffffffffffffffffffffffffffffffffffff1681526020019081526020015f205f82825461038c9190610e81565b925050819055503373ffffffffffffffffffffffffffffffffffffffff167f5d8bc849764969eb1bcc6d0a2f55999d0167c1ccec240a4f39cf664ca9c4148e346040516103d99190610c48565b60405180910390a2565b5f5f9054906101000a900473ffffffffffffffffffffffffffffffffffffffff1673ffffffffffffffffffffffffffffffffffffffff163373ffffffffffffffffffffffffffffffffffffffff1614610471576040517f08c379a000000000000000000000000000000000000000000000000000000000815260040161046890610efe565b60405180910390fd5b5f4790505f81116104b7576040517f08c379a00000000000000000000000000000000000000000000000000000000081526004016104ae90610f66565b60405180910390fd5b5f5f9054906101000a900473ffffffffffffffffffffffffffffffffffffffff1673ffffffffffffffffffffffffffffffffffffffff166108fc8290811502906040515f60405180830381858888f1935050505015801561051a573d5f5f3e3d5ffd5b505f5f9054906101000a900473ffffffffffffffffffffffffffffffffffffffff1673ffffffffffffffffffffffffffffffffffffffff167f884edad9ce6fa2440d8a54cc123490eb96d2768479d49ff9c7366125a9424364826040516105819190610c48565b60405180910390a250565b6004818154811061059b575f80fd5b905f5260205f20015f915054906101000a900473ffffffffffffffffffffffffffffffffffffffff1681565b5f60015442101580156105dc57506002544211155b905090565b60025481565b5f5f9054906101000a900473ffffffffffffffffffffffffffffffffffffffff1681565b60015481565b6003602052805f5260405f205f915090505481565b61062e610b08565b610636610b2a565b61063e610b08565b5f5f90505b600480549050811015610aff575f60035f6004848154811061066857610667610f84565b5b905f5260205f20015f9054906101000a900473ffffffffffffffffffffffffffffffffffffffff1673ffffffffffffffffffffffffffffffffffffffff1673ffffffffffffffffffffffffffffffffffffffff1681526020019081526020015f20549050835f600381106106df576106de610f84565b5b60200201518111156108c557836001600381106106ff576106fe610f84565b5b60200201518460026003811061071857610717610f84565b5b6020020181815250508260016003811061073557610734610f84565b5b60200201518360026003811061074e5761074d610f84565b5b602002019073ffffffffffffffffffffffffffffffffffffffff16908173ffffffffffffffffffffffffffffffffffffffff1681525050835f6003811061079857610797610f84565b5b6020020151846001600381106107b1576107b0610f84565b5b602002018181525050825f600381106107cd576107cc610f84565b5b6020020151836001600381106107e6576107e5610f84565b5b602002019073ffffffffffffffffffffffffffffffffffffffff16908173ffffffffffffffffffffffffffffffffffffffff168152505080845f6003811061083157610830610f84565b5b6020020181815250506004828154811061084e5761084d610f84565b5b905f5260205f20015f9054906101000a900473ffffffffffffffffffffffffffffffffffffffff16835f6003811061088957610888610f84565b5b602002019073ffffffffffffffffffffffffffffffffffffffff16908173ffffffffffffffffffffffffffffffffffffffff1681525050610af1565b836001600381106108d9576108d8610f84565b5b6020020151811115610a2957836001600381106108f9576108f8610f84565b5b60200201518460026003811061091257610911610f84565b5b6020020181815250508260016003811061092f5761092e610f84565b5b60200201518360026003811061094857610947610f84565b5b602002019073ffffffffffffffffffffffffffffffffffffffff16908173ffffffffffffffffffffffffffffffffffffffff1681525050808460016003811061099457610993610f84565b5b602002018181525050600482815481106109b1576109b0610f84565b5b905f5260205f20015f9054906101000a900473ffffffffffffffffffffffffffffffffffffffff16836001600381106109ed576109ec610f84565b5b602002019073ffffffffffffffffffffffffffffffffffffffff16908173ffffffffffffffffffffffffffffffffffffffff1681525050610af0565b83600260038110610a3d57610a3c610f84565b5b6020020151811115610aef578084600260038110610a5e57610a5d610f84565b5b60200201818152505060048281548110610a7b57610a7a610f84565b5b905f5260205f20015f9054906101000a900473ffffffffffffffffffffffffffffffffffffffff1683600260038110610ab757610ab6610f84565b5b602002019073ffffffffffffffffffffffffffffffffffffffff16908173ffffffffffffffffffffffffffffffffffffffff16815250505b5b5b508080600101915050610643565b50809250505090565b6040518060600160405280600390602082028036833780820191505090505090565b6040518060600160405280600390602082028036833780820191505090505090565b5f5ffd5b5f819050919050565b610b6281610b50565b8114610b6c575f5ffd5b50565b5f81359050610b7d81610b59565b92915050565b5f60208284031215610b9857610b97610b4c565b5b5f610ba584828501610b6f565b91505092915050565b5f73ffffffffffffffffffffffffffffffffffffffff82169050919050565b5f610bd782610bae565b9050919050565b610be781610bcd565b82525050565b5f602082019050610c005f830184610bde565b92915050565b5f8115159050919050565b610c1a81610c06565b82525050565b5f602082019050610c335f830184610c11565b92915050565b610c4281610b50565b82525050565b5f602082019050610c5b5f830184610c39565b92915050565b610c6a81610bcd565b8114610c74575f5ffd5b50565b5f81359050610c8581610c61565b92915050565b5f60208284031215610ca057610c9f610b4c565b5b5f610cad84828501610c77565b91505092915050565b5f60039050919050565b5f81905092915050565b5f819050919050565b610cdc81610bcd565b82525050565b5f610ced8383610cd3565b60208301905092915050565b5f602082019050919050565b610d0e81610cb6565b610d188184610cc0565b9250610d2382610cca565b805f5b83811015610d53578151610d3a8782610ce2565b9650610d4583610cf9565b925050600181019050610d26565b505050505050565b5f606082019050610d6e5f830184610d05565b92915050565b5f82825260208201905092915050565b7f4e6f7420647572696e6720646f6e6174696e67000000000000000000000000005f82015250565b5f610db8601383610d74565b9150610dc382610d84565b602082019050919050565b5f6020820190508181035f830152610de581610dac565b9050919050565b7f4e6f7420656e6f756768206d6f6e657920666f7220646f6e6174696e670000005f82015250565b5f610e20601d83610d74565b9150610e2b82610dec565b602082019050919050565b5f6020820190508181035f830152610e4d81610e14565b9050919050565b7f4e487b71000000000000000000000000000000000000000000000000000000005f52601160045260245ffd5b5f610e8b82610b50565b9150610e9683610b50565b9250828201905080821115610eae57610ead610e54565b5b92915050565b7f4e6f7420636f6e7472616374206f776e657200000000000000000000000000005f82015250565b5f610ee8601283610d74565b9150610ef382610eb4565b602082019050919050565b5f6020820190508181035f830152610f1581610edc565b9050919050565b7f6e6f2066756e647320746f2077697468647261770000000000000000000000005f82015250565b5f610f50601483610d74565b9150610f5b82610f1c565b602082019050919050565b5f6020820190508181035f830152610f7d81610f44565b9050919050565b7f4e487b71000000000000000000000000000000000000000000000000000000005f52603260045260245ffdfea2646970667358221220f7197832cb30794113ecf1cc4eb5ea0cd17f9510389494078ef47c98caf4c06e64736f6c634300081e0033",
					"opcodes": "PUSH1 0x80 PUSH1 0x40 MSTORE CALLVALUE DUP1 ISZERO PUSH2 0xF JUMPI PUSH0 PUSH0 REVERT JUMPDEST POP PUSH1 0x40 MLOAD PUSH2 0x11A9 CODESIZE SUB DUP1 PUSH2 0x11A9 DUP4 CODECOPY DUP2 DUP2 ADD PUSH1 0x40 MSTORE DUP2 ADD SWAP1 PUSH2 0x31 SWAP2 SWAP1 PUSH2 0xFF JUMP JUMPDEST DUP1 DUP3 GT ISZERO PUSH2 0x74 JUMPI PUSH1 0x40 MLOAD PUSH32 0x8C379A000000000000000000000000000000000000000000000000000000000 DUP2 MSTORE PUSH1 0x4 ADD PUSH2 0x6B SWAP1 PUSH2 0x197 JUMP JUMPDEST PUSH1 0x40 MLOAD DUP1 SWAP2 SUB SWAP1 REVERT JUMPDEST CALLER PUSH0 PUSH0 PUSH2 0x100 EXP DUP2 SLOAD DUP2 PUSH20 0xFFFFFFFFFFFFFFFFFFFFFFFFFFFFFFFFFFFFFFFF MUL NOT AND SWAP1 DUP4 PUSH20 0xFFFFFFFFFFFFFFFFFFFFFFFFFFFFFFFFFFFFFFFF AND MUL OR SWAP1 SSTORE POP DUP2 PUSH1 0x1 DUP2 SWAP1 SSTORE POP DUP1 PUSH1 0x2 DUP2 SWAP1 SSTORE POP POP POP PUSH2 0x1B5 JUMP JUMPDEST PUSH0 PUSH0 REVERT JUMPDEST PUSH0 DUP2 SWAP1 POP SWAP2 SWAP1 POP JUMP JUMPDEST PUSH2 0xDE DUP2 PUSH2 0xCC JUMP JUMPDEST DUP2 EQ PUSH2 0xE8 JUMPI PUSH0 PUSH0 REVERT JUMPDEST POP JUMP JUMPDEST PUSH0 DUP2 MLOAD SWAP1 POP PUSH2 0xF9 DUP2 PUSH2 0xD5 JUMP JUMPDEST SWAP3 SWAP2 POP POP JUMP JUMPDEST PUSH0 PUSH0 PUSH1 0x40 DUP4 DUP6 SUB SLT ISZERO PUSH2 0x115 JUMPI PUSH2 0x114 PUSH2 0xC8 JUMP JUMPDEST JUMPDEST PUSH0 PUSH2 0x122 DUP6 DUP3 DUP7 ADD PUSH2 0xEB JUMP JUMPDEST SWAP3 POP POP PUSH1 0x20 PUSH2 0x133 DUP6 DUP3 DUP7 ADD PUSH2 0xEB JUMP JUMPDEST SWAP2 POP POP SWAP3 POP SWAP3 SWAP1 POP JUMP JUMPDEST PUSH0 DUP3 DUP3 MSTORE PUSH1 0x20 DUP3 ADD SWAP1 POP SWAP3 SWAP2 POP POP JUMP JUMPDEST PUSH32 0x53746172742073686F756C64206265206C657373207468616E20656E64000000 PUSH0 DUP3 ADD MSTORE POP JUMP JUMPDEST PUSH0 PUSH2 0x181 PUSH1 0x1D DUP4 PUSH2 0x13D JUMP JUMPDEST SWAP2 POP PUSH2 0x18C DUP3 PUSH2 0x14D JUMP JUMPDEST PUSH1 0x20 DUP3 ADD SWAP1 POP SWAP2 SWAP1 POP JUMP JUMPDEST PUSH0 PUSH1 0x20 DUP3 ADD SWAP1 POP DUP2 DUP2 SUB PUSH0 DUP4 ADD MSTORE PUSH2 0x1AE DUP2 PUSH2 0x175 JUMP JUMPDEST SWAP1 POP SWAP2 SWAP1 POP JUMP JUMPDEST PUSH2 0xFE7 DUP1 PUSH2 0x1C2 PUSH0 CODECOPY PUSH0 RETURN INVALID PUSH1 0x80 PUSH1 0x40 MSTORE PUSH1 0x4 CALLDATASIZE LT PUSH2 0x89 JUMPI PUSH0 CALLDATALOAD PUSH1 0xE0 SHR DUP1 PUSH4 0x8DA5CB5B GT PUSH2 0x58 JUMPI DUP1 PUSH4 0x8DA5CB5B EQ PUSH2 0x142 JUMPI DUP1 PUSH4 0xAA3C9486 EQ PUSH2 0x16C JUMPI DUP1 PUSH4 0xCC6CB19A EQ PUSH2 0x196 JUMPI DUP1 PUSH4 0xD6387ED8 EQ PUSH2 0x1D2 JUMPI DUP1 PUSH4 0xED88C68E EQ PUSH2 0x1FC JUMPI PUSH2 0x98 JUMP JUMPDEST DUP1 PUSH4 0x3CCFD60B EQ PUSH2 0x9C JUMPI DUP1 PUSH4 0x4ABFA163 EQ PUSH2 0xB2 JUMPI DUP1 PUSH4 0x5922E496 EQ PUSH2 0xEE JUMPI DUP1 PUSH4 0x5F5A8270 EQ PUSH2 0x118 JUMPI PUSH2 0x98 JUMP JUMPDEST CALLDATASIZE PUSH2 0x98 JUMPI PUSH2 0x96 PUSH2 0x206 JUMP JUMPDEST STOP JUMPDEST PUSH0 PUSH0 REVERT JUMPDEST CALLVALUE DUP1 ISZERO PUSH2 0xA7 JUMPI PUSH0 PUSH0 REVERT JUMPDEST POP PUSH2 0xB0 PUSH2 0x3E3 JUMP JUMPDEST STOP JUMPDEST CALLVALUE DUP1 ISZERO PUSH2 0xBD JUMPI PUSH0 PUSH0 REVERT JUMPDEST POP PUSH2 0xD8 PUSH1 0x4 DUP1 CALLDATASIZE SUB DUP2 ADD SWAP1 PUSH2 0xD3 SWAP2 SWAP1 PUSH2 0xB83 JUMP JUMPDEST PUSH2 0x58C JUMP JUMPDEST PUSH1 0x40 MLOAD PUSH2 0xE5 SWAP2 SWAP1 PUSH2 0xBED JUMP JUMPDEST PUSH1 0x40 MLOAD DUP1 SWAP2 SUB SWAP1 RETURN JUMPDEST CALLVALUE DUP1 ISZERO PUSH2 0xF9 JUMPI PUSH0 PUSH0 REVERT JUMPDEST POP PUSH2 0x102 PUSH2 0x5C7 JUMP JUMPDEST PUSH1 0x40 MLOAD PUSH2 0x10F SWAP2 SWAP1 PUSH2 0xC20 JUMP JUMPDEST PUSH1 0x40 MLOAD DUP1 SWAP2 SUB SWAP1 RETURN JUMPDEST CALLVALUE DUP1 ISZERO PUSH2 0x123 JUMPI PUSH0 PUSH0 REVERT JUMPDEST POP PUSH2 0x12C PUSH2 0x5E1 JUMP JUMPDEST PUSH1 0x40 MLOAD PUSH2 0x139 SWAP2 SWAP1 PUSH2 0xC48 JUMP JUMPDEST PUSH1 0x40 MLOAD DUP1 SWAP2 SUB SWAP1 RETURN JUMPDEST CALLVALUE DUP1 ISZERO PUSH2 0x14D JUMPI PUSH0 PUSH0 REVERT JUMPDEST POP PUSH2 0x156 PUSH2 0x5E7 JUMP JUMPDEST PUSH1 0x40 MLOAD PUSH2 0x163 SWAP2 SWAP1 PUSH2 0xBED JUMP JUMPDEST PUSH1 0x40 MLOAD DUP1 SWAP2 SUB SWAP1 RETURN JUMPDEST CALLVALUE DUP1 ISZERO PUSH2 0x177 JUMPI PUSH0 PUSH0 REVERT JUMPDEST POP PUSH2 0x180 PUSH2 0x60B JUMP JUMPDEST PUSH1 0x40 MLOAD PUSH2 0x18D SWAP2 SWAP1 PUSH2 0xC48 JUMP JUMPDEST PUSH1 0x40 MLOAD DUP1 SWAP2 SUB SWAP1 RETURN JUMPDEST CALLVALUE DUP1 ISZERO PUSH2 0x1A1 JUMPI PUSH0 PUSH0 REVERT JUMPDEST POP PUSH2 0x1BC PUSH1 0x4 DUP1 CALLDATASIZE SUB DUP2 ADD SWAP1 PUSH2 0x1B7 SWAP2 SWAP1 PUSH2 0xC8B JUMP JUMPDEST PUSH2 0x611 JUMP JUMPDEST PUSH1 0x40 MLOAD PUSH2 0x1C9 SWAP2 SWAP1 PUSH2 0xC48 JUMP JUMPDEST PUSH1 0x40 MLOAD DUP1 SWAP2 SUB SWAP1 RETURN JUMPDEST CALLVALUE DUP1 ISZERO PUSH2 0x1DD JUMPI PUSH0 PUSH0 REVERT JUMPDEST POP PUSH2 0x1E6 PUSH2 0x626 JUMP JUMPDEST PUSH1 0x40 MLOAD PUSH2 0x1F3 SWAP2 SWAP1 PUSH2 0xD5B JUMP JUMPDEST PUSH1 0x40 MLOAD DUP1 SWAP2 SUB SWAP1 RETURN JUMPDEST PUSH2 0x204 PUSH2 0x206 JUMP JUMPDEST STOP JUMPDEST PUSH1 0x1 SLOAD TIMESTAMP LT ISZERO DUP1 ISZERO PUSH2 0x21A JUMPI POP PUSH1 0x2 SLOAD TIMESTAMP GT ISZERO JUMPDEST PUSH2 0x259 JUMPI PUSH1 0x40 MLOAD PUSH32 0x8C379A000000000000000000000000000000000000000000000000000000000 DUP2 MSTORE PUSH1 0x4 ADD PUSH2 0x250 SWAP1 PUSH2 0xDCE JUMP JUMPDEST PUSH1 0x40 MLOAD DUP1 SWAP2 SUB SWAP1 REVERT JUMPDEST PUSH0 CALLVALUE GT PUSH2 0x29B JUMPI PUSH1 0x40 MLOAD PUSH32 0x8C379A000000000000000000000000000000000000000000000000000000000 DUP2 MSTORE PUSH1 0x4 ADD PUSH2 0x292 SWAP1 PUSH2 0xE36 JUMP JUMPDEST PUSH1 0x40 MLOAD DUP1 SWAP2 SUB SWAP1 REVERT JUMPDEST PUSH0 PUSH1 0x3 PUSH0 CALLER PUSH20 0xFFFFFFFFFFFFFFFFFFFFFFFFFFFFFFFFFFFFFFFF AND PUSH20 0xFFFFFFFFFFFFFFFFFFFFFFFFFFFFFFFFFFFFFFFF AND DUP2 MSTORE PUSH1 0x20 ADD SWAP1 DUP2 MSTORE PUSH1 0x20 ADD PUSH0 KECCAK256 SLOAD SUB PUSH2 0x340 JUMPI PUSH1 0x4 CALLER SWAP1 DUP1 PUSH1 0x1 DUP2 SLOAD ADD DUP1 DUP3 SSTORE DUP1 SWAP2 POP POP PUSH1 0x1 SWAP1 SUB SWAP1 PUSH0 MSTORE PUSH1 0x20 PUSH0 KECCAK256 ADD PUSH0 SWAP1 SWAP2 SWAP1 SWAP2 SWAP1 SWAP2 PUSH2 0x100 EXP DUP2 SLOAD DUP2 PUSH20 0xFFFFFFFFFFFFFFFFFFFFFFFFFFFFFFFFFFFFFFFF MUL NOT AND SWAP1 DUP4 PUSH20 0xFFFFFFFFFFFFFFFFFFFFFFFFFFFFFFFFFFFFFFFF AND MUL OR SWAP1 SSTORE POP JUMPDEST CALLVALUE PUSH1 0x3 PUSH0 CALLER PUSH20 0xFFFFFFFFFFFFFFFFFFFFFFFFFFFFFFFFFFFFFFFF AND PUSH20 0xFFFFFFFFFFFFFFFFFFFFFFFFFFFFFFFFFFFFFFFF AND DUP2 MSTORE PUSH1 0x20 ADD SWAP1 DUP2 MSTORE PUSH1 0x20 ADD PUSH0 KECCAK256 PUSH0 DUP3 DUP3 SLOAD PUSH2 0x38C SWAP2 SWAP1 PUSH2 0xE81 JUMP JUMPDEST SWAP3 POP POP DUP2 SWAP1 SSTORE POP CALLER PUSH20 0xFFFFFFFFFFFFFFFFFFFFFFFFFFFFFFFFFFFFFFFF AND PUSH32 0x5D8BC849764969EB1BCC6D0A2F55999D0167C1CCEC240A4F39CF664CA9C4148E CALLVALUE PUSH1 0x40 MLOAD PUSH2 0x3D9 SWAP2 SWAP1 PUSH2 0xC48 JUMP JUMPDEST PUSH1 0x40 MLOAD DUP1 SWAP2 SUB SWAP1 LOG2 JUMP JUMPDEST PUSH0 PUSH0 SWAP1 SLOAD SWAP1 PUSH2 0x100 EXP SWAP1 DIV PUSH20 0xFFFFFFFFFFFFFFFFFFFFFFFFFFFFFFFFFFFFFFFF AND PUSH20 0xFFFFFFFFFFFFFFFFFFFFFFFFFFFFFFFFFFFFFFFF AND CALLER PUSH20 0xFFFFFFFFFFFFFFFFFFFFFFFFFFFFFFFFFFFFFFFF AND EQ PUSH2 0x471 JUMPI PUSH1 0x40 MLOAD PUSH32 0x8C379A000000000000000000000000000000000000000000000000000000000 DUP2 MSTORE PUSH1 0x4 ADD PUSH2 0x468 SWAP1 PUSH2 0xEFE JUMP JUMPDEST PUSH1 0x40 MLOAD DUP1 SWAP2 SUB SWAP1 REVERT JUMPDEST PUSH0 SELFBALANCE SWAP1 POP PUSH0 DUP2 GT PUSH2 0x4B7 JUMPI PUSH1 0x40 MLOAD PUSH32 0x8C379A000000000000000000000000000000000000000000000000000000000 DUP2 MSTORE PUSH1 0x4 ADD PUSH2 0x4AE SWAP1 PUSH2 0xF66 JUMP JUMPDEST PUSH1 0x40 MLOAD DUP1 SWAP2 SUB SWAP1 REVERT JUMPDEST PUSH0 PUSH0 SWAP1 SLOAD SWAP1 PUSH2 0x100 EXP SWAP1 DIV PUSH20 0xFFFFFFFFFFFFFFFFFFFFFFFFFFFFFFFFFFFFFFFF AND PUSH20 0xFFFFFFFFFFFFFFFFFFFFFFFFFFFFFFFFFFFFFFFF AND PUSH2 0x8FC DUP3 SWAP1 DUP2 ISZERO MUL SWAP1 PUSH1 0x40 MLOAD PUSH0 PUSH1 0x40 MLOAD DUP1 DUP4 SUB DUP2 DUP6 DUP9 DUP9 CALL SWAP4 POP POP POP POP ISZERO DUP1 ISZERO PUSH2 0x51A JUMPI RETURNDATASIZE PUSH0 PUSH0 RETURNDATACOPY RETURNDATASIZE PUSH0 REVERT JUMPDEST POP PUSH0 PUSH0 SWAP1 SLOAD SWAP1 PUSH2 0x100 EXP SWAP1 DIV PUSH20 0xFFFFFFFFFFFFFFFFFFFFFFFFFFFFFFFFFFFFFFFF AND PUSH20 0xFFFFFFFFFFFFFFFFFFFFFFFFFFFFFFFFFFFFFFFF AND PUSH32 0x884EDAD9CE6FA2440D8A54CC123490EB96D2768479D49FF9C7366125A9424364 DUP3 PUSH1 0x40 MLOAD PUSH2 0x581 SWAP2 SWAP1 PUSH2 0xC48 JUMP JUMPDEST PUSH1 0x40 MLOAD DUP1 SWAP2 SUB SWAP1 LOG2 POP JUMP JUMPDEST PUSH1 0x4 DUP2 DUP2 SLOAD DUP2 LT PUSH2 0x59B JUMPI PUSH0 DUP1 REVERT JUMPDEST SWAP1 PUSH0 MSTORE PUSH1 0x20 PUSH0 KECCAK256 ADD PUSH0 SWAP2 POP SLOAD SWAP1 PUSH2 0x100 EXP SWAP1 DIV PUSH20 0xFFFFFFFFFFFFFFFFFFFFFFFFFFFFFFFFFFFFFFFF AND DUP2 JUMP JUMPDEST PUSH0 PUSH1 0x1 SLOAD TIMESTAMP LT ISZERO DUP1 ISZERO PUSH2 0x5DC JUMPI POP PUSH1 0x2 SLOAD TIMESTAMP GT ISZERO JUMPDEST SWAP1 POP SWAP1 JUMP JUMPDEST PUSH1 0x2 SLOAD DUP2 JUMP JUMPDEST PUSH0 PUSH0 SWAP1 SLOAD SWAP1 PUSH2 0x100 EXP SWAP1 DIV PUSH20 0xFFFFFFFFFFFFFFFFFFFFFFFFFFFFFFFFFFFFFFFF AND DUP2 JUMP JUMPDEST PUSH1 0x1 SLOAD DUP2 JUMP JUMPDEST PUSH1 0x3 PUSH1 0x20 MSTORE DUP1 PUSH0 MSTORE PUSH1 0x40 PUSH0 KECCAK256 PUSH0 SWAP2 POP SWAP1 POP SLOAD DUP2 JUMP JUMPDEST PUSH2 0x62E PUSH2 0xB08 JUMP JUMPDEST PUSH2 0x636 PUSH2 0xB2A JUMP JUMPDEST PUSH2 0x63E PUSH2 0xB08 JUMP JUMPDEST PUSH0 PUSH0 SWAP1 POP JUMPDEST PUSH1 0x4 DUP1 SLOAD SWAP1 POP DUP2 LT ISZERO PUSH2 0xAFF JUMPI PUSH0 PUSH1 0x3 PUSH0 PUSH1 0x4 DUP5 DUP2 SLOAD DUP2 LT PUSH2 0x668 JUMPI PUSH2 0x667 PUSH2 0xF84 JUMP JUMPDEST JUMPDEST SWAP1 PUSH0 MSTORE PUSH1 0x20 PUSH0 KECCAK256 ADD PUSH0 SWAP1 SLOAD SWAP1 PUSH2 0x100 EXP SWAP1 DIV PUSH20 0xFFFFFFFFFFFFFFFFFFFFFFFFFFFFFFFFFFFFFFFF AND PUSH20 0xFFFFFFFFFFFFFFFFFFFFFFFFFFFFFFFFFFFFFFFF AND PUSH20 0xFFFFFFFFFFFFFFFFFFFFFFFFFFFFFFFFFFFFFFFF AND DUP2 MSTORE PUSH1 0x20 ADD SWAP1 DUP2 MSTORE PUSH1 0x20 ADD PUSH0 KECCAK256 SLOAD SWAP1 POP DUP4 PUSH0 PUSH1 0x3 DUP2 LT PUSH2 0x6DF JUMPI PUSH2 0x6DE PUSH2 0xF84 JUMP JUMPDEST JUMPDEST PUSH1 0x20 MUL ADD MLOAD DUP2 GT ISZERO PUSH2 0x8C5 JUMPI DUP4 PUSH1 0x1 PUSH1 0x3 DUP2 LT PUSH2 0x6FF JUMPI PUSH2 0x6FE PUSH2 0xF84 JUMP JUMPDEST JUMPDEST PUSH1 0x20 MUL ADD MLOAD DUP5 PUSH1 0x2 PUSH1 0x3 DUP2 LT PUSH2 0x718 JUMPI PUSH2 0x717 PUSH2 0xF84 JUMP JUMPDEST JUMPDEST PUSH1 0x20 MUL ADD DUP2 DUP2 MSTORE POP POP DUP3 PUSH1 0x1 PUSH1 0x3 DUP2 LT PUSH2 0x735 JUMPI PUSH2 0x734 PUSH2 0xF84 JUMP JUMPDEST JUMPDEST PUSH1 0x20 MUL ADD MLOAD DUP4 PUSH1 0x2 PUSH1 0x3 DUP2 LT PUSH2 0x74E JUMPI PUSH2 0x74D PUSH2 0xF84 JUMP JUMPDEST JUMPDEST PUSH1 0x20 MUL ADD SWAP1 PUSH20 0xFFFFFFFFFFFFFFFFFFFFFFFFFFFFFFFFFFFFFFFF AND SWAP1 DUP2 PUSH20 0xFFFFFFFFFFFFFFFFFFFFFFFFFFFFFFFFFFFFFFFF AND DUP2 MSTORE POP POP DUP4 PUSH0 PUSH1 0x3 DUP2 LT PUSH2 0x798 JUMPI PUSH2 0x797 PUSH2 0xF84 JUMP JUMPDEST JUMPDEST PUSH1 0x20 MUL ADD MLOAD DUP5 PUSH1 0x1 PUSH1 0x3 DUP2 LT PUSH2 0x7B1 JUMPI PUSH2 0x7B0 PUSH2 0xF84 JUMP JUMPDEST JUMPDEST PUSH1 0x20 MUL ADD DUP2 DUP2 MSTORE POP POP DUP3 PUSH0 PUSH1 0x3 DUP2 LT PUSH2 0x7CD JUMPI PUSH2 0x7CC PUSH2 0xF84 JUMP JUMPDEST JUMPDEST PUSH1 0x20 MUL ADD MLOAD DUP4 PUSH1 0x1 PUSH1 0x3 DUP2 LT PUSH2 0x7E6 JUMPI PUSH2 0x7E5 PUSH2 0xF84 JUMP JUMPDEST JUMPDEST PUSH1 0x20 MUL ADD SWAP1 PUSH20 0xFFFFFFFFFFFFFFFFFFFFFFFFFFFFFFFFFFFFFFFF AND SWAP1 DUP2 PUSH20 0xFFFFFFFFFFFFFFFFFFFFFFFFFFFFFFFFFFFFFFFF AND DUP2 MSTORE POP POP DUP1 DUP5 PUSH0 PUSH1 0x3 DUP2 LT PUSH2 0x831 JUMPI PUSH2 0x830 PUSH2 0xF84 JUMP JUMPDEST JUMPDEST PUSH1 0x20 MUL ADD DUP2 DUP2 MSTORE POP POP PUSH1 0x4 DUP3 DUP2 SLOAD DUP2 LT PUSH2 0x84E JUMPI PUSH2 0x84D PUSH2 0xF84 JUMP JUMPDEST JUMPDEST SWAP1 PUSH0 MSTORE PUSH1 0x20 PUSH0 KECCAK256 ADD PUSH0 SWAP1 SLOAD SWAP1 PUSH2 0x100 EXP SWAP1 DIV PUSH20 0xFFFFFFFFFFFFFFFFFFFFFFFFFFFFFFFFFFFFFFFF AND DUP4 PUSH0 PUSH1 0x3 DUP2 LT PUSH2 0x889 JUMPI PUSH2 0x888 PUSH2 0xF84 JUMP JUMPDEST JUMPDEST PUSH1 0x20 MUL ADD SWAP1 PUSH20 0xFFFFFFFFFFFFFFFFFFFFFFFFFFFFFFFFFFFFFFFF AND SWAP1 DUP2 PUSH20 0xFFFFFFFFFFFFFFFFFFFFFFFFFFFFFFFFFFFFFFFF AND DUP2 MSTORE POP POP PUSH2 0xAF1 JUMP JUMPDEST DUP4 PUSH1 0x1 PUSH1 0x3 DUP2 LT PUSH2 0x8D9 JUMPI PUSH2 0x8D8 PUSH2 0xF84 JUMP JUMPDEST JUMPDEST PUSH1 0x20 MUL ADD MLOAD DUP2 GT ISZERO PUSH2 0xA29 JUMPI DUP4 PUSH1 0x1 PUSH1 0x3 DUP2 LT PUSH2 0x8F9 JUMPI PUSH2 0x8F8 PUSH2 0xF84 JUMP JUMPDEST JUMPDEST PUSH1 0x20 MUL ADD MLOAD DUP5 PUSH1 0x2 PUSH1 0x3 DUP2 LT PUSH2 0x912 JUMPI PUSH2 0x911 PUSH2 0xF84 JUMP JUMPDEST JUMPDEST PUSH1 0x20 MUL ADD DUP2 DUP2 MSTORE POP POP DUP3 PUSH1 0x1 PUSH1 0x3 DUP2 LT PUSH2 0x92F JUMPI PUSH2 0x92E PUSH2 0xF84 JUMP JUMPDEST JUMPDEST PUSH1 0x20 MUL ADD MLOAD DUP4 PUSH1 0x2 PUSH1 0x3 DUP2 LT PUSH2 0x948 JUMPI PUSH2 0x947 PUSH2 0xF84 JUMP JUMPDEST JUMPDEST PUSH1 0x20 MUL ADD SWAP1 PUSH20 0xFFFFFFFFFFFFFFFFFFFFFFFFFFFFFFFFFFFFFFFF AND SWAP1 DUP2 PUSH20 0xFFFFFFFFFFFFFFFFFFFFFFFFFFFFFFFFFFFFFFFF AND DUP2 MSTORE POP POP DUP1 DUP5 PUSH1 0x1 PUSH1 0x3 DUP2 LT PUSH2 0x994 JUMPI PUSH2 0x993 PUSH2 0xF84 JUMP JUMPDEST JUMPDEST PUSH1 0x20 MUL ADD DUP2 DUP2 MSTORE POP POP PUSH1 0x4 DUP3 DUP2 SLOAD DUP2 LT PUSH2 0x9B1 JUMPI PUSH2 0x9B0 PUSH2 0xF84 JUMP JUMPDEST JUMPDEST SWAP1 PUSH0 MSTORE PUSH1 0x20 PUSH0 KECCAK256 ADD PUSH0 SWAP1 SLOAD SWAP1 PUSH2 0x100 EXP SWAP1 DIV PUSH20 0xFFFFFFFFFFFFFFFFFFFFFFFFFFFFFFFFFFFFFFFF AND DUP4 PUSH1 0x1 PUSH1 0x3 DUP2 LT PUSH2 0x9ED JUMPI PUSH2 0x9EC PUSH2 0xF84 JUMP JUMPDEST JUMPDEST PUSH1 0x20 MUL ADD SWAP1 PUSH20 0xFFFFFFFFFFFFFFFFFFFFFFFFFFFFFFFFFFFFFFFF AND SWAP1 DUP2 PUSH20 0xFFFFFFFFFFFFFFFFFFFFFFFFFFFFFFFFFFFFFFFF AND DUP2 MSTORE POP POP PUSH2 0xAF0 JUMP JUMPDEST DUP4 PUSH1 0x2 PUSH1 0x3 DUP2 LT PUSH2 0xA3D JUMPI PUSH2 0xA3C PUSH2 0xF84 JUMP JUMPDEST JUMPDEST PUSH1 0x20 MUL ADD MLOAD DUP2 GT ISZERO PUSH2 0xAEF JUMPI DUP1 DUP5 PUSH1 0x2 PUSH1 0x3 DUP2 LT PUSH2 0xA5E JUMPI PUSH2 0xA5D PUSH2 0xF84 JUMP JUMPDEST JUMPDEST PUSH1 0x20 MUL ADD DUP2 DUP2 MSTORE POP POP PUSH1 0x4 DUP3 DUP2 SLOAD DUP2 LT PUSH2 0xA7B JUMPI PUSH2 0xA7A PUSH2 0xF84 JUMP JUMPDEST JUMPDEST SWAP1 PUSH0 MSTORE PUSH1 0x20 PUSH0 KECCAK256 ADD PUSH0 SWAP1 SLOAD SWAP1 PUSH2 0x100 EXP SWAP1 DIV PUSH20 0xFFFFFFFFFFFFFFFFFFFFFFFFFFFFFFFFFFFFFFFF AND DUP4 PUSH1 0x2 PUSH1 0x3 DUP2 LT PUSH2 0xAB7 JUMPI PUSH2 0xAB6 PUSH2 0xF84 JUMP JUMPDEST JUMPDEST PUSH1 0x20 MUL ADD SWAP1 PUSH20 0xFFFFFFFFFFFFFFFFFFFFFFFFFFFFFFFFFFFFFFFF AND SWAP1 DUP2 PUSH20 0xFFFFFFFFFFFFFFFFFFFFFFFFFFFFFFFFFFFFFFFF AND DUP2 MSTORE POP POP JUMPDEST JUMPDEST JUMPDEST POP DUP1 DUP1 PUSH1 0x1 ADD SWAP2 POP POP PUSH2 0x643 JUMP JUMPDEST POP DUP1 SWAP3 POP POP POP SWAP1 JUMP JUMPDEST PUSH1 0x40 MLOAD DUP1 PUSH1 0x60 ADD PUSH1 0x40 MSTORE DUP1 PUSH1 0x3 SWAP1 PUSH1 0x20 DUP3 MUL DUP1 CALLDATASIZE DUP4 CALLDATACOPY DUP1 DUP3 ADD SWAP2 POP POP SWAP1 POP POP SWAP1 JUMP JUMPDEST PUSH1 0x40 MLOAD DUP1 PUSH1 0x60 ADD PUSH1 0x40 MSTORE DUP1 PUSH1 0x3 SWAP1 PUSH1 0x20 DUP3 MUL DUP1 CALLDATASIZE DUP4 CALLDATACOPY DUP1 DUP3 ADD SWAP2 POP POP SWAP1 POP POP SWAP1 JUMP JUMPDEST PUSH0 PUSH0 REVERT JUMPDEST PUSH0 DUP2 SWAP1 POP SWAP2 SWAP1 POP JUMP JUMPDEST PUSH2 0xB62 DUP2 PUSH2 0xB50 JUMP JUMPDEST DUP2 EQ PUSH2 0xB6C JUMPI PUSH0 PUSH0 REVERT JUMPDEST POP JUMP JUMPDEST PUSH0 DUP2 CALLDATALOAD SWAP1 POP PUSH2 0xB7D DUP2 PUSH2 0xB59 JUMP JUMPDEST SWAP3 SWAP2 POP POP JUMP JUMPDEST PUSH0 PUSH1 0x20 DUP3 DUP5 SUB SLT ISZERO PUSH2 0xB98 JUMPI PUSH2 0xB97 PUSH2 0xB4C JUMP JUMPDEST JUMPDEST PUSH0 PUSH2 0xBA5 DUP5 DUP3 DUP6 ADD PUSH2 0xB6F JUMP JUMPDEST SWAP2 POP POP SWAP3 SWAP2 POP POP JUMP JUMPDEST PUSH0 PUSH20 0xFFFFFFFFFFFFFFFFFFFFFFFFFFFFFFFFFFFFFFFF DUP3 AND SWAP1 POP SWAP2 SWAP1 POP JUMP JUMPDEST PUSH0 PUSH2 0xBD7 DUP3 PUSH2 0xBAE JUMP JUMPDEST SWAP1 POP SWAP2 SWAP1 POP JUMP JUMPDEST PUSH2 0xBE7 DUP2 PUSH2 0xBCD JUMP JUMPDEST DUP3 MSTORE POP POP JUMP JUMPDEST PUSH0 PUSH1 0x20 DUP3 ADD SWAP1 POP PUSH2 0xC00 PUSH0 DUP4 ADD DUP5 PUSH2 0xBDE JUMP JUMPDEST SWAP3 SWAP2 POP POP JUMP JUMPDEST PUSH0 DUP2 ISZERO ISZERO SWAP1 POP SWAP2 SWAP1 POP JUMP JUMPDEST PUSH2 0xC1A DUP2 PUSH2 0xC06 JUMP JUMPDEST DUP3 MSTORE POP POP JUMP JUMPDEST PUSH0 PUSH1 0x20 DUP3 ADD SWAP1 POP PUSH2 0xC33 PUSH0 DUP4 ADD DUP5 PUSH2 0xC11 JUMP JUMPDEST SWAP3 SWAP2 POP POP JUMP JUMPDEST PUSH2 0xC42 DUP2 PUSH2 0xB50 JUMP JUMPDEST DUP3 MSTORE POP POP JUMP JUMPDEST PUSH0 PUSH1 0x20 DUP3 ADD SWAP1 POP PUSH2 0xC5B PUSH0 DUP4 ADD DUP5 PUSH2 0xC39 JUMP JUMPDEST SWAP3 SWAP2 POP POP JUMP JUMPDEST PUSH2 0xC6A DUP2 PUSH2 0xBCD JUMP JUMPDEST DUP2 EQ PUSH2 0xC74 JUMPI PUSH0 PUSH0 REVERT JUMPDEST POP JUMP JUMPDEST PUSH0 DUP2 CALLDATALOAD SWAP1 POP PUSH2 0xC85 DUP2 PUSH2 0xC61 JUMP JUMPDEST SWAP3 SWAP2 POP POP JUMP JUMPDEST PUSH0 PUSH1 0x20 DUP3 DUP5 SUB SLT ISZERO PUSH2 0xCA0 JUMPI PUSH2 0xC9F PUSH2 0xB4C JUMP JUMPDEST JUMPDEST PUSH0 PUSH2 0xCAD DUP5 DUP3 DUP6 ADD PUSH2 0xC77 JUMP JUMPDEST SWAP2 POP POP SWAP3 SWAP2 POP POP JUMP JUMPDEST PUSH0 PUSH1 0x3 SWAP1 POP SWAP2 SWAP1 POP JUMP JUMPDEST PUSH0 DUP2 SWAP1 POP SWAP3 SWAP2 POP POP JUMP JUMPDEST PUSH0 DUP2 SWAP1 POP SWAP2 SWAP1 POP JUMP JUMPDEST PUSH2 0xCDC DUP2 PUSH2 0xBCD JUMP JUMPDEST DUP3 MSTORE POP POP JUMP JUMPDEST PUSH0 PUSH2 0xCED DUP4 DUP4 PUSH2 0xCD3 JUMP JUMPDEST PUSH1 0x20 DUP4 ADD SWAP1 POP SWAP3 SWAP2 POP POP JUMP JUMPDEST PUSH0 PUSH1 0x20 DUP3 ADD SWAP1 POP SWAP2 SWAP1 POP JUMP JUMPDEST PUSH2 0xD0E DUP2 PUSH2 0xCB6 JUMP JUMPDEST PUSH2 0xD18 DUP2 DUP5 PUSH2 0xCC0 JUMP JUMPDEST SWAP3 POP PUSH2 0xD23 DUP3 PUSH2 0xCCA JUMP JUMPDEST DUP1 PUSH0 JUMPDEST DUP4 DUP2 LT ISZERO PUSH2 0xD53 JUMPI DUP2 MLOAD PUSH2 0xD3A DUP8 DUP3 PUSH2 0xCE2 JUMP JUMPDEST SWAP7 POP PUSH2 0xD45 DUP4 PUSH2 0xCF9 JUMP JUMPDEST SWAP3 POP POP PUSH1 0x1 DUP2 ADD SWAP1 POP PUSH2 0xD26 JUMP JUMPDEST POP POP POP POP POP POP JUMP JUMPDEST PUSH0 PUSH1 0x60 DUP3 ADD SWAP1 POP PUSH2 0xD6E PUSH0 DUP4 ADD DUP5 PUSH2 0xD05 JUMP JUMPDEST SWAP3 SWAP2 POP POP JUMP JUMPDEST PUSH0 DUP3 DUP3 MSTORE PUSH1 0x20 DUP3 ADD SWAP1 POP SWAP3 SWAP2 POP POP JUMP JUMPDEST PUSH32 0x4E6F7420647572696E6720646F6E6174696E6700000000000000000000000000 PUSH0 DUP3 ADD MSTORE POP JUMP JUMPDEST PUSH0 PUSH2 0xDB8 PUSH1 0x13 DUP4 PUSH2 0xD74 JUMP JUMPDEST SWAP2 POP PUSH2 0xDC3 DUP3 PUSH2 0xD84 JUMP JUMPDEST PUSH1 0x20 DUP3 ADD SWAP1 POP SWAP2 SWAP1 POP JUMP JUMPDEST PUSH0 PUSH1 0x20 DUP3 ADD SWAP1 POP DUP2 DUP2 SUB PUSH0 DUP4 ADD MSTORE PUSH2 0xDE5 DUP2 PUSH2 0xDAC JUMP JUMPDEST SWAP1 POP SWAP2 SWAP1 POP JUMP JUMPDEST PUSH32 0x4E6F7420656E6F756768206D6F6E657920666F7220646F6E6174696E67000000 PUSH0 DUP3 ADD MSTORE POP JUMP JUMPDEST PUSH0 PUSH2 0xE20 PUSH1 0x1D DUP4 PUSH2 0xD74 JUMP JUMPDEST SWAP2 POP PUSH2 0xE2B DUP3 PUSH2 0xDEC JUMP JUMPDEST PUSH1 0x20 DUP3 ADD SWAP1 POP SWAP2 SWAP1 POP JUMP JUMPDEST PUSH0 PUSH1 0x20 DUP3 ADD SWAP1 POP DUP2 DUP2 SUB PUSH0 DUP4 ADD MSTORE PUSH2 0xE4D DUP2 PUSH2 0xE14 JUMP JUMPDEST SWAP1 POP SWAP2 SWAP1 POP JUMP JUMPDEST PUSH32 0x4E487B7100000000000000000000000000000000000000000000000000000000 PUSH0 MSTORE PUSH1 0x11 PUSH1 0x4 MSTORE PUSH1 0x24 PUSH0 REVERT JUMPDEST PUSH0 PUSH2 0xE8B DUP3 PUSH2 0xB50 JUMP JUMPDEST SWAP2 POP PUSH2 0xE96 DUP4 PUSH2 0xB50 JUMP JUMPDEST SWAP3 POP DUP3 DUP3 ADD SWAP1 POP DUP1 DUP3 GT ISZERO PUSH2 0xEAE JUMPI PUSH2 0xEAD PUSH2 0xE54 JUMP JUMPDEST JUMPDEST SWAP3 SWAP2 POP POP JUMP JUMPDEST PUSH32 0x4E6F7420636F6E7472616374206F776E65720000000000000000000000000000 PUSH0 DUP3 ADD MSTORE POP JUMP JUMPDEST PUSH0 PUSH2 0xEE8 PUSH1 0x12 DUP4 PUSH2 0xD74 JUMP JUMPDEST SWAP2 POP PUSH2 0xEF3 DUP3 PUSH2 0xEB4 JUMP JUMPDEST PUSH1 0x20 DUP3 ADD SWAP1 POP SWAP2 SWAP1 POP JUMP JUMPDEST PUSH0 PUSH1 0x20 DUP3 ADD SWAP1 POP DUP2 DUP2 SUB PUSH0 DUP4 ADD MSTORE PUSH2 0xF15 DUP2 PUSH2 0xEDC JUMP JUMPDEST SWAP1 POP SWAP2 SWAP1 POP JUMP JUMPDEST PUSH32 0x6E6F2066756E647320746F207769746864726177000000000000000000000000 PUSH0 DUP3 ADD MSTORE POP JUMP JUMPDEST PUSH0 PUSH2 0xF50 PUSH1 0x14 DUP4 PUSH2 0xD74 JUMP JUMPDEST SWAP2 POP PUSH2 0xF5B DUP3 PUSH2 0xF1C JUMP JUMPDEST PUSH1 0x20 DUP3 ADD SWAP1 POP SWAP2 SWAP1 POP JUMP JUMPDEST PUSH0 PUSH1 0x20 DUP3 ADD SWAP1 POP DUP2 DUP2 SUB PUSH0 DUP4 ADD MSTORE PUSH2 0xF7D DUP2 PUSH2 0xF44 JUMP JUMPDEST SWAP1 POP SWAP2 SWAP1 POP JUMP JUMPDEST PUSH32 0x4E487B7100000000000000000000000000000000000000000000000000000000 PUSH0 MSTORE PUSH1 0x32 PUSH1 0x4 MSTORE PUSH1 0x24 PUSH0 REVERT INVALID LOG2 PUSH5 0x6970667358 0x22 SLT KECCAK256 0xF7 NOT PUSH25 0x32CB30794113ECF1CC4EB5EA0CD17F9510389494078EF47C98 0xCA DELEGATECALL 0xC0 PUSH15 0x64736F6C634300081E003300000000 "
				},
				"gasEstimates": {
					"creation": {
						"codeDepositCost": "814200",
						"executionCost": "infinite",
						"totalCost": "infinite"
					},
					"external": {
						"donate()": "infinite",
						"donationAllowed()": "4624",
						"donationEnd()": "2492",
						"donationStart()": "2447",
						"donations(address)": "2846",
						"donors(uint256)": "4967",
						"getTopDonors()": "infinite",
						"owner()": "2507",
						"withdraw()": "infinite"
					}
				},
				"methodIdentifiers": {
					"donate()": "ed88c68e",
					"donationAllowed()": "5922e496",
					"donationEnd()": "5f5a8270",
					"donationStart()": "aa3c9486",
					"donations(address)": "cc6cb19a",
					"donors(uint256)": "4abfa163",
					"getTopDonors()": "d6387ed8",
					"owner()": "8da5cb5b",
					"withdraw()": "3ccfd60b"
				}
			},
			"storageLayout": {
				"storage": [
					{
						"astId": 3,
						"contract": "BeggingContract.sol:BeggingContract",
						"label": "owner",
						"offset": 0,
						"slot": "0",
						"type": "t_address"
					},
					{
						"astId": 5,
						"contract": "BeggingContract.sol:BeggingContract",
						"label": "donationStart",
						"offset": 0,
						"slot": "1",
						"type": "t_uint256"
					},
					{
						"astId": 7,
						"contract": "BeggingContract.sol:BeggingContract",
						"label": "donationEnd",
						"offset": 0,
						"slot": "2",
						"type": "t_uint256"
					},
					{
						"astId": 11,
						"contract": "BeggingContract.sol:BeggingContract",
						"label": "donations",
						"offset": 0,
						"slot": "3",
						"type": "t_mapping(t_address,t_uint256)"
					},
					{
						"astId": 14,
						"contract": "BeggingContract.sol:BeggingContract",
						"label": "donors",
						"offset": 0,
						"slot": "4",
						"type": "t_array(t_address)dyn_storage"
					}
				],
				"types": {
					"t_address": {
						"encoding": "inplace",
						"label": "address",
						"numberOfBytes": "20"
					},
					"t_array(t_address)dyn_storage": {
						"base": "t_address",
						"encoding": "dynamic_array",
						"label": "address[]",
						"numberOfBytes": "32"
					},
					"t_mapping(t_address,t_uint256)": {
						"encoding": "mapping",
						"key": "t_address",
						"label": "mapping(address => uint256)",
						"numberOfBytes": "32",
						"value": "t_uint256"
					},
					"t_uint256": {
						"encoding": "inplace",
						"label": "uint256",
						"numberOfBytes": "32"
					}
				}
			},
			"userdoc": {
				"kind": "user",
				"methods": {},
				"version": 1
			}
		}
	}
}