{
	"Voting.sol": {
		"Voting": {
			"abi": [
				{
					"inputs": [],
					"stateMutability": "nonpayable",
					"type": "constructor"
				},
				{
					"inputs": [
						{
							"internalType": "string",
							"name": "str",
							"type": "string"
						}
					],
					"name": "RevertString",
					"outputs": [
						{
							"internalType": "string",
							"name": "",
							"type": "string"
						}
					],
					"stateMutability": "pure",
					"type": "function"
				},
				{
					"inputs": [
						{
							"internalType": "string",
							"name": "name",
							"type": "string"
						}
					],
					"name": "getVotes",
					"outputs": [
						{
							"internalType": "int256",
							"name": "",
							"type": "int256"
						}
					],
					"stateMutability": "view",
					"type": "function"
				},
				{
					"inputs": [
						{
							"internalType": "uint256",
							"name": "num",
							"type": "uint256"
						}
					],
					"name": "intToRoman",
					"outputs": [
						{
							"internalType": "string",
							"name": "",
							"type": "string"
						}
					],
					"stateMutability": "view",
					"type": "function"
				},
				{
					"inputs": [
						{
							"internalType": "uint256",
							"name": "",
							"type": "uint256"
						}
					],
					"name": "keys",
					"outputs": [
						{
							"internalType": "string",
							"name": "",
							"type": "string"
						}
					],
					"stateMutability": "view",
					"type": "function"
				},
				{
					"inputs": [
						{
							"internalType": "bytes1",
							"name": "",
							"type": "bytes1"
						}
					],
					"name": "map",
					"outputs": [
						{
							"internalType": "uint256",
							"name": "",
							"type": "uint256"
						}
					],
					"stateMutability": "view",
					"type": "function"
				},
				{
					"inputs": [],
					"name": "resetVotes",
					"outputs": [],
					"stateMutability": "nonpayable",
					"type": "function"
				},
				{
					"inputs": [
						{
							"internalType": "string",
							"name": "s",
							"type": "string"
						}
					],
					"name": "romanToInt",
					"outputs": [
						{
							"internalType": "uint256",
							"name": "",
							"type": "uint256"
						}
					],
					"stateMutability": "view",
					"type": "function"
				},
				{
					"inputs": [
						{
							"internalType": "string",
							"name": "",
							"type": "string"
						}
					],
					"name": "senderMap",
					"outputs": [
						{
							"internalType": "int256",
							"name": "",
							"type": "int256"
						}
					],
					"stateMutability": "view",
					"type": "function"
				},
				{
					"inputs": [
						{
							"internalType": "string",
							"name": "name",
							"type": "string"
						}
					],
					"name": "vote",
					"outputs": [
						{
							"internalType": "bool",
							"name": "",
							"type": "bool"
						}
					],
					"stateMutability": "nonpayable",
					"type": "function"
				}
			],
			"devdoc": {
				"kind": "dev",
				"methods": {},
				"version": 1
			},
			"evm": {
				"assembly": "    /* \"Voting.sol\":62:3093  contract Voting {... */\n  mstore(0x40, 0x80)\n    /* \"Voting.sol\":1897:2698  constructor(){... */\n  callvalue\n  dup1\n  iszero\n  tag_1\n  jumpi\n  revert(0x00, 0x00)\ntag_1:\n  pop\n    /* \"Voting.sol\":1932:1933  1 */\n  0x01\n    /* \"Voting.sol\":1921:1924  map */\n  0x02\n    /* \"Voting.sol\":1921:1929  map[\"I\"] */\n  0x00\n  and(not(0xffffffffffffffffffffffffffffffffffffffffffffffffffffffffffffff), 0x4900000000000000000000000000000000000000000000000000000000000000)\n  dup2\n  mstore\n  0x20\n  add\n  swap1\n  dup2\n  mstore\n  0x20\n  add\n  0x00\n  keccak256\n    /* \"Voting.sol\":1921:1933  map[\"I\"] = 1 */\n  dup2\n  swap1\n  sstore\n  pop\n    /* \"Voting.sol\":1955:1956  5 */\n  0x05\n    /* \"Voting.sol\":1944:1947  map */\n  0x02\n    /* \"Voting.sol\":1944:1952  map[\"V\"] */\n  0x00\n  and(not(0xffffffffffffffffffffffffffffffffffffffffffffffffffffffffffffff), 0x5600000000000000000000000000000000000000000000000000000000000000)\n  dup2\n  mstore\n  0x20\n  add\n  swap1\n  dup2\n  mstore\n  0x20\n  add\n  0x00\n  keccak256\n    /* \"Voting.sol\":1944:1956  map[\"V\"] = 5 */\n  dup2\n  swap1\n  sstore\n  pop\n    /* \"Voting.sol\":1978:1980  10 */\n  0x0a\n    /* \"Voting.sol\":1967:1970  map */\n  0x02\n    /* \"Voting.sol\":1967:1975  map[\"X\"] */\n  0x00\n  and(not(0xffffffffffffffffffffffffffffffffffffffffffffffffffffffffffffff), 0x5800000000000000000000000000000000000000000000000000000000000000)\n  dup2\n  mstore\n  0x20\n  add\n  swap1\n  dup2\n  mstore\n  0x20\n  add\n  0x00\n  keccak256\n    /* \"Voting.sol\":1967:1980  map[\"X\"] = 10 */\n  dup2\n  swap1\n  sstore\n  pop\n    /* \"Voting.sol\":2002:2004  50 */\n  0x32\n    /* \"Voting.sol\":1991:1994  map */\n  0x02\n    /* \"Voting.sol\":1991:1999  map[\"L\"] */\n  0x00\n  and(not(0xffffffffffffffffffffffffffffffffffffffffffffffffffffffffffffff), 0x4c00000000000000000000000000000000000000000000000000000000000000)\n  dup2\n  mstore\n  0x20\n  add\n  swap1\n  dup2\n  mstore\n  0x20\n  add\n  0x00\n  keccak256\n    /* \"Voting.sol\":1991:2004  map[\"L\"] = 50 */\n  dup2\n  swap1\n  sstore\n  pop\n    /* \"Voting.sol\":2026:2029  100 */\n  0x64\n    /* \"Voting.sol\":2015:2018  map */\n  0x02\n    /* \"Voting.sol\":2015:2023  map[\"C\"] */\n  0x00\n  and(not(0xffffffffffffffffffffffffffffffffffffffffffffffffffffffffffffff), 0x4300000000000000000000000000000000000000000000000000000000000000)\n  dup2\n  mstore\n  0x20\n  add\n  swap1\n  dup2\n  mstore\n  0x20\n  add\n  0x00\n  keccak256\n    /* \"Voting.sol\":2015:2029  map[\"C\"] = 100 */\n  dup2\n  swap1\n  sstore\n  pop\n    /* \"Voting.sol\":2051:2054  500 */\n  0x01f4\n    /* \"Voting.sol\":2040:2043  map */\n  0x02\n    /* \"Voting.sol\":2040:2048  map[\"D\"] */\n  0x00\n  and(not(0xffffffffffffffffffffffffffffffffffffffffffffffffffffffffffffff), 0x4400000000000000000000000000000000000000000000000000000000000000)\n  dup2\n  mstore\n  0x20\n  add\n  swap1\n  dup2\n  mstore\n  0x20\n  add\n  0x00\n  keccak256\n    /* \"Voting.sol\":2040:2054  map[\"D\"] = 500 */\n  dup2\n  swap1\n  sstore\n  pop\n    /* \"Voting.sol\":2076:2080  1000 */\n  0x03e8\n    /* \"Voting.sol\":2065:2068  map */\n  0x02\n    /* \"Voting.sol\":2065:2073  map[\"M\"] */\n  0x00\n  and(not(0xffffffffffffffffffffffffffffffffffffffffffffffffffffffffffffff), 0x4d00000000000000000000000000000000000000000000000000000000000000)\n  dup2\n  mstore\n  0x20\n  add\n  swap1\n  dup2\n  mstore\n  0x20\n  add\n  0x00\n  keccak256\n    /* \"Voting.sol\":2065:2080  map[\"M\"] = 1000 */\n  dup2\n  swap1\n  sstore\n  pop\n    /* \"Voting.sol\":2093:2101  numerals */\n  0x03\n    /* \"Voting.sol\":2107:2129  NumeralPair(1000, \"M\") */\n  mload(0x40)\n  dup1\n  0x40\n  add\n  0x40\n  mstore\n  dup1\n    /* \"Voting.sol\":2119:2123  1000 */\n  0x03e8\n    /* \"Voting.sol\":2107:2129  NumeralPair(1000, \"M\") */\n  dup2\n  mstore\n  0x20\n  add\n  mload(0x40)\n  dup1\n  0x40\n  add\n  0x40\n  mstore\n  dup1\n  0x01\n  dup2\n  mstore\n  0x20\n  add\n  0x4d00000000000000000000000000000000000000000000000000000000000000\n  dup2\n  mstore\n  pop\n  dup2\n  mstore\n  pop\n    /* \"Voting.sol\":2093:2130  numerals.push(NumeralPair(1000, \"M\")) */\n  swap1\n  dup1\n  0x01\n  dup2\n  sload\n  add\n  dup1\n  dup3\n  sstore\n  dup1\n  swap2\n  pop\n  pop\n  0x01\n  swap1\n  sub\n  swap1\n  0x00\n  mstore\n  keccak256(0x00, 0x20)\n  swap1\n  0x02\n  mul\n  add\n  0x00\n  swap1\n  swap2\n  swap1\n  swap2\n  swap1\n  swap2\n  pop\n  0x00\n  dup3\n  add\n  mload\n  dup2\n  0x00\n  add\n  sstore\n  0x20\n  dup3\n  add\n  mload\n  dup2\n  0x01\n  add\n  swap1\n  dup2\n  tag_5\n  swap2\n  swap1\n  tag_6\n  jump\t// in\ntag_5:\n  pop\n  pop\n  pop\n    /* \"Voting.sol\":2141:2149  numerals */\n  0x03\n    /* \"Voting.sol\":2155:2177  NumeralPair(900, \"CM\") */\n  mload(0x40)\n  dup1\n  0x40\n  add\n  0x40\n  mstore\n  dup1\n    /* \"Voting.sol\":2167:2170  900 */\n  0x0384\n    /* \"Voting.sol\":2155:2177  NumeralPair(900, \"CM\") */\n  dup2\n  mstore\n  0x20\n  add\n  mload(0x40)\n  dup1\n  0x40\n  add\n  0x40\n  mstore\n  dup1\n  0x02\n  dup2\n  mstore\n  0x20\n  add\n  0x434d000000000000000000000000000000000000000000000000000000000000\n  dup2\n  mstore\n  pop\n  dup2\n  mstore\n  pop\n    /* \"Voting.sol\":2141:2178  numerals.push(NumeralPair(900, \"CM\")) */\n  swap1\n  dup1\n  0x01\n  dup2\n  sload\n  add\n  dup1\n  dup3\n  sstore\n  dup1\n  swap2\n  pop\n  pop\n  0x01\n  swap1\n  sub\n  swap1\n  0x00\n  mstore\n  keccak256(0x00, 0x20)\n  swap1\n  0x02\n  mul\n  add\n  0x00\n  swap1\n  swap2\n  swap1\n  swap2\n  swap1\n  swap2\n  pop\n  0x00\n  dup3\n  add\n  mload\n  dup2\n  0x00\n  add\n  sstore\n  0x20\n  dup3\n  add\n  mload\n  dup2\n  0x01\n  add\n  swap1\n  dup2\n  tag_8\n  swap2\n  swap1\n  tag_6\n  jump\t// in\ntag_8:\n  pop\n  pop\n  pop\n    /* \"Voting.sol\":2189:2197  numerals */\n  0x03\n    /* \"Voting.sol\":2203:2224  NumeralPair(500, \"D\") */\n  mload(0x40)\n  dup1\n  0x40\n  add\n  0x40\n  mstore\n  dup1\n    /* \"Voting.sol\":2215:2218  500 */\n  0x01f4\n    /* \"Voting.sol\":2203:2224  NumeralPair(500, \"D\") */\n  dup2\n  mstore\n  0x20\n  add\n  mload(0x40)\n  dup1\n  0x40\n  add\n  0x40\n  mstore\n  dup1\n  0x01\n  dup2\n  mstore\n  0x20\n  add\n  0x4400000000000000000000000000000000000000000000000000000000000000\n  dup2\n  mstore\n  pop\n  dup2\n  mstore\n  pop\n    /* \"Voting.sol\":2189:2225  numerals.push(NumeralPair(500, \"D\")) */\n  swap1\n  dup1\n  0x01\n  dup2\n  sload\n  add\n  dup1\n  dup3\n  sstore\n  dup1\n  swap2\n  pop\n  pop\n  0x01\n  swap1\n  sub\n  swap1\n  0x00\n  mstore\n  keccak256(0x00, 0x20)\n  swap1\n  0x02\n  mul\n  add\n  0x00\n  swap1\n  swap2\n  swap1\n  swap2\n  swap1\n  swap2\n  pop\n  0x00\n  dup3\n  add\n  mload\n  dup2\n  0x00\n  add\n  sstore\n  0x20\n  dup3\n  add\n  mload\n  dup2\n  0x01\n  add\n  swap1\n  dup2\n  tag_10\n  swap2\n  swap1\n  tag_6\n  jump\t// in\ntag_10:\n  pop\n  pop\n  pop\n    /* \"Voting.sol\":2236:2244  numerals */\n  0x03\n    /* \"Voting.sol\":2250:2272  NumeralPair(400, \"CD\") */\n  mload(0x40)\n  dup1\n  0x40\n  add\n  0x40\n  mstore\n  dup1\n    /* \"Voting.sol\":2262:2265  400 */\n  0x0190\n    /* \"Voting.sol\":2250:2272  NumeralPair(400, \"CD\") */\n  dup2\n  mstore\n  0x20\n  add\n  mload(0x40)\n  dup1\n  0x40\n  add\n  0x40\n  mstore\n  dup1\n  0x02\n  dup2\n  mstore\n  0x20\n  add\n  0x4344000000000000000000000000000000000000000000000000000000000000\n  dup2\n  mstore\n  pop\n  dup2\n  mstore\n  pop\n    /* \"Voting.sol\":2236:2273  numerals.push(NumeralPair(400, \"CD\")) */\n  swap1\n  dup1\n  0x01\n  dup2\n  sload\n  add\n  dup1\n  dup3\n  sstore\n  dup1\n  swap2\n  pop\n  pop\n  0x01\n  swap1\n  sub\n  swap1\n  0x00\n  mstore\n  keccak256(0x00, 0x20)\n  swap1\n  0x02\n  mul\n  add\n  0x00\n  swap1\n  swap2\n  swap1\n  swap2\n  swap1\n  swap2\n  pop\n  0x00\n  dup3\n  add\n  mload\n  dup2\n  0x00\n  add\n  sstore\n  0x20\n  dup3\n  add\n  mload\n  dup2\n  0x01\n  add\n  swap1\n  dup2\n  tag_12\n  swap2\n  swap1\n  tag_6\n  jump\t// in\ntag_12:\n  pop\n  pop\n  pop\n    /* \"Voting.sol\":2284:2292  numerals */\n  0x03\n    /* \"Voting.sol\":2298:2319  NumeralPair(100, \"C\") */\n  mload(0x40)\n  dup1\n  0x40\n  add\n  0x40\n  mstore\n  dup1\n    /* \"Voting.sol\":2310:2313  100 */\n  0x64\n    /* \"Voting.sol\":2298:2319  NumeralPair(100, \"C\") */\n  dup2\n  mstore\n  0x20\n  add\n  mload(0x40)\n  dup1\n  0x40\n  add\n  0x40\n  mstore\n  dup1\n  0x01\n  dup2\n  mstore\n  0x20\n  add\n  0x4300000000000000000000000000000000000000000000000000000000000000\n  dup2\n  mstore\n  pop\n  dup2\n  mstore\n  pop\n    /* \"Voting.sol\":2284:2320  numerals.push(NumeralPair(100, \"C\")) */\n  swap1\n  dup1\n  0x01\n  dup2\n  sload\n  add\n  dup1\n  dup3\n  sstore\n  dup1\n  swap2\n  pop\n  pop\n  0x01\n  swap1\n  sub\n  swap1\n  0x00\n  mstore\n  keccak256(0x00, 0x20)\n  swap1\n  0x02\n  mul\n  add\n  0x00\n  swap1\n  swap2\n  swap1\n  swap2\n  swap1\n  swap2\n  pop\n  0x00\n  dup3\n  add\n  mload\n  dup2\n  0x00\n  add\n  sstore\n  0x20\n  dup3\n  add\n  mload\n  dup2\n  0x01\n  add\n  swap1\n  dup2\n  tag_14\n  swap2\n  swap1\n  tag_6\n  jump\t// in\ntag_14:\n  pop\n  pop\n  pop\n    /* \"Voting.sol\":2331:2339  numerals */\n  0x03\n    /* \"Voting.sol\":2345:2366  NumeralPair(90, \"XC\") */\n  mload(0x40)\n  dup1\n  0x40\n  add\n  0x40\n  mstore\n  dup1\n    /* \"Voting.sol\":2357:2359  90 */\n  0x5a\n    /* \"Voting.sol\":2345:2366  NumeralPair(90, \"XC\") */\n  dup2\n  mstore\n  0x20\n  add\n  mload(0x40)\n  dup1\n  0x40\n  add\n  0x40\n  mstore\n  dup1\n  0x02\n  dup2\n  mstore\n  0x20\n  add\n  0x5843000000000000000000000000000000000000000000000000000000000000\n  dup2\n  mstore\n  pop\n  dup2\n  mstore\n  pop\n    /* \"Voting.sol\":2331:2367  numerals.push(NumeralPair(90, \"XC\")) */\n  swap1\n  dup1\n  0x01\n  dup2\n  sload\n  add\n  dup1\n  dup3\n  sstore\n  dup1\n  swap2\n  pop\n  pop\n  0x01\n  swap1\n  sub\n  swap1\n  0x00\n  mstore\n  keccak256(0x00, 0x20)\n  swap1\n  0x02\n  mul\n  add\n  0x00\n  swap1\n  swap2\n  swap1\n  swap2\n  swap1\n  swap2\n  pop\n  0x00\n  dup3\n  add\n  mload\n  dup2\n  0x00\n  add\n  sstore\n  0x20\n  dup3\n  add\n  mload\n  dup2\n  0x01\n  add\n  swap1\n  dup2\n  tag_16\n  swap2\n  swap1\n  tag_6\n  jump\t// in\ntag_16:\n  pop\n  pop\n  pop\n    /* \"Voting.sol\":2378:2386  numerals */\n  0x03\n    /* \"Voting.sol\":2392:2412  NumeralPair(50, \"L\") */\n  mload(0x40)\n  dup1\n  0x40\n  add\n  0x40\n  mstore\n  dup1\n    /* \"Voting.sol\":2404:2406  50 */\n  0x32\n    /* \"Voting.sol\":2392:2412  NumeralPair(50, \"L\") */\n  dup2\n  mstore\n  0x20\n  add\n  mload(0x40)\n  dup1\n  0x40\n  add\n  0x40\n  mstore\n  dup1\n  0x01\n  dup2\n  mstore\n  0x20\n  add\n  0x4c00000000000000000000000000000000000000000000000000000000000000\n  dup2\n  mstore\n  pop\n  dup2\n  mstore\n  pop\n    /* \"Voting.sol\":2378:2413  numerals.push(NumeralPair(50, \"L\")) */\n  swap1\n  dup1\n  0x01\n  dup2\n  sload\n  add\n  dup1\n  dup3\n  sstore\n  dup1\n  swap2\n  pop\n  pop\n  0x01\n  swap1\n  sub\n  swap1\n  0x00\n  mstore\n  keccak256(0x00, 0x20)\n  swap1\n  0x02\n  mul\n  add\n  0x00\n  swap1\n  swap2\n  swap1\n  swap2\n  swap1\n  swap2\n  pop\n  0x00\n  dup3\n  add\n  mload\n  dup2\n  0x00\n  add\n  sstore\n  0x20\n  dup3\n  add\n  mload\n  dup2\n  0x01\n  add\n  swap1\n  dup2\n  tag_18\n  swap2\n  swap1\n  tag_6\n  jump\t// in\ntag_18:\n  pop\n  pop\n  pop\n    /* \"Voting.sol\":2424:2432  numerals */\n  0x03\n    /* \"Voting.sol\":2438:2459  NumeralPair(40, \"XL\") */\n  mload(0x40)\n  dup1\n  0x40\n  add\n  0x40\n  mstore\n  dup1\n    /* \"Voting.sol\":2450:2452  40 */\n  0x28\n    /* \"Voting.sol\":2438:2459  NumeralPair(40, \"XL\") */\n  dup2\n  mstore\n  0x20\n  add\n  mload(0x40)\n  dup1\n  0x40\n  add\n  0x40\n  mstore\n  dup1\n  0x02\n  dup2\n  mstore\n  0x20\n  add\n  0x584c000000000000000000000000000000000000000000000000000000000000\n  dup2\n  mstore\n  pop\n  dup2\n  mstore\n  pop\n    /* \"Voting.sol\":2424:2460  numerals.push(NumeralPair(40, \"XL\")) */\n  swap1\n  dup1\n  0x01\n  dup2\n  sload\n  add\n  dup1\n  dup3\n  sstore\n  dup1\n  swap2\n  pop\n  pop\n  0x01\n  swap1\n  sub\n  swap1\n  0x00\n  mstore\n  keccak256(0x00, 0x20)\n  swap1\n  0x02\n  mul\n  add\n  0x00\n  swap1\n  swap2\n  swap1\n  swap2\n  swap1\n  swap2\n  pop\n  0x00\n  dup3\n  add\n  mload\n  dup2\n  0x00\n  add\n  sstore\n  0x20\n  dup3\n  add\n  mload\n  dup2\n  0x01\n  add\n  swap1\n  dup2\n  tag_20\n  swap2\n  swap1\n  tag_6\n  jump\t// in\ntag_20:\n  pop\n  pop\n  pop\n    /* \"Voting.sol\":2471:2479  numerals */\n  0x03\n    /* \"Voting.sol\":2485:2505  NumeralPair(10, \"X\") */\n  mload(0x40)\n  dup1\n  0x40\n  add\n  0x40\n  mstore\n  dup1\n    /* \"Voting.sol\":2497:2499  10 */\n  0x0a\n    /* \"Voting.sol\":2485:2505  NumeralPair(10, \"X\") */\n  dup2\n  mstore\n  0x20\n  add\n  mload(0x40)\n  dup1\n  0x40\n  add\n  0x40\n  mstore\n  dup1\n  0x01\n  dup2\n  mstore\n  0x20\n  add\n  0x5800000000000000000000000000000000000000000000000000000000000000\n  dup2\n  mstore\n  pop\n  dup2\n  mstore\n  pop\n    /* \"Voting.sol\":2471:2506  numerals.push(NumeralPair(10, \"X\")) */\n  swap1\n  dup1\n  0x01\n  dup2\n  sload\n  add\n  dup1\n  dup3\n  sstore\n  dup1\n  swap2\n  pop\n  pop\n  0x01\n  swap1\n  sub\n  swap1\n  0x00\n  mstore\n  keccak256(0x00, 0x20)\n  swap1\n  0x02\n  mul\n  add\n  0x00\n  swap1\n  swap2\n  swap1\n  swap2\n  swap1\n  swap2\n  pop\n  0x00\n  dup3\n  add\n  mload\n  dup2\n  0x00\n  add\n  sstore\n  0x20\n  dup3\n  add\n  mload\n  dup2\n  0x01\n  add\n  swap1\n  dup2\n  tag_22\n  swap2\n  swap1\n  tag_6\n  jump\t// in\ntag_22:\n  pop\n  pop\n  pop\n    /* \"Voting.sol\":2517:2525  numerals */\n  0x03\n    /* \"Voting.sol\":2531:2551  NumeralPair(9, \"IX\") */\n  mload(0x40)\n  dup1\n  0x40\n  add\n  0x40\n  mstore\n  dup1\n    /* \"Voting.sol\":2543:2544  9 */\n  0x09\n    /* \"Voting.sol\":2531:2551  NumeralPair(9, \"IX\") */\n  dup2\n  mstore\n  0x20\n  add\n  mload(0x40)\n  dup1\n  0x40\n  add\n  0x40\n  mstore\n  dup1\n  0x02\n  dup2\n  mstore\n  0x20\n  add\n  0x4958000000000000000000000000000000000000000000000000000000000000\n  dup2\n  mstore\n  pop\n  dup2\n  mstore\n  pop\n    /* \"Voting.sol\":2517:2552  numerals.push(NumeralPair(9, \"IX\")) */\n  swap1\n  dup1\n  0x01\n  dup2\n  sload\n  add\n  dup1\n  dup3\n  sstore\n  dup1\n  swap2\n  pop\n  pop\n  0x01\n  swap1\n  sub\n  swap1\n  0x00\n  mstore\n  keccak256(0x00, 0x20)\n  swap1\n  0x02\n  mul\n  add\n  0x00\n  swap1\n  swap2\n  swap1\n  swap2\n  swap1\n  swap2\n  pop\n  0x00\n  dup3\n  add\n  mload\n  dup2\n  0x00\n  add\n  sstore\n  0x20\n  dup3\n  add\n  mload\n  dup2\n  0x01\n  add\n  swap1\n  dup2\n  tag_24\n  swap2\n  swap1\n  tag_6\n  jump\t// in\ntag_24:\n  pop\n  pop\n  pop\n    /* \"Voting.sol\":2563:2571  numerals */\n  0x03\n    /* \"Voting.sol\":2577:2596  NumeralPair(5, \"V\") */\n  mload(0x40)\n  dup1\n  0x40\n  add\n  0x40\n  mstore\n  dup1\n    /* \"Voting.sol\":2589:2590  5 */\n  0x05\n    /* \"Voting.sol\":2577:2596  NumeralPair(5, \"V\") */\n  dup2\n  mstore\n  0x20\n  add\n  mload(0x40)\n  dup1\n  0x40\n  add\n  0x40\n  mstore\n  dup1\n  0x01\n  dup2\n  mstore\n  0x20\n  add\n  0x5600000000000000000000000000000000000000000000000000000000000000\n  dup2\n  mstore\n  pop\n  dup2\n  mstore\n  pop\n    /* \"Voting.sol\":2563:2597  numerals.push(NumeralPair(5, \"V\")) */\n  swap1\n  dup1\n  0x01\n  dup2\n  sload\n  add\n  dup1\n  dup3\n  sstore\n  dup1\n  swap2\n  pop\n  pop\n  0x01\n  swap1\n  sub\n  swap1\n  0x00\n  mstore\n  keccak256(0x00, 0x20)\n  swap1\n  0x02\n  mul\n  add\n  0x00\n  swap1\n  swap2\n  swap1\n  swap2\n  swap1\n  swap2\n  pop\n  0x00\n  dup3\n  add\n  mload\n  dup2\n  0x00\n  add\n  sstore\n  0x20\n  dup3\n  add\n  mload\n  dup2\n  0x01\n  add\n  swap1\n  dup2\n  tag_26\n  swap2\n  swap1\n  tag_6\n  jump\t// in\ntag_26:\n  pop\n  pop\n  pop\n    /* \"Voting.sol\":2608:2616  numerals */\n  0x03\n    /* \"Voting.sol\":2622:2642  NumeralPair(4, \"IV\") */\n  mload(0x40)\n  dup1\n  0x40\n  add\n  0x40\n  mstore\n  dup1\n    /* \"Voting.sol\":2634:2635  4 */\n  0x04\n    /* \"Voting.sol\":2622:2642  NumeralPair(4, \"IV\") */\n  dup2\n  mstore\n  0x20\n  add\n  mload(0x40)\n  dup1\n  0x40\n  add\n  0x40\n  mstore\n  dup1\n  0x02\n  dup2\n  mstore\n  0x20\n  add\n  0x4956000000000000000000000000000000000000000000000000000000000000\n  dup2\n  mstore\n  pop\n  dup2\n  mstore\n  pop\n    /* \"Voting.sol\":2608:2643  numerals.push(NumeralPair(4, \"IV\")) */\n  swap1\n  dup1\n  0x01\n  dup2\n  sload\n  add\n  dup1\n  dup3\n  sstore\n  dup1\n  swap2\n  pop\n  pop\n  0x01\n  swap1\n  sub\n  swap1\n  0x00\n  mstore\n  keccak256(0x00, 0x20)\n  swap1\n  0x02\n  mul\n  add\n  0x00\n  swap1\n  swap2\n  swap1\n  swap2\n  swap1\n  swap2\n  pop\n  0x00\n  dup3\n  add\n  mload\n  dup2\n  0x00\n  add\n  sstore\n  0x20\n  dup3\n  add\n  mload\n  dup2\n  0x01\n  add\n  swap1\n  dup2\n  tag_28\n  swap2\n  swap1\n  tag_6\n  jump\t// in\ntag_28:\n  pop\n  pop\n  pop\n    /* \"Voting.sol\":2654:2662  numerals */\n  0x03\n    /* \"Voting.sol\":2668:2687  NumeralPair(1, \"I\") */\n  mload(0x40)\n  dup1\n  0x40\n  add\n  0x40\n  mstore\n  dup1\n    /* \"Voting.sol\":2680:2681  1 */\n  0x01\n    /* \"Voting.sol\":2668:2687  NumeralPair(1, \"I\") */\n  dup2\n  mstore\n  0x20\n  add\n  mload(0x40)\n  dup1\n  0x40\n  add\n  0x40\n  mstore\n  dup1\n  0x01\n  dup2\n  mstore\n  0x20\n  add\n  0x4900000000000000000000000000000000000000000000000000000000000000\n  dup2\n  mstore\n  pop\n  dup2\n  mstore\n  pop\n    /* \"Voting.sol\":2654:2688  numerals.push(NumeralPair(1, \"I\")) */\n  swap1\n  dup1\n  0x01\n  dup2\n  sload\n  add\n  dup1\n  dup3\n  sstore\n  dup1\n  swap2\n  pop\n  pop\n  0x01\n  swap1\n  sub\n  swap1\n  0x00\n  mstore\n  keccak256(0x00, 0x20)\n  swap1\n  0x02\n  mul\n  add\n  0x00\n  swap1\n  swap2\n  swap1\n  swap2\n  swap1\n  swap2\n  pop\n  0x00\n  dup3\n  add\n  mload\n  dup2\n  0x00\n  add\n  sstore\n  0x20\n  dup3\n  add\n  mload\n  dup2\n  0x01\n  add\n  swap1\n  dup2\n  tag_30\n  swap2\n  swap1\n  tag_6\n  jump\t// in\ntag_30:\n  pop\n  pop\n  pop\n    /* \"Voting.sol\":62:3093  contract Voting {... */\n  jump(tag_31)\n    /* \"#utility.yul\":7:106   */\ntag_32:\n    /* \"#utility.yul\":59:65   */\n  0x00\n    /* \"#utility.yul\":93:98   */\n  dup2\n    /* \"#utility.yul\":87:99   */\n  mload\n    /* \"#utility.yul\":77:99   */\n  swap1\n  pop\n    /* \"#utility.yul\":7:106   */\n  swap2\n  swap1\n  pop\n  jump\t// out\n    /* \"#utility.yul\":112:292   */\ntag_33:\n    /* \"#utility.yul\":160:237   */\n  0x4e487b7100000000000000000000000000000000000000000000000000000000\n    /* \"#utility.yul\":157:158   */\n  0x00\n    /* \"#utility.yul\":150:238   */\n  mstore\n    /* \"#utility.yul\":257:261   */\n  0x41\n    /* \"#utility.yul\":254:255   */\n  0x04\n    /* \"#utility.yul\":247:262   */\n  mstore\n    /* \"#utility.yul\":281:285   */\n  0x24\n    /* \"#utility.yul\":278:279   */\n  0x00\n    /* \"#utility.yul\":271:286   */\n  revert\n    /* \"#utility.yul\":298:478   */\ntag_34:\n    /* \"#utility.yul\":346:423   */\n  0x4e487b7100000000000000000000000000000000000000000000000000000000\n    /* \"#utility.yul\":343:344   */\n  0x00\n    /* \"#utility.yul\":336:424   */\n  mstore\n    /* \"#utility.yul\":443:447   */\n  0x22\n    /* \"#utility.yul\":440:441   */\n  0x04\n    /* \"#utility.yul\":433:448   */\n  mstore\n    /* \"#utility.yul\":467:471   */\n  0x24\n    /* \"#utility.yul\":464:465   */\n  0x00\n    /* \"#utility.yul\":457:472   */\n  revert\n    /* \"#utility.yul\":484:804   */\ntag_35:\n    /* \"#utility.yul\":528:534   */\n  0x00\n    /* \"#utility.yul\":565:566   */\n  0x02\n    /* \"#utility.yul\":559:563   */\n  dup3\n    /* \"#utility.yul\":555:567   */\n  div\n    /* \"#utility.yul\":545:567   */\n  swap1\n  pop\n    /* \"#utility.yul\":612:613   */\n  0x01\n    /* \"#utility.yul\":606:610   */\n  dup3\n    /* \"#utility.yul\":602:614   */\n  and\n    /* \"#utility.yul\":633:651   */\n  dup1\n    /* \"#utility.yul\":623:704   */\n  tag_57\n  jumpi\n    /* \"#utility.yul\":689:693   */\n  0x7f\n    /* \"#utility.yul\":681:687   */\n  dup3\n    /* \"#utility.yul\":677:694   */\n  and\n    /* \"#utility.yul\":667:694   */\n  swap2\n  pop\n    /* \"#utility.yul\":623:704   */\ntag_57:\n    /* \"#utility.yul\":751:753   */\n  0x20\n    /* \"#utility.yul\":743:749   */\n  dup3\n    /* \"#utility.yul\":740:754   */\n  lt\n    /* \"#utility.yul\":720:738   */\n  dup2\n    /* \"#utility.yul\":717:755   */\n  sub\n    /* \"#utility.yul\":714:798   */\n  tag_58\n  jumpi\n    /* \"#utility.yul\":770:788   */\n  tag_59\n  tag_34\n  jump\t// in\ntag_59:\n    /* \"#utility.yul\":714:798   */\ntag_58:\n    /* \"#utility.yul\":535:804   */\n  pop\n    /* \"#utility.yul\":484:804   */\n  swap2\n  swap1\n  pop\n  jump\t// out\n    /* \"#utility.yul\":810:951   */\ntag_36:\n    /* \"#utility.yul\":859:863   */\n  0x00\n    /* \"#utility.yul\":882:885   */\n  dup2\n    /* \"#utility.yul\":874:885   */\n  swap1\n  pop\n    /* \"#utility.yul\":905:908   */\n  dup2\n    /* \"#utility.yul\":902:903   */\n  0x00\n    /* \"#utility.yul\":895:909   */\n  mstore\n    /* \"#utility.yul\":939:943   */\n  0x20\n    /* \"#utility.yul\":936:937   */\n  0x00\n    /* \"#utility.yul\":926:944   */\n  keccak256\n    /* \"#utility.yul\":918:944   */\n  swap1\n  pop\n    /* \"#utility.yul\":810:951   */\n  swap2\n  swap1\n  pop\n  jump\t// out\n    /* \"#utility.yul\":957:1050   */\ntag_37:\n    /* \"#utility.yul\":994:1000   */\n  0x00\n    /* \"#utility.yul\":1041:1043   */\n  0x20\n    /* \"#utility.yul\":1036:1038   */\n  0x1f\n    /* \"#utility.yul\":1029:1034   */\n  dup4\n    /* \"#utility.yul\":1025:1039   */\n  add\n    /* \"#utility.yul\":1021:1044   */\n  div\n    /* \"#utility.yul\":1011:1044   */\n  swap1\n  pop\n    /* \"#utility.yul\":957:1050   */\n  swap2\n  swap1\n  pop\n  jump\t// out\n    /* \"#utility.yul\":1056:1163   */\ntag_38:\n    /* \"#utility.yul\":1100:1108   */\n  0x00\n    /* \"#utility.yul\":1150:1155   */\n  dup3\n    /* \"#utility.yul\":1144:1148   */\n  dup3\n    /* \"#utility.yul\":1140:1156   */\n  shl\n    /* \"#utility.yul\":1119:1156   */\n  swap1\n  pop\n    /* \"#utility.yul\":1056:1163   */\n  swap3\n  swap2\n  pop\n  pop\n  jump\t// out\n    /* \"#utility.yul\":1169:1562   */\ntag_39:\n    /* \"#utility.yul\":1238:1244   */\n  0x00\n    /* \"#utility.yul\":1288:1289   */\n  0x08\n    /* \"#utility.yul\":1276:1286   */\n  dup4\n    /* \"#utility.yul\":1272:1290   */\n  mul\n    /* \"#utility.yul\":1311:1408   */\n  tag_64\n    /* \"#utility.yul\":1341:1407   */\n  0xffffffffffffffffffffffffffffffffffffffffffffffffffffffffffffffff\n    /* \"#utility.yul\":1330:1339   */\n  dup3\n    /* \"#utility.yul\":1311:1408   */\n  tag_38\n  jump\t// in\ntag_64:\n    /* \"#utility.yul\":1429:1468   */\n  tag_65\n    /* \"#utility.yul\":1459:1467   */\n  dup7\n    /* \"#utility.yul\":1448:1457   */\n  dup4\n    /* \"#utility.yul\":1429:1468   */\n  tag_38\n  jump\t// in\ntag_65:\n    /* \"#utility.yul\":1417:1468   */\n  swap6\n  pop\n    /* \"#utility.yul\":1501:1505   */\n  dup1\n    /* \"#utility.yul\":1497:1506   */\n  not\n    /* \"#utility.yul\":1490:1495   */\n  dup5\n    /* \"#utility.yul\":1486:1507   */\n  and\n    /* \"#utility.yul\":1477:1507   */\n  swap4\n  pop\n    /* \"#utility.yul\":1550:1554   */\n  dup1\n    /* \"#utility.yul\":1540:1548   */\n  dup7\n    /* \"#utility.yul\":1536:1555   */\n  and\n    /* \"#utility.yul\":1529:1534   */\n  dup5\n    /* \"#utility.yul\":1526:1556   */\n  or\n    /* \"#utility.yul\":1516:1556   */\n  swap3\n  pop\n    /* \"#utility.yul\":1245:1562   */\n  pop\n  pop\n    /* \"#utility.yul\":1169:1562   */\n  swap4\n  swap3\n  pop\n  pop\n  pop\n  jump\t// out\n    /* \"#utility.yul\":1568:1645   */\ntag_40:\n    /* \"#utility.yul\":1605:1612   */\n  0x00\n    /* \"#utility.yul\":1634:1639   */\n  dup2\n    /* \"#utility.yul\":1623:1639   */\n  swap1\n  pop\n    /* \"#utility.yul\":1568:1645   */\n  swap2\n  swap1\n  pop\n  jump\t// out\n    /* \"#utility.yul\":1651:1711   */\ntag_41:\n    /* \"#utility.yul\":1679:1682   */\n  0x00\n    /* \"#utility.yul\":1700:1705   */\n  dup2\n    /* \"#utility.yul\":1693:1705   */\n  swap1\n  pop\n    /* \"#utility.yul\":1651:1711   */\n  swap2\n  swap1\n  pop\n  jump\t// out\n    /* \"#utility.yul\":1717:1859   */\ntag_42:\n    /* \"#utility.yul\":1767:1776   */\n  0x00\n    /* \"#utility.yul\":1800:1853   */\n  tag_69\n    /* \"#utility.yul\":1818:1852   */\n  tag_70\n    /* \"#utility.yul\":1827:1851   */\n  tag_71\n    /* \"#utility.yul\":1845:1850   */\n  dup5\n    /* \"#utility.yul\":1827:1851   */\n  tag_40\n  jump\t// in\ntag_71:\n    /* \"#utility.yul\":1818:1852   */\n  tag_41\n  jump\t// in\ntag_70:\n    /* \"#utility.yul\":1800:1853   */\n  tag_40\n  jump\t// in\ntag_69:\n    /* \"#utility.yul\":1787:1853   */\n  swap1\n  pop\n    /* \"#utility.yul\":1717:1859   */\n  swap2\n  swap1\n  pop\n  jump\t// out\n    /* \"#utility.yul\":1865:1940   */\ntag_43:\n    /* \"#utility.yul\":1908:1911   */\n  0x00\n    /* \"#utility.yul\":1929:1934   */\n  dup2\n    /* \"#utility.yul\":1922:1934   */\n  swap1\n  pop\n    /* \"#utility.yul\":1865:1940   */\n  swap2\n  swap1\n  pop\n  jump\t// out\n    /* \"#utility.yul\":1946:2215   */\ntag_44:\n    /* \"#utility.yul\":2056:2095   */\n  tag_74\n    /* \"#utility.yul\":2087:2094   */\n  dup4\n    /* \"#utility.yul\":2056:2095   */\n  tag_42\n  jump\t// in\ntag_74:\n    /* \"#utility.yul\":2117:2208   */\n  tag_75\n    /* \"#utility.yul\":2166:2207   */\n  tag_76\n    /* \"#utility.yul\":2190:2206   */\n  dup3\n    /* \"#utility.yul\":2166:2207   */\n  tag_43\n  jump\t// in\ntag_76:\n    /* \"#utility.yul\":2158:2164   */\n  dup5\n    /* \"#utility.yul\":2151:2155   */\n  dup5\n    /* \"#utility.yul\":2145:2156   */\n  sload\n    /* \"#utility.yul\":2117:2208   */\n  tag_39\n  jump\t// in\ntag_75:\n    /* \"#utility.yul\":2111:2115   */\n  dup3\n    /* \"#utility.yul\":2104:2209   */\n  sstore\n    /* \"#utility.yul\":2022:2215   */\n  pop\n    /* \"#utility.yul\":1946:2215   */\n  pop\n  pop\n  pop\n  jump\t// out\n    /* \"#utility.yul\":2221:2294   */\ntag_45:\n    /* \"#utility.yul\":2266:2269   */\n  0x00\n    /* \"#utility.yul\":2287:2288   */\n  0x00\n    /* \"#utility.yul\":2280:2288   */\n  swap1\n  pop\n    /* \"#utility.yul\":2221:2294   */\n  swap1\n  jump\t// out\n    /* \"#utility.yul\":2300:2489   */\ntag_46:\n    /* \"#utility.yul\":2377:2409   */\n  tag_79\n  tag_45\n  jump\t// in\ntag_79:\n    /* \"#utility.yul\":2418:2483   */\n  tag_80\n    /* \"#utility.yul\":2476:2482   */\n  dup2\n    /* \"#utility.yul\":2468:2474   */\n  dup5\n    /* \"#utility.yul\":2462:2466   */\n  dup5\n    /* \"#utility.yul\":2418:2483   */\n  tag_44\n  jump\t// in\ntag_80:\n    /* \"#utility.yul\":2353:2489   */\n  pop\n    /* \"#utility.yul\":2300:2489   */\n  pop\n  pop\n  jump\t// out\n    /* \"#utility.yul\":2495:2681   */\ntag_47:\n    /* \"#utility.yul\":2555:2675   */\ntag_82:\n    /* \"#utility.yul\":2572:2575   */\n  dup2\n    /* \"#utility.yul\":2565:2570   */\n  dup2\n    /* \"#utility.yul\":2562:2576   */\n  lt\n    /* \"#utility.yul\":2555:2675   */\n  iszero\n  tag_84\n  jumpi\n    /* \"#utility.yul\":2626:2665   */\n  tag_85\n    /* \"#utility.yul\":2663:2664   */\n  0x00\n    /* \"#utility.yul\":2656:2661   */\n  dup3\n    /* \"#utility.yul\":2626:2665   */\n  tag_46\n  jump\t// in\ntag_85:\n    /* \"#utility.yul\":2599:2600   */\n  0x01\n    /* \"#utility.yul\":2592:2597   */\n  dup2\n    /* \"#utility.yul\":2588:2601   */\n  add\n    /* \"#utility.yul\":2579:2601   */\n  swap1\n  pop\n    /* \"#utility.yul\":2555:2675   */\n  jump(tag_82)\ntag_84:\n    /* \"#utility.yul\":2495:2681   */\n  pop\n  pop\n  jump\t// out\n    /* \"#utility.yul\":2687:3230   */\ntag_48:\n    /* \"#utility.yul\":2788:2790   */\n  0x1f\n    /* \"#utility.yul\":2783:2786   */\n  dup3\n    /* \"#utility.yul\":2780:2791   */\n  gt\n    /* \"#utility.yul\":2777:3223   */\n  iszero\n  tag_87\n  jumpi\n    /* \"#utility.yul\":2822:2860   */\n  tag_88\n    /* \"#utility.yul\":2854:2859   */\n  dup2\n    /* \"#utility.yul\":2822:2860   */\n  tag_36\n  jump\t// in\ntag_88:\n    /* \"#utility.yul\":2906:2935   */\n  tag_89\n    /* \"#utility.yul\":2924:2934   */\n  dup5\n    /* \"#utility.yul\":2906:2935   */\n  tag_37\n  jump\t// in\ntag_89:\n    /* \"#utility.yul\":2896:2904   */\n  dup2\n    /* \"#utility.yul\":2892:2936   */\n  add\n    /* \"#utility.yul\":3089:3091   */\n  0x20\n    /* \"#utility.yul\":3077:3087   */\n  dup6\n    /* \"#utility.yul\":3074:3092   */\n  lt\n    /* \"#utility.yul\":3071:3120   */\n  iszero\n  tag_90\n  jumpi\n    /* \"#utility.yul\":3110:3118   */\n  dup2\n    /* \"#utility.yul\":3095:3118   */\n  swap1\n  pop\n    /* \"#utility.yul\":3071:3120   */\ntag_90:\n    /* \"#utility.yul\":3133:3213   */\n  tag_91\n    /* \"#utility.yul\":3189:3211   */\n  tag_92\n    /* \"#utility.yul\":3207:3210   */\n  dup6\n    /* \"#utility.yul\":3189:3211   */\n  tag_37\n  jump\t// in\ntag_92:\n    /* \"#utility.yul\":3179:3187   */\n  dup4\n    /* \"#utility.yul\":3175:3212   */\n  add\n    /* \"#utility.yul\":3162:3173   */\n  dup3\n    /* \"#utility.yul\":3133:3213   */\n  tag_47\n  jump\t// in\ntag_91:\n    /* \"#utility.yul\":2792:3223   */\n  pop\n  pop\n    /* \"#utility.yul\":2777:3223   */\ntag_87:\n    /* \"#utility.yul\":2687:3230   */\n  pop\n  pop\n  pop\n  jump\t// out\n    /* \"#utility.yul\":3236:3353   */\ntag_49:\n    /* \"#utility.yul\":3290:3298   */\n  0x00\n    /* \"#utility.yul\":3340:3345   */\n  dup3\n    /* \"#utility.yul\":3334:3338   */\n  dup3\n    /* \"#utility.yul\":3330:3346   */\n  shr\n    /* \"#utility.yul\":3309:3346   */\n  swap1\n  pop\n    /* \"#utility.yul\":3236:3353   */\n  swap3\n  swap2\n  pop\n  pop\n  jump\t// out\n    /* \"#utility.yul\":3359:3528   */\ntag_50:\n    /* \"#utility.yul\":3403:3409   */\n  0x00\n    /* \"#utility.yul\":3436:3487   */\n  tag_95\n    /* \"#utility.yul\":3484:3485   */\n  0x00\n    /* \"#utility.yul\":3480:3486   */\n  not\n    /* \"#utility.yul\":3472:3477   */\n  dup5\n    /* \"#utility.yul\":3469:3470   */\n  0x08\n    /* \"#utility.yul\":3465:3478   */\n  mul\n    /* \"#utility.yul\":3436:3487   */\n  tag_49\n  jump\t// in\ntag_95:\n    /* \"#utility.yul\":3432:3488   */\n  not\n    /* \"#utility.yul\":3517:3521   */\n  dup1\n    /* \"#utility.yul\":3511:3515   */\n  dup4\n    /* \"#utility.yul\":3507:3522   */\n  and\n    /* \"#utility.yul\":3497:3522   */\n  swap2\n  pop\n    /* \"#utility.yul\":3410:3528   */\n  pop\n    /* \"#utility.yul\":3359:3528   */\n  swap3\n  swap2\n  pop\n  pop\n  jump\t// out\n    /* \"#utility.yul\":3533:3828   */\ntag_51:\n    /* \"#utility.yul\":3609:3613   */\n  0x00\n    /* \"#utility.yul\":3755:3784   */\n  tag_97\n    /* \"#utility.yul\":3780:3783   */\n  dup4\n    /* \"#utility.yul\":3774:3778   */\n  dup4\n    /* \"#utility.yul\":3755:3784   */\n  tag_50\n  jump\t// in\ntag_97:\n    /* \"#utility.yul\":3747:3784   */\n  swap2\n  pop\n    /* \"#utility.yul\":3817:3820   */\n  dup3\n    /* \"#utility.yul\":3814:3815   */\n  0x02\n    /* \"#utility.yul\":3810:3821   */\n  mul\n    /* \"#utility.yul\":3804:3808   */\n  dup3\n    /* \"#utility.yul\":3801:3822   */\n  or\n    /* \"#utility.yul\":3793:3822   */\n  swap1\n  pop\n    /* \"#utility.yul\":3533:3828   */\n  swap3\n  swap2\n  pop\n  pop\n  jump\t// out\n    /* \"#utility.yul\":3833:5228   */\ntag_6:\n    /* \"#utility.yul\":3950:3987   */\n  tag_99\n    /* \"#utility.yul\":3983:3986   */\n  dup3\n    /* \"#utility.yul\":3950:3987   */\n  tag_32\n  jump\t// in\ntag_99:\n    /* \"#utility.yul\":4052:4070   */\n  0xffffffffffffffff\n    /* \"#utility.yul\":4044:4050   */\n  dup2\n    /* \"#utility.yul\":4041:4071   */\n  gt\n    /* \"#utility.yul\":4038:4094   */\n  iszero\n  tag_100\n  jumpi\n    /* \"#utility.yul\":4074:4092   */\n  tag_101\n  tag_33\n  jump\t// in\ntag_101:\n    /* \"#utility.yul\":4038:4094   */\ntag_100:\n    /* \"#utility.yul\":4118:4156   */\n  tag_102\n    /* \"#utility.yul\":4150:4154   */\n  dup3\n    /* \"#utility.yul\":4144:4155   */\n  sload\n    /* \"#utility.yul\":4118:4156   */\n  tag_35\n  jump\t// in\ntag_102:\n    /* \"#utility.yul\":4203:4270   */\n  tag_103\n    /* \"#utility.yul\":4263:4269   */\n  dup3\n    /* \"#utility.yul\":4255:4261   */\n  dup3\n    /* \"#utility.yul\":4249:4253   */\n  dup6\n    /* \"#utility.yul\":4203:4270   */\n  tag_48\n  jump\t// in\ntag_103:\n    /* \"#utility.yul\":4297:4298   */\n  0x00\n    /* \"#utility.yul\":4321:4325   */\n  0x20\n    /* \"#utility.yul\":4308:4325   */\n  swap1\n  pop\n    /* \"#utility.yul\":4353:4355   */\n  0x1f\n    /* \"#utility.yul\":4345:4351   */\n  dup4\n    /* \"#utility.yul\":4342:4356   */\n  gt\n    /* \"#utility.yul\":4370:4371   */\n  0x01\n    /* \"#utility.yul\":4365:4983   */\n  dup2\n  eq\n  tag_105\n  jumpi\n    /* \"#utility.yul\":5027:5028   */\n  0x00\n    /* \"#utility.yul\":5044:5050   */\n  dup5\n    /* \"#utility.yul\":5041:5118   */\n  iszero\n  tag_106\n  jumpi\n    /* \"#utility.yul\":5093:5102   */\n  dup3\n    /* \"#utility.yul\":5088:5091   */\n  dup8\n    /* \"#utility.yul\":5084:5103   */\n  add\n    /* \"#utility.yul\":5078:5104   */\n  mload\n    /* \"#utility.yul\":5069:5104   */\n  swap1\n  pop\n    /* \"#utility.yul\":5041:5118   */\ntag_106:\n    /* \"#utility.yul\":5144:5211   */\n  tag_107\n    /* \"#utility.yul\":5204:5210   */\n  dup6\n    /* \"#utility.yul\":5197:5202   */\n  dup3\n    /* \"#utility.yul\":5144:5211   */\n  tag_51\n  jump\t// in\ntag_107:\n    /* \"#utility.yul\":5138:5142   */\n  dup7\n    /* \"#utility.yul\":5131:5212   */\n  sstore\n    /* \"#utility.yul\":5000:5222   */\n  pop\n    /* \"#utility.yul\":4335:5222   */\n  jump(tag_104)\n    /* \"#utility.yul\":4365:4983   */\ntag_105:\n    /* \"#utility.yul\":4417:4421   */\n  0x1f\n    /* \"#utility.yul\":4413:4422   */\n  not\n    /* \"#utility.yul\":4405:4411   */\n  dup5\n    /* \"#utility.yul\":4401:4423   */\n  and\n    /* \"#utility.yul\":4451:4488   */\n  tag_108\n    /* \"#utility.yul\":4483:4487   */\n  dup7\n    /* \"#utility.yul\":4451:4488   */\n  tag_36\n  jump\t// in\ntag_108:\n    /* \"#utility.yul\":4510:4511   */\n  0x00\n    /* \"#utility.yul\":4524:4732   */\ntag_109:\n    /* \"#utility.yul\":4538:4545   */\n  dup3\n    /* \"#utility.yul\":4535:4536   */\n  dup2\n    /* \"#utility.yul\":4532:4546   */\n  lt\n    /* \"#utility.yul\":4524:4732   */\n  iszero\n  tag_111\n  jumpi\n    /* \"#utility.yul\":4617:4626   */\n  dup5\n    /* \"#utility.yul\":4612:4615   */\n  dup10\n    /* \"#utility.yul\":4608:4627   */\n  add\n    /* \"#utility.yul\":4602:4628   */\n  mload\n    /* \"#utility.yul\":4594:4600   */\n  dup3\n    /* \"#utility.yul\":4587:4629   */\n  sstore\n    /* \"#utility.yul\":4668:4669   */\n  0x01\n    /* \"#utility.yul\":4660:4666   */\n  dup3\n    /* \"#utility.yul\":4656:4670   */\n  add\n    /* \"#utility.yul\":4646:4670   */\n  swap2\n  pop\n    /* \"#utility.yul\":4715:4717   */\n  0x20\n    /* \"#utility.yul\":4704:4713   */\n  dup6\n    /* \"#utility.yul\":4700:4718   */\n  add\n    /* \"#utility.yul\":4687:4718   */\n  swap5\n  pop\n    /* \"#utility.yul\":4561:4565   */\n  0x20\n    /* \"#utility.yul\":4558:4559   */\n  dup2\n    /* \"#utility.yul\":4554:4566   */\n  add\n    /* \"#utility.yul\":4549:4566   */\n  swap1\n  pop\n    /* \"#utility.yul\":4524:4732   */\n  jump(tag_109)\ntag_111:\n    /* \"#utility.yul\":4760:4766   */\n  dup7\n    /* \"#utility.yul\":4751:4758   */\n  dup4\n    /* \"#utility.yul\":4748:4767   */\n  lt\n    /* \"#utility.yul\":4745:4924   */\n  iszero\n  tag_112\n  jumpi\n    /* \"#utility.yul\":4818:4827   */\n  dup5\n    /* \"#utility.yul\":4813:4816   */\n  dup10\n    /* \"#utility.yul\":4809:4828   */\n  add\n    /* \"#utility.yul\":4803:4829   */\n  mload\n    /* \"#utility.yul\":4861:4909   */\n  tag_113\n    /* \"#utility.yul\":4903:4907   */\n  0x1f\n    /* \"#utility.yul\":4895:4901   */\n  dup10\n    /* \"#utility.yul\":4891:4908   */\n  and\n    /* \"#utility.yul\":4880:4889   */\n  dup3\n    /* \"#utility.yul\":4861:4909   */\n  tag_50\n  jump\t// in\ntag_113:\n    /* \"#utility.yul\":4853:4859   */\n  dup4\n    /* \"#utility.yul\":4846:4910   */\n  sstore\n    /* \"#utility.yul\":4768:4924   */\n  pop\n    /* \"#utility.yul\":4745:4924   */\ntag_112:\n    /* \"#utility.yul\":4970:4971   */\n  0x01\n    /* \"#utility.yul\":4966:4967   */\n  0x02\n    /* \"#utility.yul\":4958:4964   */\n  dup9\n    /* \"#utility.yul\":4954:4968   */\n  mul\n    /* \"#utility.yul\":4950:4972   */\n  add\n    /* \"#utility.yul\":4944:4948   */\n  dup9\n    /* \"#utility.yul\":4937:4973   */\n  sstore\n    /* \"#utility.yul\":4372:4983   */\n  pop\n  pop\n  pop\n    /* \"#utility.yul\":4335:5222   */\ntag_104:\n  pop\n    /* \"#utility.yul\":3925:5228   */\n  pop\n  pop\n  pop\n    /* \"#utility.yul\":3833:5228   */\n  pop\n  pop\n  jump\t// out\n    /* \"Voting.sol\":62:3093  contract Voting {... */\ntag_31:\n  dataSize(sub_0)\n  dup1\n  dataOffset(sub_0)\n  0x00\n  codecopy\n  0x00\n  return\nstop\n\nsub_0: assembly {\n        /* \"Voting.sol\":62:3093  contract Voting {... */\n      mstore(0x40, 0x80)\n      callvalue\n      dup1\n      iszero\n      tag_1\n      jumpi\n      revert(0x00, 0x00)\n    tag_1:\n      pop\n      jumpi(tag_2, lt(calldatasize, 0x04))\n      shr(0xe0, calldataload(0x00))\n      dup1\n      0x9135a958\n      gt\n      tag_12\n      jumpi\n      dup1\n      0x9135a958\n      eq\n      tag_7\n      jumpi\n      dup1\n      0xb9830ff1\n      eq\n      tag_8\n      jumpi\n      dup1\n      0xcb159dfe\n      eq\n      tag_9\n      jumpi\n      dup1\n      0xe702f6b9\n      eq\n      tag_10\n      jumpi\n      dup1\n      0xfc36e15b\n      eq\n      tag_11\n      jumpi\n      jump(tag_2)\n    tag_12:\n      dup1\n      0x0cb6aaf1\n      eq\n      tag_3\n      jumpi\n      dup1\n      0x0cbc513a\n      eq\n      tag_4\n      jumpi\n      dup1\n      0x2cfea327\n      eq\n      tag_5\n      jumpi\n      dup1\n      0x805265e5\n      eq\n      tag_6\n      jumpi\n    tag_2:\n      revert(0x00, 0x00)\n        /* \"Voting.sol\":140:160  string[] public keys */\n    tag_3:\n      tag_13\n      0x04\n      dup1\n      calldatasize\n      sub\n      dup2\n      add\n      swap1\n      tag_14\n      swap2\n      swap1\n      tag_15\n      jump\t// in\n    tag_14:\n      tag_16\n      jump\t// in\n    tag_13:\n      mload(0x40)\n      tag_17\n      swap2\n      swap1\n      tag_18\n      jump\t// in\n    tag_17:\n      mload(0x40)\n      dup1\n      swap2\n      sub\n      swap1\n      return\n        /* \"Voting.sol\":2704:3078  function intToRoman(uint num) public view returns (string memory) {... */\n    tag_4:\n      tag_19\n      0x04\n      dup1\n      calldatasize\n      sub\n      dup2\n      add\n      swap1\n      tag_20\n      swap2\n      swap1\n      tag_15\n      jump\t// in\n    tag_20:\n      tag_21\n      jump\t// in\n    tag_19:\n      mload(0x40)\n      tag_22\n      swap2\n      swap1\n      tag_18\n      jump\t// in\n    tag_22:\n      mload(0x40)\n      dup1\n      swap2\n      sub\n      swap1\n      return\n        /* \"Voting.sol\":91:133  mapping(string => int256) public senderMap */\n    tag_5:\n      tag_23\n      0x04\n      dup1\n      calldatasize\n      sub\n      dup2\n      add\n      swap1\n      tag_24\n      swap2\n      swap1\n      tag_25\n      jump\t// in\n    tag_24:\n      tag_26\n      jump\t// in\n    tag_23:\n      mload(0x40)\n      tag_27\n      swap2\n      swap1\n      tag_28\n      jump\t// in\n    tag_27:\n      mload(0x40)\n      dup1\n      swap2\n      sub\n      swap1\n      return\n        /* \"Voting.sol\":369:477  function getVotes(string memory name) public view returns (int256) {... */\n    tag_6:\n      tag_29\n      0x04\n      dup1\n      calldatasize\n      sub\n      dup2\n      add\n      swap1\n      tag_30\n      swap2\n      swap1\n      tag_25\n      jump\t// in\n    tag_30:\n      tag_31\n      jump\t// in\n    tag_29:\n      mload(0x40)\n      tag_32\n      swap2\n      swap1\n      tag_28\n      jump\t// in\n    tag_32:\n      mload(0x40)\n      dup1\n      swap2\n      sub\n      swap1\n      return\n        /* \"Voting.sol\":1107:1141  mapping(bytes1=>uint256)public map */\n    tag_7:\n      tag_33\n      0x04\n      dup1\n      calldatasize\n      sub\n      dup2\n      add\n      swap1\n      tag_34\n      swap2\n      swap1\n      tag_35\n      jump\t// in\n    tag_34:\n      tag_36\n      jump\t// in\n    tag_33:\n      mload(0x40)\n      tag_37\n      swap2\n      swap1\n      tag_38\n      jump\t// in\n    tag_37:\n      mload(0x40)\n      dup1\n      swap2\n      sub\n      swap1\n      return\n        /* \"Voting.sol\":485:659  function resetVotes() public {... */\n    tag_8:\n      tag_39\n      tag_40\n      jump\t// in\n    tag_39:\n      stop\n        /* \"Voting.sol\":1159:1770  function romanToInt(string memory s) public view returns(uint) {... */\n    tag_9:\n      tag_41\n      0x04\n      dup1\n      calldatasize\n      sub\n      dup2\n      add\n      swap1\n      tag_42\n      swap2\n      swap1\n      tag_25\n      jump\t// in\n    tag_42:\n      tag_43\n      jump\t// in\n    tag_41:\n      mload(0x40)\n      tag_44\n      swap2\n      swap1\n      tag_38\n      jump\t// in\n    tag_44:\n      mload(0x40)\n      dup1\n      swap2\n      sub\n      swap1\n      return\n        /* \"Voting.sol\":667:1101  function RevertString(string memory str) public pure returns(string memory) {... */\n    tag_10:\n      tag_45\n      0x04\n      dup1\n      calldatasize\n      sub\n      dup2\n      add\n      swap1\n      tag_46\n      swap2\n      swap1\n      tag_25\n      jump\t// in\n    tag_46:\n      tag_47\n      jump\t// in\n    tag_45:\n      mload(0x40)\n      tag_48\n      swap2\n      swap1\n      tag_18\n      jump\t// in\n    tag_48:\n      mload(0x40)\n      dup1\n      swap2\n      sub\n      swap1\n      return\n        /* \"Voting.sol\":169:361  function vote (string memory name) public returns(bool){... */\n    tag_11:\n      tag_49\n      0x04\n      dup1\n      calldatasize\n      sub\n      dup2\n      add\n      swap1\n      tag_50\n      swap2\n      swap1\n      tag_25\n      jump\t// in\n    tag_50:\n      tag_51\n      jump\t// in\n    tag_49:\n      mload(0x40)\n      tag_52\n      swap2\n      swap1\n      tag_53\n      jump\t// in\n    tag_52:\n      mload(0x40)\n      dup1\n      swap2\n      sub\n      swap1\n      return\n        /* \"Voting.sol\":140:160  string[] public keys */\n    tag_16:\n      0x01\n      dup2\n      dup2\n      sload\n      dup2\n      lt\n      tag_54\n      jumpi\n      0x00\n      dup1\n      revert\n    tag_54:\n      swap1\n      0x00\n      mstore\n      keccak256(0x00, 0x20)\n      add\n      0x00\n      swap2\n      pop\n      swap1\n      pop\n      dup1\n      sload\n      tag_56\n      swap1\n      tag_57\n      jump\t// in\n    tag_56:\n      dup1\n      0x1f\n      add\n      0x20\n      dup1\n      swap2\n      div\n      mul\n      0x20\n      add\n      mload(0x40)\n      swap1\n      dup2\n      add\n      0x40\n      mstore\n      dup1\n      swap3\n      swap2\n      swap1\n      dup2\n      dup2\n      mstore\n      0x20\n      add\n      dup3\n      dup1\n      sload\n      tag_58\n      swap1\n      tag_57\n      jump\t// in\n    tag_58:\n      dup1\n      iszero\n      tag_59\n      jumpi\n      dup1\n      0x1f\n      lt\n      tag_60\n      jumpi\n      0x0100\n      dup1\n      dup4\n      sload\n      div\n      mul\n      dup4\n      mstore\n      swap2\n      0x20\n      add\n      swap2\n      jump(tag_59)\n    tag_60:\n      dup3\n      add\n      swap2\n      swap1\n      0x00\n      mstore\n      keccak256(0x00, 0x20)\n      swap1\n    tag_61:\n      dup2\n      sload\n      dup2\n      mstore\n      swap1\n      0x01\n      add\n      swap1\n      0x20\n      add\n      dup1\n      dup4\n      gt\n      tag_61\n      jumpi\n      dup3\n      swap1\n      sub\n      0x1f\n      and\n      dup3\n      add\n      swap2\n    tag_59:\n      pop\n      pop\n      pop\n      pop\n      pop\n      dup2\n      jump\t// out\n        /* \"Voting.sol\":2704:3078  function intToRoman(uint num) public view returns (string memory) {... */\n    tag_21:\n        /* \"Voting.sol\":2755:2768  string memory */\n      0x60\n        /* \"Voting.sol\":2781:2801  string memory result */\n      0x00\n        /* \"Voting.sol\":2781:2806  string memory result = \"\" */\n      mload(0x40)\n      dup1\n      0x20\n      add\n      0x40\n      mstore\n      dup1\n      0x00\n      dup2\n      mstore\n      pop\n      swap1\n      pop\n        /* \"Voting.sol\":2822:2828  uint i */\n      0x00\n        /* \"Voting.sol\":2831:2832  0 */\n      0x00\n        /* \"Voting.sol\":2822:2832  uint i = 0 */\n      swap1\n      pop\n        /* \"Voting.sol\":2817:3047  for (uint i = 0; i < numerals.length; i++) {... */\n    tag_63:\n        /* \"Voting.sol\":2838:2846  numerals */\n      0x03\n        /* \"Voting.sol\":2838:2853  numerals.length */\n      dup1\n      sload\n      swap1\n      pop\n        /* \"Voting.sol\":2834:2835  i */\n      dup2\n        /* \"Voting.sol\":2834:2853  i < numerals.length */\n      lt\n        /* \"Voting.sol\":2817:3047  for (uint i = 0; i < numerals.length; i++) {... */\n      iszero\n      tag_64\n      jumpi\n        /* \"Voting.sol\":2875:3036  while (num >= numerals[i].value) {... */\n    tag_66:\n        /* \"Voting.sol\":2889:2897  numerals */\n      0x03\n        /* \"Voting.sol\":2898:2899  i */\n      dup2\n        /* \"Voting.sol\":2889:2900  numerals[i] */\n      dup2\n      sload\n      dup2\n      lt\n      tag_68\n      jumpi\n      tag_69\n      tag_70\n      jump\t// in\n    tag_69:\n    tag_68:\n      swap1\n      0x00\n      mstore\n      keccak256(0x00, 0x20)\n      swap1\n      0x02\n      mul\n      add\n        /* \"Voting.sol\":2889:2906  numerals[i].value */\n      0x00\n      add\n      sload\n        /* \"Voting.sol\":2882:2885  num */\n      dup5\n        /* \"Voting.sol\":2882:2906  num >= numerals[i].value */\n      lt\n        /* \"Voting.sol\":2875:3036  while (num >= numerals[i].value) {... */\n      tag_67\n      jumpi\n        /* \"Voting.sol\":2950:2956  result */\n      dup2\n        /* \"Voting.sol\":2958:2966  numerals */\n      0x03\n        /* \"Voting.sol\":2967:2968  i */\n      dup3\n        /* \"Voting.sol\":2958:2969  numerals[i] */\n      dup2\n      sload\n      dup2\n      lt\n      tag_72\n      jumpi\n      tag_73\n      tag_70\n      jump\t// in\n    tag_73:\n    tag_72:\n      swap1\n      0x00\n      mstore\n      keccak256(0x00, 0x20)\n      swap1\n      0x02\n      mul\n      add\n        /* \"Voting.sol\":2958:2976  numerals[i].symbol */\n      0x01\n      add\n        /* \"Voting.sol\":2936:2977  string.concat(result, numerals[i].symbol) */\n      add(0x20, mload(0x40))\n      tag_75\n      swap3\n      swap2\n      swap1\n      tag_76\n      jump\t// in\n    tag_75:\n      mload(0x40)\n      0x20\n      dup2\n      dup4\n      sub\n      sub\n      dup2\n      mstore\n      swap1\n      0x40\n      mstore\n        /* \"Voting.sol\":2927:2977  result = string.concat(result, numerals[i].symbol) */\n      swap2\n      pop\n        /* \"Voting.sol\":3003:3011  numerals */\n      0x03\n        /* \"Voting.sol\":3012:3013  i */\n      dup2\n        /* \"Voting.sol\":3003:3014  numerals[i] */\n      dup2\n      sload\n      dup2\n      lt\n      tag_77\n      jumpi\n      tag_78\n      tag_70\n      jump\t// in\n    tag_78:\n    tag_77:\n      swap1\n      0x00\n      mstore\n      keccak256(0x00, 0x20)\n      swap1\n      0x02\n      mul\n      add\n        /* \"Voting.sol\":3003:3020  numerals[i].value */\n      0x00\n      add\n      sload\n        /* \"Voting.sol\":2996:3020  num -= numerals[i].value */\n      dup5\n      tag_80\n      swap2\n      swap1\n      tag_81\n      jump\t// in\n    tag_80:\n      swap4\n      pop\n        /* \"Voting.sol\":2875:3036  while (num >= numerals[i].value) {... */\n      jump(tag_66)\n    tag_67:\n        /* \"Voting.sol\":2855:2858  i++ */\n      dup1\n      dup1\n      0x01\n      add\n      swap2\n      pop\n      pop\n        /* \"Voting.sol\":2817:3047  for (uint i = 0; i < numerals.length; i++) {... */\n      jump(tag_63)\n    tag_64:\n      pop\n        /* \"Voting.sol\":3064:3070  result */\n      dup1\n        /* \"Voting.sol\":3057:3070  return result */\n      swap2\n      pop\n      pop\n        /* \"Voting.sol\":2704:3078  function intToRoman(uint num) public view returns (string memory) {... */\n      swap2\n      swap1\n      pop\n      jump\t// out\n        /* \"Voting.sol\":91:133  mapping(string => int256) public senderMap */\n    tag_26:\n      0x00\n      dup2\n      dup1\n      mload\n      0x20\n      dup2\n      add\n      dup3\n      add\n      dup1\n      mload\n      dup5\n      dup3\n      mstore\n      0x20\n      dup4\n      add\n      0x20\n      dup6\n      add\n      keccak256\n      dup2\n      dup4\n      mstore\n      dup1\n      swap6\n      pop\n      pop\n      pop\n      pop\n      pop\n      pop\n      0x00\n      swap2\n      pop\n      swap1\n      pop\n      sload\n      dup2\n      jump\t// out\n        /* \"Voting.sol\":369:477  function getVotes(string memory name) public view returns (int256) {... */\n    tag_31:\n        /* \"Voting.sol\":428:434  int256 */\n      0x00\n        /* \"Voting.sol\":454:463  senderMap */\n      0x00\n        /* \"Voting.sol\":464:468  name */\n      dup3\n        /* \"Voting.sol\":454:469  senderMap[name] */\n      mload(0x40)\n      tag_83\n      swap2\n      swap1\n      tag_84\n      jump\t// in\n    tag_83:\n      swap1\n      dup2\n      mstore\n      0x20\n      add\n      mload(0x40)\n      dup1\n      swap2\n      sub\n      swap1\n      keccak256\n      sload\n        /* \"Voting.sol\":447:469  return senderMap[name] */\n      swap1\n      pop\n        /* \"Voting.sol\":369:477  function getVotes(string memory name) public view returns (int256) {... */\n      swap2\n      swap1\n      pop\n      jump\t// out\n        /* \"Voting.sol\":1107:1141  mapping(bytes1=>uint256)public map */\n    tag_36:\n      mstore(0x20, 0x02)\n      dup1\n      0x00\n      mstore\n      keccak256(0x00, 0x40)\n      0x00\n      swap2\n      pop\n      swap1\n      pop\n      sload\n      dup2\n      jump\t// out\n        /* \"Voting.sol\":485:659  function resetVotes() public {... */\n    tag_40:\n        /* \"Voting.sol\":530:539  uint256 i */\n      0x00\n        /* \"Voting.sol\":542:543  0 */\n      0x00\n        /* \"Voting.sol\":530:543  uint256 i = 0 */\n      swap1\n      pop\n        /* \"Voting.sol\":525:630  for (uint256 i = 0; i < keys.length ; i++) ... */\n    tag_86:\n        /* \"Voting.sol\":549:553  keys */\n      0x01\n        /* \"Voting.sol\":549:560  keys.length */\n      dup1\n      sload\n      swap1\n      pop\n        /* \"Voting.sol\":545:546  i */\n      dup2\n        /* \"Voting.sol\":545:560  i < keys.length */\n      lt\n        /* \"Voting.sol\":525:630  for (uint256 i = 0; i < keys.length ; i++) ... */\n      iszero\n      tag_87\n      jumpi\n        /* \"Voting.sol\":600:609  senderMap */\n      0x00\n        /* \"Voting.sol\":610:614  keys */\n      0x01\n        /* \"Voting.sol\":615:616  i */\n      dup3\n        /* \"Voting.sol\":610:617  keys[i] */\n      dup2\n      sload\n      dup2\n      lt\n      tag_89\n      jumpi\n      tag_90\n      tag_70\n      jump\t// in\n    tag_90:\n    tag_89:\n      swap1\n      0x00\n      mstore\n      keccak256(0x00, 0x20)\n      add\n        /* \"Voting.sol\":600:618  senderMap[keys[i]] */\n      mload(0x40)\n      tag_92\n      swap2\n      swap1\n      tag_93\n      jump\t// in\n    tag_92:\n      swap1\n      dup2\n      mstore\n      0x20\n      add\n      mload(0x40)\n      dup1\n      swap2\n      sub\n      swap1\n      keccak256\n        /* \"Voting.sol\":593:618  delete senderMap[keys[i]] */\n      0x00\n      swap1\n      sstore\n        /* \"Voting.sol\":563:566  i++ */\n      dup1\n      dup1\n      0x01\n      add\n      swap2\n      pop\n      pop\n        /* \"Voting.sol\":525:630  for (uint256 i = 0; i < keys.length ; i++) ... */\n      jump(tag_86)\n    tag_87:\n      pop\n        /* \"Voting.sol\":647:651  keys */\n      0x01\n      0x00\n        /* \"Voting.sol\":640:651  delete keys */\n      tag_94\n      swap2\n      swap1\n      tag_95\n      jump\t// in\n    tag_94:\n        /* \"Voting.sol\":485:659  function resetVotes() public {... */\n      jump\t// out\n        /* \"Voting.sol\":1159:1770  function romanToInt(string memory s) public view returns(uint) {... */\n    tag_43:\n        /* \"Voting.sol\":1216:1220  uint */\n      0x00\n        /* \"Voting.sol\":1243:1267  bytes memory stringBytes */\n      0x00\n        /* \"Voting.sol\":1276:1277  s */\n      dup3\n        /* \"Voting.sol\":1243:1278  bytes memory stringBytes = bytes(s) */\n      swap1\n      pop\n        /* \"Voting.sol\":1289:1299  uint total */\n      0x00\n        /* \"Voting.sol\":1302:1303  0 */\n      0x00\n        /* \"Voting.sol\":1289:1303  uint total = 0 */\n      swap1\n      pop\n        /* \"Voting.sol\":1321:1327  uint i */\n      0x00\n        /* \"Voting.sol\":1330:1331  0 */\n      0x00\n        /* \"Voting.sol\":1321:1331  uint i = 0 */\n      swap1\n      pop\n        /* \"Voting.sol\":1316:1738  for (uint i = 0; i < stringBytes.length; i++) {... */\n    tag_97:\n        /* \"Voting.sol\":1337:1348  stringBytes */\n      dup3\n        /* \"Voting.sol\":1337:1355  stringBytes.length */\n      mload\n        /* \"Voting.sol\":1333:1334  i */\n      dup2\n        /* \"Voting.sol\":1333:1355  i < stringBytes.length */\n      lt\n        /* \"Voting.sol\":1316:1738  for (uint i = 0; i < stringBytes.length; i++) {... */\n      iszero\n      tag_98\n      jumpi\n        /* \"Voting.sol\":1377:1387  uint value */\n      0x00\n        /* \"Voting.sol\":1390:1393  map */\n      0x02\n        /* \"Voting.sol\":1390:1409  map[stringBytes[i]] */\n      0x00\n        /* \"Voting.sol\":1394:1405  stringBytes */\n      dup6\n        /* \"Voting.sol\":1406:1407  i */\n      dup5\n        /* \"Voting.sol\":1394:1408  stringBytes[i] */\n      dup2\n      mload\n      dup2\n      lt\n      tag_100\n      jumpi\n      tag_101\n      tag_70\n      jump\t// in\n    tag_101:\n    tag_100:\n      0x20\n      add\n      add\n      mload\n      0xf8\n      shr\n      0xf8\n      shl\n        /* \"Voting.sol\":1390:1409  map[stringBytes[i]] */\n      not(0xffffffffffffffffffffffffffffffffffffffffffffffffffffffffffffff)\n      and\n      not(0xffffffffffffffffffffffffffffffffffffffffffffffffffffffffffffff)\n      and\n      dup2\n      mstore\n      0x20\n      add\n      swap1\n      dup2\n      mstore\n      0x20\n      add\n      0x00\n      keccak256\n      sload\n        /* \"Voting.sol\":1377:1409  uint value = map[stringBytes[i]] */\n      swap1\n      pop\n        /* \"Voting.sol\":1554:1565  stringBytes */\n      dup4\n        /* \"Voting.sol\":1554:1572  stringBytes.length */\n      mload\n        /* \"Voting.sol\":1550:1551  1 */\n      0x01\n        /* \"Voting.sol\":1546:1547  i */\n      dup4\n        /* \"Voting.sol\":1546:1551  i + 1 */\n      tag_102\n      swap2\n      swap1\n      tag_103\n      jump\t// in\n    tag_102:\n        /* \"Voting.sol\":1546:1572  i + 1 < stringBytes.length */\n      lt\n        /* \"Voting.sol\":1546:1621  i + 1 < stringBytes.length && map[stringBytes[i]] < map[stringBytes[i + 1]] */\n      dup1\n      iszero\n      tag_104\n      jumpi\n      pop\n        /* \"Voting.sol\":1598:1601  map */\n      0x02\n        /* \"Voting.sol\":1598:1621  map[stringBytes[i + 1]] */\n      0x00\n        /* \"Voting.sol\":1602:1613  stringBytes */\n      dup6\n        /* \"Voting.sol\":1618:1619  1 */\n      0x01\n        /* \"Voting.sol\":1614:1615  i */\n      dup6\n        /* \"Voting.sol\":1614:1619  i + 1 */\n      tag_105\n      swap2\n      swap1\n      tag_103\n      jump\t// in\n    tag_105:\n        /* \"Voting.sol\":1602:1620  stringBytes[i + 1] */\n      dup2\n      mload\n      dup2\n      lt\n      tag_106\n      jumpi\n      tag_107\n      tag_70\n      jump\t// in\n    tag_107:\n    tag_106:\n      0x20\n      add\n      add\n      mload\n      0xf8\n      shr\n      0xf8\n      shl\n        /* \"Voting.sol\":1598:1621  map[stringBytes[i + 1]] */\n      not(0xffffffffffffffffffffffffffffffffffffffffffffffffffffffffffffff)\n      and\n      not(0xffffffffffffffffffffffffffffffffffffffffffffffffffffffffffffff)\n      and\n      dup2\n      mstore\n      0x20\n      add\n      swap1\n      dup2\n      mstore\n      0x20\n      add\n      0x00\n      keccak256\n      sload\n        /* \"Voting.sol\":1576:1579  map */\n      0x02\n        /* \"Voting.sol\":1576:1595  map[stringBytes[i]] */\n      0x00\n        /* \"Voting.sol\":1580:1591  stringBytes */\n      dup7\n        /* \"Voting.sol\":1592:1593  i */\n      dup6\n        /* \"Voting.sol\":1580:1594  stringBytes[i] */\n      dup2\n      mload\n      dup2\n      lt\n      tag_108\n      jumpi\n      tag_109\n      tag_70\n      jump\t// in\n    tag_109:\n    tag_108:\n      0x20\n      add\n      add\n      mload\n      0xf8\n      shr\n      0xf8\n      shl\n        /* \"Voting.sol\":1576:1595  map[stringBytes[i]] */\n      not(0xffffffffffffffffffffffffffffffffffffffffffffffffffffffffffffff)\n      and\n      not(0xffffffffffffffffffffffffffffffffffffffffffffffffffffffffffffff)\n      and\n      dup2\n      mstore\n      0x20\n      add\n      swap1\n      dup2\n      mstore\n      0x20\n      add\n      0x00\n      keccak256\n      sload\n        /* \"Voting.sol\":1576:1621  map[stringBytes[i]] < map[stringBytes[i + 1]] */\n      lt\n        /* \"Voting.sol\":1546:1621  i + 1 < stringBytes.length && map[stringBytes[i]] < map[stringBytes[i + 1]] */\n    tag_104:\n        /* \"Voting.sol\":1542:1727  if (i + 1 < stringBytes.length && map[stringBytes[i]] < map[stringBytes[i + 1]]) {... */\n      iszero\n      tag_110\n      jumpi\n        /* \"Voting.sol\":1651:1656  value */\n      dup1\n        /* \"Voting.sol\":1642:1656  total -= value */\n      dup4\n      tag_111\n      swap2\n      swap1\n      tag_81\n      jump\t// in\n    tag_111:\n      swap3\n      pop\n        /* \"Voting.sol\":1542:1727  if (i + 1 < stringBytes.length && map[stringBytes[i]] < map[stringBytes[i + 1]]) {... */\n      jump(tag_112)\n    tag_110:\n        /* \"Voting.sol\":1706:1711  value */\n      dup1\n        /* \"Voting.sol\":1697:1711  total += value */\n      dup4\n      tag_113\n      swap2\n      swap1\n      tag_103\n      jump\t// in\n    tag_113:\n      swap3\n      pop\n        /* \"Voting.sol\":1542:1727  if (i + 1 < stringBytes.length && map[stringBytes[i]] < map[stringBytes[i + 1]]) {... */\n    tag_112:\n        /* \"Voting.sol\":1362:1738  {... */\n      pop\n        /* \"Voting.sol\":1357:1360  i++ */\n      dup1\n      dup1\n      0x01\n      add\n      swap2\n      pop\n      pop\n        /* \"Voting.sol\":1316:1738  for (uint i = 0; i < stringBytes.length; i++) {... */\n      jump(tag_97)\n    tag_98:\n      pop\n        /* \"Voting.sol\":1757:1762  total */\n      dup1\n        /* \"Voting.sol\":1750:1762  return total */\n      swap3\n      pop\n      pop\n      pop\n        /* \"Voting.sol\":1159:1770  function romanToInt(string memory s) public view returns(uint) {... */\n      swap2\n      swap1\n      pop\n      jump\t// out\n        /* \"Voting.sol\":667:1101  function RevertString(string memory str) public pure returns(string memory) {... */\n    tag_47:\n        /* \"Voting.sol\":728:741  string memory */\n      0x60\n        /* \"Voting.sol\":754:778  bytes memory stringBytes */\n      0x00\n        /* \"Voting.sol\":787:790  str */\n      dup3\n        /* \"Voting.sol\":754:791  bytes memory stringBytes = bytes(str) */\n      swap1\n      pop\n        /* \"Voting.sol\":828:829  0 */\n      0x00\n        /* \"Voting.sol\":806:817  stringBytes */\n      dup2\n        /* \"Voting.sol\":806:824  stringBytes.length */\n      mload\n        /* \"Voting.sol\":806:829  stringBytes.length == 0 */\n      sub\n        /* \"Voting.sol\":802:867  if (stringBytes.length == 0){... */\n      tag_115\n      jumpi\n        /* \"Voting.sol\":852:855  str */\n      dup3\n        /* \"Voting.sol\":845:855  return str */\n      swap2\n      pop\n      pop\n      jump(tag_114)\n        /* \"Voting.sol\":802:867  if (stringBytes.length == 0){... */\n    tag_115:\n        /* \"Voting.sol\":877:896  bytes memory result */\n      0x00\n        /* \"Voting.sol\":909:920  stringBytes */\n      dup2\n        /* \"Voting.sol\":909:927  stringBytes.length */\n      mload\n        /* \"Voting.sol\":899:928  new bytes(stringBytes.length) */\n      0xffffffffffffffff\n      dup2\n      gt\n      iszero\n      tag_116\n      jumpi\n      tag_117\n      tag_118\n      jump\t// in\n    tag_117:\n    tag_116:\n      mload(0x40)\n      swap1\n      dup1\n      dup3\n      mstore\n      dup1\n      0x1f\n      add\n      not(0x1f)\n      and\n      0x20\n      add\n      dup3\n      add\n      0x40\n      mstore\n      dup1\n      iszero\n      tag_119\n      jumpi\n      dup2\n      0x20\n      add\n      0x01\n      dup3\n      mul\n      dup1\n      calldatasize\n      dup4\n      calldatacopy\n      dup1\n      dup3\n      add\n      swap2\n      pop\n      pop\n      swap1\n      pop\n    tag_119:\n      pop\n        /* \"Voting.sol\":877:928  bytes memory result = new bytes(stringBytes.length) */\n      swap1\n      pop\n        /* \"Voting.sol\":943:952  uint256 i */\n      0x00\n        /* \"Voting.sol\":955:956  0 */\n      0x00\n        /* \"Voting.sol\":943:956  uint256 i = 0 */\n      swap1\n      pop\n        /* \"Voting.sol\":939:1062  for(uint256 i = 0;i < stringBytes.length;i++){... */\n    tag_120:\n        /* \"Voting.sol\":961:972  stringBytes */\n      dup3\n        /* \"Voting.sol\":961:979  stringBytes.length */\n      mload\n        /* \"Voting.sol\":957:958  i */\n      dup2\n        /* \"Voting.sol\":957:979  i < stringBytes.length */\n      lt\n        /* \"Voting.sol\":939:1062  for(uint256 i = 0;i < stringBytes.length;i++){... */\n      iszero\n      tag_121\n      jumpi\n        /* \"Voting.sol\":1011:1022  stringBytes */\n      dup3\n        /* \"Voting.sol\":1048:1049  i */\n      dup2\n        /* \"Voting.sol\":1044:1045  1 */\n      0x01\n        /* \"Voting.sol\":1023:1034  stringBytes */\n      dup6\n        /* \"Voting.sol\":1023:1041  stringBytes.length */\n      mload\n        /* \"Voting.sol\":1023:1045  stringBytes.length - 1 */\n      tag_123\n      swap2\n      swap1\n      tag_81\n      jump\t// in\n    tag_123:\n        /* \"Voting.sol\":1023:1049  stringBytes.length - 1 - i */\n      tag_124\n      swap2\n      swap1\n      tag_81\n      jump\t// in\n    tag_124:\n        /* \"Voting.sol\":1011:1050  stringBytes[stringBytes.length - 1 - i] */\n      dup2\n      mload\n      dup2\n      lt\n      tag_125\n      jumpi\n      tag_126\n      tag_70\n      jump\t// in\n    tag_126:\n    tag_125:\n      0x20\n      add\n      add\n      mload\n      0xf8\n      shr\n      0xf8\n      shl\n        /* \"Voting.sol\":999:1005  result */\n      dup3\n        /* \"Voting.sol\":1006:1007  i */\n      dup3\n        /* \"Voting.sol\":999:1008  result[i] */\n      dup2\n      mload\n      dup2\n      lt\n      tag_127\n      jumpi\n      tag_128\n      tag_70\n      jump\t// in\n    tag_128:\n    tag_127:\n      0x20\n      add\n      add\n        /* \"Voting.sol\":999:1050  result[i] = stringBytes[stringBytes.length - 1 - i] */\n      swap1\n      not(0xffffffffffffffffffffffffffffffffffffffffffffffffffffffffffffff)\n      and\n      swap1\n      dup2\n      0x00\n      byte\n      swap1\n      mstore8\n      pop\n        /* \"Voting.sol\":980:983  i++ */\n      dup1\n      dup1\n      0x01\n      add\n      swap2\n      pop\n      pop\n        /* \"Voting.sol\":939:1062  for(uint256 i = 0;i < stringBytes.length;i++){... */\n      jump(tag_120)\n    tag_121:\n      pop\n        /* \"Voting.sol\":1086:1092  result */\n      dup1\n        /* \"Voting.sol\":1072:1093  return string(result) */\n      swap3\n      pop\n      pop\n      pop\n        /* \"Voting.sol\":667:1101  function RevertString(string memory str) public pure returns(string memory) {... */\n    tag_114:\n      swap2\n      swap1\n      pop\n      jump\t// out\n        /* \"Voting.sol\":169:361  function vote (string memory name) public returns(bool){... */\n    tag_51:\n        /* \"Voting.sol\":219:223  bool */\n      0x00\n        /* \"Voting.sol\":257:258  0 */\n      0x00\n        /* \"Voting.sol\":238:247  senderMap */\n      0x00\n        /* \"Voting.sol\":248:252  name */\n      dup4\n        /* \"Voting.sol\":238:253  senderMap[name] */\n      mload(0x40)\n      tag_130\n      swap2\n      swap1\n      tag_84\n      jump\t// in\n    tag_130:\n      swap1\n      dup2\n      mstore\n      0x20\n      add\n      mload(0x40)\n      dup1\n      swap2\n      sub\n      swap1\n      keccak256\n      sload\n        /* \"Voting.sol\":238:258  senderMap[name] == 0 */\n      sub\n        /* \"Voting.sol\":235:301  if(senderMap[name] == 0){... */\n      tag_131\n      jumpi\n        /* \"Voting.sol\":274:278  keys */\n      0x01\n        /* \"Voting.sol\":284:288  name */\n      dup3\n        /* \"Voting.sol\":274:289  keys.push(name) */\n      swap1\n      dup1\n      0x01\n      dup2\n      sload\n      add\n      dup1\n      dup3\n      sstore\n      dup1\n      swap2\n      pop\n      pop\n      0x01\n      swap1\n      sub\n      swap1\n      0x00\n      mstore\n      keccak256(0x00, 0x20)\n      add\n      0x00\n      swap1\n      swap2\n      swap1\n      swap2\n      swap1\n      swap2\n      pop\n      swap1\n      dup2\n      tag_133\n      swap2\n      swap1\n      tag_134\n      jump\t// in\n    tag_133:\n      pop\n        /* \"Voting.sol\":235:301  if(senderMap[name] == 0){... */\n    tag_131:\n        /* \"Voting.sol\":330:331  1 */\n      0x01\n        /* \"Voting.sol\":311:320  senderMap */\n      0x00\n        /* \"Voting.sol\":321:325  name */\n      dup4\n        /* \"Voting.sol\":311:326  senderMap[name] */\n      mload(0x40)\n      tag_135\n      swap2\n      swap1\n      tag_84\n      jump\t// in\n    tag_135:\n      swap1\n      dup2\n      mstore\n      0x20\n      add\n      mload(0x40)\n      dup1\n      swap2\n      sub\n      swap1\n      keccak256\n      0x00\n        /* \"Voting.sol\":311:331  senderMap[name] += 1 */\n      dup3\n      dup3\n      sload\n      tag_136\n      swap2\n      swap1\n      tag_137\n      jump\t// in\n    tag_136:\n      swap3\n      pop\n      pop\n      dup2\n      swap1\n      sstore\n      pop\n        /* \"Voting.sol\":349:353  true */\n      0x01\n        /* \"Voting.sol\":342:353  return true */\n      swap1\n      pop\n        /* \"Voting.sol\":169:361  function vote (string memory name) public returns(bool){... */\n      swap2\n      swap1\n      pop\n      jump\t// out\n    tag_95:\n      pop\n      dup1\n      sload\n      0x00\n      dup3\n      sstore\n      swap1\n      0x00\n      mstore\n      keccak256(0x00, 0x20)\n      swap1\n      dup2\n      add\n      swap1\n      tag_139\n      swap2\n      swap1\n      tag_140\n      jump\t// in\n    tag_139:\n      pop\n      jump\t// out\n    tag_140:\n    tag_141:\n      dup1\n      dup3\n      gt\n      iszero\n      tag_142\n      jumpi\n      0x00\n      dup2\n      dup2\n      tag_143\n      swap2\n      swap1\n      tag_144\n      jump\t// in\n    tag_143:\n      pop\n      0x01\n      add\n      jump(tag_141)\n    tag_142:\n      pop\n      swap1\n      jump\t// out\n    tag_144:\n      pop\n      dup1\n      sload\n      tag_145\n      swap1\n      tag_57\n      jump\t// in\n    tag_145:\n      0x00\n      dup3\n      sstore\n      dup1\n      0x1f\n      lt\n      tag_147\n      jumpi\n      pop\n      jump(tag_146)\n    tag_147:\n      0x1f\n      add\n      0x20\n      swap1\n      div\n      swap1\n      0x00\n      mstore\n      keccak256(0x00, 0x20)\n      swap1\n      dup2\n      add\n      swap1\n      tag_148\n      swap2\n      swap1\n      tag_149\n      jump\t// in\n    tag_148:\n    tag_146:\n      pop\n      jump\t// out\n    tag_149:\n    tag_150:\n      dup1\n      dup3\n      gt\n      iszero\n      tag_151\n      jumpi\n      0x00\n      dup2\n      0x00\n      swap1\n      sstore\n      pop\n      0x01\n      add\n      jump(tag_150)\n    tag_151:\n      pop\n      swap1\n      jump\t// out\n        /* \"#utility.yul\":7:82   */\n    tag_152:\n        /* \"#utility.yul\":40:46   */\n      0x00\n        /* \"#utility.yul\":73:75   */\n      0x40\n        /* \"#utility.yul\":67:76   */\n      mload\n        /* \"#utility.yul\":57:76   */\n      swap1\n      pop\n        /* \"#utility.yul\":7:82   */\n      swap1\n      jump\t// out\n        /* \"#utility.yul\":88:205   */\n    tag_153:\n        /* \"#utility.yul\":197:198   */\n      0x00\n        /* \"#utility.yul\":194:195   */\n      0x00\n        /* \"#utility.yul\":187:199   */\n      revert\n        /* \"#utility.yul\":211:328   */\n    tag_154:\n        /* \"#utility.yul\":320:321   */\n      0x00\n        /* \"#utility.yul\":317:318   */\n      0x00\n        /* \"#utility.yul\":310:322   */\n      revert\n        /* \"#utility.yul\":334:411   */\n    tag_155:\n        /* \"#utility.yul\":371:378   */\n      0x00\n        /* \"#utility.yul\":400:405   */\n      dup2\n        /* \"#utility.yul\":389:405   */\n      swap1\n      pop\n        /* \"#utility.yul\":334:411   */\n      swap2\n      swap1\n      pop\n      jump\t// out\n        /* \"#utility.yul\":417:539   */\n    tag_156:\n        /* \"#utility.yul\":490:514   */\n      tag_205\n        /* \"#utility.yul\":508:513   */\n      dup2\n        /* \"#utility.yul\":490:514   */\n      tag_155\n      jump\t// in\n    tag_205:\n        /* \"#utility.yul\":483:488   */\n      dup2\n        /* \"#utility.yul\":480:515   */\n      eq\n        /* \"#utility.yul\":470:533   */\n      tag_206\n      jumpi\n        /* \"#utility.yul\":529:530   */\n      0x00\n        /* \"#utility.yul\":526:527   */\n      0x00\n        /* \"#utility.yul\":519:531   */\n      revert\n        /* \"#utility.yul\":470:533   */\n    tag_206:\n        /* \"#utility.yul\":417:539   */\n      pop\n      jump\t// out\n        /* \"#utility.yul\":545:684   */\n    tag_157:\n        /* \"#utility.yul\":591:596   */\n      0x00\n        /* \"#utility.yul\":629:635   */\n      dup2\n        /* \"#utility.yul\":616:636   */\n      calldataload\n        /* \"#utility.yul\":607:636   */\n      swap1\n      pop\n        /* \"#utility.yul\":645:678   */\n      tag_208\n        /* \"#utility.yul\":672:677   */\n      dup2\n        /* \"#utility.yul\":645:678   */\n      tag_156\n      jump\t// in\n    tag_208:\n        /* \"#utility.yul\":545:684   */\n      swap3\n      swap2\n      pop\n      pop\n      jump\t// out\n        /* \"#utility.yul\":690:1019   */\n    tag_15:\n        /* \"#utility.yul\":749:755   */\n      0x00\n        /* \"#utility.yul\":798:800   */\n      0x20\n        /* \"#utility.yul\":786:795   */\n      dup3\n        /* \"#utility.yul\":777:784   */\n      dup5\n        /* \"#utility.yul\":773:796   */\n      sub\n        /* \"#utility.yul\":769:801   */\n      slt\n        /* \"#utility.yul\":766:885   */\n      iszero\n      tag_210\n      jumpi\n        /* \"#utility.yul\":804:883   */\n      tag_211\n      tag_153\n      jump\t// in\n    tag_211:\n        /* \"#utility.yul\":766:885   */\n    tag_210:\n        /* \"#utility.yul\":924:925   */\n      0x00\n        /* \"#utility.yul\":949:1002   */\n      tag_212\n        /* \"#utility.yul\":994:1001   */\n      dup5\n        /* \"#utility.yul\":985:991   */\n      dup3\n        /* \"#utility.yul\":974:983   */\n      dup6\n        /* \"#utility.yul\":970:992   */\n      add\n        /* \"#utility.yul\":949:1002   */\n      tag_157\n      jump\t// in\n    tag_212:\n        /* \"#utility.yul\":939:1002   */\n      swap2\n      pop\n        /* \"#utility.yul\":895:1012   */\n      pop\n        /* \"#utility.yul\":690:1019   */\n      swap3\n      swap2\n      pop\n      pop\n      jump\t// out\n        /* \"#utility.yul\":1025:1124   */\n    tag_158:\n        /* \"#utility.yul\":1077:1083   */\n      0x00\n        /* \"#utility.yul\":1111:1116   */\n      dup2\n        /* \"#utility.yul\":1105:1117   */\n      mload\n        /* \"#utility.yul\":1095:1117   */\n      swap1\n      pop\n        /* \"#utility.yul\":1025:1124   */\n      swap2\n      swap1\n      pop\n      jump\t// out\n        /* \"#utility.yul\":1130:1299   */\n    tag_159:\n        /* \"#utility.yul\":1214:1225   */\n      0x00\n        /* \"#utility.yul\":1248:1254   */\n      dup3\n        /* \"#utility.yul\":1243:1246   */\n      dup3\n        /* \"#utility.yul\":1236:1255   */\n      mstore\n        /* \"#utility.yul\":1288:1292   */\n      0x20\n        /* \"#utility.yul\":1283:1286   */\n      dup3\n        /* \"#utility.yul\":1279:1293   */\n      add\n        /* \"#utility.yul\":1264:1293   */\n      swap1\n      pop\n        /* \"#utility.yul\":1130:1299   */\n      swap3\n      swap2\n      pop\n      pop\n      jump\t// out\n        /* \"#utility.yul\":1305:1444   */\n    tag_160:\n        /* \"#utility.yul\":1394:1400   */\n      dup3\n        /* \"#utility.yul\":1389:1392   */\n      dup2\n        /* \"#utility.yul\":1384:1387   */\n      dup4\n        /* \"#utility.yul\":1378:1401   */\n      mcopy\n        /* \"#utility.yul\":1435:1436   */\n      0x00\n        /* \"#utility.yul\":1426:1432   */\n      dup4\n        /* \"#utility.yul\":1421:1424   */\n      dup4\n        /* \"#utility.yul\":1417:1433   */\n      add\n        /* \"#utility.yul\":1410:1437   */\n      mstore\n        /* \"#utility.yul\":1305:1444   */\n      pop\n      pop\n      pop\n      jump\t// out\n        /* \"#utility.yul\":1450:1552   */\n    tag_161:\n        /* \"#utility.yul\":1491:1497   */\n      0x00\n        /* \"#utility.yul\":1542:1544   */\n      0x1f\n        /* \"#utility.yul\":1538:1545   */\n      not\n        /* \"#utility.yul\":1533:1535   */\n      0x1f\n        /* \"#utility.yul\":1526:1531   */\n      dup4\n        /* \"#utility.yul\":1522:1536   */\n      add\n        /* \"#utility.yul\":1518:1546   */\n      and\n        /* \"#utility.yul\":1508:1546   */\n      swap1\n      pop\n        /* \"#utility.yul\":1450:1552   */\n      swap2\n      swap1\n      pop\n      jump\t// out\n        /* \"#utility.yul\":1558:1935   */\n    tag_162:\n        /* \"#utility.yul\":1646:1649   */\n      0x00\n        /* \"#utility.yul\":1674:1713   */\n      tag_218\n        /* \"#utility.yul\":1707:1712   */\n      dup3\n        /* \"#utility.yul\":1674:1713   */\n      tag_158\n      jump\t// in\n    tag_218:\n        /* \"#utility.yul\":1729:1800   */\n      tag_219\n        /* \"#utility.yul\":1793:1799   */\n      dup2\n        /* \"#utility.yul\":1788:1791   */\n      dup6\n        /* \"#utility.yul\":1729:1800   */\n      tag_159\n      jump\t// in\n    tag_219:\n        /* \"#utility.yul\":1722:1800   */\n      swap4\n      pop\n        /* \"#utility.yul\":1809:1874   */\n      tag_220\n        /* \"#utility.yul\":1867:1873   */\n      dup2\n        /* \"#utility.yul\":1862:1865   */\n      dup6\n        /* \"#utility.yul\":1855:1859   */\n      0x20\n        /* \"#utility.yul\":1848:1853   */\n      dup7\n        /* \"#utility.yul\":1844:1860   */\n      add\n        /* \"#utility.yul\":1809:1874   */\n      tag_160\n      jump\t// in\n    tag_220:\n        /* \"#utility.yul\":1899:1928   */\n      tag_221\n        /* \"#utility.yul\":1921:1927   */\n      dup2\n        /* \"#utility.yul\":1899:1928   */\n      tag_161\n      jump\t// in\n    tag_221:\n        /* \"#utility.yul\":1894:1897   */\n      dup5\n        /* \"#utility.yul\":1890:1929   */\n      add\n        /* \"#utility.yul\":1883:1929   */\n      swap2\n      pop\n        /* \"#utility.yul\":1650:1935   */\n      pop\n        /* \"#utility.yul\":1558:1935   */\n      swap3\n      swap2\n      pop\n      pop\n      jump\t// out\n        /* \"#utility.yul\":1941:2254   */\n    tag_18:\n        /* \"#utility.yul\":2054:2058   */\n      0x00\n        /* \"#utility.yul\":2092:2094   */\n      0x20\n        /* \"#utility.yul\":2081:2090   */\n      dup3\n        /* \"#utility.yul\":2077:2095   */\n      add\n        /* \"#utility.yul\":2069:2095   */\n      swap1\n      pop\n        /* \"#utility.yul\":2141:2150   */\n      dup2\n        /* \"#utility.yul\":2135:2139   */\n      dup2\n        /* \"#utility.yul\":2131:2151   */\n      sub\n        /* \"#utility.yul\":2127:2128   */\n      0x00\n        /* \"#utility.yul\":2116:2125   */\n      dup4\n        /* \"#utility.yul\":2112:2129   */\n      add\n        /* \"#utility.yul\":2105:2152   */\n      mstore\n        /* \"#utility.yul\":2169:2247   */\n      tag_223\n        /* \"#utility.yul\":2242:2246   */\n      dup2\n        /* \"#utility.yul\":2233:2239   */\n      dup5\n        /* \"#utility.yul\":2169:2247   */\n      tag_162\n      jump\t// in\n    tag_223:\n        /* \"#utility.yul\":2161:2247   */\n      swap1\n      pop\n        /* \"#utility.yul\":1941:2254   */\n      swap3\n      swap2\n      pop\n      pop\n      jump\t// out\n        /* \"#utility.yul\":2260:2377   */\n    tag_163:\n        /* \"#utility.yul\":2369:2370   */\n      0x00\n        /* \"#utility.yul\":2366:2367   */\n      0x00\n        /* \"#utility.yul\":2359:2371   */\n      revert\n        /* \"#utility.yul\":2383:2500   */\n    tag_164:\n        /* \"#utility.yul\":2492:2493   */\n      0x00\n        /* \"#utility.yul\":2489:2490   */\n      0x00\n        /* \"#utility.yul\":2482:2494   */\n      revert\n        /* \"#utility.yul\":2506:2686   */\n    tag_118:\n        /* \"#utility.yul\":2554:2631   */\n      0x4e487b7100000000000000000000000000000000000000000000000000000000\n        /* \"#utility.yul\":2551:2552   */\n      0x00\n        /* \"#utility.yul\":2544:2632   */\n      mstore\n        /* \"#utility.yul\":2651:2655   */\n      0x41\n        /* \"#utility.yul\":2648:2649   */\n      0x04\n        /* \"#utility.yul\":2641:2656   */\n      mstore\n        /* \"#utility.yul\":2675:2679   */\n      0x24\n        /* \"#utility.yul\":2672:2673   */\n      0x00\n        /* \"#utility.yul\":2665:2680   */\n      revert\n        /* \"#utility.yul\":2692:2973   */\n    tag_165:\n        /* \"#utility.yul\":2775:2802   */\n      tag_228\n        /* \"#utility.yul\":2797:2801   */\n      dup3\n        /* \"#utility.yul\":2775:2802   */\n      tag_161\n      jump\t// in\n    tag_228:\n        /* \"#utility.yul\":2767:2773   */\n      dup2\n        /* \"#utility.yul\":2763:2803   */\n      add\n        /* \"#utility.yul\":2905:2911   */\n      dup2\n        /* \"#utility.yul\":2893:2903   */\n      dup2\n        /* \"#utility.yul\":2890:2912   */\n      lt\n        /* \"#utility.yul\":2869:2887   */\n      0xffffffffffffffff\n        /* \"#utility.yul\":2857:2867   */\n      dup3\n        /* \"#utility.yul\":2854:2888   */\n      gt\n        /* \"#utility.yul\":2851:2913   */\n      or\n        /* \"#utility.yul\":2848:2936   */\n      iszero\n      tag_229\n      jumpi\n        /* \"#utility.yul\":2916:2934   */\n      tag_230\n      tag_118\n      jump\t// in\n    tag_230:\n        /* \"#utility.yul\":2848:2936   */\n    tag_229:\n        /* \"#utility.yul\":2956:2966   */\n      dup1\n        /* \"#utility.yul\":2952:2954   */\n      0x40\n        /* \"#utility.yul\":2945:2967   */\n      mstore\n        /* \"#utility.yul\":2735:2973   */\n      pop\n        /* \"#utility.yul\":2692:2973   */\n      pop\n      pop\n      jump\t// out\n        /* \"#utility.yul\":2979:3108   */\n    tag_166:\n        /* \"#utility.yul\":3013:3019   */\n      0x00\n        /* \"#utility.yul\":3040:3060   */\n      tag_232\n      tag_152\n      jump\t// in\n    tag_232:\n        /* \"#utility.yul\":3030:3060   */\n      swap1\n      pop\n        /* \"#utility.yul\":3069:3102   */\n      tag_233\n        /* \"#utility.yul\":3097:3101   */\n      dup3\n        /* \"#utility.yul\":3089:3095   */\n      dup3\n        /* \"#utility.yul\":3069:3102   */\n      tag_165\n      jump\t// in\n    tag_233:\n        /* \"#utility.yul\":2979:3108   */\n      swap2\n      swap1\n      pop\n      jump\t// out\n        /* \"#utility.yul\":3114:3422   */\n    tag_167:\n        /* \"#utility.yul\":3176:3180   */\n      0x00\n        /* \"#utility.yul\":3266:3284   */\n      0xffffffffffffffff\n        /* \"#utility.yul\":3258:3264   */\n      dup3\n        /* \"#utility.yul\":3255:3285   */\n      gt\n        /* \"#utility.yul\":3252:3308   */\n      iszero\n      tag_235\n      jumpi\n        /* \"#utility.yul\":3288:3306   */\n      tag_236\n      tag_118\n      jump\t// in\n    tag_236:\n        /* \"#utility.yul\":3252:3308   */\n    tag_235:\n        /* \"#utility.yul\":3326:3355   */\n      tag_237\n        /* \"#utility.yul\":3348:3354   */\n      dup3\n        /* \"#utility.yul\":3326:3355   */\n      tag_161\n      jump\t// in\n    tag_237:\n        /* \"#utility.yul\":3318:3355   */\n      swap1\n      pop\n        /* \"#utility.yul\":3410:3414   */\n      0x20\n        /* \"#utility.yul\":3404:3408   */\n      dup2\n        /* \"#utility.yul\":3400:3415   */\n      add\n        /* \"#utility.yul\":3392:3415   */\n      swap1\n      pop\n        /* \"#utility.yul\":3114:3422   */\n      swap2\n      swap1\n      pop\n      jump\t// out\n        /* \"#utility.yul\":3428:3576   */\n    tag_168:\n        /* \"#utility.yul\":3526:3532   */\n      dup3\n        /* \"#utility.yul\":3521:3524   */\n      dup2\n        /* \"#utility.yul\":3516:3519   */\n      dup4\n        /* \"#utility.yul\":3503:3533   */\n      calldatacopy\n        /* \"#utility.yul\":3567:3568   */\n      0x00\n        /* \"#utility.yul\":3558:3564   */\n      dup4\n        /* \"#utility.yul\":3553:3556   */\n      dup4\n        /* \"#utility.yul\":3549:3565   */\n      add\n        /* \"#utility.yul\":3542:3569   */\n      mstore\n        /* \"#utility.yul\":3428:3576   */\n      pop\n      pop\n      pop\n      jump\t// out\n        /* \"#utility.yul\":3582:4007   */\n    tag_169:\n        /* \"#utility.yul\":3660:3665   */\n      0x00\n        /* \"#utility.yul\":3685:3751   */\n      tag_240\n        /* \"#utility.yul\":3701:3750   */\n      tag_241\n        /* \"#utility.yul\":3743:3749   */\n      dup5\n        /* \"#utility.yul\":3701:3750   */\n      tag_167\n      jump\t// in\n    tag_241:\n        /* \"#utility.yul\":3685:3751   */\n      tag_166\n      jump\t// in\n    tag_240:\n        /* \"#utility.yul\":3676:3751   */\n      swap1\n      pop\n        /* \"#utility.yul\":3774:3780   */\n      dup3\n        /* \"#utility.yul\":3767:3772   */\n      dup2\n        /* \"#utility.yul\":3760:3781   */\n      mstore\n        /* \"#utility.yul\":3812:3816   */\n      0x20\n        /* \"#utility.yul\":3805:3810   */\n      dup2\n        /* \"#utility.yul\":3801:3817   */\n      add\n        /* \"#utility.yul\":3850:3853   */\n      dup5\n        /* \"#utility.yul\":3841:3847   */\n      dup5\n        /* \"#utility.yul\":3836:3839   */\n      dup5\n        /* \"#utility.yul\":3832:3848   */\n      add\n        /* \"#utility.yul\":3829:3854   */\n      gt\n        /* \"#utility.yul\":3826:3938   */\n      iszero\n      tag_242\n      jumpi\n        /* \"#utility.yul\":3857:3936   */\n      tag_243\n      tag_164\n      jump\t// in\n    tag_243:\n        /* \"#utility.yul\":3826:3938   */\n    tag_242:\n        /* \"#utility.yul\":3947:4001   */\n      tag_244\n        /* \"#utility.yul\":3994:4000   */\n      dup5\n        /* \"#utility.yul\":3989:3992   */\n      dup3\n        /* \"#utility.yul\":3984:3987   */\n      dup6\n        /* \"#utility.yul\":3947:4001   */\n      tag_168\n      jump\t// in\n    tag_244:\n        /* \"#utility.yul\":3666:4007   */\n      pop\n        /* \"#utility.yul\":3582:4007   */\n      swap4\n      swap3\n      pop\n      pop\n      pop\n      jump\t// out\n        /* \"#utility.yul\":4027:4367   */\n    tag_170:\n        /* \"#utility.yul\":4083:4088   */\n      0x00\n        /* \"#utility.yul\":4132:4135   */\n      dup3\n        /* \"#utility.yul\":4125:4129   */\n      0x1f\n        /* \"#utility.yul\":4117:4123   */\n      dup4\n        /* \"#utility.yul\":4113:4130   */\n      add\n        /* \"#utility.yul\":4109:4136   */\n      slt\n        /* \"#utility.yul\":4099:4221   */\n      tag_246\n      jumpi\n        /* \"#utility.yul\":4140:4219   */\n      tag_247\n      tag_163\n      jump\t// in\n    tag_247:\n        /* \"#utility.yul\":4099:4221   */\n    tag_246:\n        /* \"#utility.yul\":4257:4263   */\n      dup2\n        /* \"#utility.yul\":4244:4264   */\n      calldataload\n        /* \"#utility.yul\":4282:4361   */\n      tag_248\n        /* \"#utility.yul\":4357:4360   */\n      dup5\n        /* \"#utility.yul\":4349:4355   */\n      dup3\n        /* \"#utility.yul\":4342:4346   */\n      0x20\n        /* \"#utility.yul\":4334:4340   */\n      dup7\n        /* \"#utility.yul\":4330:4347   */\n      add\n        /* \"#utility.yul\":4282:4361   */\n      tag_169\n      jump\t// in\n    tag_248:\n        /* \"#utility.yul\":4273:4361   */\n      swap2\n      pop\n        /* \"#utility.yul\":4089:4367   */\n      pop\n        /* \"#utility.yul\":4027:4367   */\n      swap3\n      swap2\n      pop\n      pop\n      jump\t// out\n        /* \"#utility.yul\":4373:4882   */\n    tag_25:\n        /* \"#utility.yul\":4442:4448   */\n      0x00\n        /* \"#utility.yul\":4491:4493   */\n      0x20\n        /* \"#utility.yul\":4479:4488   */\n      dup3\n        /* \"#utility.yul\":4470:4477   */\n      dup5\n        /* \"#utility.yul\":4466:4489   */\n      sub\n        /* \"#utility.yul\":4462:4494   */\n      slt\n        /* \"#utility.yul\":4459:4578   */\n      iszero\n      tag_250\n      jumpi\n        /* \"#utility.yul\":4497:4576   */\n      tag_251\n      tag_153\n      jump\t// in\n    tag_251:\n        /* \"#utility.yul\":4459:4578   */\n    tag_250:\n        /* \"#utility.yul\":4645:4646   */\n      0x00\n        /* \"#utility.yul\":4634:4643   */\n      dup3\n        /* \"#utility.yul\":4630:4647   */\n      add\n        /* \"#utility.yul\":4617:4648   */\n      calldataload\n        /* \"#utility.yul\":4675:4693   */\n      0xffffffffffffffff\n        /* \"#utility.yul\":4667:4673   */\n      dup2\n        /* \"#utility.yul\":4664:4694   */\n      gt\n        /* \"#utility.yul\":4661:4778   */\n      iszero\n      tag_252\n      jumpi\n        /* \"#utility.yul\":4697:4776   */\n      tag_253\n      tag_154\n      jump\t// in\n    tag_253:\n        /* \"#utility.yul\":4661:4778   */\n    tag_252:\n        /* \"#utility.yul\":4802:4865   */\n      tag_254\n        /* \"#utility.yul\":4857:4864   */\n      dup5\n        /* \"#utility.yul\":4848:4854   */\n      dup3\n        /* \"#utility.yul\":4837:4846   */\n      dup6\n        /* \"#utility.yul\":4833:4855   */\n      add\n        /* \"#utility.yul\":4802:4865   */\n      tag_170\n      jump\t// in\n    tag_254:\n        /* \"#utility.yul\":4792:4865   */\n      swap2\n      pop\n        /* \"#utility.yul\":4588:4875   */\n      pop\n        /* \"#utility.yul\":4373:4882   */\n      swap3\n      swap2\n      pop\n      pop\n      jump\t// out\n        /* \"#utility.yul\":4888:4964   */\n    tag_171:\n        /* \"#utility.yul\":4924:4931   */\n      0x00\n        /* \"#utility.yul\":4953:4958   */\n      dup2\n        /* \"#utility.yul\":4942:4958   */\n      swap1\n      pop\n        /* \"#utility.yul\":4888:4964   */\n      swap2\n      swap1\n      pop\n      jump\t// out\n        /* \"#utility.yul\":4970:5085   */\n    tag_172:\n        /* \"#utility.yul\":5055:5078   */\n      tag_257\n        /* \"#utility.yul\":5072:5077   */\n      dup2\n        /* \"#utility.yul\":5055:5078   */\n      tag_171\n      jump\t// in\n    tag_257:\n        /* \"#utility.yul\":5050:5053   */\n      dup3\n        /* \"#utility.yul\":5043:5079   */\n      mstore\n        /* \"#utility.yul\":4970:5085   */\n      pop\n      pop\n      jump\t// out\n        /* \"#utility.yul\":5091:5309   */\n    tag_28:\n        /* \"#utility.yul\":5182:5186   */\n      0x00\n        /* \"#utility.yul\":5220:5222   */\n      0x20\n        /* \"#utility.yul\":5209:5218   */\n      dup3\n        /* \"#utility.yul\":5205:5223   */\n      add\n        /* \"#utility.yul\":5197:5223   */\n      swap1\n      pop\n        /* \"#utility.yul\":5233:5302   */\n      tag_259\n        /* \"#utility.yul\":5299:5300   */\n      0x00\n        /* \"#utility.yul\":5288:5297   */\n      dup4\n        /* \"#utility.yul\":5284:5301   */\n      add\n        /* \"#utility.yul\":5275:5281   */\n      dup5\n        /* \"#utility.yul\":5233:5302   */\n      tag_172\n      jump\t// in\n    tag_259:\n        /* \"#utility.yul\":5091:5309   */\n      swap3\n      swap2\n      pop\n      pop\n      jump\t// out\n        /* \"#utility.yul\":5315:5464   */\n    tag_173:\n        /* \"#utility.yul\":5351:5358   */\n      0x00\n        /* \"#utility.yul\":5391:5457   */\n      0xff00000000000000000000000000000000000000000000000000000000000000\n        /* \"#utility.yul\":5384:5389   */\n      dup3\n        /* \"#utility.yul\":5380:5458   */\n      and\n        /* \"#utility.yul\":5369:5458   */\n      swap1\n      pop\n        /* \"#utility.yul\":5315:5464   */\n      swap2\n      swap1\n      pop\n      jump\t// out\n        /* \"#utility.yul\":5470:5590   */\n    tag_174:\n        /* \"#utility.yul\":5542:5565   */\n      tag_262\n        /* \"#utility.yul\":5559:5564   */\n      dup2\n        /* \"#utility.yul\":5542:5565   */\n      tag_173\n      jump\t// in\n    tag_262:\n        /* \"#utility.yul\":5535:5540   */\n      dup2\n        /* \"#utility.yul\":5532:5566   */\n      eq\n        /* \"#utility.yul\":5522:5584   */\n      tag_263\n      jumpi\n        /* \"#utility.yul\":5580:5581   */\n      0x00\n        /* \"#utility.yul\":5577:5578   */\n      0x00\n        /* \"#utility.yul\":5570:5582   */\n      revert\n        /* \"#utility.yul\":5522:5584   */\n    tag_263:\n        /* \"#utility.yul\":5470:5590   */\n      pop\n      jump\t// out\n        /* \"#utility.yul\":5596:5733   */\n    tag_175:\n        /* \"#utility.yul\":5641:5646   */\n      0x00\n        /* \"#utility.yul\":5679:5685   */\n      dup2\n        /* \"#utility.yul\":5666:5686   */\n      calldataload\n        /* \"#utility.yul\":5657:5686   */\n      swap1\n      pop\n        /* \"#utility.yul\":5695:5727   */\n      tag_265\n        /* \"#utility.yul\":5721:5726   */\n      dup2\n        /* \"#utility.yul\":5695:5727   */\n      tag_174\n      jump\t// in\n    tag_265:\n        /* \"#utility.yul\":5596:5733   */\n      swap3\n      swap2\n      pop\n      pop\n      jump\t// out\n        /* \"#utility.yul\":5739:6066   */\n    tag_35:\n        /* \"#utility.yul\":5797:5803   */\n      0x00\n        /* \"#utility.yul\":5846:5848   */\n      0x20\n        /* \"#utility.yul\":5834:5843   */\n      dup3\n        /* \"#utility.yul\":5825:5832   */\n      dup5\n        /* \"#utility.yul\":5821:5844   */\n      sub\n        /* \"#utility.yul\":5817:5849   */\n      slt\n        /* \"#utility.yul\":5814:5933   */\n      iszero\n      tag_267\n      jumpi\n        /* \"#utility.yul\":5852:5931   */\n      tag_268\n      tag_153\n      jump\t// in\n    tag_268:\n        /* \"#utility.yul\":5814:5933   */\n    tag_267:\n        /* \"#utility.yul\":5972:5973   */\n      0x00\n        /* \"#utility.yul\":5997:6049   */\n      tag_269\n        /* \"#utility.yul\":6041:6048   */\n      dup5\n        /* \"#utility.yul\":6032:6038   */\n      dup3\n        /* \"#utility.yul\":6021:6030   */\n      dup6\n        /* \"#utility.yul\":6017:6039   */\n      add\n        /* \"#utility.yul\":5997:6049   */\n      tag_175\n      jump\t// in\n    tag_269:\n        /* \"#utility.yul\":5987:6049   */\n      swap2\n      pop\n        /* \"#utility.yul\":5943:6059   */\n      pop\n        /* \"#utility.yul\":5739:6066   */\n      swap3\n      swap2\n      pop\n      pop\n      jump\t// out\n        /* \"#utility.yul\":6072:6190   */\n    tag_176:\n        /* \"#utility.yul\":6159:6183   */\n      tag_271\n        /* \"#utility.yul\":6177:6182   */\n      dup2\n        /* \"#utility.yul\":6159:6183   */\n      tag_155\n      jump\t// in\n    tag_271:\n        /* \"#utility.yul\":6154:6157   */\n      dup3\n        /* \"#utility.yul\":6147:6184   */\n      mstore\n        /* \"#utility.yul\":6072:6190   */\n      pop\n      pop\n      jump\t// out\n        /* \"#utility.yul\":6196:6418   */\n    tag_38:\n        /* \"#utility.yul\":6289:6293   */\n      0x00\n        /* \"#utility.yul\":6327:6329   */\n      0x20\n        /* \"#utility.yul\":6316:6325   */\n      dup3\n        /* \"#utility.yul\":6312:6330   */\n      add\n        /* \"#utility.yul\":6304:6330   */\n      swap1\n      pop\n        /* \"#utility.yul\":6340:6411   */\n      tag_273\n        /* \"#utility.yul\":6408:6409   */\n      0x00\n        /* \"#utility.yul\":6397:6406   */\n      dup4\n        /* \"#utility.yul\":6393:6410   */\n      add\n        /* \"#utility.yul\":6384:6390   */\n      dup5\n        /* \"#utility.yul\":6340:6411   */\n      tag_176\n      jump\t// in\n    tag_273:\n        /* \"#utility.yul\":6196:6418   */\n      swap3\n      swap2\n      pop\n      pop\n      jump\t// out\n        /* \"#utility.yul\":6424:6514   */\n    tag_177:\n        /* \"#utility.yul\":6458:6465   */\n      0x00\n        /* \"#utility.yul\":6501:6506   */\n      dup2\n        /* \"#utility.yul\":6494:6507   */\n      iszero\n        /* \"#utility.yul\":6487:6508   */\n      iszero\n        /* \"#utility.yul\":6476:6508   */\n      swap1\n      pop\n        /* \"#utility.yul\":6424:6514   */\n      swap2\n      swap1\n      pop\n      jump\t// out\n        /* \"#utility.yul\":6520:6629   */\n    tag_178:\n        /* \"#utility.yul\":6601:6622   */\n      tag_276\n        /* \"#utility.yul\":6616:6621   */\n      dup2\n        /* \"#utility.yul\":6601:6622   */\n      tag_177\n      jump\t// in\n    tag_276:\n        /* \"#utility.yul\":6596:6599   */\n      dup3\n        /* \"#utility.yul\":6589:6623   */\n      mstore\n        /* \"#utility.yul\":6520:6629   */\n      pop\n      pop\n      jump\t// out\n        /* \"#utility.yul\":6635:6845   */\n    tag_53:\n        /* \"#utility.yul\":6722:6726   */\n      0x00\n        /* \"#utility.yul\":6760:6762   */\n      0x20\n        /* \"#utility.yul\":6749:6758   */\n      dup3\n        /* \"#utility.yul\":6745:6763   */\n      add\n        /* \"#utility.yul\":6737:6763   */\n      swap1\n      pop\n        /* \"#utility.yul\":6773:6838   */\n      tag_278\n        /* \"#utility.yul\":6835:6836   */\n      0x00\n        /* \"#utility.yul\":6824:6833   */\n      dup4\n        /* \"#utility.yul\":6820:6837   */\n      add\n        /* \"#utility.yul\":6811:6817   */\n      dup5\n        /* \"#utility.yul\":6773:6838   */\n      tag_178\n      jump\t// in\n    tag_278:\n        /* \"#utility.yul\":6635:6845   */\n      swap3\n      swap2\n      pop\n      pop\n      jump\t// out\n        /* \"#utility.yul\":6851:7031   */\n    tag_179:\n        /* \"#utility.yul\":6899:6976   */\n      0x4e487b7100000000000000000000000000000000000000000000000000000000\n        /* \"#utility.yul\":6896:6897   */\n      0x00\n        /* \"#utility.yul\":6889:6977   */\n      mstore\n        /* \"#utility.yul\":6996:7000   */\n      0x22\n        /* \"#utility.yul\":6993:6994   */\n      0x04\n        /* \"#utility.yul\":6986:7001   */\n      mstore\n        /* \"#utility.yul\":7020:7024   */\n      0x24\n        /* \"#utility.yul\":7017:7018   */\n      0x00\n        /* \"#utility.yul\":7010:7025   */\n      revert\n        /* \"#utility.yul\":7037:7357   */\n    tag_57:\n        /* \"#utility.yul\":7081:7087   */\n      0x00\n        /* \"#utility.yul\":7118:7119   */\n      0x02\n        /* \"#utility.yul\":7112:7116   */\n      dup3\n        /* \"#utility.yul\":7108:7120   */\n      div\n        /* \"#utility.yul\":7098:7120   */\n      swap1\n      pop\n        /* \"#utility.yul\":7165:7166   */\n      0x01\n        /* \"#utility.yul\":7159:7163   */\n      dup3\n        /* \"#utility.yul\":7155:7167   */\n      and\n        /* \"#utility.yul\":7186:7204   */\n      dup1\n        /* \"#utility.yul\":7176:7257   */\n      tag_281\n      jumpi\n        /* \"#utility.yul\":7242:7246   */\n      0x7f\n        /* \"#utility.yul\":7234:7240   */\n      dup3\n        /* \"#utility.yul\":7230:7247   */\n      and\n        /* \"#utility.yul\":7220:7247   */\n      swap2\n      pop\n        /* \"#utility.yul\":7176:7257   */\n    tag_281:\n        /* \"#utility.yul\":7304:7306   */\n      0x20\n        /* \"#utility.yul\":7296:7302   */\n      dup3\n        /* \"#utility.yul\":7293:7307   */\n      lt\n        /* \"#utility.yul\":7273:7291   */\n      dup2\n        /* \"#utility.yul\":7270:7308   */\n      sub\n        /* \"#utility.yul\":7267:7351   */\n      tag_282\n      jumpi\n        /* \"#utility.yul\":7323:7341   */\n      tag_283\n      tag_179\n      jump\t// in\n    tag_283:\n        /* \"#utility.yul\":7267:7351   */\n    tag_282:\n        /* \"#utility.yul\":7088:7357   */\n      pop\n        /* \"#utility.yul\":7037:7357   */\n      swap2\n      swap1\n      pop\n      jump\t// out\n        /* \"#utility.yul\":7363:7543   */\n    tag_70:\n        /* \"#utility.yul\":7411:7488   */\n      0x4e487b7100000000000000000000000000000000000000000000000000000000\n        /* \"#utility.yul\":7408:7409   */\n      0x00\n        /* \"#utility.yul\":7401:7489   */\n      mstore\n        /* \"#utility.yul\":7508:7512   */\n      0x32\n        /* \"#utility.yul\":7505:7506   */\n      0x04\n        /* \"#utility.yul\":7498:7513   */\n      mstore\n        /* \"#utility.yul\":7532:7536   */\n      0x24\n        /* \"#utility.yul\":7529:7530   */\n      0x00\n        /* \"#utility.yul\":7522:7537   */\n      revert\n        /* \"#utility.yul\":7549:7697   */\n    tag_180:\n        /* \"#utility.yul\":7651:7662   */\n      0x00\n        /* \"#utility.yul\":7688:7691   */\n      dup2\n        /* \"#utility.yul\":7673:7691   */\n      swap1\n      pop\n        /* \"#utility.yul\":7549:7697   */\n      swap3\n      swap2\n      pop\n      pop\n      jump\t// out\n        /* \"#utility.yul\":7703:8093   */\n    tag_181:\n        /* \"#utility.yul\":7809:7812   */\n      0x00\n        /* \"#utility.yul\":7837:7876   */\n      tag_287\n        /* \"#utility.yul\":7870:7875   */\n      dup3\n        /* \"#utility.yul\":7837:7876   */\n      tag_158\n      jump\t// in\n    tag_287:\n        /* \"#utility.yul\":7892:7981   */\n      tag_288\n        /* \"#utility.yul\":7974:7980   */\n      dup2\n        /* \"#utility.yul\":7969:7972   */\n      dup6\n        /* \"#utility.yul\":7892:7981   */\n      tag_180\n      jump\t// in\n    tag_288:\n        /* \"#utility.yul\":7885:7981   */\n      swap4\n      pop\n        /* \"#utility.yul\":7990:8055   */\n      tag_289\n        /* \"#utility.yul\":8048:8054   */\n      dup2\n        /* \"#utility.yul\":8043:8046   */\n      dup6\n        /* \"#utility.yul\":8036:8040   */\n      0x20\n        /* \"#utility.yul\":8029:8034   */\n      dup7\n        /* \"#utility.yul\":8025:8041   */\n      add\n        /* \"#utility.yul\":7990:8055   */\n      tag_160\n      jump\t// in\n    tag_289:\n        /* \"#utility.yul\":8080:8086   */\n      dup1\n        /* \"#utility.yul\":8075:8078   */\n      dup5\n        /* \"#utility.yul\":8071:8087   */\n      add\n        /* \"#utility.yul\":8064:8087   */\n      swap2\n      pop\n        /* \"#utility.yul\":7813:8093   */\n      pop\n        /* \"#utility.yul\":7703:8093   */\n      swap3\n      swap2\n      pop\n      pop\n      jump\t// out\n        /* \"#utility.yul\":8099:8240   */\n    tag_182:\n        /* \"#utility.yul\":8148:8152   */\n      0x00\n        /* \"#utility.yul\":8171:8174   */\n      dup2\n        /* \"#utility.yul\":8163:8174   */\n      swap1\n      pop\n        /* \"#utility.yul\":8194:8197   */\n      dup2\n        /* \"#utility.yul\":8191:8192   */\n      0x00\n        /* \"#utility.yul\":8184:8198   */\n      mstore\n        /* \"#utility.yul\":8228:8232   */\n      0x20\n        /* \"#utility.yul\":8225:8226   */\n      0x00\n        /* \"#utility.yul\":8215:8233   */\n      keccak256\n        /* \"#utility.yul\":8207:8233   */\n      swap1\n      pop\n        /* \"#utility.yul\":8099:8240   */\n      swap2\n      swap1\n      pop\n      jump\t// out\n        /* \"#utility.yul\":8270:9144   */\n    tag_183:\n        /* \"#utility.yul\":8373:8376   */\n      0x00\n        /* \"#utility.yul\":8410:8415   */\n      dup2\n        /* \"#utility.yul\":8404:8416   */\n      sload\n        /* \"#utility.yul\":8439:8475   */\n      tag_292\n        /* \"#utility.yul\":8465:8474   */\n      dup2\n        /* \"#utility.yul\":8439:8475   */\n      tag_57\n      jump\t// in\n    tag_292:\n        /* \"#utility.yul\":8491:8580   */\n      tag_293\n        /* \"#utility.yul\":8573:8579   */\n      dup2\n        /* \"#utility.yul\":8568:8571   */\n      dup7\n        /* \"#utility.yul\":8491:8580   */\n      tag_180\n      jump\t// in\n    tag_293:\n        /* \"#utility.yul\":8484:8580   */\n      swap5\n      pop\n        /* \"#utility.yul\":8611:8612   */\n      0x01\n        /* \"#utility.yul\":8600:8609   */\n      dup3\n        /* \"#utility.yul\":8596:8613   */\n      and\n        /* \"#utility.yul\":8627:8628   */\n      0x00\n        /* \"#utility.yul\":8622:8788   */\n      dup2\n      eq\n      tag_295\n      jumpi\n        /* \"#utility.yul\":8802:8803   */\n      0x01\n        /* \"#utility.yul\":8797:9138   */\n      dup2\n      eq\n      tag_296\n      jumpi\n        /* \"#utility.yul\":8589:9138   */\n      jump(tag_294)\n        /* \"#utility.yul\":8622:8788   */\n    tag_295:\n        /* \"#utility.yul\":8706:8710   */\n      0xff\n        /* \"#utility.yul\":8702:8711   */\n      not\n        /* \"#utility.yul\":8691:8700   */\n      dup4\n        /* \"#utility.yul\":8687:8712   */\n      and\n        /* \"#utility.yul\":8682:8685   */\n      dup7\n        /* \"#utility.yul\":8675:8713   */\n      mstore\n        /* \"#utility.yul\":8768:8774   */\n      dup2\n        /* \"#utility.yul\":8761:8775   */\n      iszero\n        /* \"#utility.yul\":8754:8776   */\n      iszero\n        /* \"#utility.yul\":8746:8752   */\n      dup3\n        /* \"#utility.yul\":8742:8777   */\n      mul\n        /* \"#utility.yul\":8737:8740   */\n      dup7\n        /* \"#utility.yul\":8733:8778   */\n      add\n        /* \"#utility.yul\":8726:8778   */\n      swap4\n      pop\n        /* \"#utility.yul\":8622:8788   */\n      jump(tag_294)\n        /* \"#utility.yul\":8797:9138   */\n    tag_296:\n        /* \"#utility.yul\":8864:8902   */\n      tag_297\n        /* \"#utility.yul\":8896:8901   */\n      dup6\n        /* \"#utility.yul\":8864:8902   */\n      tag_182\n      jump\t// in\n    tag_297:\n        /* \"#utility.yul\":8924:8925   */\n      0x00\n        /* \"#utility.yul\":8938:9092   */\n    tag_298:\n        /* \"#utility.yul\":8952:8958   */\n      dup4\n        /* \"#utility.yul\":8949:8950   */\n      dup2\n        /* \"#utility.yul\":8946:8959   */\n      lt\n        /* \"#utility.yul\":8938:9092   */\n      iszero\n      tag_300\n      jumpi\n        /* \"#utility.yul\":9026:9033   */\n      dup2\n        /* \"#utility.yul\":9020:9034   */\n      sload\n        /* \"#utility.yul\":9016:9017   */\n      dup2\n        /* \"#utility.yul\":9011:9014   */\n      dup10\n        /* \"#utility.yul\":9007:9018   */\n      add\n        /* \"#utility.yul\":9000:9035   */\n      mstore\n        /* \"#utility.yul\":9076:9077   */\n      0x01\n        /* \"#utility.yul\":9067:9074   */\n      dup3\n        /* \"#utility.yul\":9063:9078   */\n      add\n        /* \"#utility.yul\":9052:9078   */\n      swap2\n      pop\n        /* \"#utility.yul\":8974:8978   */\n      0x20\n        /* \"#utility.yul\":8971:8972   */\n      dup2\n        /* \"#utility.yul\":8967:8979   */\n      add\n        /* \"#utility.yul\":8962:8979   */\n      swap1\n      pop\n        /* \"#utility.yul\":8938:9092   */\n      jump(tag_298)\n    tag_300:\n        /* \"#utility.yul\":9121:9127   */\n      dup4\n        /* \"#utility.yul\":9116:9119   */\n      dup9\n        /* \"#utility.yul\":9112:9128   */\n      add\n        /* \"#utility.yul\":9105:9128   */\n      swap6\n      pop\n        /* \"#utility.yul\":8804:9138   */\n      pop\n      pop\n        /* \"#utility.yul\":8589:9138   */\n    tag_294:\n      pop\n        /* \"#utility.yul\":8377:9144   */\n      pop\n      pop\n        /* \"#utility.yul\":8270:9144   */\n      swap3\n      swap2\n      pop\n      pop\n      jump\t// out\n        /* \"#utility.yul\":9150:9579   */\n    tag_76:\n        /* \"#utility.yul\":9327:9330   */\n      0x00\n        /* \"#utility.yul\":9349:9444   */\n      tag_302\n        /* \"#utility.yul\":9440:9443   */\n      dup3\n        /* \"#utility.yul\":9431:9437   */\n      dup6\n        /* \"#utility.yul\":9349:9444   */\n      tag_181\n      jump\t// in\n    tag_302:\n        /* \"#utility.yul\":9342:9444   */\n      swap2\n      pop\n        /* \"#utility.yul\":9461:9553   */\n      tag_303\n        /* \"#utility.yul\":9549:9552   */\n      dup3\n        /* \"#utility.yul\":9540:9546   */\n      dup5\n        /* \"#utility.yul\":9461:9553   */\n      tag_183\n      jump\t// in\n    tag_303:\n        /* \"#utility.yul\":9454:9553   */\n      swap2\n      pop\n        /* \"#utility.yul\":9570:9573   */\n      dup2\n        /* \"#utility.yul\":9563:9573   */\n      swap1\n      pop\n        /* \"#utility.yul\":9150:9579   */\n      swap4\n      swap3\n      pop\n      pop\n      pop\n      jump\t// out\n        /* \"#utility.yul\":9585:9765   */\n    tag_184:\n        /* \"#utility.yul\":9633:9710   */\n      0x4e487b7100000000000000000000000000000000000000000000000000000000\n        /* \"#utility.yul\":9630:9631   */\n      0x00\n        /* \"#utility.yul\":9623:9711   */\n      mstore\n        /* \"#utility.yul\":9730:9734   */\n      0x11\n        /* \"#utility.yul\":9727:9728   */\n      0x04\n        /* \"#utility.yul\":9720:9735   */\n      mstore\n        /* \"#utility.yul\":9754:9758   */\n      0x24\n        /* \"#utility.yul\":9751:9752   */\n      0x00\n        /* \"#utility.yul\":9744:9759   */\n      revert\n        /* \"#utility.yul\":9771:9965   */\n    tag_81:\n        /* \"#utility.yul\":9811:9815   */\n      0x00\n        /* \"#utility.yul\":9831:9851   */\n      tag_306\n        /* \"#utility.yul\":9849:9850   */\n      dup3\n        /* \"#utility.yul\":9831:9851   */\n      tag_155\n      jump\t// in\n    tag_306:\n        /* \"#utility.yul\":9826:9851   */\n      swap2\n      pop\n        /* \"#utility.yul\":9865:9885   */\n      tag_307\n        /* \"#utility.yul\":9883:9884   */\n      dup4\n        /* \"#utility.yul\":9865:9885   */\n      tag_155\n      jump\t// in\n    tag_307:\n        /* \"#utility.yul\":9860:9885   */\n      swap3\n      pop\n        /* \"#utility.yul\":9909:9910   */\n      dup3\n        /* \"#utility.yul\":9906:9907   */\n      dup3\n        /* \"#utility.yul\":9902:9911   */\n      sub\n        /* \"#utility.yul\":9894:9911   */\n      swap1\n      pop\n        /* \"#utility.yul\":9933:9934   */\n      dup2\n        /* \"#utility.yul\":9927:9931   */\n      dup2\n        /* \"#utility.yul\":9924:9935   */\n      gt\n        /* \"#utility.yul\":9921:9958   */\n      iszero\n      tag_308\n      jumpi\n        /* \"#utility.yul\":9938:9956   */\n      tag_309\n      tag_184\n      jump\t// in\n    tag_309:\n        /* \"#utility.yul\":9921:9958   */\n    tag_308:\n        /* \"#utility.yul\":9771:9965   */\n      swap3\n      swap2\n      pop\n      pop\n      jump\t// out\n        /* \"#utility.yul\":9971:10246   */\n    tag_84:\n        /* \"#utility.yul\":10103:10106   */\n      0x00\n        /* \"#utility.yul\":10125:10220   */\n      tag_311\n        /* \"#utility.yul\":10216:10219   */\n      dup3\n        /* \"#utility.yul\":10207:10213   */\n      dup5\n        /* \"#utility.yul\":10125:10220   */\n      tag_181\n      jump\t// in\n    tag_311:\n        /* \"#utility.yul\":10118:10220   */\n      swap2\n      pop\n        /* \"#utility.yul\":10237:10240   */\n      dup2\n        /* \"#utility.yul\":10230:10240   */\n      swap1\n      pop\n        /* \"#utility.yul\":9971:10246   */\n      swap3\n      swap2\n      pop\n      pop\n      jump\t// out\n        /* \"#utility.yul\":10252:10521   */\n    tag_93:\n        /* \"#utility.yul\":10381:10384   */\n      0x00\n        /* \"#utility.yul\":10403:10495   */\n      tag_313\n        /* \"#utility.yul\":10491:10494   */\n      dup3\n        /* \"#utility.yul\":10482:10488   */\n      dup5\n        /* \"#utility.yul\":10403:10495   */\n      tag_183\n      jump\t// in\n    tag_313:\n        /* \"#utility.yul\":10396:10495   */\n      swap2\n      pop\n        /* \"#utility.yul\":10512:10515   */\n      dup2\n        /* \"#utility.yul\":10505:10515   */\n      swap1\n      pop\n        /* \"#utility.yul\":10252:10521   */\n      swap3\n      swap2\n      pop\n      pop\n      jump\t// out\n        /* \"#utility.yul\":10527:10718   */\n    tag_103:\n        /* \"#utility.yul\":10567:10570   */\n      0x00\n        /* \"#utility.yul\":10586:10606   */\n      tag_315\n        /* \"#utility.yul\":10604:10605   */\n      dup3\n        /* \"#utility.yul\":10586:10606   */\n      tag_155\n      jump\t// in\n    tag_315:\n        /* \"#utility.yul\":10581:10606   */\n      swap2\n      pop\n        /* \"#utility.yul\":10620:10640   */\n      tag_316\n        /* \"#utility.yul\":10638:10639   */\n      dup4\n        /* \"#utility.yul\":10620:10640   */\n      tag_155\n      jump\t// in\n    tag_316:\n        /* \"#utility.yul\":10615:10640   */\n      swap3\n      pop\n        /* \"#utility.yul\":10663:10664   */\n      dup3\n        /* \"#utility.yul\":10660:10661   */\n      dup3\n        /* \"#utility.yul\":10656:10665   */\n      add\n        /* \"#utility.yul\":10649:10665   */\n      swap1\n      pop\n        /* \"#utility.yul\":10684:10687   */\n      dup1\n        /* \"#utility.yul\":10681:10682   */\n      dup3\n        /* \"#utility.yul\":10678:10688   */\n      gt\n        /* \"#utility.yul\":10675:10711   */\n      iszero\n      tag_317\n      jumpi\n        /* \"#utility.yul\":10691:10709   */\n      tag_318\n      tag_184\n      jump\t// in\n    tag_318:\n        /* \"#utility.yul\":10675:10711   */\n    tag_317:\n        /* \"#utility.yul\":10527:10718   */\n      swap3\n      swap2\n      pop\n      pop\n      jump\t// out\n        /* \"#utility.yul\":10724:10817   */\n    tag_185:\n        /* \"#utility.yul\":10761:10767   */\n      0x00\n        /* \"#utility.yul\":10808:10810   */\n      0x20\n        /* \"#utility.yul\":10803:10805   */\n      0x1f\n        /* \"#utility.yul\":10796:10801   */\n      dup4\n        /* \"#utility.yul\":10792:10806   */\n      add\n        /* \"#utility.yul\":10788:10811   */\n      div\n        /* \"#utility.yul\":10778:10811   */\n      swap1\n      pop\n        /* \"#utility.yul\":10724:10817   */\n      swap2\n      swap1\n      pop\n      jump\t// out\n        /* \"#utility.yul\":10823:10930   */\n    tag_186:\n        /* \"#utility.yul\":10867:10875   */\n      0x00\n        /* \"#utility.yul\":10917:10922   */\n      dup3\n        /* \"#utility.yul\":10911:10915   */\n      dup3\n        /* \"#utility.yul\":10907:10923   */\n      shl\n        /* \"#utility.yul\":10886:10923   */\n      swap1\n      pop\n        /* \"#utility.yul\":10823:10930   */\n      swap3\n      swap2\n      pop\n      pop\n      jump\t// out\n        /* \"#utility.yul\":10936:11329   */\n    tag_187:\n        /* \"#utility.yul\":11005:11011   */\n      0x00\n        /* \"#utility.yul\":11055:11056   */\n      0x08\n        /* \"#utility.yul\":11043:11053   */\n      dup4\n        /* \"#utility.yul\":11039:11057   */\n      mul\n        /* \"#utility.yul\":11078:11175   */\n      tag_322\n        /* \"#utility.yul\":11108:11174   */\n      0xffffffffffffffffffffffffffffffffffffffffffffffffffffffffffffffff\n        /* \"#utility.yul\":11097:11106   */\n      dup3\n        /* \"#utility.yul\":11078:11175   */\n      tag_186\n      jump\t// in\n    tag_322:\n        /* \"#utility.yul\":11196:11235   */\n      tag_323\n        /* \"#utility.yul\":11226:11234   */\n      dup7\n        /* \"#utility.yul\":11215:11224   */\n      dup4\n        /* \"#utility.yul\":11196:11235   */\n      tag_186\n      jump\t// in\n    tag_323:\n        /* \"#utility.yul\":11184:11235   */\n      swap6\n      pop\n        /* \"#utility.yul\":11268:11272   */\n      dup1\n        /* \"#utility.yul\":11264:11273   */\n      not\n        /* \"#utility.yul\":11257:11262   */\n      dup5\n        /* \"#utility.yul\":11253:11274   */\n      and\n        /* \"#utility.yul\":11244:11274   */\n      swap4\n      pop\n        /* \"#utility.yul\":11317:11321   */\n      dup1\n        /* \"#utility.yul\":11307:11315   */\n      dup7\n        /* \"#utility.yul\":11303:11322   */\n      and\n        /* \"#utility.yul\":11296:11301   */\n      dup5\n        /* \"#utility.yul\":11293:11323   */\n      or\n        /* \"#utility.yul\":11283:11323   */\n      swap3\n      pop\n        /* \"#utility.yul\":11012:11329   */\n      pop\n      pop\n        /* \"#utility.yul\":10936:11329   */\n      swap4\n      swap3\n      pop\n      pop\n      pop\n      jump\t// out\n        /* \"#utility.yul\":11335:11395   */\n    tag_188:\n        /* \"#utility.yul\":11363:11366   */\n      0x00\n        /* \"#utility.yul\":11384:11389   */\n      dup2\n        /* \"#utility.yul\":11377:11389   */\n      swap1\n      pop\n        /* \"#utility.yul\":11335:11395   */\n      swap2\n      swap1\n      pop\n      jump\t// out\n        /* \"#utility.yul\":11401:11543   */\n    tag_189:\n        /* \"#utility.yul\":11451:11460   */\n      0x00\n        /* \"#utility.yul\":11484:11537   */\n      tag_326\n        /* \"#utility.yul\":11502:11536   */\n      tag_327\n        /* \"#utility.yul\":11511:11535   */\n      tag_328\n        /* \"#utility.yul\":11529:11534   */\n      dup5\n        /* \"#utility.yul\":11511:11535   */\n      tag_155\n      jump\t// in\n    tag_328:\n        /* \"#utility.yul\":11502:11536   */\n      tag_188\n      jump\t// in\n    tag_327:\n        /* \"#utility.yul\":11484:11537   */\n      tag_155\n      jump\t// in\n    tag_326:\n        /* \"#utility.yul\":11471:11537   */\n      swap1\n      pop\n        /* \"#utility.yul\":11401:11543   */\n      swap2\n      swap1\n      pop\n      jump\t// out\n        /* \"#utility.yul\":11549:11624   */\n    tag_190:\n        /* \"#utility.yul\":11592:11595   */\n      0x00\n        /* \"#utility.yul\":11613:11618   */\n      dup2\n        /* \"#utility.yul\":11606:11618   */\n      swap1\n      pop\n        /* \"#utility.yul\":11549:11624   */\n      swap2\n      swap1\n      pop\n      jump\t// out\n        /* \"#utility.yul\":11630:11899   */\n    tag_191:\n        /* \"#utility.yul\":11740:11779   */\n      tag_331\n        /* \"#utility.yul\":11771:11778   */\n      dup4\n        /* \"#utility.yul\":11740:11779   */\n      tag_189\n      jump\t// in\n    tag_331:\n        /* \"#utility.yul\":11801:11892   */\n      tag_332\n        /* \"#utility.yul\":11850:11891   */\n      tag_333\n        /* \"#utility.yul\":11874:11890   */\n      dup3\n        /* \"#utility.yul\":11850:11891   */\n      tag_190\n      jump\t// in\n    tag_333:\n        /* \"#utility.yul\":11842:11848   */\n      dup5\n        /* \"#utility.yul\":11835:11839   */\n      dup5\n        /* \"#utility.yul\":11829:11840   */\n      sload\n        /* \"#utility.yul\":11801:11892   */\n      tag_187\n      jump\t// in\n    tag_332:\n        /* \"#utility.yul\":11795:11799   */\n      dup3\n        /* \"#utility.yul\":11788:11893   */\n      sstore\n        /* \"#utility.yul\":11706:11899   */\n      pop\n        /* \"#utility.yul\":11630:11899   */\n      pop\n      pop\n      pop\n      jump\t// out\n        /* \"#utility.yul\":11905:11978   */\n    tag_192:\n        /* \"#utility.yul\":11950:11953   */\n      0x00\n        /* \"#utility.yul\":11971:11972   */\n      0x00\n        /* \"#utility.yul\":11964:11972   */\n      swap1\n      pop\n        /* \"#utility.yul\":11905:11978   */\n      swap1\n      jump\t// out\n        /* \"#utility.yul\":11984:12173   */\n    tag_193:\n        /* \"#utility.yul\":12061:12093   */\n      tag_336\n      tag_192\n      jump\t// in\n    tag_336:\n        /* \"#utility.yul\":12102:12167   */\n      tag_337\n        /* \"#utility.yul\":12160:12166   */\n      dup2\n        /* \"#utility.yul\":12152:12158   */\n      dup5\n        /* \"#utility.yul\":12146:12150   */\n      dup5\n        /* \"#utility.yul\":12102:12167   */\n      tag_191\n      jump\t// in\n    tag_337:\n        /* \"#utility.yul\":12037:12173   */\n      pop\n        /* \"#utility.yul\":11984:12173   */\n      pop\n      pop\n      jump\t// out\n        /* \"#utility.yul\":12179:12365   */\n    tag_194:\n        /* \"#utility.yul\":12239:12359   */\n    tag_339:\n        /* \"#utility.yul\":12256:12259   */\n      dup2\n        /* \"#utility.yul\":12249:12254   */\n      dup2\n        /* \"#utility.yul\":12246:12260   */\n      lt\n        /* \"#utility.yul\":12239:12359   */\n      iszero\n      tag_341\n      jumpi\n        /* \"#utility.yul\":12310:12349   */\n      tag_342\n        /* \"#utility.yul\":12347:12348   */\n      0x00\n        /* \"#utility.yul\":12340:12345   */\n      dup3\n        /* \"#utility.yul\":12310:12349   */\n      tag_193\n      jump\t// in\n    tag_342:\n        /* \"#utility.yul\":12283:12284   */\n      0x01\n        /* \"#utility.yul\":12276:12281   */\n      dup2\n        /* \"#utility.yul\":12272:12285   */\n      add\n        /* \"#utility.yul\":12263:12285   */\n      swap1\n      pop\n        /* \"#utility.yul\":12239:12359   */\n      jump(tag_339)\n    tag_341:\n        /* \"#utility.yul\":12179:12365   */\n      pop\n      pop\n      jump\t// out\n        /* \"#utility.yul\":12371:12914   */\n    tag_195:\n        /* \"#utility.yul\":12472:12474   */\n      0x1f\n        /* \"#utility.yul\":12467:12470   */\n      dup3\n        /* \"#utility.yul\":12464:12475   */\n      gt\n        /* \"#utility.yul\":12461:12907   */\n      iszero\n      tag_344\n      jumpi\n        /* \"#utility.yul\":12506:12544   */\n      tag_345\n        /* \"#utility.yul\":12538:12543   */\n      dup2\n        /* \"#utility.yul\":12506:12544   */\n      tag_182\n      jump\t// in\n    tag_345:\n        /* \"#utility.yul\":12590:12619   */\n      tag_346\n        /* \"#utility.yul\":12608:12618   */\n      dup5\n        /* \"#utility.yul\":12590:12619   */\n      tag_185\n      jump\t// in\n    tag_346:\n        /* \"#utility.yul\":12580:12588   */\n      dup2\n        /* \"#utility.yul\":12576:12620   */\n      add\n        /* \"#utility.yul\":12773:12775   */\n      0x20\n        /* \"#utility.yul\":12761:12771   */\n      dup6\n        /* \"#utility.yul\":12758:12776   */\n      lt\n        /* \"#utility.yul\":12755:12804   */\n      iszero\n      tag_347\n      jumpi\n        /* \"#utility.yul\":12794:12802   */\n      dup2\n        /* \"#utility.yul\":12779:12802   */\n      swap1\n      pop\n        /* \"#utility.yul\":12755:12804   */\n    tag_347:\n        /* \"#utility.yul\":12817:12897   */\n      tag_348\n        /* \"#utility.yul\":12873:12895   */\n      tag_349\n        /* \"#utility.yul\":12891:12894   */\n      dup6\n        /* \"#utility.yul\":12873:12895   */\n      tag_185\n      jump\t// in\n    tag_349:\n        /* \"#utility.yul\":12863:12871   */\n      dup4\n        /* \"#utility.yul\":12859:12896   */\n      add\n        /* \"#utility.yul\":12846:12857   */\n      dup3\n        /* \"#utility.yul\":12817:12897   */\n      tag_194\n      jump\t// in\n    tag_348:\n        /* \"#utility.yul\":12476:12907   */\n      pop\n      pop\n        /* \"#utility.yul\":12461:12907   */\n    tag_344:\n        /* \"#utility.yul\":12371:12914   */\n      pop\n      pop\n      pop\n      jump\t// out\n        /* \"#utility.yul\":12920:13037   */\n    tag_196:\n        /* \"#utility.yul\":12974:12982   */\n      0x00\n        /* \"#utility.yul\":13024:13029   */\n      dup3\n        /* \"#utility.yul\":13018:13022   */\n      dup3\n        /* \"#utility.yul\":13014:13030   */\n      shr\n        /* \"#utility.yul\":12993:13030   */\n      swap1\n      pop\n        /* \"#utility.yul\":12920:13037   */\n      swap3\n      swap2\n      pop\n      pop\n      jump\t// out\n        /* \"#utility.yul\":13043:13212   */\n    tag_197:\n        /* \"#utility.yul\":13087:13093   */\n      0x00\n        /* \"#utility.yul\":13120:13171   */\n      tag_352\n        /* \"#utility.yul\":13168:13169   */\n      0x00\n        /* \"#utility.yul\":13164:13170   */\n      not\n        /* \"#utility.yul\":13156:13161   */\n      dup5\n        /* \"#utility.yul\":13153:13154   */\n      0x08\n        /* \"#utility.yul\":13149:13162   */\n      mul\n        /* \"#utility.yul\":13120:13171   */\n      tag_196\n      jump\t// in\n    tag_352:\n        /* \"#utility.yul\":13116:13172   */\n      not\n        /* \"#utility.yul\":13201:13205   */\n      dup1\n        /* \"#utility.yul\":13195:13199   */\n      dup4\n        /* \"#utility.yul\":13191:13206   */\n      and\n        /* \"#utility.yul\":13181:13206   */\n      swap2\n      pop\n        /* \"#utility.yul\":13094:13212   */\n      pop\n        /* \"#utility.yul\":13043:13212   */\n      swap3\n      swap2\n      pop\n      pop\n      jump\t// out\n        /* \"#utility.yul\":13217:13512   */\n    tag_198:\n        /* \"#utility.yul\":13293:13297   */\n      0x00\n        /* \"#utility.yul\":13439:13468   */\n      tag_354\n        /* \"#utility.yul\":13464:13467   */\n      dup4\n        /* \"#utility.yul\":13458:13462   */\n      dup4\n        /* \"#utility.yul\":13439:13468   */\n      tag_197\n      jump\t// in\n    tag_354:\n        /* \"#utility.yul\":13431:13468   */\n      swap2\n      pop\n        /* \"#utility.yul\":13501:13504   */\n      dup3\n        /* \"#utility.yul\":13498:13499   */\n      0x02\n        /* \"#utility.yul\":13494:13505   */\n      mul\n        /* \"#utility.yul\":13488:13492   */\n      dup3\n        /* \"#utility.yul\":13485:13506   */\n      or\n        /* \"#utility.yul\":13477:13506   */\n      swap1\n      pop\n        /* \"#utility.yul\":13217:13512   */\n      swap3\n      swap2\n      pop\n      pop\n      jump\t// out\n        /* \"#utility.yul\":13517:14912   */\n    tag_134:\n        /* \"#utility.yul\":13634:13671   */\n      tag_356\n        /* \"#utility.yul\":13667:13670   */\n      dup3\n        /* \"#utility.yul\":13634:13671   */\n      tag_158\n      jump\t// in\n    tag_356:\n        /* \"#utility.yul\":13736:13754   */\n      0xffffffffffffffff\n        /* \"#utility.yul\":13728:13734   */\n      dup2\n        /* \"#utility.yul\":13725:13755   */\n      gt\n        /* \"#utility.yul\":13722:13778   */\n      iszero\n      tag_357\n      jumpi\n        /* \"#utility.yul\":13758:13776   */\n      tag_358\n      tag_118\n      jump\t// in\n    tag_358:\n        /* \"#utility.yul\":13722:13778   */\n    tag_357:\n        /* \"#utility.yul\":13802:13840   */\n      tag_359\n        /* \"#utility.yul\":13834:13838   */\n      dup3\n        /* \"#utility.yul\":13828:13839   */\n      sload\n        /* \"#utility.yul\":13802:13840   */\n      tag_57\n      jump\t// in\n    tag_359:\n        /* \"#utility.yul\":13887:13954   */\n      tag_360\n        /* \"#utility.yul\":13947:13953   */\n      dup3\n        /* \"#utility.yul\":13939:13945   */\n      dup3\n        /* \"#utility.yul\":13933:13937   */\n      dup6\n        /* \"#utility.yul\":13887:13954   */\n      tag_195\n      jump\t// in\n    tag_360:\n        /* \"#utility.yul\":13981:13982   */\n      0x00\n        /* \"#utility.yul\":14005:14009   */\n      0x20\n        /* \"#utility.yul\":13992:14009   */\n      swap1\n      pop\n        /* \"#utility.yul\":14037:14039   */\n      0x1f\n        /* \"#utility.yul\":14029:14035   */\n      dup4\n        /* \"#utility.yul\":14026:14040   */\n      gt\n        /* \"#utility.yul\":14054:14055   */\n      0x01\n        /* \"#utility.yul\":14049:14667   */\n      dup2\n      eq\n      tag_362\n      jumpi\n        /* \"#utility.yul\":14711:14712   */\n      0x00\n        /* \"#utility.yul\":14728:14734   */\n      dup5\n        /* \"#utility.yul\":14725:14802   */\n      iszero\n      tag_363\n      jumpi\n        /* \"#utility.yul\":14777:14786   */\n      dup3\n        /* \"#utility.yul\":14772:14775   */\n      dup8\n        /* \"#utility.yul\":14768:14787   */\n      add\n        /* \"#utility.yul\":14762:14788   */\n      mload\n        /* \"#utility.yul\":14753:14788   */\n      swap1\n      pop\n        /* \"#utility.yul\":14725:14802   */\n    tag_363:\n        /* \"#utility.yul\":14828:14895   */\n      tag_364\n        /* \"#utility.yul\":14888:14894   */\n      dup6\n        /* \"#utility.yul\":14881:14886   */\n      dup3\n        /* \"#utility.yul\":14828:14895   */\n      tag_198\n      jump\t// in\n    tag_364:\n        /* \"#utility.yul\":14822:14826   */\n      dup7\n        /* \"#utility.yul\":14815:14896   */\n      sstore\n        /* \"#utility.yul\":14684:14906   */\n      pop\n        /* \"#utility.yul\":14019:14906   */\n      jump(tag_361)\n        /* \"#utility.yul\":14049:14667   */\n    tag_362:\n        /* \"#utility.yul\":14101:14105   */\n      0x1f\n        /* \"#utility.yul\":14097:14106   */\n      not\n        /* \"#utility.yul\":14089:14095   */\n      dup5\n        /* \"#utility.yul\":14085:14107   */\n      and\n        /* \"#utility.yul\":14135:14172   */\n      tag_365\n        /* \"#utility.yul\":14167:14171   */\n      dup7\n        /* \"#utility.yul\":14135:14172   */\n      tag_182\n      jump\t// in\n    tag_365:\n        /* \"#utility.yul\":14194:14195   */\n      0x00\n        /* \"#utility.yul\":14208:14416   */\n    tag_366:\n        /* \"#utility.yul\":14222:14229   */\n      dup3\n        /* \"#utility.yul\":14219:14220   */\n      dup2\n        /* \"#utility.yul\":14216:14230   */\n      lt\n        /* \"#utility.yul\":14208:14416   */\n      iszero\n      tag_368\n      jumpi\n        /* \"#utility.yul\":14301:14310   */\n      dup5\n        /* \"#utility.yul\":14296:14299   */\n      dup10\n        /* \"#utility.yul\":14292:14311   */\n      add\n        /* \"#utility.yul\":14286:14312   */\n      mload\n        /* \"#utility.yul\":14278:14284   */\n      dup3\n        /* \"#utility.yul\":14271:14313   */\n      sstore\n        /* \"#utility.yul\":14352:14353   */\n      0x01\n        /* \"#utility.yul\":14344:14350   */\n      dup3\n        /* \"#utility.yul\":14340:14354   */\n      add\n        /* \"#utility.yul\":14330:14354   */\n      swap2\n      pop\n        /* \"#utility.yul\":14399:14401   */\n      0x20\n        /* \"#utility.yul\":14388:14397   */\n      dup6\n        /* \"#utility.yul\":14384:14402   */\n      add\n        /* \"#utility.yul\":14371:14402   */\n      swap5\n      pop\n        /* \"#utility.yul\":14245:14249   */\n      0x20\n        /* \"#utility.yul\":14242:14243   */\n      dup2\n        /* \"#utility.yul\":14238:14250   */\n      add\n        /* \"#utility.yul\":14233:14250   */\n      swap1\n      pop\n        /* \"#utility.yul\":14208:14416   */\n      jump(tag_366)\n    tag_368:\n        /* \"#utility.yul\":14444:14450   */\n      dup7\n        /* \"#utility.yul\":14435:14442   */\n      dup4\n        /* \"#utility.yul\":14432:14451   */\n      lt\n        /* \"#utility.yul\":14429:14608   */\n      iszero\n      tag_369\n      jumpi\n        /* \"#utility.yul\":14502:14511   */\n      dup5\n        /* \"#utility.yul\":14497:14500   */\n      dup10\n        /* \"#utility.yul\":14493:14512   */\n      add\n        /* \"#utility.yul\":14487:14513   */\n      mload\n        /* \"#utility.yul\":14545:14593   */\n      tag_370\n        /* \"#utility.yul\":14587:14591   */\n      0x1f\n        /* \"#utility.yul\":14579:14585   */\n      dup10\n        /* \"#utility.yul\":14575:14592   */\n      and\n        /* \"#utility.yul\":14564:14573   */\n      dup3\n        /* \"#utility.yul\":14545:14593   */\n      tag_197\n      jump\t// in\n    tag_370:\n        /* \"#utility.yul\":14537:14543   */\n      dup4\n        /* \"#utility.yul\":14530:14594   */\n      sstore\n        /* \"#utility.yul\":14452:14608   */\n      pop\n        /* \"#utility.yul\":14429:14608   */\n    tag_369:\n        /* \"#utility.yul\":14654:14655   */\n      0x01\n        /* \"#utility.yul\":14650:14651   */\n      0x02\n        /* \"#utility.yul\":14642:14648   */\n      dup9\n        /* \"#utility.yul\":14638:14652   */\n      mul\n        /* \"#utility.yul\":14634:14656   */\n      add\n        /* \"#utility.yul\":14628:14632   */\n      dup9\n        /* \"#utility.yul\":14621:14657   */\n      sstore\n        /* \"#utility.yul\":14056:14667   */\n      pop\n      pop\n      pop\n        /* \"#utility.yul\":14019:14906   */\n    tag_361:\n      pop\n        /* \"#utility.yul\":13609:14912   */\n      pop\n      pop\n      pop\n        /* \"#utility.yul\":13517:14912   */\n      pop\n      pop\n      jump\t// out\n        /* \"#utility.yul\":14918:15293   */\n    tag_137:\n        /* \"#utility.yul\":14957:14960   */\n      0x00\n        /* \"#utility.yul\":14976:14995   */\n      tag_372\n        /* \"#utility.yul\":14993:14994   */\n      dup3\n        /* \"#utility.yul\":14976:14995   */\n      tag_171\n      jump\t// in\n    tag_372:\n        /* \"#utility.yul\":14971:14995   */\n      swap2\n      pop\n        /* \"#utility.yul\":15009:15028   */\n      tag_373\n        /* \"#utility.yul\":15026:15027   */\n      dup4\n        /* \"#utility.yul\":15009:15028   */\n      tag_171\n      jump\t// in\n    tag_373:\n        /* \"#utility.yul\":15004:15028   */\n      swap3\n      pop\n        /* \"#utility.yul\":15051:15052   */\n      dup3\n        /* \"#utility.yul\":15048:15049   */\n      dup3\n        /* \"#utility.yul\":15044:15053   */\n      add\n        /* \"#utility.yul\":15037:15053   */\n      swap1\n      pop\n        /* \"#utility.yul\":15249:15250   */\n      dup3\n        /* \"#utility.yul\":15244:15247   */\n      dup2\n        /* \"#utility.yul\":15240:15251   */\n      slt\n        /* \"#utility.yul\":15233:15252   */\n      iszero\n        /* \"#utility.yul\":15229:15230   */\n      0x00\n        /* \"#utility.yul\":15226:15227   */\n      dup4\n        /* \"#utility.yul\":15222:15231   */\n      slt\n        /* \"#utility.yul\":15218:15253   */\n      and\n        /* \"#utility.yul\":15201:15202   */\n      dup4\n        /* \"#utility.yul\":15196:15199   */\n      dup3\n        /* \"#utility.yul\":15192:15203   */\n      slt\n        /* \"#utility.yul\":15187:15188   */\n      0x00\n        /* \"#utility.yul\":15184:15185   */\n      dup5\n        /* \"#utility.yul\":15180:15189   */\n      slt\n        /* \"#utility.yul\":15173:15190   */\n      iszero\n        /* \"#utility.yul\":15169:15204   */\n      and\n        /* \"#utility.yul\":15153:15263   */\n      or\n        /* \"#utility.yul\":15150:15286   */\n      iszero\n      tag_374\n      jumpi\n        /* \"#utility.yul\":15266:15284   */\n      tag_375\n      tag_184\n      jump\t// in\n    tag_375:\n        /* \"#utility.yul\":15150:15286   */\n    tag_374:\n        /* \"#utility.yul\":14918:15293   */\n      swap3\n      swap2\n      pop\n      pop\n      jump\t// out\n\n    auxdata: 0xa26469706673582212207ef92dbc5b98d48866cc670387dfbc30e3936866e5919ef6a89d0318332c790964736f6c634300081e0033\n}\n",
				"bytecode": {
					"linkReferences": {},
					"object": "608060405234801561000f575f5ffd5b50600160025f7f49000000000000000000000000000000000000000000000000000000000000007effffffffffffffffffffffffffffffffffffffffffffffffffffffffffffff191681526020019081526020015f2081905550600560025f7f56000000000000000000000000000000000000000000000000000000000000007effffffffffffffffffffffffffffffffffffffffffffffffffffffffffffff191681526020019081526020015f2081905550600a60025f7f58000000000000000000000000000000000000000000000000000000000000007effffffffffffffffffffffffffffffffffffffffffffffffffffffffffffff191681526020019081526020015f2081905550603260025f7f4c000000000000000000000000000000000000000000000000000000000000007effffffffffffffffffffffffffffffffffffffffffffffffffffffffffffff191681526020019081526020015f2081905550606460025f7f43000000000000000000000000000000000000000000000000000000000000007effffffffffffffffffffffffffffffffffffffffffffffffffffffffffffff191681526020019081526020015f20819055506101f460025f7f44000000000000000000000000000000000000000000000000000000000000007effffffffffffffffffffffffffffffffffffffffffffffffffffffffffffff191681526020019081526020015f20819055506103e860025f7f4d000000000000000000000000000000000000000000000000000000000000007effffffffffffffffffffffffffffffffffffffffffffffffffffffffffffff191681526020019081526020015f2081905550600360405180604001604052806103e881526020016040518060400160405280600181526020017f4d00000000000000000000000000000000000000000000000000000000000000815250815250908060018154018082558091505060019003905f5260205f2090600202015f909190919091505f820151815f015560208201518160010190816103129190610c3e565b5050506003604051806040016040528061038481526020016040518060400160405280600281526020017f434d000000000000000000000000000000000000000000000000000000000000815250815250908060018154018082558091505060019003905f5260205f2090600202015f909190919091505f820151815f015560208201518160010190816103a69190610c3e565b505050600360405180604001604052806101f481526020016040518060400160405280600181526020017f4400000000000000000000000000000000000000000000000000000000000000815250815250908060018154018082558091505060019003905f5260205f2090600202015f909190919091505f820151815f0155602082015181600101908161043a9190610c3e565b5050506003604051806040016040528061019081526020016040518060400160405280600281526020017f4344000000000000000000000000000000000000000000000000000000000000815250815250908060018154018082558091505060019003905f5260205f2090600202015f909190919091505f820151815f015560208201518160010190816104ce9190610c3e565b50505060036040518060400160405280606481526020016040518060400160405280600181526020017f4300000000000000000000000000000000000000000000000000000000000000815250815250908060018154018082558091505060019003905f5260205f2090600202015f909190919091505f820151815f015560208201518160010190816105619190610c3e565b50505060036040518060400160405280605a81526020016040518060400160405280600281526020017f5843000000000000000000000000000000000000000000000000000000000000815250815250908060018154018082558091505060019003905f5260205f2090600202015f909190919091505f820151815f015560208201518160010190816105f49190610c3e565b50505060036040518060400160405280603281526020016040518060400160405280600181526020017f4c00000000000000000000000000000000000000000000000000000000000000815250815250908060018154018082558091505060019003905f5260205f2090600202015f909190919091505f820151815f015560208201518160010190816106879190610c3e565b50505060036040518060400160405280602881526020016040518060400160405280600281526020017f584c000000000000000000000000000000000000000000000000000000000000815250815250908060018154018082558091505060019003905f5260205f2090600202015f909190919091505f820151815f0155602082015181600101908161071a9190610c3e565b50505060036040518060400160405280600a81526020016040518060400160405280600181526020017f5800000000000000000000000000000000000000000000000000000000000000815250815250908060018154018082558091505060019003905f5260205f2090600202015f909190919091505f820151815f015560208201518160010190816107ad9190610c3e565b50505060036040518060400160405280600981526020016040518060400160405280600281526020017f4958000000000000000000000000000000000000000000000000000000000000815250815250908060018154018082558091505060019003905f5260205f2090600202015f909190919091505f820151815f015560208201518160010190816108409190610c3e565b50505060036040518060400160405280600581526020016040518060400160405280600181526020017f5600000000000000000000000000000000000000000000000000000000000000815250815250908060018154018082558091505060019003905f5260205f2090600202015f909190919091505f820151815f015560208201518160010190816108d39190610c3e565b50505060036040518060400160405280600481526020016040518060400160405280600281526020017f4956000000000000000000000000000000000000000000000000000000000000815250815250908060018154018082558091505060019003905f5260205f2090600202015f909190919091505f820151815f015560208201518160010190816109669190610c3e565b50505060036040518060400160405280600181526020016040518060400160405280600181526020017f4900000000000000000000000000000000000000000000000000000000000000815250815250908060018154018082558091505060019003905f5260205f2090600202015f909190919091505f820151815f015560208201518160010190816109f99190610c3e565b505050610d0d565b5f81519050919050565b7f4e487b71000000000000000000000000000000000000000000000000000000005f52604160045260245ffd5b7f4e487b71000000000000000000000000000000000000000000000000000000005f52602260045260245ffd5b5f6002820490506001821680610a7c57607f821691505b602082108103610a8f57610a8e610a38565b5b50919050565b5f819050815f5260205f209050919050565b5f6020601f8301049050919050565b5f82821b905092915050565b5f60088302610af17fffffffffffffffffffffffffffffffffffffffffffffffffffffffffffffffff82610ab6565b610afb8683610ab6565b95508019841693508086168417925050509392505050565b5f819050919050565b5f819050919050565b5f610b3f610b3a610b3584610b13565b610b1c565b610b13565b9050919050565b5f819050919050565b610b5883610b25565b610b6c610b6482610b46565b848454610ac2565b825550505050565b5f5f905090565b610b83610b74565b610b8e818484610b4f565b505050565b5b81811015610bb157610ba65f82610b7b565b600181019050610b94565b5050565b601f821115610bf657610bc781610a95565b610bd084610aa7565b81016020851015610bdf578190505b610bf3610beb85610aa7565b830182610b93565b50505b505050565b5f82821c905092915050565b5f610c165f1984600802610bfb565b1980831691505092915050565b5f610c2e8383610c07565b9150826002028217905092915050565b610c4782610a01565b67ffffffffffffffff811115610c6057610c5f610a0b565b5b610c6a8254610a65565b610c75828285610bb5565b5f60209050601f831160018114610ca6575f8415610c94578287015190505b610c9e8582610c23565b865550610d05565b601f198416610cb486610a95565b5f5b82811015610cdb57848901518255600182019150602085019450602081019050610cb6565b86831015610cf85784890151610cf4601f891682610c07565b8355505b6001600288020188555050505b505050505050565b61110e80610d1a5f395ff3fe608060405234801561000f575f5ffd5b5060043610610091575f3560e01c80639135a958116100645780639135a95814610155578063b9830ff114610185578063cb159dfe1461018f578063e702f6b9146101bf578063fc36e15b146101ef57610091565b80630cb6aaf1146100955780630cbc513a146100c55780632cfea327146100f5578063805265e514610125575b5f5ffd5b6100af60048036038101906100aa91906108c8565b61021f565b6040516100bc9190610963565b60405180910390f35b6100df60048036038101906100da91906108c8565b6102c5565b6040516100ec9190610963565b60405180910390f35b61010f600480360381019061010a9190610aaf565b6103a7565b60405161011c9190610b0e565b60405180910390f35b61013f600480360381019061013a9190610aaf565b6103d3565b60405161014c9190610b0e565b60405180910390f35b61016f600480360381019061016a9190610b7c565b6103f9565b60405161017c9190610bb6565b60405180910390f35b61018d61040e565b005b6101a960048036038101906101a49190610aaf565b610478565b6040516101b69190610bb6565b60405180910390f35b6101d960048036038101906101d49190610aaf565b610650565b6040516101e69190610963565b60405180910390f35b61020960048036038101906102049190610aaf565b610756565b6040516102169190610be9565b60405180910390f35b6001818154811061022e575f80fd5b905f5260205f20015f91509050805461024690610c2f565b80601f016020809104026020016040519081016040528092919081815260200182805461027290610c2f565b80156102bd5780601f10610294576101008083540402835291602001916102bd565b820191905f5260205f20905b8154815290600101906020018083116102a057829003601f168201915b505050505081565b60605f60405180602001604052805f81525090505f5f90505b60038054905081101561039d575b60038181548110610300576102ff610c5f565b5b905f5260205f2090600202015f0154841061039057816003828154811061032a57610329610c5f565b5b905f5260205f20906002020160010160405160200161034a929190610d58565b60405160208183030381529060405291506003818154811061036f5761036e610c5f565b5b905f5260205f2090600202015f0154846103899190610da8565b93506102ec565b80806001019150506102de565b5080915050919050565b5f818051602081018201805184825260208301602085012081835280955050505050505f915090505481565b5f5f826040516103e39190610ddb565b9081526020016040518091039020549050919050565b6002602052805f5260405f205f915090505481565b5f5f90505b600180549050811015610468575f6001828154811061043557610434610c5f565b5b905f5260205f200160405161044a9190610df1565b90815260200160405180910390205f90558080600101915050610413565b5060015f61047691906107eb565b565b5f5f8290505f5f90505f5f90505b8251811015610645575f60025f8584815181106104a6576104a5610c5f565b5b602001015160f81c60f81b7effffffffffffffffffffffffffffffffffffffffffffffffffffffffffffff19167effffffffffffffffffffffffffffffffffffffffffffffffffffffffffffff191681526020019081526020015f2054905083516001836105149190610e07565b108015610610575060025f8560018561052d9190610e07565b8151811061053e5761053d610c5f565b5b602001015160f81c60f81b7effffffffffffffffffffffffffffffffffffffffffffffffffffffffffffff19167effffffffffffffffffffffffffffffffffffffffffffffffffffffffffffff191681526020019081526020015f205460025f8685815181106105b1576105b0610c5f565b5b602001015160f81c60f81b7effffffffffffffffffffffffffffffffffffffffffffffffffffffffffffff19167effffffffffffffffffffffffffffffffffffffffffffffffffffffffffffff191681526020019081526020015f2054105b156106285780836106219190610da8565b9250610637565b80836106349190610e07565b92505b508080600101915050610486565b508092505050919050565b60605f8290505f8151036106675782915050610751565b5f815167ffffffffffffffff8111156106835761068261098b565b5b6040519080825280601f01601f1916602001820160405280156106b55781602001600182028036833780820191505090505b5090505f5f90505b825181101561074a578281600185516106d69190610da8565b6106e09190610da8565b815181106106f1576106f0610c5f565b5b602001015160f81c60f81b82828151811061070f5761070e610c5f565b5b60200101907effffffffffffffffffffffffffffffffffffffffffffffffffffffffffffff191690815f1a90535080806001019150506106bd565b5080925050505b919050565b5f5f5f836040516107679190610ddb565b908152602001604051809103902054036107ae57600182908060018154018082558091505060019003905f5260205f20015f9091909190915090816107ac9190610fc8565b505b60015f836040516107bf9190610ddb565b90815260200160405180910390205f8282546107db9190611097565b9250508190555060019050919050565b5080545f8255905f5260205f20908101906108069190610809565b50565b5b80821115610828575f818161081f919061082c565b5060010161080a565b5090565b50805461083890610c2f565b5f825580601f106108495750610866565b601f0160209004905f5260205f20908101906108659190610869565b5b50565b5b80821115610880575f815f90555060010161086a565b5090565b5f604051905090565b5f5ffd5b5f5ffd5b5f819050919050565b6108a781610895565b81146108b1575f5ffd5b50565b5f813590506108c28161089e565b92915050565b5f602082840312156108dd576108dc61088d565b5b5f6108ea848285016108b4565b91505092915050565b5f81519050919050565b5f82825260208201905092915050565b8281835e5f83830152505050565b5f601f19601f8301169050919050565b5f610935826108f3565b61093f81856108fd565b935061094f81856020860161090d565b6109588161091b565b840191505092915050565b5f6020820190508181035f83015261097b818461092b565b905092915050565b5f5ffd5b5f5ffd5b7f4e487b71000000000000000000000000000000000000000000000000000000005f52604160045260245ffd5b6109c18261091b565b810181811067ffffffffffffffff821117156109e0576109df61098b565b5b80604052505050565b5f6109f2610884565b90506109fe82826109b8565b919050565b5f67ffffffffffffffff821115610a1d57610a1c61098b565b5b610a268261091b565b9050602081019050919050565b828183375f83830152505050565b5f610a53610a4e84610a03565b6109e9565b905082815260208101848484011115610a6f57610a6e610987565b5b610a7a848285610a33565b509392505050565b5f82601f830112610a9657610a95610983565b5b8135610aa6848260208601610a41565b91505092915050565b5f60208284031215610ac457610ac361088d565b5b5f82013567ffffffffffffffff811115610ae157610ae0610891565b5b610aed84828501610a82565b91505092915050565b5f819050919050565b610b0881610af6565b82525050565b5f602082019050610b215f830184610aff565b92915050565b5f7fff0000000000000000000000000000000000000000000000000000000000000082169050919050565b610b5b81610b27565b8114610b65575f5ffd5b50565b5f81359050610b7681610b52565b92915050565b5f60208284031215610b9157610b9061088d565b5b5f610b9e84828501610b68565b91505092915050565b610bb081610895565b82525050565b5f602082019050610bc95f830184610ba7565b92915050565b5f8115159050919050565b610be381610bcf565b82525050565b5f602082019050610bfc5f830184610bda565b92915050565b7f4e487b71000000000000000000000000000000000000000000000000000000005f52602260045260245ffd5b5f6002820490506001821680610c4657607f821691505b602082108103610c5957610c58610c02565b5b50919050565b7f4e487b71000000000000000000000000000000000000000000000000000000005f52603260045260245ffd5b5f81905092915050565b5f610ca0826108f3565b610caa8185610c8c565b9350610cba81856020860161090d565b80840191505092915050565b5f819050815f5260205f209050919050565b5f8154610ce481610c2f565b610cee8186610c8c565b9450600182165f8114610d085760018114610d1d57610d4f565b60ff1983168652811515820286019350610d4f565b610d2685610cc6565b5f5b83811015610d4757815481890152600182019150602081019050610d28565b838801955050505b50505092915050565b5f610d638285610c96565b9150610d6f8284610cd8565b91508190509392505050565b7f4e487b71000000000000000000000000000000000000000000000000000000005f52601160045260245ffd5b5f610db282610895565b9150610dbd83610895565b9250828203905081811115610dd557610dd4610d7b565b5b92915050565b5f610de68284610c96565b915081905092915050565b5f610dfc8284610cd8565b915081905092915050565b5f610e1182610895565b9150610e1c83610895565b9250828201905080821115610e3457610e33610d7b565b5b92915050565b5f6020601f8301049050919050565b5f82821b905092915050565b5f60088302610e847fffffffffffffffffffffffffffffffffffffffffffffffffffffffffffffffff82610e49565b610e8e8683610e49565b95508019841693508086168417925050509392505050565b5f819050919050565b5f610ec9610ec4610ebf84610895565b610ea6565b610895565b9050919050565b5f819050919050565b610ee283610eaf565b610ef6610eee82610ed0565b848454610e55565b825550505050565b5f5f905090565b610f0d610efe565b610f18818484610ed9565b505050565b5b81811015610f3b57610f305f82610f05565b600181019050610f1e565b5050565b601f821115610f8057610f5181610cc6565b610f5a84610e3a565b81016020851015610f69578190505b610f7d610f7585610e3a565b830182610f1d565b50505b505050565b5f82821c905092915050565b5f610fa05f1984600802610f85565b1980831691505092915050565b5f610fb88383610f91565b9150826002028217905092915050565b610fd1826108f3565b67ffffffffffffffff811115610fea57610fe961098b565b5b610ff48254610c2f565b610fff828285610f3f565b5f60209050601f831160018114611030575f841561101e578287015190505b6110288582610fad565b86555061108f565b601f19841661103e86610cc6565b5f5b8281101561106557848901518255600182019150602085019450602081019050611040565b86831015611082578489015161107e601f891682610f91565b8355505b6001600288020188555050505b505050505050565b5f6110a182610af6565b91506110ac83610af6565b92508282019050828112155f8312168382125f8412151617156110d2576110d1610d7b565b5b9291505056fea26469706673582212207ef92dbc5b98d48866cc670387dfbc30e3936866e5919ef6a89d0318332c790964736f6c634300081e0033",
					"opcodes": "PUSH1 0x80 PUSH1 0x40 MSTORE CALLVALUE DUP1 ISZERO PUSH2 0xF JUMPI PUSH0 PUSH0 REVERT JUMPDEST POP PUSH1 0x1 PUSH1 0x2 PUSH0 PUSH32 0x4900000000000000000000000000000000000000000000000000000000000000 PUSH31 0xFFFFFFFFFFFFFFFFFFFFFFFFFFFFFFFFFFFFFFFFFFFFFFFFFFFFFFFFFFFFFF NOT AND DUP2 MSTORE PUSH1 0x20 ADD SWAP1 DUP2 MSTORE PUSH1 0x20 ADD PUSH0 KECCAK256 DUP2 SWAP1 SSTORE POP PUSH1 0x5 PUSH1 0x2 PUSH0 PUSH32 0x5600000000000000000000000000000000000000000000000000000000000000 PUSH31 0xFFFFFFFFFFFFFFFFFFFFFFFFFFFFFFFFFFFFFFFFFFFFFFFFFFFFFFFFFFFFFF NOT AND DUP2 MSTORE PUSH1 0x20 ADD SWAP1 DUP2 MSTORE PUSH1 0x20 ADD PUSH0 KECCAK256 DUP2 SWAP1 SSTORE POP PUSH1 0xA PUSH1 0x2 PUSH0 PUSH32 0x5800000000000000000000000000000000000000000000000000000000000000 PUSH31 0xFFFFFFFFFFFFFFFFFFFFFFFFFFFFFFFFFFFFFFFFFFFFFFFFFFFFFFFFFFFFFF NOT AND DUP2 MSTORE PUSH1 0x20 ADD SWAP1 DUP2 MSTORE PUSH1 0x20 ADD PUSH0 KECCAK256 DUP2 SWAP1 SSTORE POP PUSH1 0x32 PUSH1 0x2 PUSH0 PUSH32 0x4C00000000000000000000000000000000000000000000000000000000000000 PUSH31 0xFFFFFFFFFFFFFFFFFFFFFFFFFFFFFFFFFFFFFFFFFFFFFFFFFFFFFFFFFFFFFF NOT AND DUP2 MSTORE PUSH1 0x20 ADD SWAP1 DUP2 MSTORE PUSH1 0x20 ADD PUSH0 KECCAK256 DUP2 SWAP1 SSTORE POP PUSH1 0x64 PUSH1 0x2 PUSH0 PUSH32 0x4300000000000000000000000000000000000000000000000000000000000000 PUSH31 0xFFFFFFFFFFFFFFFFFFFFFFFFFFFFFFFFFFFFFFFFFFFFFFFFFFFFFFFFFFFFFF NOT AND DUP2 MSTORE PUSH1 0x20 ADD SWAP1 DUP2 MSTORE PUSH1 0x20 ADD PUSH0 KECCAK256 DUP2 SWAP1 SSTORE POP PUSH2 0x1F4 PUSH1 0x2 PUSH0 PUSH32 0x4400000000000000000000000000000000000000000000000000000000000000 PUSH31 0xFFFFFFFFFFFFFFFFFFFFFFFFFFFFFFFFFFFFFFFFFFFFFFFFFFFFFFFFFFFFFF NOT AND DUP2 MSTORE PUSH1 0x20 ADD SWAP1 DUP2 MSTORE PUSH1 0x20 ADD PUSH0 KECCAK256 DUP2 SWAP1 SSTORE POP PUSH2 0x3E8 PUSH1 0x2 PUSH0 PUSH32 0x4D00000000000000000000000000000000000000000000000000000000000000 PUSH31 0xFFFFFFFFFFFFFFFFFFFFFFFFFFFFFFFFFFFFFFFFFFFFFFFFFFFFFFFFFFFFFF NOT AND DUP2 MSTORE PUSH1 0x20 ADD SWAP1 DUP2 MSTORE PUSH1 0x20 ADD PUSH0 KECCAK256 DUP2 SWAP1 SSTORE POP PUSH1 0x3 PUSH1 0x40 MLOAD DUP1 PUSH1 0x40 ADD PUSH1 0x40 MSTORE DUP1 PUSH2 0x3E8 DUP2 MSTORE PUSH1 0x20 ADD PUSH1 0x40 MLOAD DUP1 PUSH1 0x40 ADD PUSH1 0x40 MSTORE DUP1 PUSH1 0x1 DUP2 MSTORE PUSH1 0x20 ADD PUSH32 0x4D00000000000000000000000000000000000000000000000000000000000000 DUP2 MSTORE POP DUP2 MSTORE POP SWAP1 DUP1 PUSH1 0x1 DUP2 SLOAD ADD DUP1 DUP3 SSTORE DUP1 SWAP2 POP POP PUSH1 0x1 SWAP1 SUB SWAP1 PUSH0 MSTORE PUSH1 0x20 PUSH0 KECCAK256 SWAP1 PUSH1 0x2 MUL ADD PUSH0 SWAP1 SWAP2 SWAP1 SWAP2 SWAP1 SWAP2 POP PUSH0 DUP3 ADD MLOAD DUP2 PUSH0 ADD SSTORE PUSH1 0x20 DUP3 ADD MLOAD DUP2 PUSH1 0x1 ADD SWAP1 DUP2 PUSH2 0x312 SWAP2 SWAP1 PUSH2 0xC3E JUMP JUMPDEST POP POP POP PUSH1 0x3 PUSH1 0x40 MLOAD DUP1 PUSH1 0x40 ADD PUSH1 0x40 MSTORE DUP1 PUSH2 0x384 DUP2 MSTORE PUSH1 0x20 ADD PUSH1 0x40 MLOAD DUP1 PUSH1 0x40 ADD PUSH1 0x40 MSTORE DUP1 PUSH1 0x2 DUP2 MSTORE PUSH1 0x20 ADD PUSH32 0x434D000000000000000000000000000000000000000000000000000000000000 DUP2 MSTORE POP DUP2 MSTORE POP SWAP1 DUP1 PUSH1 0x1 DUP2 SLOAD ADD DUP1 DUP3 SSTORE DUP1 SWAP2 POP POP PUSH1 0x1 SWAP1 SUB SWAP1 PUSH0 MSTORE PUSH1 0x20 PUSH0 KECCAK256 SWAP1 PUSH1 0x2 MUL ADD PUSH0 SWAP1 SWAP2 SWAP1 SWAP2 SWAP1 SWAP2 POP PUSH0 DUP3 ADD MLOAD DUP2 PUSH0 ADD SSTORE PUSH1 0x20 DUP3 ADD MLOAD DUP2 PUSH1 0x1 ADD SWAP1 DUP2 PUSH2 0x3A6 SWAP2 SWAP1 PUSH2 0xC3E JUMP JUMPDEST POP POP POP PUSH1 0x3 PUSH1 0x40 MLOAD DUP1 PUSH1 0x40 ADD PUSH1 0x40 MSTORE DUP1 PUSH2 0x1F4 DUP2 MSTORE PUSH1 0x20 ADD PUSH1 0x40 MLOAD DUP1 PUSH1 0x40 ADD PUSH1 0x40 MSTORE DUP1 PUSH1 0x1 DUP2 MSTORE PUSH1 0x20 ADD PUSH32 0x4400000000000000000000000000000000000000000000000000000000000000 DUP2 MSTORE POP DUP2 MSTORE POP SWAP1 DUP1 PUSH1 0x1 DUP2 SLOAD ADD DUP1 DUP3 SSTORE DUP1 SWAP2 POP POP PUSH1 0x1 SWAP1 SUB SWAP1 PUSH0 MSTORE PUSH1 0x20 PUSH0 KECCAK256 SWAP1 PUSH1 0x2 MUL ADD PUSH0 SWAP1 SWAP2 SWAP1 SWAP2 SWAP1 SWAP2 POP PUSH0 DUP3 ADD MLOAD DUP2 PUSH0 ADD SSTORE PUSH1 0x20 DUP3 ADD MLOAD DUP2 PUSH1 0x1 ADD SWAP1 DUP2 PUSH2 0x43A SWAP2 SWAP1 PUSH2 0xC3E JUMP JUMPDEST POP POP POP PUSH1 0x3 PUSH1 0x40 MLOAD DUP1 PUSH1 0x40 ADD PUSH1 0x40 MSTORE DUP1 PUSH2 0x190 DUP2 MSTORE PUSH1 0x20 ADD PUSH1 0x40 MLOAD DUP1 PUSH1 0x40 ADD PUSH1 0x40 MSTORE DUP1 PUSH1 0x2 DUP2 MSTORE PUSH1 0x20 ADD PUSH32 0x4344000000000000000000000000000000000000000000000000000000000000 DUP2 MSTORE POP DUP2 MSTORE POP SWAP1 DUP1 PUSH1 0x1 DUP2 SLOAD ADD DUP1 DUP3 SSTORE DUP1 SWAP2 POP POP PUSH1 0x1 SWAP1 SUB SWAP1 PUSH0 MSTORE PUSH1 0x20 PUSH0 KECCAK256 SWAP1 PUSH1 0x2 MUL ADD PUSH0 SWAP1 SWAP2 SWAP1 SWAP2 SWAP1 SWAP2 POP PUSH0 DUP3 ADD MLOAD DUP2 PUSH0 ADD SSTORE PUSH1 0x20 DUP3 ADD MLOAD DUP2 PUSH1 0x1 ADD SWAP1 DUP2 PUSH2 0x4CE SWAP2 SWAP1 PUSH2 0xC3E JUMP JUMPDEST POP POP POP PUSH1 0x3 PUSH1 0x40 MLOAD DUP1 PUSH1 0x40 ADD PUSH1 0x40 MSTORE DUP1 PUSH1 0x64 DUP2 MSTORE PUSH1 0x20 ADD PUSH1 0x40 MLOAD DUP1 PUSH1 0x40 ADD PUSH1 0x40 MSTORE DUP1 PUSH1 0x1 DUP2 MSTORE PUSH1 0x20 ADD PUSH32 0x4300000000000000000000000000000000000000000000000000000000000000 DUP2 MSTORE POP DUP2 MSTORE POP SWAP1 DUP1 PUSH1 0x1 DUP2 SLOAD ADD DUP1 DUP3 SSTORE DUP1 SWAP2 POP POP PUSH1 0x1 SWAP1 SUB SWAP1 PUSH0 MSTORE PUSH1 0x20 PUSH0 KECCAK256 SWAP1 PUSH1 0x2 MUL ADD PUSH0 SWAP1 SWAP2 SWAP1 SWAP2 SWAP1 SWAP2 POP PUSH0 DUP3 ADD MLOAD DUP2 PUSH0 ADD SSTORE PUSH1 0x20 DUP3 ADD MLOAD DUP2 PUSH1 0x1 ADD SWAP1 DUP2 PUSH2 0x561 SWAP2 SWAP1 PUSH2 0xC3E JUMP JUMPDEST POP POP POP PUSH1 0x3 PUSH1 0x40 MLOAD DUP1 PUSH1 0x40 ADD PUSH1 0x40 MSTORE DUP1 PUSH1 0x5A DUP2 MSTORE PUSH1 0x20 ADD PUSH1 0x40 MLOAD DUP1 PUSH1 0x40 ADD PUSH1 0x40 MSTORE DUP1 PUSH1 0x2 DUP2 MSTORE PUSH1 0x20 ADD PUSH32 0x5843000000000000000000000000000000000000000000000000000000000000 DUP2 MSTORE POP DUP2 MSTORE POP SWAP1 DUP1 PUSH1 0x1 DUP2 SLOAD ADD DUP1 DUP3 SSTORE DUP1 SWAP2 POP POP PUSH1 0x1 SWAP1 SUB SWAP1 PUSH0 MSTORE PUSH1 0x20 PUSH0 KECCAK256 SWAP1 PUSH1 0x2 MUL ADD PUSH0 SWAP1 SWAP2 SWAP1 SWAP2 SWAP1 SWAP2 POP PUSH0 DUP3 ADD MLOAD DUP2 PUSH0 ADD SSTORE PUSH1 0x20 DUP3 ADD MLOAD DUP2 PUSH1 0x1 ADD SWAP1 DUP2 PUSH2 0x5F4 SWAP2 SWAP1 PUSH2 0xC3E JUMP JUMPDEST POP POP POP PUSH1 0x3 PUSH1 0x40 MLOAD DUP1 PUSH1 0x40 ADD PUSH1 0x40 MSTORE DUP1 PUSH1 0x32 DUP2 MSTORE PUSH1 0x20 ADD PUSH1 0x40 MLOAD DUP1 PUSH1 0x40 ADD PUSH1 0x40 MSTORE DUP1 PUSH1 0x1 DUP2 MSTORE PUSH1 0x20 ADD PUSH32 0x4C00000000000000000000000000000000000000000000000000000000000000 DUP2 MSTORE POP DUP2 MSTORE POP SWAP1 DUP1 PUSH1 0x1 DUP2 SLOAD ADD DUP1 DUP3 SSTORE DUP1 SWAP2 POP POP PUSH1 0x1 SWAP1 SUB SWAP1 PUSH0 MSTORE PUSH1 0x20 PUSH0 KECCAK256 SWAP1 PUSH1 0x2 MUL ADD PUSH0 SWAP1 SWAP2 SWAP1 SWAP2 SWAP1 SWAP2 POP PUSH0 DUP3 ADD MLOAD DUP2 PUSH0 ADD SSTORE PUSH1 0x20 DUP3 ADD MLOAD DUP2 PUSH1 0x1 ADD SWAP1 DUP2 PUSH2 0x687 SWAP2 SWAP1 PUSH2 0xC3E JUMP JUMPDEST POP POP POP PUSH1 0x3 PUSH1 0x40 MLOAD DUP1 PUSH1 0x40 ADD PUSH1 0x40 MSTORE DUP1 PUSH1 0x28 DUP2 MSTORE PUSH1 0x20 ADD PUSH1 0x40 MLOAD DUP1 PUSH1 0x40 ADD PUSH1 0x40 MSTORE DUP1 PUSH1 0x2 DUP2 MSTORE PUSH1 0x20 ADD PUSH32 0x584C000000000000000000000000000000000000000000000000000000000000 DUP2 MSTORE POP DUP2 MSTORE POP SWAP1 DUP1 PUSH1 0x1 DUP2 SLOAD ADD DUP1 DUP3 SSTORE DUP1 SWAP2 POP POP PUSH1 0x1 SWAP1 SUB SWAP1 PUSH0 MSTORE PUSH1 0x20 PUSH0 KECCAK256 SWAP1 PUSH1 0x2 MUL ADD PUSH0 SWAP1 SWAP2 SWAP1 SWAP2 SWAP1 SWAP2 POP PUSH0 DUP3 ADD MLOAD DUP2 PUSH0 ADD SSTORE PUSH1 0x20 DUP3 ADD MLOAD DUP2 PUSH1 0x1 ADD SWAP1 DUP2 PUSH2 0x71A SWAP2 SWAP1 PUSH2 0xC3E JUMP JUMPDEST POP POP POP PUSH1 0x3 PUSH1 0x40 MLOAD DUP1 PUSH1 0x40 ADD PUSH1 0x40 MSTORE DUP1 PUSH1 0xA DUP2 MSTORE PUSH1 0x20 ADD PUSH1 0x40 MLOAD DUP1 PUSH1 0x40 ADD PUSH1 0x40 MSTORE DUP1 PUSH1 0x1 DUP2 MSTORE PUSH1 0x20 ADD PUSH32 0x5800000000000000000000000000000000000000000000000000000000000000 DUP2 MSTORE POP DUP2 MSTORE POP SWAP1 DUP1 PUSH1 0x1 DUP2 SLOAD ADD DUP1 DUP3 SSTORE DUP1 SWAP2 POP POP PUSH1 0x1 SWAP1 SUB SWAP1 PUSH0 MSTORE PUSH1 0x20 PUSH0 KECCAK256 SWAP1 PUSH1 0x2 MUL ADD PUSH0 SWAP1 SWAP2 SWAP1 SWAP2 SWAP1 SWAP2 POP PUSH0 DUP3 ADD MLOAD DUP2 PUSH0 ADD SSTORE PUSH1 0x20 DUP3 ADD MLOAD DUP2 PUSH1 0x1 ADD SWAP1 DUP2 PUSH2 0x7AD SWAP2 SWAP1 PUSH2 0xC3E JUMP JUMPDEST POP POP POP PUSH1 0x3 PUSH1 0x40 MLOAD DUP1 PUSH1 0x40 ADD PUSH1 0x40 MSTORE DUP1 PUSH1 0x9 DUP2 MSTORE PUSH1 0x20 ADD PUSH1 0x40 MLOAD DUP1 PUSH1 0x40 ADD PUSH1 0x40 MSTORE DUP1 PUSH1 0x2 DUP2 MSTORE PUSH1 0x20 ADD PUSH32 0x4958000000000000000000000000000000000000000000000000000000000000 DUP2 MSTORE POP DUP2 MSTORE POP SWAP1 DUP1 PUSH1 0x1 DUP2 SLOAD ADD DUP1 DUP3 SSTORE DUP1 SWAP2 POP POP PUSH1 0x1 SWAP1 SUB SWAP1 PUSH0 MSTORE PUSH1 0x20 PUSH0 KECCAK256 SWAP1 PUSH1 0x2 MUL ADD PUSH0 SWAP1 SWAP2 SWAP1 SWAP2 SWAP1 SWAP2 POP PUSH0 DUP3 ADD MLOAD DUP2 PUSH0 ADD SSTORE PUSH1 0x20 DUP3 ADD MLOAD DUP2 PUSH1 0x1 ADD SWAP1 DUP2 PUSH2 0x840 SWAP2 SWAP1 PUSH2 0xC3E JUMP JUMPDEST POP POP POP PUSH1 0x3 PUSH1 0x40 MLOAD DUP1 PUSH1 0x40 ADD PUSH1 0x40 MSTORE DUP1 PUSH1 0x5 DUP2 MSTORE PUSH1 0x20 ADD PUSH1 0x40 MLOAD DUP1 PUSH1 0x40 ADD PUSH1 0x40 MSTORE DUP1 PUSH1 0x1 DUP2 MSTORE PUSH1 0x20 ADD PUSH32 0x5600000000000000000000000000000000000000000000000000000000000000 DUP2 MSTORE POP DUP2 MSTORE POP SWAP1 DUP1 PUSH1 0x1 DUP2 SLOAD ADD DUP1 DUP3 SSTORE DUP1 SWAP2 POP POP PUSH1 0x1 SWAP1 SUB SWAP1 PUSH0 MSTORE PUSH1 0x20 PUSH0 KECCAK256 SWAP1 PUSH1 0x2 MUL ADD PUSH0 SWAP1 SWAP2 SWAP1 SWAP2 SWAP1 SWAP2 POP PUSH0 DUP3 ADD MLOAD DUP2 PUSH0 ADD SSTORE PUSH1 0x20 DUP3 ADD MLOAD DUP2 PUSH1 0x1 ADD SWAP1 DUP2 PUSH2 0x8D3 SWAP2 SWAP1 PUSH2 0xC3E JUMP JUMPDEST POP POP POP PUSH1 0x3 PUSH1 0x40 MLOAD DUP1 PUSH1 0x40 ADD PUSH1 0x40 MSTORE DUP1 PUSH1 0x4 DUP2 MSTORE PUSH1 0x20 ADD PUSH1 0x40 MLOAD DUP1 PUSH1 0x40 ADD PUSH1 0x40 MSTORE DUP1 PUSH1 0x2 DUP2 MSTORE PUSH1 0x20 ADD PUSH32 0x4956000000000000000000000000000000000000000000000000000000000000 DUP2 MSTORE POP DUP2 MSTORE POP SWAP1 DUP1 PUSH1 0x1 DUP2 SLOAD ADD DUP1 DUP3 SSTORE DUP1 SWAP2 POP POP PUSH1 0x1 SWAP1 SUB SWAP1 PUSH0 MSTORE PUSH1 0x20 PUSH0 KECCAK256 SWAP1 PUSH1 0x2 MUL ADD PUSH0 SWAP1 SWAP2 SWAP1 SWAP2 SWAP1 SWAP2 POP PUSH0 DUP3 ADD MLOAD DUP2 PUSH0 ADD SSTORE PUSH1 0x20 DUP3 ADD MLOAD DUP2 PUSH1 0x1 ADD SWAP1 DUP2 PUSH2 0x966 SWAP2 SWAP1 PUSH2 0xC3E JUMP JUMPDEST POP POP POP PUSH1 0x3 PUSH1 0x40 MLOAD DUP1 PUSH1 0x40 ADD PUSH1 0x40 MSTORE DUP1 PUSH1 0x1 DUP2 MSTORE PUSH1 0x20 ADD PUSH1 0x40 MLOAD DUP1 PUSH1 0x40 ADD PUSH1 0x40 MSTORE DUP1 PUSH1 0x1 DUP2 MSTORE PUSH1 0x20 ADD PUSH32 0x4900000000000000000000000000000000000000000000000000000000000000 DUP2 MSTORE POP DUP2 MSTORE POP SWAP1 DUP1 PUSH1 0x1 DUP2 SLOAD ADD DUP1 DUP3 SSTORE DUP1 SWAP2 POP POP PUSH1 0x1 SWAP1 SUB SWAP1 PUSH0 MSTORE PUSH1 0x20 PUSH0 KECCAK256 SWAP1 PUSH1 0x2 MUL ADD PUSH0 SWAP1 SWAP2 SWAP1 SWAP2 SWAP1 SWAP2 POP PUSH0 DUP3 ADD MLOAD DUP2 PUSH0 ADD SSTORE PUSH1 0x20 DUP3 ADD MLOAD DUP2 PUSH1 0x1 ADD SWAP1 DUP2 PUSH2 0x9F9 SWAP2 SWAP1 PUSH2 0xC3E JUMP JUMPDEST POP POP POP PUSH2 0xD0D JUMP JUMPDEST PUSH0 DUP2 MLOAD SWAP1 POP SWAP2 SWAP1 POP JUMP JUMPDEST PUSH32 0x4E487B7100000000000000000000000000000000000000000000000000000000 PUSH0 MSTORE PUSH1 0x41 PUSH1 0x4 MSTORE PUSH1 0x24 PUSH0 REVERT JUMPDEST PUSH32 0x4E487B7100000000000000000000000000000000000000000000000000000000 PUSH0 MSTORE PUSH1 0x22 PUSH1 0x4 MSTORE PUSH1 0x24 PUSH0 REVERT JUMPDEST PUSH0 PUSH1 0x2 DUP3 DIV SWAP1 POP PUSH1 0x1 DUP3 AND DUP1 PUSH2 0xA7C JUMPI PUSH1 0x7F DUP3 AND SWAP2 POP JUMPDEST PUSH1 0x20 DUP3 LT DUP2 SUB PUSH2 0xA8F JUMPI PUSH2 0xA8E PUSH2 0xA38 JUMP JUMPDEST JUMPDEST POP SWAP2 SWAP1 POP JUMP JUMPDEST PUSH0 DUP2 SWAP1 POP DUP2 PUSH0 MSTORE PUSH1 0x20 PUSH0 KECCAK256 SWAP1 POP SWAP2 SWAP1 POP JUMP JUMPDEST PUSH0 PUSH1 0x20 PUSH1 0x1F DUP4 ADD DIV SWAP1 POP SWAP2 SWAP1 POP JUMP JUMPDEST PUSH0 DUP3 DUP3 SHL SWAP1 POP SWAP3 SWAP2 POP POP JUMP JUMPDEST PUSH0 PUSH1 0x8 DUP4 MUL PUSH2 0xAF1 PUSH32 0xFFFFFFFFFFFFFFFFFFFFFFFFFFFFFFFFFFFFFFFFFFFFFFFFFFFFFFFFFFFFFFFF DUP3 PUSH2 0xAB6 JUMP JUMPDEST PUSH2 0xAFB DUP7 DUP4 PUSH2 0xAB6 JUMP JUMPDEST SWAP6 POP DUP1 NOT DUP5 AND SWAP4 POP DUP1 DUP7 AND DUP5 OR SWAP3 POP POP POP SWAP4 SWAP3 POP POP POP JUMP JUMPDEST PUSH0 DUP2 SWAP1 POP SWAP2 SWAP1 POP JUMP JUMPDEST PUSH0 DUP2 SWAP1 POP SWAP2 SWAP1 POP JUMP JUMPDEST PUSH0 PUSH2 0xB3F PUSH2 0xB3A PUSH2 0xB35 DUP5 PUSH2 0xB13 JUMP JUMPDEST PUSH2 0xB1C JUMP JUMPDEST PUSH2 0xB13 JUMP JUMPDEST SWAP1 POP SWAP2 SWAP1 POP JUMP JUMPDEST PUSH0 DUP2 SWAP1 POP SWAP2 SWAP1 POP JUMP JUMPDEST PUSH2 0xB58 DUP4 PUSH2 0xB25 JUMP JUMPDEST PUSH2 0xB6C PUSH2 0xB64 DUP3 PUSH2 0xB46 JUMP JUMPDEST DUP5 DUP5 SLOAD PUSH2 0xAC2 JUMP JUMPDEST DUP3 SSTORE POP POP POP POP JUMP JUMPDEST PUSH0 PUSH0 SWAP1 POP SWAP1 JUMP JUMPDEST PUSH2 0xB83 PUSH2 0xB74 JUMP JUMPDEST PUSH2 0xB8E DUP2 DUP5 DUP5 PUSH2 0xB4F JUMP JUMPDEST POP POP POP JUMP JUMPDEST JUMPDEST DUP2 DUP2 LT ISZERO PUSH2 0xBB1 JUMPI PUSH2 0xBA6 PUSH0 DUP3 PUSH2 0xB7B JUMP JUMPDEST PUSH1 0x1 DUP2 ADD SWAP1 POP PUSH2 0xB94 JUMP JUMPDEST POP POP JUMP JUMPDEST PUSH1 0x1F DUP3 GT ISZERO PUSH2 0xBF6 JUMPI PUSH2 0xBC7 DUP2 PUSH2 0xA95 JUMP JUMPDEST PUSH2 0xBD0 DUP5 PUSH2 0xAA7 JUMP JUMPDEST DUP2 ADD PUSH1 0x20 DUP6 LT ISZERO PUSH2 0xBDF JUMPI DUP2 SWAP1 POP JUMPDEST PUSH2 0xBF3 PUSH2 0xBEB DUP6 PUSH2 0xAA7 JUMP JUMPDEST DUP4 ADD DUP3 PUSH2 0xB93 JUMP JUMPDEST POP POP JUMPDEST POP POP POP JUMP JUMPDEST PUSH0 DUP3 DUP3 SHR SWAP1 POP SWAP3 SWAP2 POP POP JUMP JUMPDEST PUSH0 PUSH2 0xC16 PUSH0 NOT DUP5 PUSH1 0x8 MUL PUSH2 0xBFB JUMP JUMPDEST NOT DUP1 DUP4 AND SWAP2 POP POP SWAP3 SWAP2 POP POP JUMP JUMPDEST PUSH0 PUSH2 0xC2E DUP4 DUP4 PUSH2 0xC07 JUMP JUMPDEST SWAP2 POP DUP3 PUSH1 0x2 MUL DUP3 OR SWAP1 POP SWAP3 SWAP2 POP POP JUMP JUMPDEST PUSH2 0xC47 DUP3 PUSH2 0xA01 JUMP JUMPDEST PUSH8 0xFFFFFFFFFFFFFFFF DUP2 GT ISZERO PUSH2 0xC60 JUMPI PUSH2 0xC5F PUSH2 0xA0B JUMP JUMPDEST JUMPDEST PUSH2 0xC6A DUP3 SLOAD PUSH2 0xA65 JUMP JUMPDEST PUSH2 0xC75 DUP3 DUP3 DUP6 PUSH2 0xBB5 JUMP JUMPDEST PUSH0 PUSH1 0x20 SWAP1 POP PUSH1 0x1F DUP4 GT PUSH1 0x1 DUP2 EQ PUSH2 0xCA6 JUMPI PUSH0 DUP5 ISZERO PUSH2 0xC94 JUMPI DUP3 DUP8 ADD MLOAD SWAP1 POP JUMPDEST PUSH2 0xC9E DUP6 DUP3 PUSH2 0xC23 JUMP JUMPDEST DUP7 SSTORE POP PUSH2 0xD05 JUMP JUMPDEST PUSH1 0x1F NOT DUP5 AND PUSH2 0xCB4 DUP7 PUSH2 0xA95 JUMP JUMPDEST PUSH0 JUMPDEST DUP3 DUP2 LT ISZERO PUSH2 0xCDB JUMPI DUP5 DUP10 ADD MLOAD DUP3 SSTORE PUSH1 0x1 DUP3 ADD SWAP2 POP PUSH1 0x20 DUP6 ADD SWAP5 POP PUSH1 0x20 DUP2 ADD SWAP1 POP PUSH2 0xCB6 JUMP JUMPDEST DUP7 DUP4 LT ISZERO PUSH2 0xCF8 JUMPI DUP5 DUP10 ADD MLOAD PUSH2 0xCF4 PUSH1 0x1F DUP10 AND DUP3 PUSH2 0xC07 JUMP JUMPDEST DUP4 SSTORE POP JUMPDEST PUSH1 0x1 PUSH1 0x2 DUP9 MUL ADD DUP9 SSTORE POP POP POP JUMPDEST POP POP POP POP POP POP JUMP JUMPDEST PUSH2 0x110E DUP1 PUSH2 0xD1A PUSH0 CODECOPY PUSH0 RETURN INVALID PUSH1 0x80 PUSH1 0x40 MSTORE CALLVALUE DUP1 ISZERO PUSH2 0xF JUMPI PUSH0 PUSH0 REVERT JUMPDEST POP PUSH1 0x4 CALLDATASIZE LT PUSH2 0x91 JUMPI PUSH0 CALLDATALOAD PUSH1 0xE0 SHR DUP1 PUSH4 0x9135A958 GT PUSH2 0x64 JUMPI DUP1 PUSH4 0x9135A958 EQ PUSH2 0x155 JUMPI DUP1 PUSH4 0xB9830FF1 EQ PUSH2 0x185 JUMPI DUP1 PUSH4 0xCB159DFE EQ PUSH2 0x18F JUMPI DUP1 PUSH4 0xE702F6B9 EQ PUSH2 0x1BF JUMPI DUP1 PUSH4 0xFC36E15B EQ PUSH2 0x1EF JUMPI PUSH2 0x91 JUMP JUMPDEST DUP1 PUSH4 0xCB6AAF1 EQ PUSH2 0x95 JUMPI DUP1 PUSH4 0xCBC513A EQ PUSH2 0xC5 JUMPI DUP1 PUSH4 0x2CFEA327 EQ PUSH2 0xF5 JUMPI DUP1 PUSH4 0x805265E5 EQ PUSH2 0x125 JUMPI JUMPDEST PUSH0 PUSH0 REVERT JUMPDEST PUSH2 0xAF PUSH1 0x4 DUP1 CALLDATASIZE SUB DUP2 ADD SWAP1 PUSH2 0xAA SWAP2 SWAP1 PUSH2 0x8C8 JUMP JUMPDEST PUSH2 0x21F JUMP JUMPDEST PUSH1 0x40 MLOAD PUSH2 0xBC SWAP2 SWAP1 PUSH2 0x963 JUMP JUMPDEST PUSH1 0x40 MLOAD DUP1 SWAP2 SUB SWAP1 RETURN JUMPDEST PUSH2 0xDF PUSH1 0x4 DUP1 CALLDATASIZE SUB DUP2 ADD SWAP1 PUSH2 0xDA SWAP2 SWAP1 PUSH2 0x8C8 JUMP JUMPDEST PUSH2 0x2C5 JUMP JUMPDEST PUSH1 0x40 MLOAD PUSH2 0xEC SWAP2 SWAP1 PUSH2 0x963 JUMP JUMPDEST PUSH1 0x40 MLOAD DUP1 SWAP2 SUB SWAP1 RETURN JUMPDEST PUSH2 0x10F PUSH1 0x4 DUP1 CALLDATASIZE SUB DUP2 ADD SWAP1 PUSH2 0x10A SWAP2 SWAP1 PUSH2 0xAAF JUMP JUMPDEST PUSH2 0x3A7 JUMP JUMPDEST PUSH1 0x40 MLOAD PUSH2 0x11C SWAP2 SWAP1 PUSH2 0xB0E JUMP JUMPDEST PUSH1 0x40 MLOAD DUP1 SWAP2 SUB SWAP1 RETURN JUMPDEST PUSH2 0x13F PUSH1 0x4 DUP1 CALLDATASIZE SUB DUP2 ADD SWAP1 PUSH2 0x13A SWAP2 SWAP1 PUSH2 0xAAF JUMP JUMPDEST PUSH2 0x3D3 JUMP JUMPDEST PUSH1 0x40 MLOAD PUSH2 0x14C SWAP2 SWAP1 PUSH2 0xB0E JUMP JUMPDEST PUSH1 0x40 MLOAD DUP1 SWAP2 SUB SWAP1 RETURN JUMPDEST PUSH2 0x16F PUSH1 0x4 DUP1 CALLDATASIZE SUB DUP2 ADD SWAP1 PUSH2 0x16A SWAP2 SWAP1 PUSH2 0xB7C JUMP JUMPDEST PUSH2 0x3F9 JUMP JUMPDEST PUSH1 0x40 MLOAD PUSH2 0x17C SWAP2 SWAP1 PUSH2 0xBB6 JUMP JUMPDEST PUSH1 0x40 MLOAD DUP1 SWAP2 SUB SWAP1 RETURN JUMPDEST PUSH2 0x18D PUSH2 0x40E JUMP JUMPDEST STOP JUMPDEST PUSH2 0x1A9 PUSH1 0x4 DUP1 CALLDATASIZE SUB DUP2 ADD SWAP1 PUSH2 0x1A4 SWAP2 SWAP1 PUSH2 0xAAF JUMP JUMPDEST PUSH2 0x478 JUMP JUMPDEST PUSH1 0x40 MLOAD PUSH2 0x1B6 SWAP2 SWAP1 PUSH2 0xBB6 JUMP JUMPDEST PUSH1 0x40 MLOAD DUP1 SWAP2 SUB SWAP1 RETURN JUMPDEST PUSH2 0x1D9 PUSH1 0x4 DUP1 CALLDATASIZE SUB DUP2 ADD SWAP1 PUSH2 0x1D4 SWAP2 SWAP1 PUSH2 0xAAF JUMP JUMPDEST PUSH2 0x650 JUMP JUMPDEST PUSH1 0x40 MLOAD PUSH2 0x1E6 SWAP2 SWAP1 PUSH2 0x963 JUMP JUMPDEST PUSH1 0x40 MLOAD DUP1 SWAP2 SUB SWAP1 RETURN JUMPDEST PUSH2 0x209 PUSH1 0x4 DUP1 CALLDATASIZE SUB DUP2 ADD SWAP1 PUSH2 0x204 SWAP2 SWAP1 PUSH2 0xAAF JUMP JUMPDEST PUSH2 0x756 JUMP JUMPDEST PUSH1 0x40 MLOAD PUSH2 0x216 SWAP2 SWAP1 PUSH2 0xBE9 JUMP JUMPDEST PUSH1 0x40 MLOAD DUP1 SWAP2 SUB SWAP1 RETURN JUMPDEST PUSH1 0x1 DUP2 DUP2 SLOAD DUP2 LT PUSH2 0x22E JUMPI PUSH0 DUP1 REVERT JUMPDEST SWAP1 PUSH0 MSTORE PUSH1 0x20 PUSH0 KECCAK256 ADD PUSH0 SWAP2 POP SWAP1 POP DUP1 SLOAD PUSH2 0x246 SWAP1 PUSH2 0xC2F JUMP JUMPDEST DUP1 PUSH1 0x1F ADD PUSH1 0x20 DUP1 SWAP2 DIV MUL PUSH1 0x20 ADD PUSH1 0x40 MLOAD SWAP1 DUP2 ADD PUSH1 0x40 MSTORE DUP1 SWAP3 SWAP2 SWAP1 DUP2 DUP2 MSTORE PUSH1 0x20 ADD DUP3 DUP1 SLOAD PUSH2 0x272 SWAP1 PUSH2 0xC2F JUMP JUMPDEST DUP1 ISZERO PUSH2 0x2BD JUMPI DUP1 PUSH1 0x1F LT PUSH2 0x294 JUMPI PUSH2 0x100 DUP1 DUP4 SLOAD DIV MUL DUP4 MSTORE SWAP2 PUSH1 0x20 ADD SWAP2 PUSH2 0x2BD JUMP JUMPDEST DUP3 ADD SWAP2 SWAP1 PUSH0 MSTORE PUSH1 0x20 PUSH0 KECCAK256 SWAP1 JUMPDEST DUP2 SLOAD DUP2 MSTORE SWAP1 PUSH1 0x1 ADD SWAP1 PUSH1 0x20 ADD DUP1 DUP4 GT PUSH2 0x2A0 JUMPI DUP3 SWAP1 SUB PUSH1 0x1F AND DUP3 ADD SWAP2 JUMPDEST POP POP POP POP POP DUP2 JUMP JUMPDEST PUSH1 0x60 PUSH0 PUSH1 0x40 MLOAD DUP1 PUSH1 0x20 ADD PUSH1 0x40 MSTORE DUP1 PUSH0 DUP2 MSTORE POP SWAP1 POP PUSH0 PUSH0 SWAP1 POP JUMPDEST PUSH1 0x3 DUP1 SLOAD SWAP1 POP DUP2 LT ISZERO PUSH2 0x39D JUMPI JUMPDEST PUSH1 0x3 DUP2 DUP2 SLOAD DUP2 LT PUSH2 0x300 JUMPI PUSH2 0x2FF PUSH2 0xC5F JUMP JUMPDEST JUMPDEST SWAP1 PUSH0 MSTORE PUSH1 0x20 PUSH0 KECCAK256 SWAP1 PUSH1 0x2 MUL ADD PUSH0 ADD SLOAD DUP5 LT PUSH2 0x390 JUMPI DUP2 PUSH1 0x3 DUP3 DUP2 SLOAD DUP2 LT PUSH2 0x32A JUMPI PUSH2 0x329 PUSH2 0xC5F JUMP JUMPDEST JUMPDEST SWAP1 PUSH0 MSTORE PUSH1 0x20 PUSH0 KECCAK256 SWAP1 PUSH1 0x2 MUL ADD PUSH1 0x1 ADD PUSH1 0x40 MLOAD PUSH1 0x20 ADD PUSH2 0x34A SWAP3 SWAP2 SWAP1 PUSH2 0xD58 JUMP JUMPDEST PUSH1 0x40 MLOAD PUSH1 0x20 DUP2 DUP4 SUB SUB DUP2 MSTORE SWAP1 PUSH1 0x40 MSTORE SWAP2 POP PUSH1 0x3 DUP2 DUP2 SLOAD DUP2 LT PUSH2 0x36F JUMPI PUSH2 0x36E PUSH2 0xC5F JUMP JUMPDEST JUMPDEST SWAP1 PUSH0 MSTORE PUSH1 0x20 PUSH0 KECCAK256 SWAP1 PUSH1 0x2 MUL ADD PUSH0 ADD SLOAD DUP5 PUSH2 0x389 SWAP2 SWAP1 PUSH2 0xDA8 JUMP JUMPDEST SWAP4 POP PUSH2 0x2EC JUMP JUMPDEST DUP1 DUP1 PUSH1 0x1 ADD SWAP2 POP POP PUSH2 0x2DE JUMP JUMPDEST POP DUP1 SWAP2 POP POP SWAP2 SWAP1 POP JUMP JUMPDEST PUSH0 DUP2 DUP1 MLOAD PUSH1 0x20 DUP2 ADD DUP3 ADD DUP1 MLOAD DUP5 DUP3 MSTORE PUSH1 0x20 DUP4 ADD PUSH1 0x20 DUP6 ADD KECCAK256 DUP2 DUP4 MSTORE DUP1 SWAP6 POP POP POP POP POP POP PUSH0 SWAP2 POP SWAP1 POP SLOAD DUP2 JUMP JUMPDEST PUSH0 PUSH0 DUP3 PUSH1 0x40 MLOAD PUSH2 0x3E3 SWAP2 SWAP1 PUSH2 0xDDB JUMP JUMPDEST SWAP1 DUP2 MSTORE PUSH1 0x20 ADD PUSH1 0x40 MLOAD DUP1 SWAP2 SUB SWAP1 KECCAK256 SLOAD SWAP1 POP SWAP2 SWAP1 POP JUMP JUMPDEST PUSH1 0x2 PUSH1 0x20 MSTORE DUP1 PUSH0 MSTORE PUSH1 0x40 PUSH0 KECCAK256 PUSH0 SWAP2 POP SWAP1 POP SLOAD DUP2 JUMP JUMPDEST PUSH0 PUSH0 SWAP1 POP JUMPDEST PUSH1 0x1 DUP1 SLOAD SWAP1 POP DUP2 LT ISZERO PUSH2 0x468 JUMPI PUSH0 PUSH1 0x1 DUP3 DUP2 SLOAD DUP2 LT PUSH2 0x435 JUMPI PUSH2 0x434 PUSH2 0xC5F JUMP JUMPDEST JUMPDEST SWAP1 PUSH0 MSTORE PUSH1 0x20 PUSH0 KECCAK256 ADD PUSH1 0x40 MLOAD PUSH2 0x44A SWAP2 SWAP1 PUSH2 0xDF1 JUMP JUMPDEST SWAP1 DUP2 MSTORE PUSH1 0x20 ADD PUSH1 0x40 MLOAD DUP1 SWAP2 SUB SWAP1 KECCAK256 PUSH0 SWAP1 SSTORE DUP1 DUP1 PUSH1 0x1 ADD SWAP2 POP POP PUSH2 0x413 JUMP JUMPDEST POP PUSH1 0x1 PUSH0 PUSH2 0x476 SWAP2 SWAP1 PUSH2 0x7EB JUMP JUMPDEST JUMP JUMPDEST PUSH0 PUSH0 DUP3 SWAP1 POP PUSH0 PUSH0 SWAP1 POP PUSH0 PUSH0 SWAP1 POP JUMPDEST DUP3 MLOAD DUP2 LT ISZERO PUSH2 0x645 JUMPI PUSH0 PUSH1 0x2 PUSH0 DUP6 DUP5 DUP2 MLOAD DUP2 LT PUSH2 0x4A6 JUMPI PUSH2 0x4A5 PUSH2 0xC5F JUMP JUMPDEST JUMPDEST PUSH1 0x20 ADD ADD MLOAD PUSH1 0xF8 SHR PUSH1 0xF8 SHL PUSH31 0xFFFFFFFFFFFFFFFFFFFFFFFFFFFFFFFFFFFFFFFFFFFFFFFFFFFFFFFFFFFFFF NOT AND PUSH31 0xFFFFFFFFFFFFFFFFFFFFFFFFFFFFFFFFFFFFFFFFFFFFFFFFFFFFFFFFFFFFFF NOT AND DUP2 MSTORE PUSH1 0x20 ADD SWAP1 DUP2 MSTORE PUSH1 0x20 ADD PUSH0 KECCAK256 SLOAD SWAP1 POP DUP4 MLOAD PUSH1 0x1 DUP4 PUSH2 0x514 SWAP2 SWAP1 PUSH2 0xE07 JUMP JUMPDEST LT DUP1 ISZERO PUSH2 0x610 JUMPI POP PUSH1 0x2 PUSH0 DUP6 PUSH1 0x1 DUP6 PUSH2 0x52D SWAP2 SWAP1 PUSH2 0xE07 JUMP JUMPDEST DUP2 MLOAD DUP2 LT PUSH2 0x53E JUMPI PUSH2 0x53D PUSH2 0xC5F JUMP JUMPDEST JUMPDEST PUSH1 0x20 ADD ADD MLOAD PUSH1 0xF8 SHR PUSH1 0xF8 SHL PUSH31 0xFFFFFFFFFFFFFFFFFFFFFFFFFFFFFFFFFFFFFFFFFFFFFFFFFFFFFFFFFFFFFF NOT AND PUSH31 0xFFFFFFFFFFFFFFFFFFFFFFFFFFFFFFFFFFFFFFFFFFFFFFFFFFFFFFFFFFFFFF NOT AND DUP2 MSTORE PUSH1 0x20 ADD SWAP1 DUP2 MSTORE PUSH1 0x20 ADD PUSH0 KECCAK256 SLOAD PUSH1 0x2 PUSH0 DUP7 DUP6 DUP2 MLOAD DUP2 LT PUSH2 0x5B1 JUMPI PUSH2 0x5B0 PUSH2 0xC5F JUMP JUMPDEST JUMPDEST PUSH1 0x20 ADD ADD MLOAD PUSH1 0xF8 SHR PUSH1 0xF8 SHL PUSH31 0xFFFFFFFFFFFFFFFFFFFFFFFFFFFFFFFFFFFFFFFFFFFFFFFFFFFFFFFFFFFFFF NOT AND PUSH31 0xFFFFFFFFFFFFFFFFFFFFFFFFFFFFFFFFFFFFFFFFFFFFFFFFFFFFFFFFFFFFFF NOT AND DUP2 MSTORE PUSH1 0x20 ADD SWAP1 DUP2 MSTORE PUSH1 0x20 ADD PUSH0 KECCAK256 SLOAD LT JUMPDEST ISZERO PUSH2 0x628 JUMPI DUP1 DUP4 PUSH2 0x621 SWAP2 SWAP1 PUSH2 0xDA8 JUMP JUMPDEST SWAP3 POP PUSH2 0x637 JUMP JUMPDEST DUP1 DUP4 PUSH2 0x634 SWAP2 SWAP1 PUSH2 0xE07 JUMP JUMPDEST SWAP3 POP JUMPDEST POP DUP1 DUP1 PUSH1 0x1 ADD SWAP2 POP POP PUSH2 0x486 JUMP JUMPDEST POP DUP1 SWAP3 POP POP POP SWAP2 SWAP1 POP JUMP JUMPDEST PUSH1 0x60 PUSH0 DUP3 SWAP1 POP PUSH0 DUP2 MLOAD SUB PUSH2 0x667 JUMPI DUP3 SWAP2 POP POP PUSH2 0x751 JUMP JUMPDEST PUSH0 DUP2 MLOAD PUSH8 0xFFFFFFFFFFFFFFFF DUP2 GT ISZERO PUSH2 0x683 JUMPI PUSH2 0x682 PUSH2 0x98B JUMP JUMPDEST JUMPDEST PUSH1 0x40 MLOAD SWAP1 DUP1 DUP3 MSTORE DUP1 PUSH1 0x1F ADD PUSH1 0x1F NOT AND PUSH1 0x20 ADD DUP3 ADD PUSH1 0x40 MSTORE DUP1 ISZERO PUSH2 0x6B5 JUMPI DUP2 PUSH1 0x20 ADD PUSH1 0x1 DUP3 MUL DUP1 CALLDATASIZE DUP4 CALLDATACOPY DUP1 DUP3 ADD SWAP2 POP POP SWAP1 POP JUMPDEST POP SWAP1 POP PUSH0 PUSH0 SWAP1 POP JUMPDEST DUP3 MLOAD DUP2 LT ISZERO PUSH2 0x74A JUMPI DUP3 DUP2 PUSH1 0x1 DUP6 MLOAD PUSH2 0x6D6 SWAP2 SWAP1 PUSH2 0xDA8 JUMP JUMPDEST PUSH2 0x6E0 SWAP2 SWAP1 PUSH2 0xDA8 JUMP JUMPDEST DUP2 MLOAD DUP2 LT PUSH2 0x6F1 JUMPI PUSH2 0x6F0 PUSH2 0xC5F JUMP JUMPDEST JUMPDEST PUSH1 0x20 ADD ADD MLOAD PUSH1 0xF8 SHR PUSH1 0xF8 SHL DUP3 DUP3 DUP2 MLOAD DUP2 LT PUSH2 0x70F JUMPI PUSH2 0x70E PUSH2 0xC5F JUMP JUMPDEST JUMPDEST PUSH1 0x20 ADD ADD SWAP1 PUSH31 0xFFFFFFFFFFFFFFFFFFFFFFFFFFFFFFFFFFFFFFFFFFFFFFFFFFFFFFFFFFFFFF NOT AND SWAP1 DUP2 PUSH0 BYTE SWAP1 MSTORE8 POP DUP1 DUP1 PUSH1 0x1 ADD SWAP2 POP POP PUSH2 0x6BD JUMP JUMPDEST POP DUP1 SWAP3 POP POP POP JUMPDEST SWAP2 SWAP1 POP JUMP JUMPDEST PUSH0 PUSH0 PUSH0 DUP4 PUSH1 0x40 MLOAD PUSH2 0x767 SWAP2 SWAP1 PUSH2 0xDDB JUMP JUMPDEST SWAP1 DUP2 MSTORE PUSH1 0x20 ADD PUSH1 0x40 MLOAD DUP1 SWAP2 SUB SWAP1 KECCAK256 SLOAD SUB PUSH2 0x7AE JUMPI PUSH1 0x1 DUP3 SWAP1 DUP1 PUSH1 0x1 DUP2 SLOAD ADD DUP1 DUP3 SSTORE DUP1 SWAP2 POP POP PUSH1 0x1 SWAP1 SUB SWAP1 PUSH0 MSTORE PUSH1 0x20 PUSH0 KECCAK256 ADD PUSH0 SWAP1 SWAP2 SWAP1 SWAP2 SWAP1 SWAP2 POP SWAP1 DUP2 PUSH2 0x7AC SWAP2 SWAP1 PUSH2 0xFC8 JUMP JUMPDEST POP JUMPDEST PUSH1 0x1 PUSH0 DUP4 PUSH1 0x40 MLOAD PUSH2 0x7BF SWAP2 SWAP1 PUSH2 0xDDB JUMP JUMPDEST SWAP1 DUP2 MSTORE PUSH1 0x20 ADD PUSH1 0x40 MLOAD DUP1 SWAP2 SUB SWAP1 KECCAK256 PUSH0 DUP3 DUP3 SLOAD PUSH2 0x7DB SWAP2 SWAP1 PUSH2 0x1097 JUMP JUMPDEST SWAP3 POP POP DUP2 SWAP1 SSTORE POP PUSH1 0x1 SWAP1 POP SWAP2 SWAP1 POP JUMP JUMPDEST POP DUP1 SLOAD PUSH0 DUP3 SSTORE SWAP1 PUSH0 MSTORE PUSH1 0x20 PUSH0 KECCAK256 SWAP1 DUP2 ADD SWAP1 PUSH2 0x806 SWAP2 SWAP1 PUSH2 0x809 JUMP JUMPDEST POP JUMP JUMPDEST JUMPDEST DUP1 DUP3 GT ISZERO PUSH2 0x828 JUMPI PUSH0 DUP2 DUP2 PUSH2 0x81F SWAP2 SWAP1 PUSH2 0x82C JUMP JUMPDEST POP PUSH1 0x1 ADD PUSH2 0x80A JUMP JUMPDEST POP SWAP1 JUMP JUMPDEST POP DUP1 SLOAD PUSH2 0x838 SWAP1 PUSH2 0xC2F JUMP JUMPDEST PUSH0 DUP3 SSTORE DUP1 PUSH1 0x1F LT PUSH2 0x849 JUMPI POP PUSH2 0x866 JUMP JUMPDEST PUSH1 0x1F ADD PUSH1 0x20 SWAP1 DIV SWAP1 PUSH0 MSTORE PUSH1 0x20 PUSH0 KECCAK256 SWAP1 DUP2 ADD SWAP1 PUSH2 0x865 SWAP2 SWAP1 PUSH2 0x869 JUMP JUMPDEST JUMPDEST POP JUMP JUMPDEST JUMPDEST DUP1 DUP3 GT ISZERO PUSH2 0x880 JUMPI PUSH0 DUP2 PUSH0 SWAP1 SSTORE POP PUSH1 0x1 ADD PUSH2 0x86A JUMP JUMPDEST POP SWAP1 JUMP JUMPDEST PUSH0 PUSH1 0x40 MLOAD SWAP1 POP SWAP1 JUMP JUMPDEST PUSH0 PUSH0 REVERT JUMPDEST PUSH0 PUSH0 REVERT JUMPDEST PUSH0 DUP2 SWAP1 POP SWAP2 SWAP1 POP JUMP JUMPDEST PUSH2 0x8A7 DUP2 PUSH2 0x895 JUMP JUMPDEST DUP2 EQ PUSH2 0x8B1 JUMPI PUSH0 PUSH0 REVERT JUMPDEST POP JUMP JUMPDEST PUSH0 DUP2 CALLDATALOAD SWAP1 POP PUSH2 0x8C2 DUP2 PUSH2 0x89E JUMP JUMPDEST SWAP3 SWAP2 POP POP JUMP JUMPDEST PUSH0 PUSH1 0x20 DUP3 DUP5 SUB SLT ISZERO PUSH2 0x8DD JUMPI PUSH2 0x8DC PUSH2 0x88D JUMP JUMPDEST JUMPDEST PUSH0 PUSH2 0x8EA DUP5 DUP3 DUP6 ADD PUSH2 0x8B4 JUMP JUMPDEST SWAP2 POP POP SWAP3 SWAP2 POP POP JUMP JUMPDEST PUSH0 DUP2 MLOAD SWAP1 POP SWAP2 SWAP1 POP JUMP JUMPDEST PUSH0 DUP3 DUP3 MSTORE PUSH1 0x20 DUP3 ADD SWAP1 POP SWAP3 SWAP2 POP POP JUMP JUMPDEST DUP3 DUP2 DUP4 MCOPY PUSH0 DUP4 DUP4 ADD MSTORE POP POP POP JUMP JUMPDEST PUSH0 PUSH1 0x1F NOT PUSH1 0x1F DUP4 ADD AND SWAP1 POP SWAP2 SWAP1 POP JUMP JUMPDEST PUSH0 PUSH2 0x935 DUP3 PUSH2 0x8F3 JUMP JUMPDEST PUSH2 0x93F DUP2 DUP6 PUSH2 0x8FD JUMP JUMPDEST SWAP4 POP PUSH2 0x94F DUP2 DUP6 PUSH1 0x20 DUP7 ADD PUSH2 0x90D JUMP JUMPDEST PUSH2 0x958 DUP2 PUSH2 0x91B JUMP JUMPDEST DUP5 ADD SWAP2 POP POP SWAP3 SWAP2 POP POP JUMP JUMPDEST PUSH0 PUSH1 0x20 DUP3 ADD SWAP1 POP DUP2 DUP2 SUB PUSH0 DUP4 ADD MSTORE PUSH2 0x97B DUP2 DUP5 PUSH2 0x92B JUMP JUMPDEST SWAP1 POP SWAP3 SWAP2 POP POP JUMP JUMPDEST PUSH0 PUSH0 REVERT JUMPDEST PUSH0 PUSH0 REVERT JUMPDEST PUSH32 0x4E487B7100000000000000000000000000000000000000000000000000000000 PUSH0 MSTORE PUSH1 0x41 PUSH1 0x4 MSTORE PUSH1 0x24 PUSH0 REVERT JUMPDEST PUSH2 0x9C1 DUP3 PUSH2 0x91B JUMP JUMPDEST DUP2 ADD DUP2 DUP2 LT PUSH8 0xFFFFFFFFFFFFFFFF DUP3 GT OR ISZERO PUSH2 0x9E0 JUMPI PUSH2 0x9DF PUSH2 0x98B JUMP JUMPDEST JUMPDEST DUP1 PUSH1 0x40 MSTORE POP POP POP JUMP JUMPDEST PUSH0 PUSH2 0x9F2 PUSH2 0x884 JUMP JUMPDEST SWAP1 POP PUSH2 0x9FE DUP3 DUP3 PUSH2 0x9B8 JUMP JUMPDEST SWAP2 SWAP1 POP JUMP JUMPDEST PUSH0 PUSH8 0xFFFFFFFFFFFFFFFF DUP3 GT ISZERO PUSH2 0xA1D JUMPI PUSH2 0xA1C PUSH2 0x98B JUMP JUMPDEST JUMPDEST PUSH2 0xA26 DUP3 PUSH2 0x91B JUMP JUMPDEST SWAP1 POP PUSH1 0x20 DUP2 ADD SWAP1 POP SWAP2 SWAP1 POP JUMP JUMPDEST DUP3 DUP2 DUP4 CALLDATACOPY PUSH0 DUP4 DUP4 ADD MSTORE POP POP POP JUMP JUMPDEST PUSH0 PUSH2 0xA53 PUSH2 0xA4E DUP5 PUSH2 0xA03 JUMP JUMPDEST PUSH2 0x9E9 JUMP JUMPDEST SWAP1 POP DUP3 DUP2 MSTORE PUSH1 0x20 DUP2 ADD DUP5 DUP5 DUP5 ADD GT ISZERO PUSH2 0xA6F JUMPI PUSH2 0xA6E PUSH2 0x987 JUMP JUMPDEST JUMPDEST PUSH2 0xA7A DUP5 DUP3 DUP6 PUSH2 0xA33 JUMP JUMPDEST POP SWAP4 SWAP3 POP POP POP JUMP JUMPDEST PUSH0 DUP3 PUSH1 0x1F DUP4 ADD SLT PUSH2 0xA96 JUMPI PUSH2 0xA95 PUSH2 0x983 JUMP JUMPDEST JUMPDEST DUP2 CALLDATALOAD PUSH2 0xAA6 DUP5 DUP3 PUSH1 0x20 DUP7 ADD PUSH2 0xA41 JUMP JUMPDEST SWAP2 POP POP SWAP3 SWAP2 POP POP JUMP JUMPDEST PUSH0 PUSH1 0x20 DUP3 DUP5 SUB SLT ISZERO PUSH2 0xAC4 JUMPI PUSH2 0xAC3 PUSH2 0x88D JUMP JUMPDEST JUMPDEST PUSH0 DUP3 ADD CALLDATALOAD PUSH8 0xFFFFFFFFFFFFFFFF DUP2 GT ISZERO PUSH2 0xAE1 JUMPI PUSH2 0xAE0 PUSH2 0x891 JUMP JUMPDEST JUMPDEST PUSH2 0xAED DUP5 DUP3 DUP6 ADD PUSH2 0xA82 JUMP JUMPDEST SWAP2 POP POP SWAP3 SWAP2 POP POP JUMP JUMPDEST PUSH0 DUP2 SWAP1 POP SWAP2 SWAP1 POP JUMP JUMPDEST PUSH2 0xB08 DUP2 PUSH2 0xAF6 JUMP JUMPDEST DUP3 MSTORE POP POP JUMP JUMPDEST PUSH0 PUSH1 0x20 DUP3 ADD SWAP1 POP PUSH2 0xB21 PUSH0 DUP4 ADD DUP5 PUSH2 0xAFF JUMP JUMPDEST SWAP3 SWAP2 POP POP JUMP JUMPDEST PUSH0 PUSH32 0xFF00000000000000000000000000000000000000000000000000000000000000 DUP3 AND SWAP1 POP SWAP2 SWAP1 POP JUMP JUMPDEST PUSH2 0xB5B DUP2 PUSH2 0xB27 JUMP JUMPDEST DUP2 EQ PUSH2 0xB65 JUMPI PUSH0 PUSH0 REVERT JUMPDEST POP JUMP JUMPDEST PUSH0 DUP2 CALLDATALOAD SWAP1 POP PUSH2 0xB76 DUP2 PUSH2 0xB52 JUMP JUMPDEST SWAP3 SWAP2 POP POP JUMP JUMPDEST PUSH0 PUSH1 0x20 DUP3 DUP5 SUB SLT ISZERO PUSH2 0xB91 JUMPI PUSH2 0xB90 PUSH2 0x88D JUMP JUMPDEST JUMPDEST PUSH0 PUSH2 0xB9E DUP5 DUP3 DUP6 ADD PUSH2 0xB68 JUMP JUMPDEST SWAP2 POP POP SWAP3 SWAP2 POP POP JUMP JUMPDEST PUSH2 0xBB0 DUP2 PUSH2 0x895 JUMP JUMPDEST DUP3 MSTORE POP POP JUMP JUMPDEST PUSH0 PUSH1 0x20 DUP3 ADD SWAP1 POP PUSH2 0xBC9 PUSH0 DUP4 ADD DUP5 PUSH2 0xBA7 JUMP JUMPDEST SWAP3 SWAP2 POP POP JUMP JUMPDEST PUSH0 DUP2 ISZERO ISZERO SWAP1 POP SWAP2 SWAP1 POP JUMP JUMPDEST PUSH2 0xBE3 DUP2 PUSH2 0xBCF JUMP JUMPDEST DUP3 MSTORE POP POP JUMP JUMPDEST PUSH0 PUSH1 0x20 DUP3 ADD SWAP1 POP PUSH2 0xBFC PUSH0 DUP4 ADD DUP5 PUSH2 0xBDA JUMP JUMPDEST SWAP3 SWAP2 POP POP JUMP JUMPDEST PUSH32 0x4E487B7100000000000000000000000000000000000000000000000000000000 PUSH0 MSTORE PUSH1 0x22 PUSH1 0x4 MSTORE PUSH1 0x24 PUSH0 REVERT JUMPDEST PUSH0 PUSH1 0x2 DUP3 DIV SWAP1 POP PUSH1 0x1 DUP3 AND DUP1 PUSH2 0xC46 JUMPI PUSH1 0x7F DUP3 AND SWAP2 POP JUMPDEST PUSH1 0x20 DUP3 LT DUP2 SUB PUSH2 0xC59 JUMPI PUSH2 0xC58 PUSH2 0xC02 JUMP JUMPDEST JUMPDEST POP SWAP2 SWAP1 POP JUMP JUMPDEST PUSH32 0x4E487B7100000000000000000000000000000000000000000000000000000000 PUSH0 MSTORE PUSH1 0x32 PUSH1 0x4 MSTORE PUSH1 0x24 PUSH0 REVERT JUMPDEST PUSH0 DUP2 SWAP1 POP SWAP3 SWAP2 POP POP JUMP JUMPDEST PUSH0 PUSH2 0xCA0 DUP3 PUSH2 0x8F3 JUMP JUMPDEST PUSH2 0xCAA DUP2 DUP6 PUSH2 0xC8C JUMP JUMPDEST SWAP4 POP PUSH2 0xCBA DUP2 DUP6 PUSH1 0x20 DUP7 ADD PUSH2 0x90D JUMP JUMPDEST DUP1 DUP5 ADD SWAP2 POP POP SWAP3 SWAP2 POP POP JUMP JUMPDEST PUSH0 DUP2 SWAP1 POP DUP2 PUSH0 MSTORE PUSH1 0x20 PUSH0 KECCAK256 SWAP1 POP SWAP2 SWAP1 POP JUMP JUMPDEST PUSH0 DUP2 SLOAD PUSH2 0xCE4 DUP2 PUSH2 0xC2F JUMP JUMPDEST PUSH2 0xCEE DUP2 DUP7 PUSH2 0xC8C JUMP JUMPDEST SWAP5 POP PUSH1 0x1 DUP3 AND PUSH0 DUP2 EQ PUSH2 0xD08 JUMPI PUSH1 0x1 DUP2 EQ PUSH2 0xD1D JUMPI PUSH2 0xD4F JUMP JUMPDEST PUSH1 0xFF NOT DUP4 AND DUP7 MSTORE DUP2 ISZERO ISZERO DUP3 MUL DUP7 ADD SWAP4 POP PUSH2 0xD4F JUMP JUMPDEST PUSH2 0xD26 DUP6 PUSH2 0xCC6 JUMP JUMPDEST PUSH0 JUMPDEST DUP4 DUP2 LT ISZERO PUSH2 0xD47 JUMPI DUP2 SLOAD DUP2 DUP10 ADD MSTORE PUSH1 0x1 DUP3 ADD SWAP2 POP PUSH1 0x20 DUP2 ADD SWAP1 POP PUSH2 0xD28 JUMP JUMPDEST DUP4 DUP9 ADD SWAP6 POP POP POP JUMPDEST POP POP POP SWAP3 SWAP2 POP POP JUMP JUMPDEST PUSH0 PUSH2 0xD63 DUP3 DUP6 PUSH2 0xC96 JUMP JUMPDEST SWAP2 POP PUSH2 0xD6F DUP3 DUP5 PUSH2 0xCD8 JUMP JUMPDEST SWAP2 POP DUP2 SWAP1 POP SWAP4 SWAP3 POP POP POP JUMP JUMPDEST PUSH32 0x4E487B7100000000000000000000000000000000000000000000000000000000 PUSH0 MSTORE PUSH1 0x11 PUSH1 0x4 MSTORE PUSH1 0x24 PUSH0 REVERT JUMPDEST PUSH0 PUSH2 0xDB2 DUP3 PUSH2 0x895 JUMP JUMPDEST SWAP2 POP PUSH2 0xDBD DUP4 PUSH2 0x895 JUMP JUMPDEST SWAP3 POP DUP3 DUP3 SUB SWAP1 POP DUP2 DUP2 GT ISZERO PUSH2 0xDD5 JUMPI PUSH2 0xDD4 PUSH2 0xD7B JUMP JUMPDEST JUMPDEST SWAP3 SWAP2 POP POP JUMP JUMPDEST PUSH0 PUSH2 0xDE6 DUP3 DUP5 PUSH2 0xC96 JUMP JUMPDEST SWAP2 POP DUP2 SWAP1 POP SWAP3 SWAP2 POP POP JUMP JUMPDEST PUSH0 PUSH2 0xDFC DUP3 DUP5 PUSH2 0xCD8 JUMP JUMPDEST SWAP2 POP DUP2 SWAP1 POP SWAP3 SWAP2 POP POP JUMP JUMPDEST PUSH0 PUSH2 0xE11 DUP3 PUSH2 0x895 JUMP JUMPDEST SWAP2 POP PUSH2 0xE1C DUP4 PUSH2 0x895 JUMP JUMPDEST SWAP3 POP DUP3 DUP3 ADD SWAP1 POP DUP1 DUP3 GT ISZERO PUSH2 0xE34 JUMPI PUSH2 0xE33 PUSH2 0xD7B JUMP JUMPDEST JUMPDEST SWAP3 SWAP2 POP POP JUMP JUMPDEST PUSH0 PUSH1 0x20 PUSH1 0x1F DUP4 ADD DIV SWAP1 POP SWAP2 SWAP1 POP JUMP JUMPDEST PUSH0 DUP3 DUP3 SHL SWAP1 POP SWAP3 SWAP2 POP POP JUMP JUMPDEST PUSH0 PUSH1 0x8 DUP4 MUL PUSH2 0xE84 PUSH32 0xFFFFFFFFFFFFFFFFFFFFFFFFFFFFFFFFFFFFFFFFFFFFFFFFFFFFFFFFFFFFFFFF DUP3 PUSH2 0xE49 JUMP JUMPDEST PUSH2 0xE8E DUP7 DUP4 PUSH2 0xE49 JUMP JUMPDEST SWAP6 POP DUP1 NOT DUP5 AND SWAP4 POP DUP1 DUP7 AND DUP5 OR SWAP3 POP POP POP SWAP4 SWAP3 POP POP POP JUMP JUMPDEST PUSH0 DUP2 SWAP1 POP SWAP2 SWAP1 POP JUMP JUMPDEST PUSH0 PUSH2 0xEC9 PUSH2 0xEC4 PUSH2 0xEBF DUP5 PUSH2 0x895 JUMP JUMPDEST PUSH2 0xEA6 JUMP JUMPDEST PUSH2 0x895 JUMP JUMPDEST SWAP1 POP SWAP2 SWAP1 POP JUMP JUMPDEST PUSH0 DUP2 SWAP1 POP SWAP2 SWAP1 POP JUMP JUMPDEST PUSH2 0xEE2 DUP4 PUSH2 0xEAF JUMP JUMPDEST PUSH2 0xEF6 PUSH2 0xEEE DUP3 PUSH2 0xED0 JUMP JUMPDEST DUP5 DUP5 SLOAD PUSH2 0xE55 JUMP JUMPDEST DUP3 SSTORE POP POP POP POP JUMP JUMPDEST PUSH0 PUSH0 SWAP1 POP SWAP1 JUMP JUMPDEST PUSH2 0xF0D PUSH2 0xEFE JUMP JUMPDEST PUSH2 0xF18 DUP2 DUP5 DUP5 PUSH2 0xED9 JUMP JUMPDEST POP POP POP JUMP JUMPDEST JUMPDEST DUP2 DUP2 LT ISZERO PUSH2 0xF3B JUMPI PUSH2 0xF30 PUSH0 DUP3 PUSH2 0xF05 JUMP JUMPDEST PUSH1 0x1 DUP2 ADD SWAP1 POP PUSH2 0xF1E JUMP JUMPDEST POP POP JUMP JUMPDEST PUSH1 0x1F DUP3 GT ISZERO PUSH2 0xF80 JUMPI PUSH2 0xF51 DUP2 PUSH2 0xCC6 JUMP JUMPDEST PUSH2 0xF5A DUP5 PUSH2 0xE3A JUMP JUMPDEST DUP2 ADD PUSH1 0x20 DUP6 LT ISZERO PUSH2 0xF69 JUMPI DUP2 SWAP1 POP JUMPDEST PUSH2 0xF7D PUSH2 0xF75 DUP6 PUSH2 0xE3A JUMP JUMPDEST DUP4 ADD DUP3 PUSH2 0xF1D JUMP JUMPDEST POP POP JUMPDEST POP POP POP JUMP JUMPDEST PUSH0 DUP3 DUP3 SHR SWAP1 POP SWAP3 SWAP2 POP POP JUMP JUMPDEST PUSH0 PUSH2 0xFA0 PUSH0 NOT DUP5 PUSH1 0x8 MUL PUSH2 0xF85 JUMP JUMPDEST NOT DUP1 DUP4 AND SWAP2 POP POP SWAP3 SWAP2 POP POP JUMP JUMPDEST PUSH0 PUSH2 0xFB8 DUP4 DUP4 PUSH2 0xF91 JUMP JUMPDEST SWAP2 POP DUP3 PUSH1 0x2 MUL DUP3 OR SWAP1 POP SWAP3 SWAP2 POP POP JUMP JUMPDEST PUSH2 0xFD1 DUP3 PUSH2 0x8F3 JUMP JUMPDEST PUSH8 0xFFFFFFFFFFFFFFFF DUP2 GT ISZERO PUSH2 0xFEA JUMPI PUSH2 0xFE9 PUSH2 0x98B JUMP JUMPDEST JUMPDEST PUSH2 0xFF4 DUP3 SLOAD PUSH2 0xC2F JUMP JUMPDEST PUSH2 0xFFF DUP3 DUP3 DUP6 PUSH2 0xF3F JUMP JUMPDEST PUSH0 PUSH1 0x20 SWAP1 POP PUSH1 0x1F DUP4 GT PUSH1 0x1 DUP2 EQ PUSH2 0x1030 JUMPI PUSH0 DUP5 ISZERO PUSH2 0x101E JUMPI DUP3 DUP8 ADD MLOAD SWAP1 POP JUMPDEST PUSH2 0x1028 DUP6 DUP3 PUSH2 0xFAD JUMP JUMPDEST DUP7 SSTORE POP PUSH2 0x108F JUMP JUMPDEST PUSH1 0x1F NOT DUP5 AND PUSH2 0x103E DUP7 PUSH2 0xCC6 JUMP JUMPDEST PUSH0 JUMPDEST DUP3 DUP2 LT ISZERO PUSH2 0x1065 JUMPI DUP5 DUP10 ADD MLOAD DUP3 SSTORE PUSH1 0x1 DUP3 ADD SWAP2 POP PUSH1 0x20 DUP6 ADD SWAP5 POP PUSH1 0x20 DUP2 ADD SWAP1 POP PUSH2 0x1040 JUMP JUMPDEST DUP7 DUP4 LT ISZERO PUSH2 0x1082 JUMPI DUP5 DUP10 ADD MLOAD PUSH2 0x107E PUSH1 0x1F DUP10 AND DUP3 PUSH2 0xF91 JUMP JUMPDEST DUP4 SSTORE POP JUMPDEST PUSH1 0x1 PUSH1 0x2 DUP9 MUL ADD DUP9 SSTORE POP POP POP JUMPDEST POP POP POP POP POP POP JUMP JUMPDEST PUSH0 PUSH2 0x10A1 DUP3 PUSH2 0xAF6 JUMP JUMPDEST SWAP2 POP PUSH2 0x10AC DUP4 PUSH2 0xAF6 JUMP JUMPDEST SWAP3 POP DUP3 DUP3 ADD SWAP1 POP DUP3 DUP2 SLT ISZERO PUSH0 DUP4 SLT AND DUP4 DUP3 SLT PUSH0 DUP5 SLT ISZERO AND OR ISZERO PUSH2 0x10D2 JUMPI PUSH2 0x10D1 PUSH2 0xD7B JUMP JUMPDEST JUMPDEST SWAP3 SWAP2 POP POP JUMP INVALID LOG2 PUSH5 0x6970667358 0x22 SLT KECCAK256 PUSH31 0xF92DBC5B98D48866CC670387DFBC30E3936866E5919EF6A89D0318332C7909 PUSH5 0x736F6C6343 STOP ADDMOD 0x1E STOP CALLER "
				},
				"gasEstimates": {
					"creation": {
						"codeDepositCost": "873200",
						"executionCost": "infinite",
						"totalCost": "infinite"
					},
					"external": {
						"RevertString(string)": "infinite",
						"getVotes(string)": "infinite",
						"intToRoman(uint256)": "infinite",
						"keys(uint256)": "infinite",
						"map(bytes1)": "2760",
						"resetVotes()": "infinite",
						"romanToInt(string)": "infinite",
						"senderMap(string)": "infinite",
						"vote(string)": "infinite"
					}
				},
				"methodIdentifiers": {
					"RevertString(string)": "e702f6b9",
					"getVotes(string)": "805265e5",
					"intToRoman(uint256)": "0cbc513a",
					"keys(uint256)": "0cb6aaf1",
					"map(bytes1)": "9135a958",
					"resetVotes()": "b9830ff1",
					"romanToInt(string)": "cb159dfe",
					"senderMap(string)": "2cfea327",
					"vote(string)": "fc36e15b"
				}
			},
			"storageLayout": {
				"storage": [
					{
						"astId": 5,
						"contract": "Voting.sol:Voting",
						"label": "senderMap",
						"offset": 0,
						"slot": "0",
						"type": "t_mapping(t_string_memory_ptr,t_int256)"
					},
					{
						"astId": 8,
						"contract": "Voting.sol:Voting",
						"label": "keys",
						"offset": 0,
						"slot": "1",
						"type": "t_array(t_string_storage)dyn_storage"
					},
					{
						"astId": 142,
						"contract": "Voting.sol:Voting",
						"label": "map",
						"offset": 0,
						"slot": "2",
						"type": "t_mapping(t_bytes1,t_uint256)"
					},
					{
						"astId": 224,
						"contract": "Voting.sol:Voting",
						"label": "numerals",
						"offset": 0,
						"slot": "3",
						"type": "t_array(t_struct(NumeralPair)220_storage)dyn_storage"
					}
				],
				"types": {
					"t_array(t_string_storage)dyn_storage": {
						"base": "t_string_storage",
						"encoding": "dynamic_array",
						"label": "string[]",
						"numberOfBytes": "32"
					},
					"t_array(t_struct(NumeralPair)220_storage)dyn_storage": {
						"base": "t_struct(NumeralPair)220_storage",
						"encoding": "dynamic_array",
						"label": "struct Voting.NumeralPair[]",
						"numberOfBytes": "32"
					},
					"t_bytes1": {
						"encoding": "inplace",
						"label": "bytes1",
						"numberOfBytes": "1"
					},
					"t_int256": {
						"encoding": "inplace",
						"label": "int256",
						"numberOfBytes": "32"
					},
					"t_mapping(t_bytes1,t_uint256)": {
						"encoding": "mapping",
						"key": "t_bytes1",
						"label": "mapping(bytes1 => uint256)",
						"numberOfBytes": "32",
						"value": "t_uint256"
					},
					"t_mapping(t_string_memory_ptr,t_int256)": {
						"encoding": "mapping",
						"key": "t_string_memory_ptr",
						"label": "mapping(string => int256)",
						"numberOfBytes": "32",
						"value": "t_int256"
					},
					"t_string_memory_ptr": {
						"encoding": "bytes",
						"label": "string",
						"numberOfBytes": "32"
					},
					"t_string_storage": {
						"encoding": "bytes",
						"label": "string",
						"numberOfBytes": "32"
					},
					"t_struct(NumeralPair)220_storage": {
						"encoding": "inplace",
						"label": "struct Voting.NumeralPair",
						"members": [
							{
								"astId": 217,
								"contract": "Voting.sol:Voting",
								"label": "value",
								"offset": 0,
								"slot": "0",
								"type": "t_uint256"
							},
							{
								"astId": 219,
								"contract": "Voting.sol:Voting",
								"label": "symbol",
								"offset": 0,
								"slot": "1",
								"type": "t_string_storage"
							}
						],
						"numberOfBytes": "64"
					},
					"t_uint256": {
						"encoding": "inplace",
						"label": "uint256",
						"numberOfBytes": "32"
					}
				}
			},
			"userdoc": {
				"kind": "user",
				"methods": {},
				"version": 1
			}
		}
	}
}