{
	"Voting.sol": {
		"BinarySearch": {
			"abi": [
				{
					"inputs": [
						{
							"internalType": "uint256[]",
							"name": "arr",
							"type": "uint256[]"
						},
						{
							"internalType": "uint256",
							"name": "target",
							"type": "uint256"
						}
					],
					"name": "binarySearch",
					"outputs": [
						{
							"internalType": "int256",
							"name": "",
							"type": "int256"
						}
					],
					"stateMutability": "pure",
					"type": "function"
				}
			],
			"devdoc": {
				"kind": "dev",
				"methods": {},
				"version": 1
			},
			"evm": {
				"assembly": "    /* \"Voting.sol\":4004:4922  contract BinarySearch {... */\n  mstore(0x40, 0x80)\n  callvalue\n  dup1\n  iszero\n  tag_1\n  jumpi\n  revert(0x00, 0x00)\ntag_1:\n  pop\n  dataSize(sub_0)\n  dup1\n  dataOffset(sub_0)\n  0x00\n  codecopy\n  0x00\n  return\nstop\n\nsub_0: assembly {\n        /* \"Voting.sol\":4004:4922  contract BinarySearch {... */\n      mstore(0x40, 0x80)\n      callvalue\n      dup1\n      iszero\n      tag_1\n      jumpi\n      revert(0x00, 0x00)\n    tag_1:\n      pop\n      jumpi(tag_2, lt(calldatasize, 0x04))\n      shr(0xe0, calldataload(0x00))\n      dup1\n      0xb12601da\n      eq\n      tag_3\n      jumpi\n    tag_2:\n      revert(0x00, 0x00)\n        /* \"Voting.sol\":4114:4919  function binarySearch(uint[] memory arr, uint target) public pure returns (int) {... */\n    tag_3:\n      tag_4\n      0x04\n      dup1\n      calldatasize\n      sub\n      dup2\n      add\n      swap1\n      tag_5\n      swap2\n      swap1\n      tag_6\n      jump\t// in\n    tag_5:\n      tag_7\n      jump\t// in\n    tag_4:\n      mload(0x40)\n      tag_8\n      swap2\n      swap1\n      tag_9\n      jump\t// in\n    tag_8:\n      mload(0x40)\n      dup1\n      swap2\n      sub\n      swap1\n      return\n    tag_7:\n        /* \"Voting.sol\":4189:4192  int */\n      0x00\n        /* \"Voting.sol\":4205:4213  int left */\n      0x00\n        /* \"Voting.sol\":4216:4217  0 */\n      0x00\n        /* \"Voting.sol\":4205:4217  int left = 0 */\n      swap1\n      pop\n        /* \"Voting.sol\":4228:4237  int right */\n      0x00\n        /* \"Voting.sol\":4257:4258  1 */\n      0x01\n        /* \"Voting.sol\":4244:4247  arr */\n      dup6\n        /* \"Voting.sol\":4244:4254  arr.length */\n      mload\n        /* \"Voting.sol\":4244:4258  arr.length - 1 */\n      tag_11\n      swap2\n      swap1\n      tag_12\n      jump\t// in\n    tag_11:\n        /* \"Voting.sol\":4228:4259  int right = int(arr.length - 1) */\n      swap1\n      pop\n        /* \"Voting.sol\":4272:4839  while (left <= right) {... */\n    tag_13:\n        /* \"Voting.sol\":4287:4292  right */\n      dup1\n        /* \"Voting.sol\":4279:4283  left */\n      dup3\n        /* \"Voting.sol\":4279:4292  left <= right */\n      sgt\n        /* \"Voting.sol\":4272:4839  while (left <= right) {... */\n      tag_14\n      jumpi\n        /* \"Voting.sol\":4309:4316  int mid */\n      0x00\n        /* \"Voting.sol\":4343:4344  2 */\n      0x02\n        /* \"Voting.sol\":4335:4339  left */\n      dup4\n        /* \"Voting.sol\":4327:4332  right */\n      dup4\n        /* \"Voting.sol\":4327:4339  right - left */\n      tag_15\n      swap2\n      swap1\n      tag_16\n      jump\t// in\n    tag_15:\n        /* \"Voting.sol\":4326:4344  (right - left) / 2 */\n      tag_17\n      swap2\n      swap1\n      tag_18\n      jump\t// in\n    tag_17:\n        /* \"Voting.sol\":4319:4323  left */\n      dup4\n        /* \"Voting.sol\":4319:4344  left + (right - left) / 2 */\n      tag_19\n      swap2\n      swap1\n      tag_20\n      jump\t// in\n    tag_19:\n        /* \"Voting.sol\":4309:4344  int mid = left + (right - left) / 2 */\n      swap1\n      pop\n        /* \"Voting.sol\":4436:4442  target */\n      dup5\n        /* \"Voting.sol\":4418:4421  arr */\n      dup7\n        /* \"Voting.sol\":4427:4430  mid */\n      dup3\n        /* \"Voting.sol\":4418:4432  arr[uint(mid)] */\n      dup2\n      mload\n      dup2\n      lt\n      tag_21\n      jumpi\n      tag_22\n      tag_23\n      jump\t// in\n    tag_22:\n    tag_21:\n      0x20\n      mul\n      0x20\n      add\n      add\n      mload\n        /* \"Voting.sol\":4418:4442  arr[uint(mid)] == target */\n      sub\n        /* \"Voting.sol\":4414:4526  if (arr[uint(mid)] == target) {... */\n      tag_24\n      jumpi\n        /* \"Voting.sol\":4470:4473  mid */\n      dup1\n        /* \"Voting.sol\":4463:4473  return mid */\n      swap4\n      pop\n      pop\n      pop\n      pop\n      jump(tag_10)\n        /* \"Voting.sol\":4414:4526  if (arr[uint(mid)] == target) {... */\n    tag_24:\n        /* \"Voting.sol\":4637:4643  target */\n      dup5\n        /* \"Voting.sol\":4620:4623  arr */\n      dup7\n        /* \"Voting.sol\":4629:4632  mid */\n      dup3\n        /* \"Voting.sol\":4620:4634  arr[uint(mid)] */\n      dup2\n      mload\n      dup2\n      lt\n      tag_25\n      jumpi\n      tag_26\n      tag_23\n      jump\t// in\n    tag_26:\n    tag_25:\n      0x20\n      mul\n      0x20\n      add\n      add\n      mload\n        /* \"Voting.sol\":4620:4643  arr[uint(mid)] < target */\n      lt\n        /* \"Voting.sol\":4616:4828  if (arr[uint(mid)] < target) {... */\n      iszero\n      tag_27\n      jumpi\n        /* \"Voting.sol\":4677:4678  1 */\n      0x01\n        /* \"Voting.sol\":4671:4674  mid */\n      dup2\n        /* \"Voting.sol\":4671:4678  mid + 1 */\n      tag_28\n      swap2\n      swap1\n      tag_20\n      jump\t// in\n    tag_28:\n        /* \"Voting.sol\":4664:4678  left = mid + 1 */\n      swap3\n      pop\n        /* \"Voting.sol\":4616:4828  if (arr[uint(mid)] < target) {... */\n      jump(tag_29)\n    tag_27:\n        /* \"Voting.sol\":4811:4812  1 */\n      0x01\n        /* \"Voting.sol\":4805:4808  mid */\n      dup2\n        /* \"Voting.sol\":4805:4812  mid - 1 */\n      tag_30\n      swap2\n      swap1\n      tag_16\n      jump\t// in\n    tag_30:\n        /* \"Voting.sol\":4797:4812  right = mid - 1 */\n      swap2\n      pop\n        /* \"Voting.sol\":4616:4828  if (arr[uint(mid)] < target) {... */\n    tag_29:\n        /* \"Voting.sol\":4294:4839  {... */\n      pop\n        /* \"Voting.sol\":4272:4839  while (left <= right) {... */\n      jump(tag_13)\n    tag_14:\n        /* \"Voting.sol\":4909:4911  -1 */\n      0xffffffffffffffffffffffffffffffffffffffffffffffffffffffffffffffff\n        /* \"Voting.sol\":4902:4911  return -1 */\n      swap3\n      pop\n      pop\n      pop\n        /* \"Voting.sol\":4114:4919  function binarySearch(uint[] memory arr, uint target) public pure returns (int) {... */\n    tag_10:\n      swap3\n      swap2\n      pop\n      pop\n      jump\t// out\n        /* \"#utility.yul\":7:82   */\n    tag_31:\n        /* \"#utility.yul\":40:46   */\n      0x00\n        /* \"#utility.yul\":73:75   */\n      0x40\n        /* \"#utility.yul\":67:76   */\n      mload\n        /* \"#utility.yul\":57:76   */\n      swap1\n      pop\n        /* \"#utility.yul\":7:82   */\n      swap1\n      jump\t// out\n        /* \"#utility.yul\":88:205   */\n    tag_32:\n        /* \"#utility.yul\":197:198   */\n      0x00\n        /* \"#utility.yul\":194:195   */\n      0x00\n        /* \"#utility.yul\":187:199   */\n      revert\n        /* \"#utility.yul\":211:328   */\n    tag_33:\n        /* \"#utility.yul\":320:321   */\n      0x00\n        /* \"#utility.yul\":317:318   */\n      0x00\n        /* \"#utility.yul\":310:322   */\n      revert\n        /* \"#utility.yul\":334:451   */\n    tag_34:\n        /* \"#utility.yul\":443:444   */\n      0x00\n        /* \"#utility.yul\":440:441   */\n      0x00\n        /* \"#utility.yul\":433:445   */\n      revert\n        /* \"#utility.yul\":457:559   */\n    tag_35:\n        /* \"#utility.yul\":498:504   */\n      0x00\n        /* \"#utility.yul\":549:551   */\n      0x1f\n        /* \"#utility.yul\":545:552   */\n      not\n        /* \"#utility.yul\":540:542   */\n      0x1f\n        /* \"#utility.yul\":533:538   */\n      dup4\n        /* \"#utility.yul\":529:543   */\n      add\n        /* \"#utility.yul\":525:553   */\n      and\n        /* \"#utility.yul\":515:553   */\n      swap1\n      pop\n        /* \"#utility.yul\":457:559   */\n      swap2\n      swap1\n      pop\n      jump\t// out\n        /* \"#utility.yul\":565:745   */\n    tag_36:\n        /* \"#utility.yul\":613:690   */\n      0x4e487b7100000000000000000000000000000000000000000000000000000000\n        /* \"#utility.yul\":610:611   */\n      0x00\n        /* \"#utility.yul\":603:691   */\n      mstore\n        /* \"#utility.yul\":710:714   */\n      0x41\n        /* \"#utility.yul\":707:708   */\n      0x04\n        /* \"#utility.yul\":700:715   */\n      mstore\n        /* \"#utility.yul\":734:738   */\n      0x24\n        /* \"#utility.yul\":731:732   */\n      0x00\n        /* \"#utility.yul\":724:739   */\n      revert\n        /* \"#utility.yul\":751:1032   */\n    tag_37:\n        /* \"#utility.yul\":834:861   */\n      tag_58\n        /* \"#utility.yul\":856:860   */\n      dup3\n        /* \"#utility.yul\":834:861   */\n      tag_35\n      jump\t// in\n    tag_58:\n        /* \"#utility.yul\":826:832   */\n      dup2\n        /* \"#utility.yul\":822:862   */\n      add\n        /* \"#utility.yul\":964:970   */\n      dup2\n        /* \"#utility.yul\":952:962   */\n      dup2\n        /* \"#utility.yul\":949:971   */\n      lt\n        /* \"#utility.yul\":928:946   */\n      0xffffffffffffffff\n        /* \"#utility.yul\":916:926   */\n      dup3\n        /* \"#utility.yul\":913:947   */\n      gt\n        /* \"#utility.yul\":910:972   */\n      or\n        /* \"#utility.yul\":907:995   */\n      iszero\n      tag_59\n      jumpi\n        /* \"#utility.yul\":975:993   */\n      tag_60\n      tag_36\n      jump\t// in\n    tag_60:\n        /* \"#utility.yul\":907:995   */\n    tag_59:\n        /* \"#utility.yul\":1015:1025   */\n      dup1\n        /* \"#utility.yul\":1011:1013   */\n      0x40\n        /* \"#utility.yul\":1004:1026   */\n      mstore\n        /* \"#utility.yul\":794:1032   */\n      pop\n        /* \"#utility.yul\":751:1032   */\n      pop\n      pop\n      jump\t// out\n        /* \"#utility.yul\":1038:1167   */\n    tag_38:\n        /* \"#utility.yul\":1072:1078   */\n      0x00\n        /* \"#utility.yul\":1099:1119   */\n      tag_62\n      tag_31\n      jump\t// in\n    tag_62:\n        /* \"#utility.yul\":1089:1119   */\n      swap1\n      pop\n        /* \"#utility.yul\":1128:1161   */\n      tag_63\n        /* \"#utility.yul\":1156:1160   */\n      dup3\n        /* \"#utility.yul\":1148:1154   */\n      dup3\n        /* \"#utility.yul\":1128:1161   */\n      tag_37\n      jump\t// in\n    tag_63:\n        /* \"#utility.yul\":1038:1167   */\n      swap2\n      swap1\n      pop\n      jump\t// out\n        /* \"#utility.yul\":1173:1484   */\n    tag_39:\n        /* \"#utility.yul\":1250:1254   */\n      0x00\n        /* \"#utility.yul\":1340:1358   */\n      0xffffffffffffffff\n        /* \"#utility.yul\":1332:1338   */\n      dup3\n        /* \"#utility.yul\":1329:1359   */\n      gt\n        /* \"#utility.yul\":1326:1382   */\n      iszero\n      tag_65\n      jumpi\n        /* \"#utility.yul\":1362:1380   */\n      tag_66\n      tag_36\n      jump\t// in\n    tag_66:\n        /* \"#utility.yul\":1326:1382   */\n    tag_65:\n        /* \"#utility.yul\":1412:1416   */\n      0x20\n        /* \"#utility.yul\":1404:1410   */\n      dup3\n        /* \"#utility.yul\":1400:1417   */\n      mul\n        /* \"#utility.yul\":1392:1417   */\n      swap1\n      pop\n        /* \"#utility.yul\":1472:1476   */\n      0x20\n        /* \"#utility.yul\":1466:1470   */\n      dup2\n        /* \"#utility.yul\":1462:1477   */\n      add\n        /* \"#utility.yul\":1454:1477   */\n      swap1\n      pop\n        /* \"#utility.yul\":1173:1484   */\n      swap2\n      swap1\n      pop\n      jump\t// out\n        /* \"#utility.yul\":1490:1607   */\n    tag_40:\n        /* \"#utility.yul\":1599:1600   */\n      0x00\n        /* \"#utility.yul\":1596:1597   */\n      0x00\n        /* \"#utility.yul\":1589:1601   */\n      revert\n        /* \"#utility.yul\":1613:1690   */\n    tag_41:\n        /* \"#utility.yul\":1650:1657   */\n      0x00\n        /* \"#utility.yul\":1679:1684   */\n      dup2\n        /* \"#utility.yul\":1668:1684   */\n      swap1\n      pop\n        /* \"#utility.yul\":1613:1690   */\n      swap2\n      swap1\n      pop\n      jump\t// out\n        /* \"#utility.yul\":1696:1818   */\n    tag_42:\n        /* \"#utility.yul\":1769:1793   */\n      tag_70\n        /* \"#utility.yul\":1787:1792   */\n      dup2\n        /* \"#utility.yul\":1769:1793   */\n      tag_41\n      jump\t// in\n    tag_70:\n        /* \"#utility.yul\":1762:1767   */\n      dup2\n        /* \"#utility.yul\":1759:1794   */\n      eq\n        /* \"#utility.yul\":1749:1812   */\n      tag_71\n      jumpi\n        /* \"#utility.yul\":1808:1809   */\n      0x00\n        /* \"#utility.yul\":1805:1806   */\n      0x00\n        /* \"#utility.yul\":1798:1810   */\n      revert\n        /* \"#utility.yul\":1749:1812   */\n    tag_71:\n        /* \"#utility.yul\":1696:1818   */\n      pop\n      jump\t// out\n        /* \"#utility.yul\":1824:1963   */\n    tag_43:\n        /* \"#utility.yul\":1870:1875   */\n      0x00\n        /* \"#utility.yul\":1908:1914   */\n      dup2\n        /* \"#utility.yul\":1895:1915   */\n      calldataload\n        /* \"#utility.yul\":1886:1915   */\n      swap1\n      pop\n        /* \"#utility.yul\":1924:1957   */\n      tag_73\n        /* \"#utility.yul\":1951:1956   */\n      dup2\n        /* \"#utility.yul\":1924:1957   */\n      tag_42\n      jump\t// in\n    tag_73:\n        /* \"#utility.yul\":1824:1963   */\n      swap3\n      swap2\n      pop\n      pop\n      jump\t// out\n        /* \"#utility.yul\":1986:2696   */\n    tag_44:\n        /* \"#utility.yul\":2082:2087   */\n      0x00\n        /* \"#utility.yul\":2107:2188   */\n      tag_75\n        /* \"#utility.yul\":2123:2187   */\n      tag_76\n        /* \"#utility.yul\":2180:2186   */\n      dup5\n        /* \"#utility.yul\":2123:2187   */\n      tag_39\n      jump\t// in\n    tag_76:\n        /* \"#utility.yul\":2107:2188   */\n      tag_38\n      jump\t// in\n    tag_75:\n        /* \"#utility.yul\":2098:2188   */\n      swap1\n      pop\n        /* \"#utility.yul\":2208:2213   */\n      dup1\n        /* \"#utility.yul\":2237:2243   */\n      dup4\n        /* \"#utility.yul\":2230:2235   */\n      dup3\n        /* \"#utility.yul\":2223:2244   */\n      mstore\n        /* \"#utility.yul\":2271:2275   */\n      0x20\n        /* \"#utility.yul\":2264:2269   */\n      dup3\n        /* \"#utility.yul\":2260:2276   */\n      add\n        /* \"#utility.yul\":2253:2276   */\n      swap1\n      pop\n        /* \"#utility.yul\":2324:2328   */\n      0x20\n        /* \"#utility.yul\":2316:2322   */\n      dup5\n        /* \"#utility.yul\":2312:2329   */\n      mul\n        /* \"#utility.yul\":2304:2310   */\n      dup4\n        /* \"#utility.yul\":2300:2330   */\n      add\n        /* \"#utility.yul\":2353:2356   */\n      dup6\n        /* \"#utility.yul\":2345:2351   */\n      dup2\n        /* \"#utility.yul\":2342:2357   */\n      gt\n        /* \"#utility.yul\":2339:2461   */\n      iszero\n      tag_77\n      jumpi\n        /* \"#utility.yul\":2372:2451   */\n      tag_78\n      tag_40\n      jump\t// in\n    tag_78:\n        /* \"#utility.yul\":2339:2461   */\n    tag_77:\n        /* \"#utility.yul\":2487:2493   */\n      dup4\n        /* \"#utility.yul\":2470:2690   */\n    tag_79:\n        /* \"#utility.yul\":2504:2510   */\n      dup2\n        /* \"#utility.yul\":2499:2502   */\n      dup2\n        /* \"#utility.yul\":2496:2511   */\n      lt\n        /* \"#utility.yul\":2470:2690   */\n      iszero\n      tag_81\n      jumpi\n        /* \"#utility.yul\":2579:2582   */\n      dup1\n        /* \"#utility.yul\":2608:2645   */\n      tag_82\n        /* \"#utility.yul\":2641:2644   */\n      dup9\n        /* \"#utility.yul\":2629:2639   */\n      dup3\n        /* \"#utility.yul\":2608:2645   */\n      tag_43\n      jump\t// in\n    tag_82:\n        /* \"#utility.yul\":2603:2606   */\n      dup5\n        /* \"#utility.yul\":2596:2646   */\n      mstore\n        /* \"#utility.yul\":2675:2679   */\n      0x20\n        /* \"#utility.yul\":2670:2673   */\n      dup5\n        /* \"#utility.yul\":2666:2680   */\n      add\n        /* \"#utility.yul\":2659:2680   */\n      swap4\n      pop\n        /* \"#utility.yul\":2546:2690   */\n      pop\n        /* \"#utility.yul\":2530:2534   */\n      0x20\n        /* \"#utility.yul\":2525:2528   */\n      dup2\n        /* \"#utility.yul\":2521:2535   */\n      add\n        /* \"#utility.yul\":2514:2535   */\n      swap1\n      pop\n        /* \"#utility.yul\":2470:2690   */\n      jump(tag_79)\n    tag_81:\n        /* \"#utility.yul\":2474:2495   */\n      pop\n        /* \"#utility.yul\":2088:2696   */\n      pop\n      pop\n        /* \"#utility.yul\":1986:2696   */\n      swap4\n      swap3\n      pop\n      pop\n      pop\n      jump\t// out\n        /* \"#utility.yul\":2719:3089   */\n    tag_45:\n        /* \"#utility.yul\":2790:2795   */\n      0x00\n        /* \"#utility.yul\":2839:2842   */\n      dup3\n        /* \"#utility.yul\":2832:2836   */\n      0x1f\n        /* \"#utility.yul\":2824:2830   */\n      dup4\n        /* \"#utility.yul\":2820:2837   */\n      add\n        /* \"#utility.yul\":2816:2843   */\n      slt\n        /* \"#utility.yul\":2806:2928   */\n      tag_84\n      jumpi\n        /* \"#utility.yul\":2847:2926   */\n      tag_85\n      tag_34\n      jump\t// in\n    tag_85:\n        /* \"#utility.yul\":2806:2928   */\n    tag_84:\n        /* \"#utility.yul\":2964:2970   */\n      dup2\n        /* \"#utility.yul\":2951:2971   */\n      calldataload\n        /* \"#utility.yul\":2989:3083   */\n      tag_86\n        /* \"#utility.yul\":3079:3082   */\n      dup5\n        /* \"#utility.yul\":3071:3077   */\n      dup3\n        /* \"#utility.yul\":3064:3068   */\n      0x20\n        /* \"#utility.yul\":3056:3062   */\n      dup7\n        /* \"#utility.yul\":3052:3069   */\n      add\n        /* \"#utility.yul\":2989:3083   */\n      tag_44\n      jump\t// in\n    tag_86:\n        /* \"#utility.yul\":2980:3083   */\n      swap2\n      pop\n        /* \"#utility.yul\":2796:3089   */\n      pop\n        /* \"#utility.yul\":2719:3089   */\n      swap3\n      swap2\n      pop\n      pop\n      jump\t// out\n        /* \"#utility.yul\":3095:3779   */\n    tag_6:\n        /* \"#utility.yul\":3188:3194   */\n      0x00\n        /* \"#utility.yul\":3196:3202   */\n      0x00\n        /* \"#utility.yul\":3245:3247   */\n      0x40\n        /* \"#utility.yul\":3233:3242   */\n      dup4\n        /* \"#utility.yul\":3224:3231   */\n      dup6\n        /* \"#utility.yul\":3220:3243   */\n      sub\n        /* \"#utility.yul\":3216:3248   */\n      slt\n        /* \"#utility.yul\":3213:3332   */\n      iszero\n      tag_88\n      jumpi\n        /* \"#utility.yul\":3251:3330   */\n      tag_89\n      tag_32\n      jump\t// in\n    tag_89:\n        /* \"#utility.yul\":3213:3332   */\n    tag_88:\n        /* \"#utility.yul\":3399:3400   */\n      0x00\n        /* \"#utility.yul\":3388:3397   */\n      dup4\n        /* \"#utility.yul\":3384:3401   */\n      add\n        /* \"#utility.yul\":3371:3402   */\n      calldataload\n        /* \"#utility.yul\":3429:3447   */\n      0xffffffffffffffff\n        /* \"#utility.yul\":3421:3427   */\n      dup2\n        /* \"#utility.yul\":3418:3448   */\n      gt\n        /* \"#utility.yul\":3415:3532   */\n      iszero\n      tag_90\n      jumpi\n        /* \"#utility.yul\":3451:3530   */\n      tag_91\n      tag_33\n      jump\t// in\n    tag_91:\n        /* \"#utility.yul\":3415:3532   */\n    tag_90:\n        /* \"#utility.yul\":3556:3634   */\n      tag_92\n        /* \"#utility.yul\":3626:3633   */\n      dup6\n        /* \"#utility.yul\":3617:3623   */\n      dup3\n        /* \"#utility.yul\":3606:3615   */\n      dup7\n        /* \"#utility.yul\":3602:3624   */\n      add\n        /* \"#utility.yul\":3556:3634   */\n      tag_45\n      jump\t// in\n    tag_92:\n        /* \"#utility.yul\":3546:3634   */\n      swap3\n      pop\n        /* \"#utility.yul\":3342:3644   */\n      pop\n        /* \"#utility.yul\":3683:3685   */\n      0x20\n        /* \"#utility.yul\":3709:3762   */\n      tag_93\n        /* \"#utility.yul\":3754:3761   */\n      dup6\n        /* \"#utility.yul\":3745:3751   */\n      dup3\n        /* \"#utility.yul\":3734:3743   */\n      dup7\n        /* \"#utility.yul\":3730:3752   */\n      add\n        /* \"#utility.yul\":3709:3762   */\n      tag_43\n      jump\t// in\n    tag_93:\n        /* \"#utility.yul\":3699:3762   */\n      swap2\n      pop\n        /* \"#utility.yul\":3654:3772   */\n      pop\n        /* \"#utility.yul\":3095:3779   */\n      swap3\n      pop\n      swap3\n      swap1\n      pop\n      jump\t// out\n        /* \"#utility.yul\":3785:3861   */\n    tag_46:\n        /* \"#utility.yul\":3821:3828   */\n      0x00\n        /* \"#utility.yul\":3850:3855   */\n      dup2\n        /* \"#utility.yul\":3839:3855   */\n      swap1\n      pop\n        /* \"#utility.yul\":3785:3861   */\n      swap2\n      swap1\n      pop\n      jump\t// out\n        /* \"#utility.yul\":3867:3982   */\n    tag_47:\n        /* \"#utility.yul\":3952:3975   */\n      tag_96\n        /* \"#utility.yul\":3969:3974   */\n      dup2\n        /* \"#utility.yul\":3952:3975   */\n      tag_46\n      jump\t// in\n    tag_96:\n        /* \"#utility.yul\":3947:3950   */\n      dup3\n        /* \"#utility.yul\":3940:3976   */\n      mstore\n        /* \"#utility.yul\":3867:3982   */\n      pop\n      pop\n      jump\t// out\n        /* \"#utility.yul\":3988:4206   */\n    tag_9:\n        /* \"#utility.yul\":4079:4083   */\n      0x00\n        /* \"#utility.yul\":4117:4119   */\n      0x20\n        /* \"#utility.yul\":4106:4115   */\n      dup3\n        /* \"#utility.yul\":4102:4120   */\n      add\n        /* \"#utility.yul\":4094:4120   */\n      swap1\n      pop\n        /* \"#utility.yul\":4130:4199   */\n      tag_98\n        /* \"#utility.yul\":4196:4197   */\n      0x00\n        /* \"#utility.yul\":4185:4194   */\n      dup4\n        /* \"#utility.yul\":4181:4198   */\n      add\n        /* \"#utility.yul\":4172:4178   */\n      dup5\n        /* \"#utility.yul\":4130:4199   */\n      tag_47\n      jump\t// in\n    tag_98:\n        /* \"#utility.yul\":3988:4206   */\n      swap3\n      swap2\n      pop\n      pop\n      jump\t// out\n        /* \"#utility.yul\":4212:4392   */\n    tag_48:\n        /* \"#utility.yul\":4260:4337   */\n      0x4e487b7100000000000000000000000000000000000000000000000000000000\n        /* \"#utility.yul\":4257:4258   */\n      0x00\n        /* \"#utility.yul\":4250:4338   */\n      mstore\n        /* \"#utility.yul\":4357:4361   */\n      0x11\n        /* \"#utility.yul\":4354:4355   */\n      0x04\n        /* \"#utility.yul\":4347:4362   */\n      mstore\n        /* \"#utility.yul\":4381:4385   */\n      0x24\n        /* \"#utility.yul\":4378:4379   */\n      0x00\n        /* \"#utility.yul\":4371:4386   */\n      revert\n        /* \"#utility.yul\":4398:4592   */\n    tag_12:\n        /* \"#utility.yul\":4438:4442   */\n      0x00\n        /* \"#utility.yul\":4458:4478   */\n      tag_101\n        /* \"#utility.yul\":4476:4477   */\n      dup3\n        /* \"#utility.yul\":4458:4478   */\n      tag_41\n      jump\t// in\n    tag_101:\n        /* \"#utility.yul\":4453:4478   */\n      swap2\n      pop\n        /* \"#utility.yul\":4492:4512   */\n      tag_102\n        /* \"#utility.yul\":4510:4511   */\n      dup4\n        /* \"#utility.yul\":4492:4512   */\n      tag_41\n      jump\t// in\n    tag_102:\n        /* \"#utility.yul\":4487:4512   */\n      swap3\n      pop\n        /* \"#utility.yul\":4536:4537   */\n      dup3\n        /* \"#utility.yul\":4533:4534   */\n      dup3\n        /* \"#utility.yul\":4529:4538   */\n      sub\n        /* \"#utility.yul\":4521:4538   */\n      swap1\n      pop\n        /* \"#utility.yul\":4560:4561   */\n      dup2\n        /* \"#utility.yul\":4554:4558   */\n      dup2\n        /* \"#utility.yul\":4551:4562   */\n      gt\n        /* \"#utility.yul\":4548:4585   */\n      iszero\n      tag_103\n      jumpi\n        /* \"#utility.yul\":4565:4583   */\n      tag_104\n      tag_48\n      jump\t// in\n    tag_104:\n        /* \"#utility.yul\":4548:4585   */\n    tag_103:\n        /* \"#utility.yul\":4398:4592   */\n      swap3\n      swap2\n      pop\n      pop\n      jump\t// out\n        /* \"#utility.yul\":4598:4970   */\n    tag_16:\n        /* \"#utility.yul\":4637:4641   */\n      0x00\n        /* \"#utility.yul\":4657:4676   */\n      tag_106\n        /* \"#utility.yul\":4674:4675   */\n      dup3\n        /* \"#utility.yul\":4657:4676   */\n      tag_46\n      jump\t// in\n    tag_106:\n        /* \"#utility.yul\":4652:4676   */\n      swap2\n      pop\n        /* \"#utility.yul\":4690:4709   */\n      tag_107\n        /* \"#utility.yul\":4707:4708   */\n      dup4\n        /* \"#utility.yul\":4690:4709   */\n      tag_46\n      jump\t// in\n    tag_107:\n        /* \"#utility.yul\":4685:4709   */\n      swap3\n      pop\n        /* \"#utility.yul\":4733:4734   */\n      dup3\n        /* \"#utility.yul\":4730:4731   */\n      dup3\n        /* \"#utility.yul\":4726:4735   */\n      sub\n        /* \"#utility.yul\":4718:4735   */\n      swap1\n      pop\n        /* \"#utility.yul\":4927:4928   */\n      dup2\n        /* \"#utility.yul\":4921:4925   */\n      dup2\n        /* \"#utility.yul\":4917:4929   */\n      slt\n        /* \"#utility.yul\":4913:4914   */\n      0x00\n        /* \"#utility.yul\":4910:4911   */\n      dup5\n        /* \"#utility.yul\":4906:4915   */\n      slt\n        /* \"#utility.yul\":4902:4930   */\n      and\n        /* \"#utility.yul\":4885:4886   */\n      dup3\n        /* \"#utility.yul\":4879:4883   */\n      dup3\n        /* \"#utility.yul\":4875:4887   */\n      sgt\n        /* \"#utility.yul\":4870:4871   */\n      0x00\n        /* \"#utility.yul\":4867:4868   */\n      dup6\n        /* \"#utility.yul\":4863:4872   */\n      slt\n        /* \"#utility.yul\":4856:4873   */\n      iszero\n        /* \"#utility.yul\":4852:4888   */\n      and\n        /* \"#utility.yul\":4836:4940   */\n      or\n        /* \"#utility.yul\":4833:4963   */\n      iszero\n      tag_108\n      jumpi\n        /* \"#utility.yul\":4943:4961   */\n      tag_109\n      tag_48\n      jump\t// in\n    tag_109:\n        /* \"#utility.yul\":4833:4963   */\n    tag_108:\n        /* \"#utility.yul\":4598:4970   */\n      swap3\n      swap2\n      pop\n      pop\n      jump\t// out\n        /* \"#utility.yul\":4976:5156   */\n    tag_49:\n        /* \"#utility.yul\":5024:5101   */\n      0x4e487b7100000000000000000000000000000000000000000000000000000000\n        /* \"#utility.yul\":5021:5022   */\n      0x00\n        /* \"#utility.yul\":5014:5102   */\n      mstore\n        /* \"#utility.yul\":5121:5125   */\n      0x12\n        /* \"#utility.yul\":5118:5119   */\n      0x04\n        /* \"#utility.yul\":5111:5126   */\n      mstore\n        /* \"#utility.yul\":5145:5149   */\n      0x24\n        /* \"#utility.yul\":5142:5143   */\n      0x00\n        /* \"#utility.yul\":5135:5150   */\n      revert\n        /* \"#utility.yul\":5162:5547   */\n    tag_18:\n        /* \"#utility.yul\":5201:5202   */\n      0x00\n        /* \"#utility.yul\":5218:5237   */\n      tag_112\n        /* \"#utility.yul\":5235:5236   */\n      dup3\n        /* \"#utility.yul\":5218:5237   */\n      tag_46\n      jump\t// in\n    tag_112:\n        /* \"#utility.yul\":5213:5237   */\n      swap2\n      pop\n        /* \"#utility.yul\":5251:5270   */\n      tag_113\n        /* \"#utility.yul\":5268:5269   */\n      dup4\n        /* \"#utility.yul\":5251:5270   */\n      tag_46\n      jump\t// in\n    tag_113:\n        /* \"#utility.yul\":5246:5270   */\n      swap3\n      pop\n        /* \"#utility.yul\":5289:5290   */\n      dup3\n        /* \"#utility.yul\":5279:5314   */\n      tag_114\n      jumpi\n        /* \"#utility.yul\":5294:5312   */\n      tag_115\n      tag_49\n      jump\t// in\n    tag_115:\n        /* \"#utility.yul\":5279:5314   */\n    tag_114:\n        /* \"#utility.yul\":5480:5481   */\n      0x01\n        /* \"#utility.yul\":5477:5478   */\n      0x00\n        /* \"#utility.yul\":5473:5482   */\n      sub\n        /* \"#utility.yul\":5470:5471   */\n      dup4\n        /* \"#utility.yul\":5467:5483   */\n      eq\n        /* \"#utility.yul\":5386:5452   */\n      0x8000000000000000000000000000000000000000000000000000000000000000\n        /* \"#utility.yul\":5383:5384   */\n      dup4\n        /* \"#utility.yul\":5380:5453   */\n      eq\n        /* \"#utility.yul\":5363:5493   */\n      and\n        /* \"#utility.yul\":5360:5516   */\n      iszero\n      tag_116\n      jumpi\n        /* \"#utility.yul\":5496:5514   */\n      tag_117\n      tag_48\n      jump\t// in\n    tag_117:\n        /* \"#utility.yul\":5360:5516   */\n    tag_116:\n        /* \"#utility.yul\":5539:5540   */\n      dup3\n        /* \"#utility.yul\":5536:5537   */\n      dup3\n        /* \"#utility.yul\":5531:5541   */\n      sdiv\n        /* \"#utility.yul\":5526:5541   */\n      swap1\n      pop\n        /* \"#utility.yul\":5162:5547   */\n      swap3\n      swap2\n      pop\n      pop\n      jump\t// out\n        /* \"#utility.yul\":5553:5928   */\n    tag_20:\n        /* \"#utility.yul\":5592:5595   */\n      0x00\n        /* \"#utility.yul\":5611:5630   */\n      tag_119\n        /* \"#utility.yul\":5628:5629   */\n      dup3\n        /* \"#utility.yul\":5611:5630   */\n      tag_46\n      jump\t// in\n    tag_119:\n        /* \"#utility.yul\":5606:5630   */\n      swap2\n      pop\n        /* \"#utility.yul\":5644:5663   */\n      tag_120\n        /* \"#utility.yul\":5661:5662   */\n      dup4\n        /* \"#utility.yul\":5644:5663   */\n      tag_46\n      jump\t// in\n    tag_120:\n        /* \"#utility.yul\":5639:5663   */\n      swap3\n      pop\n        /* \"#utility.yul\":5686:5687   */\n      dup3\n        /* \"#utility.yul\":5683:5684   */\n      dup3\n        /* \"#utility.yul\":5679:5688   */\n      add\n        /* \"#utility.yul\":5672:5688   */\n      swap1\n      pop\n        /* \"#utility.yul\":5884:5885   */\n      dup3\n        /* \"#utility.yul\":5879:5882   */\n      dup2\n        /* \"#utility.yul\":5875:5886   */\n      slt\n        /* \"#utility.yul\":5868:5887   */\n      iszero\n        /* \"#utility.yul\":5864:5865   */\n      0x00\n        /* \"#utility.yul\":5861:5862   */\n      dup4\n        /* \"#utility.yul\":5857:5866   */\n      slt\n        /* \"#utility.yul\":5853:5888   */\n      and\n        /* \"#utility.yul\":5836:5837   */\n      dup4\n        /* \"#utility.yul\":5831:5834   */\n      dup3\n        /* \"#utility.yul\":5827:5838   */\n      slt\n        /* \"#utility.yul\":5822:5823   */\n      0x00\n        /* \"#utility.yul\":5819:5820   */\n      dup5\n        /* \"#utility.yul\":5815:5824   */\n      slt\n        /* \"#utility.yul\":5808:5825   */\n      iszero\n        /* \"#utility.yul\":5804:5839   */\n      and\n        /* \"#utility.yul\":5788:5898   */\n      or\n        /* \"#utility.yul\":5785:5921   */\n      iszero\n      tag_121\n      jumpi\n        /* \"#utility.yul\":5901:5919   */\n      tag_122\n      tag_48\n      jump\t// in\n    tag_122:\n        /* \"#utility.yul\":5785:5921   */\n    tag_121:\n        /* \"#utility.yul\":5553:5928   */\n      swap3\n      swap2\n      pop\n      pop\n      jump\t// out\n        /* \"#utility.yul\":5934:6114   */\n    tag_23:\n        /* \"#utility.yul\":5982:6059   */\n      0x4e487b7100000000000000000000000000000000000000000000000000000000\n        /* \"#utility.yul\":5979:5980   */\n      0x00\n        /* \"#utility.yul\":5972:6060   */\n      mstore\n        /* \"#utility.yul\":6079:6083   */\n      0x32\n        /* \"#utility.yul\":6076:6077   */\n      0x04\n        /* \"#utility.yul\":6069:6084   */\n      mstore\n        /* \"#utility.yul\":6103:6107   */\n      0x24\n        /* \"#utility.yul\":6100:6101   */\n      0x00\n        /* \"#utility.yul\":6093:6108   */\n      revert\n\n    auxdata: 0xa26469706673582212202faca38c209378cb161cf63ecc07d2998fe55acadae36b8032e48475c0463c5e64736f6c634300081e0033\n}\n",
				"bytecode": {
					"linkReferences": {},
					"object": "6080604052348015600e575f5ffd5b5061053d8061001c5f395ff3fe608060405234801561000f575f5ffd5b5060043610610029575f3560e01c8063b12601da1461002d575b5f5ffd5b610047600480360381019061004291906102d9565b61005d565b604051610054919061034b565b60405180910390f35b5f5f5f90505f600185516100719190610391565b90505b808213610119575f6002838361008a91906103c4565b6100949190610431565b8361009f9190610499565b9050848682815181106100b5576100b46104da565b5b6020026020010151036100cd5780935050505061013f565b848682815181106100e1576100e06104da565b5b60200260200101511015610103576001816100fc9190610499565b9250610113565b60018161011091906103c4565b91505b50610074565b7fffffffffffffffffffffffffffffffffffffffffffffffffffffffffffffffff925050505b92915050565b5f604051905090565b5f5ffd5b5f5ffd5b5f5ffd5b5f601f19601f8301169050919050565b7f4e487b71000000000000000000000000000000000000000000000000000000005f52604160045260245ffd5b6101a08261015a565b810181811067ffffffffffffffff821117156101bf576101be61016a565b5b80604052505050565b5f6101d1610145565b90506101dd8282610197565b919050565b5f67ffffffffffffffff8211156101fc576101fb61016a565b5b602082029050602081019050919050565b5f5ffd5b5f819050919050565b61022381610211565b811461022d575f5ffd5b50565b5f8135905061023e8161021a565b92915050565b5f610256610251846101e2565b6101c8565b905080838252602082019050602084028301858111156102795761027861020d565b5b835b818110156102a2578061028e8882610230565b84526020840193505060208101905061027b565b5050509392505050565b5f82601f8301126102c0576102bf610156565b5b81356102d0848260208601610244565b91505092915050565b5f5f604083850312156102ef576102ee61014e565b5b5f83013567ffffffffffffffff81111561030c5761030b610152565b5b610318858286016102ac565b925050602061032985828601610230565b9150509250929050565b5f819050919050565b61034581610333565b82525050565b5f60208201905061035e5f83018461033c565b92915050565b7f4e487b71000000000000000000000000000000000000000000000000000000005f52601160045260245ffd5b5f61039b82610211565b91506103a683610211565b92508282039050818111156103be576103bd610364565b5b92915050565b5f6103ce82610333565b91506103d983610333565b925082820390508181125f8412168282135f8512151617156103fe576103fd610364565b5b92915050565b7f4e487b71000000000000000000000000000000000000000000000000000000005f52601260045260245ffd5b5f61043b82610333565b915061044683610333565b92508261045657610455610404565b5b60015f0383147f80000000000000000000000000000000000000000000000000000000000000008314161561048e5761048d610364565b5b828205905092915050565b5f6104a382610333565b91506104ae83610333565b92508282019050828112155f8312168382125f8412151617156104d4576104d3610364565b5b92915050565b7f4e487b71000000000000000000000000000000000000000000000000000000005f52603260045260245ffdfea26469706673582212202faca38c209378cb161cf63ecc07d2998fe55acadae36b8032e48475c0463c5e64736f6c634300081e0033",
					"opcodes": "PUSH1 0x80 PUSH1 0x40 MSTORE CALLVALUE DUP1 ISZERO PUSH1 0xE JUMPI PUSH0 PUSH0 REVERT JUMPDEST POP PUSH2 0x53D DUP1 PUSH2 0x1C PUSH0 CODECOPY PUSH0 RETURN INVALID PUSH1 0x80 PUSH1 0x40 MSTORE CALLVALUE DUP1 ISZERO PUSH2 0xF JUMPI PUSH0 PUSH0 REVERT JUMPDEST POP PUSH1 0x4 CALLDATASIZE LT PUSH2 0x29 JUMPI PUSH0 CALLDATALOAD PUSH1 0xE0 SHR DUP1 PUSH4 0xB12601DA EQ PUSH2 0x2D JUMPI JUMPDEST PUSH0 PUSH0 REVERT JUMPDEST PUSH2 0x47 PUSH1 0x4 DUP1 CALLDATASIZE SUB DUP2 ADD SWAP1 PUSH2 0x42 SWAP2 SWAP1 PUSH2 0x2D9 JUMP JUMPDEST PUSH2 0x5D JUMP JUMPDEST PUSH1 0x40 MLOAD PUSH2 0x54 SWAP2 SWAP1 PUSH2 0x34B JUMP JUMPDEST PUSH1 0x40 MLOAD DUP1 SWAP2 SUB SWAP1 RETURN JUMPDEST PUSH0 PUSH0 PUSH0 SWAP1 POP PUSH0 PUSH1 0x1 DUP6 MLOAD PUSH2 0x71 SWAP2 SWAP1 PUSH2 0x391 JUMP JUMPDEST SWAP1 POP JUMPDEST DUP1 DUP3 SGT PUSH2 0x119 JUMPI PUSH0 PUSH1 0x2 DUP4 DUP4 PUSH2 0x8A SWAP2 SWAP1 PUSH2 0x3C4 JUMP JUMPDEST PUSH2 0x94 SWAP2 SWAP1 PUSH2 0x431 JUMP JUMPDEST DUP4 PUSH2 0x9F SWAP2 SWAP1 PUSH2 0x499 JUMP JUMPDEST SWAP1 POP DUP5 DUP7 DUP3 DUP2 MLOAD DUP2 LT PUSH2 0xB5 JUMPI PUSH2 0xB4 PUSH2 0x4DA JUMP JUMPDEST JUMPDEST PUSH1 0x20 MUL PUSH1 0x20 ADD ADD MLOAD SUB PUSH2 0xCD JUMPI DUP1 SWAP4 POP POP POP POP PUSH2 0x13F JUMP JUMPDEST DUP5 DUP7 DUP3 DUP2 MLOAD DUP2 LT PUSH2 0xE1 JUMPI PUSH2 0xE0 PUSH2 0x4DA JUMP JUMPDEST JUMPDEST PUSH1 0x20 MUL PUSH1 0x20 ADD ADD MLOAD LT ISZERO PUSH2 0x103 JUMPI PUSH1 0x1 DUP2 PUSH2 0xFC SWAP2 SWAP1 PUSH2 0x499 JUMP JUMPDEST SWAP3 POP PUSH2 0x113 JUMP JUMPDEST PUSH1 0x1 DUP2 PUSH2 0x110 SWAP2 SWAP1 PUSH2 0x3C4 JUMP JUMPDEST SWAP2 POP JUMPDEST POP PUSH2 0x74 JUMP JUMPDEST PUSH32 0xFFFFFFFFFFFFFFFFFFFFFFFFFFFFFFFFFFFFFFFFFFFFFFFFFFFFFFFFFFFFFFFF SWAP3 POP POP POP JUMPDEST SWAP3 SWAP2 POP POP JUMP JUMPDEST PUSH0 PUSH1 0x40 MLOAD SWAP1 POP SWAP1 JUMP JUMPDEST PUSH0 PUSH0 REVERT JUMPDEST PUSH0 PUSH0 REVERT JUMPDEST PUSH0 PUSH0 REVERT JUMPDEST PUSH0 PUSH1 0x1F NOT PUSH1 0x1F DUP4 ADD AND SWAP1 POP SWAP2 SWAP1 POP JUMP JUMPDEST PUSH32 0x4E487B7100000000000000000000000000000000000000000000000000000000 PUSH0 MSTORE PUSH1 0x41 PUSH1 0x4 MSTORE PUSH1 0x24 PUSH0 REVERT JUMPDEST PUSH2 0x1A0 DUP3 PUSH2 0x15A JUMP JUMPDEST DUP2 ADD DUP2 DUP2 LT PUSH8 0xFFFFFFFFFFFFFFFF DUP3 GT OR ISZERO PUSH2 0x1BF JUMPI PUSH2 0x1BE PUSH2 0x16A JUMP JUMPDEST JUMPDEST DUP1 PUSH1 0x40 MSTORE POP POP POP JUMP JUMPDEST PUSH0 PUSH2 0x1D1 PUSH2 0x145 JUMP JUMPDEST SWAP1 POP PUSH2 0x1DD DUP3 DUP3 PUSH2 0x197 JUMP JUMPDEST SWAP2 SWAP1 POP JUMP JUMPDEST PUSH0 PUSH8 0xFFFFFFFFFFFFFFFF DUP3 GT ISZERO PUSH2 0x1FC JUMPI PUSH2 0x1FB PUSH2 0x16A JUMP JUMPDEST JUMPDEST PUSH1 0x20 DUP3 MUL SWAP1 POP PUSH1 0x20 DUP2 ADD SWAP1 POP SWAP2 SWAP1 POP JUMP JUMPDEST PUSH0 PUSH0 REVERT JUMPDEST PUSH0 DUP2 SWAP1 POP SWAP2 SWAP1 POP JUMP JUMPDEST PUSH2 0x223 DUP2 PUSH2 0x211 JUMP JUMPDEST DUP2 EQ PUSH2 0x22D JUMPI PUSH0 PUSH0 REVERT JUMPDEST POP JUMP JUMPDEST PUSH0 DUP2 CALLDATALOAD SWAP1 POP PUSH2 0x23E DUP2 PUSH2 0x21A JUMP JUMPDEST SWAP3 SWAP2 POP POP JUMP JUMPDEST PUSH0 PUSH2 0x256 PUSH2 0x251 DUP5 PUSH2 0x1E2 JUMP JUMPDEST PUSH2 0x1C8 JUMP JUMPDEST SWAP1 POP DUP1 DUP4 DUP3 MSTORE PUSH1 0x20 DUP3 ADD SWAP1 POP PUSH1 0x20 DUP5 MUL DUP4 ADD DUP6 DUP2 GT ISZERO PUSH2 0x279 JUMPI PUSH2 0x278 PUSH2 0x20D JUMP JUMPDEST JUMPDEST DUP4 JUMPDEST DUP2 DUP2 LT ISZERO PUSH2 0x2A2 JUMPI DUP1 PUSH2 0x28E DUP9 DUP3 PUSH2 0x230 JUMP JUMPDEST DUP5 MSTORE PUSH1 0x20 DUP5 ADD SWAP4 POP POP PUSH1 0x20 DUP2 ADD SWAP1 POP PUSH2 0x27B JUMP JUMPDEST POP POP POP SWAP4 SWAP3 POP POP POP JUMP JUMPDEST PUSH0 DUP3 PUSH1 0x1F DUP4 ADD SLT PUSH2 0x2C0 JUMPI PUSH2 0x2BF PUSH2 0x156 JUMP JUMPDEST JUMPDEST DUP2 CALLDATALOAD PUSH2 0x2D0 DUP5 DUP3 PUSH1 0x20 DUP7 ADD PUSH2 0x244 JUMP JUMPDEST SWAP2 POP POP SWAP3 SWAP2 POP POP JUMP JUMPDEST PUSH0 PUSH0 PUSH1 0x40 DUP4 DUP6 SUB SLT ISZERO PUSH2 0x2EF JUMPI PUSH2 0x2EE PUSH2 0x14E JUMP JUMPDEST JUMPDEST PUSH0 DUP4 ADD CALLDATALOAD PUSH8 0xFFFFFFFFFFFFFFFF DUP2 GT ISZERO PUSH2 0x30C JUMPI PUSH2 0x30B PUSH2 0x152 JUMP JUMPDEST JUMPDEST PUSH2 0x318 DUP6 DUP3 DUP7 ADD PUSH2 0x2AC JUMP JUMPDEST SWAP3 POP POP PUSH1 0x20 PUSH2 0x329 DUP6 DUP3 DUP7 ADD PUSH2 0x230 JUMP JUMPDEST SWAP2 POP POP SWAP3 POP SWAP3 SWAP1 POP JUMP JUMPDEST PUSH0 DUP2 SWAP1 POP SWAP2 SWAP1 POP JUMP JUMPDEST PUSH2 0x345 DUP2 PUSH2 0x333 JUMP JUMPDEST DUP3 MSTORE POP POP JUMP JUMPDEST PUSH0 PUSH1 0x20 DUP3 ADD SWAP1 POP PUSH2 0x35E PUSH0 DUP4 ADD DUP5 PUSH2 0x33C JUMP JUMPDEST SWAP3 SWAP2 POP POP JUMP JUMPDEST PUSH32 0x4E487B7100000000000000000000000000000000000000000000000000000000 PUSH0 MSTORE PUSH1 0x11 PUSH1 0x4 MSTORE PUSH1 0x24 PUSH0 REVERT JUMPDEST PUSH0 PUSH2 0x39B DUP3 PUSH2 0x211 JUMP JUMPDEST SWAP2 POP PUSH2 0x3A6 DUP4 PUSH2 0x211 JUMP JUMPDEST SWAP3 POP DUP3 DUP3 SUB SWAP1 POP DUP2 DUP2 GT ISZERO PUSH2 0x3BE JUMPI PUSH2 0x3BD PUSH2 0x364 JUMP JUMPDEST JUMPDEST SWAP3 SWAP2 POP POP JUMP JUMPDEST PUSH0 PUSH2 0x3CE DUP3 PUSH2 0x333 JUMP JUMPDEST SWAP2 POP PUSH2 0x3D9 DUP4 PUSH2 0x333 JUMP JUMPDEST SWAP3 POP DUP3 DUP3 SUB SWAP1 POP DUP2 DUP2 SLT PUSH0 DUP5 SLT AND DUP3 DUP3 SGT PUSH0 DUP6 SLT ISZERO AND OR ISZERO PUSH2 0x3FE JUMPI PUSH2 0x3FD PUSH2 0x364 JUMP JUMPDEST JUMPDEST SWAP3 SWAP2 POP POP JUMP JUMPDEST PUSH32 0x4E487B7100000000000000000000000000000000000000000000000000000000 PUSH0 MSTORE PUSH1 0x12 PUSH1 0x4 MSTORE PUSH1 0x24 PUSH0 REVERT JUMPDEST PUSH0 PUSH2 0x43B DUP3 PUSH2 0x333 JUMP JUMPDEST SWAP2 POP PUSH2 0x446 DUP4 PUSH2 0x333 JUMP JUMPDEST SWAP3 POP DUP3 PUSH2 0x456 JUMPI PUSH2 0x455 PUSH2 0x404 JUMP JUMPDEST JUMPDEST PUSH1 0x1 PUSH0 SUB DUP4 EQ PUSH32 0x8000000000000000000000000000000000000000000000000000000000000000 DUP4 EQ AND ISZERO PUSH2 0x48E JUMPI PUSH2 0x48D PUSH2 0x364 JUMP JUMPDEST JUMPDEST DUP3 DUP3 SDIV SWAP1 POP SWAP3 SWAP2 POP POP JUMP JUMPDEST PUSH0 PUSH2 0x4A3 DUP3 PUSH2 0x333 JUMP JUMPDEST SWAP2 POP PUSH2 0x4AE DUP4 PUSH2 0x333 JUMP JUMPDEST SWAP3 POP DUP3 DUP3 ADD SWAP1 POP DUP3 DUP2 SLT ISZERO PUSH0 DUP4 SLT AND DUP4 DUP3 SLT PUSH0 DUP5 SLT ISZERO AND OR ISZERO PUSH2 0x4D4 JUMPI PUSH2 0x4D3 PUSH2 0x364 JUMP JUMPDEST JUMPDEST SWAP3 SWAP2 POP POP JUMP JUMPDEST PUSH32 0x4E487B7100000000000000000000000000000000000000000000000000000000 PUSH0 MSTORE PUSH1 0x32 PUSH1 0x4 MSTORE PUSH1 0x24 PUSH0 REVERT INVALID LOG2 PUSH5 0x6970667358 0x22 SLT KECCAK256 0x2F 0xAC LOG3 DUP13 KECCAK256 SWAP4 PUSH25 0xCB161CF63ECC07D2998FE55ACADAE36B8032E48475C0463C5E PUSH5 0x736F6C6343 STOP ADDMOD 0x1E STOP CALLER "
				},
				"gasEstimates": {
					"creation": {
						"codeDepositCost": "268200",
						"executionCost": "304",
						"totalCost": "268504"
					},
					"external": {
						"binarySearch(uint256[],uint256)": "infinite"
					}
				},
				"methodIdentifiers": {
					"binarySearch(uint256[],uint256)": "b12601da"
				}
			},
			"storageLayout": {
				"storage": [],
				"types": null
			},
			"userdoc": {
				"kind": "user",
				"methods": {},
				"version": 1
			}
		}
	}
}